{
  "abi": [
    {
      "inputs": [
        {
          "internalType": "address payable[]",
          "name": "to",
          "type": "address[]"
        }
      ],
      "name": "transfer",
      "outputs": [],
      "stateMutability": "payable",
      "type": "function"
    }
  ],
  "address": "0x5aCDb98DE55Eb97676AeE4E05208ABD8F9C05F81",
  "args": [],
  "bytecode": "0x608060405234801561001057600080fd5b50610191806100206000396000f3fe60806040526004361061001e5760003560e01c8063a06c1a3314610023575b600080fd5b6100936004803603602081101561003957600080fd5b81019060208101813564010000000081111561005457600080fd5b82018360208201111561006657600080fd5b8035906020019184602083028401116401000000008311171561008857600080fd5b509092509050610095565b005b8060008134816100a157fe5b04905034818302146100ec576040805162461bcd60e51b815260206004820152600f60248201526e696e636f72726563742076616c756560881b604482015290519081900360640190fd5b60005b828110156101545784848281811061010357fe5b905060200201356001600160a01b03166001600160a01b03166108fc839081150290604051600060405180830381858888f1935050505015801561014b573d6000803e3d6000fd5b506001016100ef565b505050505056fea264697066735822122088abb8154c8bb477b164909b135e707cc23b814019c4e8467db990671d44822e64736f6c63430006050033",
  "devdoc": {
    "methods": {}
  },
  "userdoc": {
    "methods": {}
  },
  "storageLayout": {
    "storage": [],
    "types": null
  }
}