{
  "abi": [
    {
      "anonymous": false,
      "inputs": [
        {
          "indexed": false,
          "internalType": "uint256",
          "name": "blockNumber",
          "type": "uint256"
        }
      ],
      "name": "HashRequest",
      "type": "event"
    },
    {
      "inputs": [
        {
          "internalType": "uint256",
          "name": "blockNumber",
          "type": "uint256"
        }
      ],
      "name": "get",
      "outputs": [
        {
          "internalType": "bytes32",
          "name": "",
          "type": "bytes32"
        }
      ],
      "stateMutability": "view",
      "type": "function"
    },
    {
      "inputs": [],
      "name": "getBlockToActualise",
      "outputs": [
        {
          "internalType": "uint256",
          "name": "",
          "type": "uint256"
        }
      ],
      "stateMutability": "view",
      "type": "function"
    },
    {
      "inputs": [
        {
          "internalType": "uint256",
          "name": "blockNumber",
          "type": "uint256"
        }
      ],
      "name": "getOrCompute",
      "outputs": [
        {
          "internalType": "bytes32",
          "name": "",
          "type": "bytes32"
        }
      ],
      "stateMutability": "view",
      "type": "function"
    },
    {
      "inputs": [],
      "name": "request",
      "outputs": [],
      "stateMutability": "nonpayable",
      "type": "function"
    },
    {
      "inputs": [],
      "name": "save",
      "outputs": [],
      "stateMutability": "nonpayable",
      "type": "function"
    }
  ],
  "address": "0x51fda7b0eb97Eb168580CEBB12b1E2CDE0FC55ba",
  "args": [],
  "bytecode": "0x608060405234801561001057600080fd5b50610216806100206000396000f3fe608060405234801561001057600080fd5b50600436106100575760003560e01c8063338cdca11461005c57806342dad49e14610066578063803ee1d91461006e5780639507d39a1461009d578063d88d7f46146100ba575b600080fd5b6100646100c2565b005b610064610113565b61008b6004803603602081101561008457600080fd5b5035610130565b60408051918252519081900360200190f35b61008b600480360360208110156100b357600080fd5b503561015d565b61008b61016f565b60015443811015610110576100d681610175565b5043600181905560408051918252517fa21755eabd8128750f344a2d1ce0cd3e1a2f2eb74ac9642568c437ca76f9005a9181900360200190a15b50565b600154438110156101105761012781610175565b50600060015550565b600081815260208190526040812054806101555761014d8361019a565b915050610158565b90505b919050565b60009081526020819052604090205490565b60015490565b6000806101818361019a565b6000848152602081905260409020819055915050919050565b60006101008210806101af5750610100430382115b156101bc57508040610158565b6000610100600184430303816101ce57fe5b0643036001019050804091505061015856fea264697066735822122088310bdc683857f3a4d609933acdb151acf9fe71be0f83493069075eace0ab9564736f6c63430006050033",
  "devdoc": {
    "methods": {}
  },
  "userdoc": {
    "methods": {}
  },
  "storageLayout": {
    "storage": [
      {
        "astId": 11995,
        "contract": "src/utils/BlockHashRegister.sol:BlockHashRegister",
        "label": "_blockHashes",
        "offset": 0,
        "slot": "0",
        "type": "t_mapping(t_uint256,t_bytes32)"
      },
      {
        "astId": 11997,
        "contract": "src/utils/BlockHashRegister.sol:BlockHashRegister",
        "label": "_blockToActualise",
        "offset": 0,
        "slot": "1",
        "type": "t_uint256"
      }
    ],
    "types": {
      "t_bytes32": {
        "encoding": "inplace",
        "label": "bytes32",
        "numberOfBytes": "32"
      },
      "t_mapping(t_uint256,t_bytes32)": {
        "encoding": "mapping",
        "key": "t_uint256",
        "label": "mapping(uint256 => bytes32)",
        "numberOfBytes": "32",
        "value": "t_bytes32"
      },
      "t_uint256": {
        "encoding": "inplace",
        "label": "uint256",
        "numberOfBytes": "32"
      }
    }
  }
}