{
  "abi": [
    {
      "inputs": [
        {
          "internalType": "address",
          "name": "backendAddress",
          "type": "address"
        }
      ],
      "stateMutability": "nonpayable",
      "type": "constructor"
    },
    {
      "inputs": [
        {
          "internalType": "uint256",
          "name": "id",
          "type": "uint256"
        },
        {
          "internalType": "address[]",
          "name": "players",
          "type": "address[]"
        },
        {
          "internalType": "uint256[]",
          "name": "amounts",
          "type": "uint256[]"
        }
      ],
      "name": "batchMineVaultElements",
      "outputs": [],
      "stateMutability": "nonpayable",
      "type": "function"
    },
    {
      "inputs": [
        {
          "internalType": "uint256",
          "name": "characterId",
          "type": "uint256"
        },
        {
          "internalType": "uint256",
          "name": "monsterId",
          "type": "uint256"
        }
      ],
      "name": "characterDefeated",
      "outputs": [],
      "stateMutability": "nonpayable",
      "type": "function"
    },
    {
      "inputs": [
        {
          "internalType": "uint256",
          "name": "characterId",
          "type": "uint256"
        },
        {
          "internalType": "uint256",
          "name": "monsterId",
          "type": "uint256"
        },
        {
          "internalType": "int16",
          "name": "hpChange",
          "type": "int16"
        },
        {
          "internalType": "int16",
          "name": "elemChange",
          "type": "int16"
        }
      ],
      "name": "characterEscaped",
      "outputs": [],
      "stateMutability": "nonpayable",
      "type": "function"
    },
    {
      "inputs": [
        {
          "internalType": "address",
          "name": "to",
          "type": "address"
        },
        {
          "internalType": "bytes",
          "name": "data",
          "type": "bytes"
        }
      ],
      "name": "forward",
      "outputs": [
        {
          "internalType": "bool",
          "name": "success",
          "type": "bool"
        }
      ],
      "stateMutability": "payable",
      "type": "function"
    },
    {
      "inputs": [
        {
          "internalType": "uint256",
          "name": "location",
          "type": "uint256"
        },
        {
          "internalType": "address",
          "name": "benefactor",
          "type": "address"
        },
        {
          "internalType": "uint16[8]",
          "name": "income",
          "type": "uint16[8]"
        }
      ],
      "name": "generateRoomIncome",
      "outputs": [],
      "stateMutability": "nonpayable",
      "type": "function"
    },
    {
      "inputs": [],
      "name": "getDungeonAndBackendAddress",
      "outputs": [
        {
          "internalType": "contract DungeonAdminFacet",
          "name": "dungeon",
          "type": "address"
        },
        {
          "internalType": "address",
          "name": "backendAddress",
          "type": "address"
        }
      ],
      "stateMutability": "view",
      "type": "function"
    },
    {
      "inputs": [
        {
          "internalType": "uint256",
          "name": "location",
          "type": "uint256"
        },
        {
          "internalType": "uint256",
          "name": "monsterId",
          "type": "uint256"
        },
        {
          "components": [
            {
              "internalType": "uint256",
              "name": "characterId",
              "type": "uint256"
            },
            {
              "internalType": "int16",
              "name": "hpChange",
              "type": "int16"
            },
            {
              "internalType": "uint16",
              "name": "xpGained",
              "type": "uint16"
            },
            {
              "internalType": "uint256",
              "name": "gear",
              "type": "uint256"
            },
            {
              "internalType": "int64",
              "name": "durabilityChange",
              "type": "int64"
            },
            {
              "internalType": "int16[8]",
              "name": "balanceChange",
              "type": "int16[8]"
            }
          ],
          "internalType": "struct DungeonAdmin.MonsterReward[]",
          "name": "rewards",
          "type": "tuple[]"
        }
      ],
      "name": "monsterDefeated",
      "outputs": [],
      "stateMutability": "nonpayable",
      "type": "function"
    },
    {
      "inputs": [
        {
          "internalType": "contract DungeonAdminFacet",
          "name": "dungeon",
          "type": "address"
        },
        {
          "internalType": "address",
          "name": "backendAddress",
          "type": "address"
        }
      ],
      "name": "setDungeonAndBackend",
      "outputs": [],
      "stateMutability": "nonpayable",
      "type": "function"
    },
    {
      "inputs": [
        {
          "internalType": "uint256",
          "name": "characterId",
          "type": "uint256"
        },
        {
          "internalType": "uint256",
          "name": "location",
          "type": "uint256"
        }
      ],
      "name": "teleportCharacter",
      "outputs": [],
      "stateMutability": "nonpayable",
      "type": "function"
    },
    {
      "inputs": [
        {
          "internalType": "uint256",
          "name": "characterId",
          "type": "uint256"
        },
        {
          "internalType": "uint256",
          "name": "monsterId",
          "type": "uint256"
        },
        {
          "internalType": "int16",
          "name": "hpChange",
          "type": "int16"
        },
        {
          "internalType": "uint16",
          "name": "xpGained",
          "type": "uint16"
        },
        {
          "internalType": "uint256",
          "name": "gear",
          "type": "uint256"
        },
        {
          "internalType": "int64",
          "name": "durabilityChange",
          "type": "int64"
        },
        {
          "internalType": "int16[8]",
          "name": "balanceChange",
          "type": "int16[8]"
        }
      ],
      "name": "updateCharacter",
      "outputs": [],
      "stateMutability": "nonpayable",
      "type": "function"
    },
    {
      "inputs": [
        {
          "internalType": "uint256",
          "name": "character",
          "type": "uint256"
        },
        {
          "internalType": "uint64",
          "name": "id",
          "type": "uint64"
        },
        {
          "internalType": "uint8",
          "name": "status",
          "type": "uint8"
        },
        {
          "internalType": "string",
          "name": "data",
          "type": "string"
        }
      ],
      "name": "updateQuest",
      "outputs": [],
      "stateMutability": "nonpayable",
      "type": "function"
    },
    {
      "inputs": [
        {
          "internalType": "uint256",
          "name": "character",
          "type": "uint256"
        },
        {
          "internalType": "uint256",
          "name": "location",
          "type": "uint256"
        },
        {
          "internalType": "uint256",
          "name": "data",
          "type": "uint256"
        },
        {
          "internalType": "uint256[8]",
          "name": "amountsPayed",
          "type": "uint256[8]"
        }
      ],
      "name": "updateRoomData",
      "outputs": [],
      "stateMutability": "nonpayable",
      "type": "function"
    }
  ],
  "address": "0xdAb10D88a6908Fadd62EdD88158Aad283bB4Bd2D",
  "args": [
    "0xC92aE171cb9AEfEbcB88cdB40ba508e81F30AE1b"
  ],
  "bytecode": "0x608060405234801561001057600080fd5b506040516111e73803806111e783398101604081905261002f91610054565b600180546001600160a01b0319166001600160a01b0392909216919091179055610082565b600060208284031215610065578081fd5b81516001600160a01b038116811461007b578182fd5b9392505050565b611156806100916000396000f3fe6080604052600436106100a75760003560e01c80636fadcf72116100645780636fadcf721461017a5780639434e4e81461019a578063ab536060146101ba578063b2f2dff9146101da578063d8468f8f146101fa578063e6d48fe71461021a576100a7565b80630604ba13146100ac5780633090f658146100ce57806336057a7e146100ee578063398f21681461010e5780633ec371131461012e5780635dad2bb71461015a575b600080fd5b3480156100b857600080fd5b506100cc6100c7366004610cca565b61023a565b005b3480156100da57600080fd5b506100cc6100e9366004610a8d565b6102e4565b3480156100fa57600080fd5b506100cc610109366004610c00565b61033c565b34801561011a57600080fd5b506100cc610129366004610b68565b610500565b34801561013a57600080fd5b5061014361059b565b604051610151929190610e9e565b60405180910390f35b34801561016657600080fd5b506100cc610175366004610c81565b6105b2565b61018d6101883660046109b6565b610648565b6040516101519190610e93565b3480156101a657600080fd5b506100cc6101b5366004610d86565b610704565b3480156101c657600080fd5b506100cc6101d5366004610bdf565b610766565b3480156101e657600080fd5b506100cc6101f5366004610d46565b6107f8565b34801561020657600080fd5b506100cc610215366004610b29565b610858565b34801561022657600080fd5b506100cc610235366004610bdf565b6108ed565b6001546001600160a01b0316331461026d5760405162461bcd60e51b815260040161026490610eb8565b60405180910390fd5b600054604051630604ba1360e01b81526001600160a01b0390911690630604ba13906102a9908a908a908a908a908a908a908a90600401610ff9565b600060405180830381600087803b1580156102c357600080fd5b505af11580156102d7573d6000803e3d6000fd5b5050505050505050505050565b6001546001600160a01b0316331461030e5760405162461bcd60e51b815260040161026490610eb8565b600080546001600160a01b039384166001600160a01b03199182161790915560018054929093169116179055565b6001546001600160a01b031633146103665760405162461bcd60e51b815260040161026490610eb8565b600054604051637507a1c960e01b81526001600160a01b0390911690637507a1c990610396908790600401610ee8565b600060405180830381600087803b1580156103b057600080fd5b505af11580156103c4573d6000803e3d6000fd5b506000925050505b818110156104f9576000546001600160a01b0316630604ba138484848181106103f157fe5b90506101a00201600001358686868681811061040957fe5b90506101a0020160200160208101906104229190610ac5565b87878781811061042e57fe5b90506101a0020160400160208101906104479190610b07565b88888881811061045357fe5b90506101a002016060013589898981811061046a57fe5b90506101a0020160800160208101906104839190610ae6565b8a8a8a81811061048f57fe5b90506101a0020160a0016040518863ffffffff1660e01b81526004016104bb9796959493929190610ff9565b600060405180830381600087803b1580156104d557600080fd5b505af11580156104e9573d6000803e3d6000fd5b5050600190920191506103cc9050565b5050505050565b6001546001600160a01b0316331461052a5760405162461bcd60e51b815260040161026490610eb8565b600054604051630731e42d60e31b81526001600160a01b039091169063398f2168906105629088908890889088908890600401610f4b565b600060405180830381600087803b15801561057c57600080fd5b505af1158015610590573d6000803e3d6000fd5b505050505050505050565b6000546001546001600160a01b0391821692911690565b6001546001600160a01b031633146105dc5760405162461bcd60e51b815260040161026490610eb8565b60005460405163cf747b4960e01b81526001600160a01b039091169063cf747b499061061090879087908790600401610fe0565b600060405180830381600087803b15801561062a57600080fd5b505af115801561063e573d6000803e3d6000fd5b5050505050505050565b6001546000906001600160a01b031633146106755760405162461bcd60e51b815260040161026490610eb8565b6000546040516337d6e7b960e11b81526001600160a01b0390911690636fadcf729034906106a99087908790600401610e30565b6020604051808303818588803b1580156106c257600080fd5b505af11580156106d6573d6000803e3d6000fd5b50505050506040513d601f19601f820116820180604052508101906106fb9190610a66565b90505b92915050565b6001546001600160a01b0316331461072e5760405162461bcd60e51b815260040161026490610eb8565b6000546040516312869c9d60e31b81526001600160a01b0390911690639434e4e890610562908890889088908890889060040161109c565b6001546001600160a01b031633146107905760405162461bcd60e51b815260040161026490610eb8565b60005460405163055a9b0360e51b81526001600160a01b039091169063ab536060906107c29085908590600401610fd2565b600060405180830381600087803b1580156107dc57600080fd5b505af11580156107f0573d6000803e3d6000fd5b505050505050565b6001546001600160a01b031633146108225760405162461bcd60e51b815260040161026490610eb8565b60005460405163b2f2dff960e01b81526001600160a01b039091169063b2f2dff990610610908790879087908790600401611070565b6001546001600160a01b031633146108825760405162461bcd60e51b815260040161026490610eb8565b60005460405163d8468f8f60e01b81526001600160a01b039091169063d8468f8f906108b690869086908690600401610ef1565b600060405180830381600087803b1580156108d057600080fd5b505af11580156108e4573d6000803e3d6000fd5b50505050505050565b6001546001600160a01b031633146109175760405162461bcd60e51b815260040161026490610eb8565b60005460405163e6d48fe760e01b81526001600160a01b039091169063e6d48fe7906107c29085908590600401610fd2565b60008083601f84011261095a578182fd5b50813567ffffffffffffffff811115610971578182fd5b602083019150836020808302850101111561098b57600080fd5b9250929050565b8061010081018310156106fe57600080fd5b803561ffff811681146106fe57600080fd5b600080604083850312156109c8578182fd5b82356109d3816110f9565b9150602083013567ffffffffffffffff808211156109ef578283fd5b81850186601f820112610a00578384fd5b8035925081831115610a10578384fd5b604051601f8401601f191681016020018381118282101715610a30578586fd5b604052838152818401602001881015610a47578485fd5b610a588460208301602085016110ed565b809450505050509250929050565b600060208284031215610a77578081fd5b81518015158114610a86578182fd5b9392505050565b60008060408385031215610a9f578182fd5b8235610aaa816110f9565b91506020830135610aba816110f9565b809150509250929050565b600060208284031215610ad6578081fd5b81358060010b8114610a86578182fd5b600060208284031215610af7578081fd5b81358060070b8114610a86578182fd5b600060208284031215610b18578081fd5b813561ffff81168114610a86578182fd5b60008060006101408486031215610b3e578081fd5b833592506020840135610b50816110f9565b9150610b5f8560408601610992565b90509250925092565b600080600080600060608688031215610b7f578081fd5b85359450602086013567ffffffffffffffff80821115610b9d578283fd5b610ba989838a01610949565b90965094506040880135915080821115610bc1578283fd5b50610bce88828901610949565b969995985093965092949392505050565b60008060408385031215610bf1578182fd5b50508035926020909101359150565b60008060008060608587031215610c15578182fd5b8435935060208501359250604085013567ffffffffffffffff80821115610c3a578384fd5b81870188601f820112610c4b578485fd5b8035925081831115610c5b578485fd5b8860206101a085028301011115610c70578485fd5b959894975050602090940194505050565b60008060008060808587031215610c96578182fd5b84359350602085013592506040850135610caf81611111565b91506060850135610cbf81611111565b939692955090935050565b60008060008060008060006101c0888a031215610ce5578485fd5b87359650602088013595506040880135610cfe81611111565b9450610d0d8960608a016109a4565b93506080880135925060a08801358060070b8114610d29578283fd5b9150610d388960c08a01610992565b905092959891949750929550565b6000806000806101608587031215610d5c578182fd5b843593506020850135925060408501359150610d7b8660608701610992565b905092959194509250565b600080600080600060808688031215610d9d578283fd5b85359450602086013567ffffffffffffffff8082168214610dbc578485fd5b90945060408701359060ff82168214610dd3578485fd5b90935060608701359080821115610de8578283fd5b81880189601f820112610df9578384fd5b8035925081831115610e09578384fd5b896020848301011115610e1a578384fd5b6020810194505050809150509295509295909350565b600060018060a01b038416825260206040818401528351806040850152825b81811015610e6b57858101830151858201606001528201610e4f565b81811115610e7c5783606083870101525b50601f01601f191692909201606001949350505050565b901515815260200190565b6001600160a01b0392831681529116602082015260400190565b6020808252601690820152751393d517d055551213d49256915117d09050d2d1539160521b604082015260600190565b90815260200190565b8381526001600160a01b038316602080830191909152610140820190604083018460005b6008811015610f3f5783820161ffff610f2e82856109a4565b168452928401929150600101610f15565b50505050949350505050565b85815260606020808301829052908201859052600090869060808401835b88811015610f97578335610f7c816110f9565b6001600160a01b031682529282019290820190600101610f69565b5084810360408601528581526001600160fb1b03861115610fb6578384fd5b8186029250828783830137909101019081529695505050505050565b918252602082015260400190565b928352602083019190915260010b604082015260600190565b8781526020808201889052600187810b604084015261ffff8716606084015260808301869052600785900b60a08401526101c08301919060c084018560005b600881101561105f57813561104c81611111565b840b835291840191908401908301611038565b505050505098975050505050505050565b848152602081018490526040810183905261016081016101008360608401376000815295945050505050565b600086825267ffffffffffffffff8616602083015260ff8516604083015260806060830152826080830152828460a084013781830160a090810191909152601f909201601f19160101949350505050565b82818337506000910152565b6001600160a01b038116811461110e57600080fd5b50565b8060010b811461110e57600080fdfea26469706673582212201cfde12ff320acfe82b8ba5195a57e26a57744afccc11d9f6c201caf60aeed1c64736f6c63430006050033",
  "devdoc": {
    "methods": {}
  },
  "userdoc": {
    "methods": {}
  },
  "storageLayout": {
    "storage": [
      {
        "astId": 1028,
        "contract": "src/dungeon/DungeonAdmin.sol:DungeonAdmin",
        "label": "_dungeon",
        "offset": 0,
        "slot": "0",
        "type": "t_contract(DungeonAdminFacet)2285"
      },
      {
        "astId": 1030,
        "contract": "src/dungeon/DungeonAdmin.sol:DungeonAdmin",
        "label": "_backendAddress",
        "offset": 0,
        "slot": "1",
        "type": "t_address"
      }
    ],
    "types": {
      "t_address": {
        "encoding": "inplace",
        "label": "address",
        "numberOfBytes": "20"
      },
      "t_contract(DungeonAdminFacet)2285": {
        "encoding": "inplace",
        "label": "contract DungeonAdminFacet",
        "numberOfBytes": "20"
      }
    }
  }
}