{
  "abi": [
    {
      "anonymous": false,
      "inputs": [
        {
          "indexed": true,
          "internalType": "uint256",
          "name": "characterId",
          "type": "uint256"
        },
        {
          "indexed": true,
          "internalType": "uint256",
          "name": "oldLocation",
          "type": "uint256"
        },
        {
          "indexed": true,
          "internalType": "uint256",
          "name": "newLocation",
          "type": "uint256"
        },
        {
          "indexed": false,
          "internalType": "uint8",
          "name": "mode",
          "type": "uint8"
        },
        {
          "indexed": false,
          "internalType": "uint256",
          "name": "path",
          "type": "uint256"
        }
      ],
      "name": "CharacterMoved",
      "type": "event"
    },
    {
      "anonymous": false,
      "inputs": [
        {
          "indexed": true,
          "internalType": "uint256",
          "name": "characterId",
          "type": "uint256"
        },
        {
          "indexed": false,
          "internalType": "uint256",
          "name": "monsterId",
          "type": "uint256"
        }
      ],
      "name": "Death",
      "type": "event"
    },
    {
      "anonymous": false,
      "inputs": [
        {
          "indexed": true,
          "internalType": "uint256",
          "name": "characterId",
          "type": "uint256"
        },
        {
          "indexed": true,
          "internalType": "address",
          "name": "player",
          "type": "address"
        },
        {
          "indexed": false,
          "internalType": "string",
          "name": "name",
          "type": "string"
        }
      ],
      "name": "Enter",
      "type": "event"
    },
    {
      "anonymous": false,
      "inputs": [
        {
          "indexed": false,
          "internalType": "uint256",
          "name": "characterId",
          "type": "uint256"
        },
        {
          "indexed": false,
          "internalType": "uint256",
          "name": "gearId",
          "type": "uint256"
        },
        {
          "indexed": false,
          "internalType": "uint8",
          "name": "slotType",
          "type": "uint8"
        }
      ],
      "name": "Equip",
      "type": "event"
    },
    {
      "anonymous": false,
      "inputs": [
        {
          "indexed": true,
          "internalType": "uint256",
          "name": "characterId",
          "type": "uint256"
        },
        {
          "indexed": false,
          "internalType": "uint16",
          "name": "hp",
          "type": "uint16"
        }
      ],
      "name": "Heal",
      "type": "event"
    },
    {
      "anonymous": false,
      "inputs": [
        {
          "indexed": true,
          "internalType": "uint256",
          "name": "characterId",
          "type": "uint256"
        },
        {
          "indexed": false,
          "internalType": "uint16",
          "name": "newLevel",
          "type": "uint16"
        }
      ],
      "name": "LevelUp",
      "type": "event"
    },
    {
      "anonymous": false,
      "inputs": [
        {
          "indexed": true,
          "internalType": "uint256",
          "name": "characterId",
          "type": "uint256"
        },
        {
          "indexed": true,
          "internalType": "uint64",
          "name": "id",
          "type": "uint64"
        },
        {
          "indexed": true,
          "internalType": "uint8",
          "name": "status",
          "type": "uint8"
        },
        {
          "indexed": false,
          "internalType": "string",
          "name": "data",
          "type": "string"
        }
      ],
      "name": "QuestUpdate",
      "type": "event"
    },
    {
      "anonymous": false,
      "inputs": [
        {
          "indexed": true,
          "internalType": "uint256",
          "name": "areaLocation",
          "type": "uint256"
        },
        {
          "indexed": false,
          "internalType": "uint64",
          "name": "blockNumber",
          "type": "uint64"
        }
      ],
      "name": "RandomEvent",
      "type": "event"
    },
    {
      "anonymous": false,
      "inputs": [
        {
          "indexed": true,
          "internalType": "uint256",
          "name": "characterId",
          "type": "uint256"
        },
        {
          "indexed": false,
          "internalType": "uint256",
          "name": "gearId",
          "type": "uint256"
        }
      ],
      "name": "Recycle",
      "type": "event"
    },
    {
      "anonymous": false,
      "inputs": [
        {
          "indexed": true,
          "internalType": "uint256",
          "name": "deadCharacterId",
          "type": "uint256"
        },
        {
          "indexed": false,
          "internalType": "uint256",
          "name": "newCharacterId",
          "type": "uint256"
        }
      ],
      "name": "Resurrect",
      "type": "event"
    },
    {
      "anonymous": false,
      "inputs": [
        {
          "indexed": true,
          "internalType": "uint256",
          "name": "location",
          "type": "uint256"
        },
        {
          "indexed": false,
          "internalType": "bytes32",
          "name": "blockHash",
          "type": "bytes32"
        },
        {
          "indexed": false,
          "internalType": "uint8",
          "name": "exits",
          "type": "uint8"
        },
        {
          "indexed": false,
          "internalType": "uint8",
          "name": "kind",
          "type": "uint8"
        }
      ],
      "name": "RoomActualised",
      "type": "event"
    },
    {
      "anonymous": false,
      "inputs": [
        {
          "indexed": true,
          "internalType": "uint256",
          "name": "location",
          "type": "uint256"
        },
        {
          "indexed": false,
          "internalType": "uint64",
          "name": "blockNumber",
          "type": "uint64"
        },
        {
          "indexed": false,
          "internalType": "uint8",
          "name": "direction",
          "type": "uint8"
        }
      ],
      "name": "RoomDiscovered",
      "type": "event"
    },
    {
      "anonymous": false,
      "inputs": [
        {
          "indexed": true,
          "internalType": "uint256",
          "name": "location",
          "type": "uint256"
        },
        {
          "indexed": true,
          "internalType": "address",
          "name": "owner",
          "type": "address"
        },
        {
          "indexed": false,
          "internalType": "uint256",
          "name": "id",
          "type": "uint256"
        },
        {
          "indexed": false,
          "internalType": "uint256",
          "name": "amount",
          "type": "uint256"
        }
      ],
      "name": "RoomIncome",
      "type": "event"
    },
    {
      "anonymous": false,
      "inputs": [
        {
          "indexed": true,
          "internalType": "uint256",
          "name": "location",
          "type": "uint256"
        },
        {
          "indexed": false,
          "internalType": "string",
          "name": "name",
          "type": "string"
        },
        {
          "indexed": false,
          "internalType": "uint256",
          "name": "characterId",
          "type": "uint256"
        }
      ],
      "name": "RoomName",
      "type": "event"
    },
    {
      "anonymous": false,
      "inputs": [
        {
          "indexed": true,
          "internalType": "address",
          "name": "owner",
          "type": "address"
        },
        {
          "indexed": false,
          "internalType": "uint256",
          "name": "tax",
          "type": "uint256"
        },
        {
          "indexed": false,
          "internalType": "uint256",
          "name": "newDueDate",
          "type": "uint256"
        }
      ],
      "name": "RoomTaxPay",
      "type": "event"
    },
    {
      "inputs": [
        {
          "internalType": "uint256",
          "name": "id",
          "type": "uint256"
        },
        {
          "internalType": "address[]",
          "name": "players",
          "type": "address[]"
        },
        {
          "internalType": "uint256[]",
          "name": "amounts",
          "type": "uint256[]"
        }
      ],
      "name": "batchMineVaultElements",
      "outputs": [],
      "stateMutability": "nonpayable",
      "type": "function"
    },
    {
      "inputs": [
        {
          "internalType": "uint256",
          "name": "characterId",
          "type": "uint256"
        },
        {
          "internalType": "uint256",
          "name": "monsterId",
          "type": "uint256"
        }
      ],
      "name": "characterDefeated",
      "outputs": [],
      "stateMutability": "nonpayable",
      "type": "function"
    },
    {
      "inputs": [
        {
          "internalType": "uint256",
          "name": "characterId",
          "type": "uint256"
        },
        {
          "internalType": "uint256",
          "name": "monsterId",
          "type": "uint256"
        },
        {
          "internalType": "int16",
          "name": "hpChange",
          "type": "int16"
        }
      ],
      "name": "characterEscaped",
      "outputs": [],
      "stateMutability": "nonpayable",
      "type": "function"
    },
    {
      "inputs": [
        {
          "internalType": "address",
          "name": "to",
          "type": "address"
        },
        {
          "internalType": "bytes",
          "name": "data",
          "type": "bytes"
        }
      ],
      "name": "forward",
      "outputs": [
        {
          "internalType": "bool",
          "name": "success",
          "type": "bool"
        }
      ],
      "stateMutability": "payable",
      "type": "function"
    },
    {
      "inputs": [
        {
          "internalType": "uint256",
          "name": "location",
          "type": "uint256"
        },
        {
          "internalType": "address",
          "name": "benefactor",
          "type": "address"
        },
        {
          "internalType": "uint16[8]",
          "name": "income",
          "type": "uint16[8]"
        }
      ],
      "name": "generateRoomIncome",
      "outputs": [],
      "stateMutability": "nonpayable",
      "type": "function"
    },
    {
      "inputs": [
        {
          "internalType": "uint256",
          "name": "location",
          "type": "uint256"
        }
      ],
      "name": "monsterDefeated",
      "outputs": [],
      "stateMutability": "nonpayable",
      "type": "function"
    },
    {
      "inputs": [
        {
          "internalType": "address",
          "name": "blockHashRegister",
          "type": "address"
        },
        {
          "internalType": "contract Player",
          "name": "playerContract",
          "type": "address"
        },
        {
          "internalType": "address payable",
          "name": "owner",
          "type": "address"
        },
        {
          "internalType": "address",
          "name": "adminContract",
          "type": "address"
        }
      ],
      "name": "postUpgrade",
      "outputs": [],
      "stateMutability": "nonpayable",
      "type": "function"
    },
    {
      "inputs": [
        {
          "internalType": "contract Characters",
          "name": "characters",
          "type": "address"
        },
        {
          "internalType": "contract Elements",
          "name": "elements",
          "type": "address"
        },
        {
          "internalType": "contract Gears",
          "name": "gears",
          "type": "address"
        },
        {
          "internalType": "contract Rooms",
          "name": "rooms",
          "type": "address"
        }
      ],
      "name": "start",
      "outputs": [],
      "stateMutability": "nonpayable",
      "type": "function"
    },
    {
      "inputs": [
        {
          "internalType": "uint256",
          "name": "characterId",
          "type": "uint256"
        },
        {
          "internalType": "uint256",
          "name": "location",
          "type": "uint256"
        }
      ],
      "name": "teleportCharacter",
      "outputs": [],
      "stateMutability": "nonpayable",
      "type": "function"
    },
    {
      "inputs": [
        {
          "internalType": "uint256",
          "name": "characterId",
          "type": "uint256"
        },
        {
          "internalType": "uint256",
          "name": "monsterId",
          "type": "uint256"
        },
        {
          "internalType": "int16",
          "name": "hpChange",
          "type": "int16"
        },
        {
          "internalType": "uint16",
          "name": "xpGained",
          "type": "uint16"
        },
        {
          "internalType": "uint256",
          "name": "gearData",
          "type": "uint256"
        },
        {
          "internalType": "int64",
          "name": "durabilityChange",
          "type": "int64"
        },
        {
          "internalType": "int16[8]",
          "name": "balanceChange",
          "type": "int16[8]"
        }
      ],
      "name": "updateCharacter",
      "outputs": [],
      "stateMutability": "nonpayable",
      "type": "function"
    },
    {
      "inputs": [
        {
          "internalType": "uint256",
          "name": "character",
          "type": "uint256"
        },
        {
          "internalType": "uint64",
          "name": "id",
          "type": "uint64"
        },
        {
          "internalType": "uint8",
          "name": "status",
          "type": "uint8"
        },
        {
          "internalType": "string",
          "name": "data",
          "type": "string"
        }
      ],
      "name": "updateQuest",
      "outputs": [],
      "stateMutability": "nonpayable",
      "type": "function"
    },
    {
      "inputs": [
        {
          "internalType": "uint256",
          "name": "characterId",
          "type": "uint256"
        },
        {
          "internalType": "uint256",
          "name": "location",
          "type": "uint256"
        },
        {
          "internalType": "uint256",
          "name": "data",
          "type": "uint256"
        },
        {
          "internalType": "uint256[8]",
          "name": "amountsPayed",
          "type": "uint256[8]"
        }
      ],
      "name": "updateRoomData",
      "outputs": [],
      "stateMutability": "nonpayable",
      "type": "function"
    }
  ],
  "address": "0x55C15b06d142272A0661296BD2BAa4aC06E59D78",
  "args": [],
  "bytecode": "0x608060405234801561001057600080fd5b5061426e806100206000396000f3fe6080604052600436106100a75760003560e01c8063ab53606011610064578063ab536060146103af578063b2f2dff9146103df578063cf747b491461041b578063d8468f8f14610454578063e6d48fe714610493578063f3f543ba146104c3576100a7565b80630604ba13146100ac57806322988b1d14610106578063398f2168146101515780636fadcf72146102235780637507a1c9146102eb5780639434e4e814610315575b600080fd5b3480156100b857600080fd5b5061010460048036036101c08110156100d057600080fd5b50803590602081013590604081013560010b9061ffff6060820135169060808101359060a081013560070b9060c00161050e565b005b34801561011257600080fd5b506101046004803603608081101561012957600080fd5b506001600160a01b038135811691602081013582169160408201358116916060013516610aae565b34801561015d57600080fd5b506101046004803603606081101561017457600080fd5b81359190810190604081016020820135600160201b81111561019557600080fd5b8201836020820111156101a757600080fd5b803590602001918460208302840111600160201b831117156101c857600080fd5b919390929091602081019035600160201b8111156101e557600080fd5b8201836020820111156101f757600080fd5b803590602001918460208302840111600160201b8311171561021857600080fd5b509092509050610ba5565b6102d76004803603604081101561023957600080fd5b6001600160a01b038235169190810190604081016020820135600160201b81111561026357600080fd5b82018360208201111561027557600080fd5b803590602001918460018302840111600160201b8311171561029657600080fd5b91908080601f016020809104026020016040519081016040528093929190818152602001838380828437600092019190915250929550610cc0945050505050565b604080519115158252519081900360200190f35b3480156102f757600080fd5b506101046004803603602081101561030e57600080fd5b5035610d71565b34801561032157600080fd5b506101046004803603608081101561033857600080fd5b8135916001600160401b036020820135169160ff6040830135169190810190608081016060820135600160201b81111561037157600080fd5b82018360208201111561038357600080fd5b803590602001918460018302840111600160201b831117156103a457600080fd5b509092509050610f82565b3480156103bb57600080fd5b50610104600480360360408110156103d257600080fd5b5080359060200135611084565b3480156103eb57600080fd5b50610104600480360361016081101561040357600080fd5b508035906020810135906040810135906060016111b4565b34801561042757600080fd5b506101046004803603606081101561043e57600080fd5b508035906020810135906040013560010b6114c5565b34801561046057600080fd5b50610104600480360361014081101561047857600080fd5b508035906001600160a01b0360208201351690604001611731565b34801561049f57600080fd5b50610104600480360360408110156104b657600080fd5b5080359060200135611890565b3480156104cf57600080fd5b50610104600480360360808110156104e657600080fd5b506001600160a01b038135811691602081013582169160408201358116916060013516611a0c565b6004546001600160a01b0316331461055b576040805162461bcd60e51b81526020600482015260146024820152600080516020614219833981519152604482015290519081900360640190fd5b600560009054906101000a90046001600160a01b03166001600160a01b03166342dad49e6040518163ffffffff1660e01b8152600401600060405180830381600087803b1580156105ab57600080fd5b505af11580156105bf573d6000803e3d6000fd5b505050600088815260208190526040902080549091506105de90611b48565b8315610721576008546040805163c9a59e4760e01b8152600481018b90529051600a926001600160a01b03169163c9a59e47916024808301926020929190829003018186803b15801561063057600080fd5b505afa158015610644573d6000803e3d6000fd5b505050506040513d602081101561065a57600080fd5b50511061069f576040805162461bcd60e51b815260206004820152600e60248201526d546f6f206d616e7920676561727360901b604482015290519081900360640190fd5b60085460408051630d9778e560e11b8152600481018b90526024810187905290516001600160a01b0390921691631b2ef1ca916044808201926020929091908290030181600087803b1580156106f457600080fd5b505af1158015610708573d6000803e3d6000fd5b505050506040513d602081101561071e57600080fd5b50505b60005b60088160ff161015610868576000838260ff166008811061074157fe5b602002013560010b905060008160010b13156107d657600754604080516302acc94b60e01b8152600481018d9052600185810160ff16602483015284900b604482015290516001600160a01b03909216916302acc94b9160648082019260009290919082900301818387803b1580156107b957600080fd5b505af11580156107cd573d6000803e3d6000fd5b5050505061085f565b60008160010b121561085f576007546040805163c9b902e360e01b8152600481018d9052600185810160ff166024830152600085810390910b604483015291516001600160a01b039093169263c9b902e39260648084019391929182900301818387803b15801561084657600080fd5b505af115801561085a573d6000803e3d6000fd5b505050505b50600101610724565b506108716140ee565b61087a89611eb8565b90508660010b6000146108e35761089d816080015182606001518960010b611f91565b61ffff16608082018190526108e3576040805189815290518a917fd02b8bdc1eb9eb4a85fe2b27c68fbe1eec04f697f660cc4cf3bb2cee4456f490919081900360200190a25b60408101805161ffff88160163ffffffff1690526109018982611fdd565b8360070b600014610aa35761091461411c565b61092183600201546120a7565b9050806080015161ffff166000146109d6576109468160600151826080015187611f91565b61ffff166060820152600283015461095e9082612188565b606081015161ffff166109d657600854600284015460408051630301ea6560e51b81526004810192909252516001600160a01b039092169163603d4ca09160248082019260009290919082900301818387803b1580156109bd57600080fd5b505af11580156109d1573d6000803e3d6000fd5b505050505b6109de61411c565b6109eb84600301546120a7565b9050806080015161ffff16600014610aa057610a108160600151826080015188611f91565b61ffff1660608201526003840154610a289082612188565b606081015161ffff16610aa057600854600385015460408051630301ea6560e51b81526004810192909252516001600160a01b039092169163603d4ca09160248082019260009290919082900301818387803b158015610a8757600080fd5b505af1158015610a9b573d6000803e3d6000fd5b505050505b50505b505050505050505050565b6000610ab8612207565b80549091506001600160a01b03163314610b035760405162461bcd60e51b815260040180806020018281038252602c8152602001806141ed602c913960400191505060405180910390fd5b600a80546001600160a01b0319166001600160a01b03861690811790915560408051630354740160e31b81529051631aa3a0089160048082019260009290919082900301818387803b158015610b5857600080fd5b505af1158015610b6c573d6000803e3d6000fd5b5050600580546001600160a01b039889166001600160a01b03199182161790915560048054959098169416939093179095555050505050565b6004546001600160a01b03163314610bf2576040805162461bcd60e51b81526020600482015260146024820152600080516020614219833981519152604482015290519081900360640190fd5b60005b83811015610cb8576007546001600160a01b031663a41dab81868684818110610c1a57fe5b905060200201356001600160a01b031688868686818110610c3757fe5b905060200201356040518463ffffffff1660e01b815260040180846001600160a01b03166001600160a01b031681526020018381526020018281526020019350505050600060405180830381600087803b158015610c9457600080fd5b505af1158015610ca8573d6000803e3d6000fd5b505060019092019150610bf59050565b505050505050565b6004546000906001600160a01b03163314610d10576040805162461bcd60e51b81526020600482015260146024820152600080516020614219833981519152604482015290519081900360640190fd5b600034905060008084516020860184885af1915081610d6a576040805162461bcd60e51b815260206004820152601160248201527019985a5b1959081d1bc8199bdc9dd85c99607a1b604482015290519081900360640190fd5b5092915050565b6004546001600160a01b03163314610dbe576040805162461bcd60e51b81526020600482015260146024820152600080516020614219833981519152604482015290519081900360640190fd5b600560009054906101000a90046001600160a01b03166001600160a01b03166342dad49e6040518163ffffffff1660e01b8152600401600060405180830381600087803b158015610e0e57600080fd5b505af1158015610e22573d6000803e3d6000fd5b50505050610e2f81611b48565b60008181526001602052604090208054600160401b90046001600160401b031615610e6b57805467ffffffffffffffff60401b19168155610f7e565b60028101546001600160401b031660011415610e995760028101805467ffffffffffffffff19169055610f7e565b60095460408051630178fe3f60e01b81526004810185905290516000926001600160a01b031691630178fe3f916024808301926020929190829003018186803b158015610ee557600080fd5b505afa158015610ef9573d6000803e3d6000fd5b505050506040513d6020811015610f0f57600080fd5b50511115610f7e5760095460408051634848b1a560e01b81526004810185905260006024820181905291516001600160a01b0390931692634848b1a59260448084019391929182900301818387803b158015610f6a57600080fd5b505af1158015610cb8573d6000803e3d6000fd5b5050565b6004546001600160a01b03163314610fcf576040805162461bcd60e51b81526020600482015260146024820152600080516020614219833981519152604482015290519081900360640190fd5b6000858152600c602090815260408083206001600160401b03881684529091529020805460ff191660ff851617815561100c600182018484614151565b508360ff16856001600160401b0316877f3553d84d9f5bc81eeb57eac4d5a1fee928d026da4f389c33c1cebfaf3931fda0868660405180806020018281038252848482818152602001925080828437600083820152604051601f909101601f19169092018290039550909350505050a4505050505050565b6004546001600160a01b031633146110d1576040805162461bcd60e51b81526020600482015260146024820152600080516020614219833981519152604482015290519081900360640190fd5b600560009054906101000a90046001600160a01b03166001600160a01b03166342dad49e6040518163ffffffff1660e01b8152600401600060405180830381600087803b15801561112157600080fd5b505af1158015611135573d6000803e3d6000fd5b5050506000838152602081905260409020805490915061115490611b48565b61115c6140ee565b61116584611eb8565b6000608082015290506111788482611fdd565b60408051848152905185917fd02b8bdc1eb9eb4a85fe2b27c68fbe1eec04f697f660cc4cf3bb2cee4456f490919081900360200190a250505050565b6004546001600160a01b03163314611201576040805162461bcd60e51b81526020600482015260146024820152600080516020614219833981519152604482015290519081900360640190fd5b61120a8361222b565b611250576040805162461bcd60e51b8152602060048201526012602482015271726f6f6d206973206e6f742061637469766560701b604482015290519081900360640190fd5b600954604080516369f648a160e01b81526004810186905290516000926001600160a01b0316916369f648a1916024808301926020929190829003018186803b15801561129c57600080fd5b505afa1580156112b0573d6000803e3d6000fd5b505050506040513d60208110156112c657600080fd5b505160065460408051630607176160e31b81526004810189905290519293506000926001600160a01b0390921691633038bb0891602480820192602092909190829003018186803b15801561131a57600080fd5b505afa15801561132e573d6000803e3d6000fd5b505050506040513d602081101561134457600080fd5b50519050818114611388576040805162461bcd60e51b81526020600482015260096024820152683737ba1037bbb732b960b91b604482015290519081900360640190fd5b60005b6008811015611450576007546001600160a01b031663fe99049a846000600185018886600881106113b857fe5b60200201356040518563ffffffff1660e01b815260040180856001600160a01b03166001600160a01b03168152602001846001600160a01b03166001600160a01b03168152602001838152602001828152602001945050505050600060405180830381600087803b15801561142c57600080fd5b505af1158015611440573d6000803e3d6000fd5b50506001909201915061138b9050565b5060095460408051634848b1a560e01b8152600481018890526024810187905290516001600160a01b0390921691634848b1a59160448082019260009290919082900301818387803b1580156114a557600080fd5b505af11580156114b9573d6000803e3d6000fd5b50505050505050505050565b6004546001600160a01b03163314611512576040805162461bcd60e51b81526020600482015260146024820152600080516020614219833981519152604482015290519081900360640190fd5b600560009054906101000a90046001600160a01b03166001600160a01b03166342dad49e6040518163ffffffff1660e01b8152600401600060405180830381600087803b15801561156257600080fd5b505af1158015611576573d6000803e3d6000fd5b5050506000848152602081905260409020805490915061159581611b48565b61159d6140ee565b6115a686611eb8565b905060008460010b826080015161ffff16019050816060015161ffff1660070b8160070b13156115df57606082015161ffff1660808301525b60008160070b1361162c5760408051878152905188917fd02b8bdc1eb9eb4a85fe2b27c68fbe1eec04f697f660cc4cf3bb2cee4456f490919081900360200190a260006080830152611637565b61ffff811660808301525b6116418783611fdd565b6001840154600360ff90911660020116600061165e8986846122bb565b8654604080516000815260ff86166020820152815193945084938d927f3042d0c278ec3b2d8bf290d27da7bb56226996146c187fc01f6f448b6283da72928290030190a46116ab81611b48565b85546000908152600160208190526040808320805467ffffffffffffffff60801b19808216600160801b928390046001600160401b03908116600019018116840291909117909355868652929094208054928316928590048216840190911690930217909155908655909401805460ff191660ff90951694909417909355505050505050565b6004546001600160a01b0316331461177e576040805162461bcd60e51b81526020600482015260146024820152600080516020614219833981519152604482015290519081900360640190fd5b60005b60088160ff16101561188a5760008160010160ff1690506000838360ff16600881106117a957fe5b602002013561ffff1661ffff1690506000811115611880576007546040805163a41dab8160e01b81526001600160a01b03888116600483015260248201869052604482018590529151919092169163a41dab8191606480830192600092919082900301818387803b15801561181d57600080fd5b505af1158015611831573d6000803e3d6000fd5b50505050846001600160a01b0316867f41d17e4a29add7df9dab104b7b914e73209c448b1fd78b8ca04efc5e24df1abb8484604051808381526020018281526020019250505060405180910390a35b5050600101611781565b50505050565b6004546001600160a01b031633146118dd576040805162461bcd60e51b81526020600482015260146024820152600080516020614219833981519152604482015290519081900360640190fd5b600560009054906101000a90046001600160a01b03166001600160a01b03166342dad49e6040518163ffffffff1660e01b8152600401600060405180830381600087803b15801561192d57600080fd5b505af1158015611941573d6000803e3d6000fd5b5050506000838152602081905260409020805490915061196081611b48565b60408051600181526004602082015281518592849288927f3042d0c278ec3b2d8bf290d27da7bb56226996146c187fc01f6f448b6283da72929181900390910190a460006119ad84612542565b50925050508060070b8360010160019054906101000a900460070b60070b12156119f95760018301805468ffffffffffffffff0019166101006001600160401b03600785900b16021790555b611a058585600461255d565b5050505050565b6000611a16612207565b80549091506001600160a01b03163314611a615760405162461bcd60e51b815260040180806020018281038252602c8152602001806141ed602c913960400191505060405180910390fd5b600680546001600160a01b03199081166001600160a01b038881169190911790925560078054821687841617905560088054821686841617905560098054909116918416919091179055600160ff1b60005260016020527fe209ec102481142efb7be62c549d278b9d65c9410e465059ec2d8758d3fc5cf58054600160d01b900460ff1615611b37576040805162461bcd60e51b815260206004820152601760248201527f64756e67656f6e20616c72656164792073746172746564000000000000000000604482015290519081900360640190fd5b610cb8600160ff1b60006004612960565b600081815260016020526040902080546001600160401b0316611ba9576040805162461bcd60e51b81526020600482015260146024820152731c9bdbdb481b9bdd0818dc99585d1959081e595d60621b604482015290519081900360640190fd5b8054600160d01b900460ff16611ea457600554815460408051634a83e9cd60e11b81526001600160401b039092166004830152516000926001600160a01b031691639507d39a916024808301926020929190829003018186803b158015611c0f57600080fd5b505afa158015611c23573d6000803e3d6000fd5b505050506040513d6020811015611c3957600080fd5b5051905080611c49575050611eb5565b611c538382612cb1565b815460009081908190611c91908790869060ff600160c01b8204811691600160d81b8104821691600160e01b8204811691600160e81b900416612da1565b875460ff808416600160d01b0260ff60d01b19918616600160c81b0260ff60c81b199093169290921716178855919450925090506000611cd087612dd2565b600081815260026020526040902080549192509060ff8481166101009092041614611d0857805461ff00191661010060ff8516021781555b6040805187815260ff8088166020830152861681830152905189917f8850140926f0260fe1b422b7a0d93e7d5734e521eae9ac8969ed512cc3834515919081900360600190a2600082815260026020526040902054600188015460ff9091169015611e9c57611d756140ee565b611d828960010154611eb8565b9050600080611d968c8b8560000151612e6a565b9150915060058460ff1611611e205760075460018c0154604080516302acc94b60e01b8152600481019290925260ff8716602483015260448201849052516001600160a01b03909216916302acc94b9160648082019260009290919082900301818387803b158015611e0757600080fd5b505af1158015611e1b573d6000803e3d6000fd5b505050505b60075460018c0154604080516302acc94b60e01b815260048101929092526006602483015260448201859052516001600160a01b03909216916302acc94b9160648082019260009290919082900301818387803b158015611e8057600080fd5b505af1158015611e94573d6000803e3d6000fd5b505050505050505b505050505050505b610f7e611eb083612dd2565b612f66565b50565b611ec06140ee565b60065460408051630178fe3f60e01b81526004810185905290516000926001600160a01b031691630178fe3f916024808301926020929190829003018186803b158015611f0c57600080fd5b505afa158015611f20573d6000803e3d6000fd5b505050506040513d6020811015611f3657600080fd5b50519050600080808080611f49866130d3565b6040805160a08101825260ff909216825261ffff958616602083015263ffffffff9092169181019190915290831660608201529116608082015296505050505050505b919050565b600080828561ffff160190508361ffff1660070b8160070b1315611fb85783915050611fd6565b60008160070b13611fcd576000915050611fd6565b9050611fd6565b505b9392505050565b600060a8826080015161ffff16901b60b8836060015161ffff16901b60c8846040015163ffffffff16901b60e8856020015161ffff16901b60f8866000015160ff16901b010101019050600660009054906101000a90046001600160a01b03166001600160a01b0316634848b1a584836040518363ffffffff1660e01b81526004018083815260200182815260200192505050600060405180830381600087803b15801561208a57600080fd5b505af115801561209e573d6000803e3d6000fd5b50505050505050565b6120af61411c565b60085460408051630178fe3f60e01b81526004810185905290516000926001600160a01b031691630178fe3f916024808301926020929190829003018186803b1580156120fb57600080fd5b505afa15801561210f573d6000803e3d6000fd5b505050506040513d602081101561212557600080fd5b505190506000808080808061213987613104565b6040805160c08101825261ffff978816815260ff968716602082015294909516948401949094529084166060830152909216608083015263ffffffff1660a08201529998505050505050505050565b60006121b0826000015183602001518460400151856060015186608001518760a00151613138565b60085460408051634848b1a560e01b8152600481018790526024810184905290519293506001600160a01b0390911691634848b1a59160448082019260009290919082900301818387803b15801561208a57600080fd5b7fc8fcad8db84d3cc18b4c41d551ea0ee66dd599cde068d998e57d5e09332c131c90565b600954604080516331a9108f60e11b815260048101849052905160009283926001600160a01b0390911691636352211e91602480820192602092909190829003018186803b15801561227c57600080fd5b505afa158015612290573d6000803e3d6000fd5b505050506040513d60208110156122a657600080fd5b50516001600160a01b03163014915050919050565b6000806000806122ca86612542565b509194509250905060ff85166122e65760001990910190612370565b600160ff861614156122fd57600190920191612370565b600260ff8616141561231457600190910190612370565b600360ff8616141561232c5760001990920191612370565b6040805162461bcd60e51b815260206004820152601460248201527334b6b837b9b9b4b13632903234b932b1ba34b7b760611b604482015290519081900360640190fd5b600061237d84848461318c565b600088815260016020526040808220838352912081548154939450919290916001600160401b03908116911660ff8a16600290810a906003818d0116900a828410806123d057506001600160401b038316155b1561243057855460ff808416600160c81b909204841616141561242b57855460ff808416918491601091600160c81b9004165b041660ff161415612419576124198e8e896131b5565b869a5050505050505050505050611fd6565b612500565b826001600160401b0316846001600160401b0316111561247c57845460ff808316600160c81b909204831616141561242b57845460ff808316918391601091600160c81b900416612403565b855460ff808416600160c81b90920484161614806124a95750845460ff808316600160c81b909204831616145b1561250057868d11156124e657845460ff808316918391601091600160c81b900416041660ff1614156124e1576124e18e8e896131b5565b612419565b855460ff808416918491601091600160c81b900416612403565b6040805162461bcd60e51b815260206004820152601260248201527163616e74206d6f766520746869732077617960701b604482015290519081900360640190fd5b90600160401b820490600160801b830490600160ff1b840490565b6000838152602081815260408083208054845260019092528083208584529083208054929391929091906001600160401b03166125a45761259f868887612960565b6127e6565b8154600160401b90046001600160401b03161580156125d257508154600160801b90046001600160401b0316155b1561267357506005546040805163338cdca160e01b8152905143926001600160a01b03169163338cdca191600480830192600092919082900301818387803b15801561261d57600080fd5b505af1158015612631573d6000803e3d6000fd5b50508354600160401b90046001600160401b031615159150612673905057815467ffffffffffffffff60401b1916600160401b6001600160401b038316021782555b61267c86611b48565b600061268787613333565b90506001600160a01b03811615801590612721575060065460408051630607176160e31b8152600481018b905290516001600160a01b0390921691633038bb0891602480820192602092909190829003018186803b1580156126e857600080fd5b505afa1580156126fc573d6000803e3d6000fd5b505050506040513d602081101561271257600080fd5b50516001600160a01b03821614155b156127e4576007546040805163a41dab8160e01b81526001600160a01b03848116600483015260086024830152600160448301529151919092169163a41dab8191606480830192600092919082900301818387803b15801561278257600080fd5b505af1158015612796573d6000803e3d6000fd5b505060408051600881526001602082015281516001600160a01b03861694508b93507f41d17e4a29add7df9dab104b7b914e73209c448b1fd78b8ca04efc5e24df1abb929181900390910190a35b505b60006127f187612dd2565b600081815260026020819052604090912090810154919250906001600160401b0316158015612821575060034306155b156128f8576001600160401b0383166128a057439250600560009054906101000a90046001600160a01b03166001600160a01b031663338cdca16040518163ffffffff1660e01b8152600401600060405180830381600087803b15801561288757600080fd5b505af115801561289b573d6000803e3d6000fd5b505050505b6002810180546001600160401b03851667ffffffffffffffff199091168117909155604080519182525183917f644c4d4ff52c1efcb89d373879c1d7e01d3f8b7e60cc19f9bdf5da38cd90c14d919081900360200190a25b84546000196001600160401b03600160801b8084048216929092018116820267ffffffffffffffff60801b19938416178855865482810482166001908101909216909202919092161785558887558601805460ff891660ff19909116179055610aa3896133ca565b60006002600061296f86612dd2565b815260200190815260200160002090506000816001015411156129bd576129998160010154611b48565b80546201000060ff63010000008304160262ff000019909116178155600060018201555b6007546001600160a01b031663c9b902e38460086129da8861340e565b6040518463ffffffff1660e01b8152600401808481526020018360ff1681526020018281526020019350505050600060405180830381600087803b158015612a2157600080fd5b505af1158015612a35573d6000803e3d6000fd5b5050506000858152600160208190526040808320805467ffffffffffffffff1916436001600160401b031690811767ffffffffffffffff60401b1916600160401b919091021760ff60c01b1916600160c01b60ff8981169190910291909117808355875460ff60d81b199091166101009091048216600160d81b02178255865463ff00000019811663010000009182900483168087018416909202178855825460ff60e81b1916600160e81b90910217808355875460ff60e01b1990911662010000909104909116600160e01b02178155808301889055918501889055600554815163338cdca160e01b815291519294506001600160a01b03169263338cdca19260048084019382900301818387803b158015612b5157600080fd5b505af1158015612b65573d6000803e3d6000fd5b505060065460408051630607176160e31b8152600481018990529051600094506001600160a01b039092169250633038bb08916024808301926020929190829003018186803b158015612bb757600080fd5b505afa158015612bcb573d6000803e3d6000fd5b505050506040513d6020811015612be157600080fd5b50519050612bee81613442565b600954604080516319846a3560e21b8152600481018990526024810184905290516001600160a01b0390921691636611a8d49160448082019260009290919082900301818387803b158015612c4257600080fd5b505af1158015612c56573d6000803e3d6000fd5b5050835460408051436001600160401b03168152600160c01b90920460ff16602083015280518a94507fa97399cd19a5b00b49b7d10d188180e100139a0501c9c9b4fe21dab5b915162f9350918290030190a2505050505050565b6000612cbc83612dd2565b60008181526002602052604090205490915060ff168061188a57600354600160401b90046001600160401b0316612cf483858361352f565b6000848152600260205260409020805460ff191660ff8316908117909155909250600614611a0557600354620143704204906001600160401b03808316911614612d6f5760038054600160401b67ffffffffffffffff199091166001600160401b0384161767ffffffffffffffff60401b1916179055610cb8565b600380546001600160401b036001850116600160401b0267ffffffffffffffff60401b19909116179055505050505050565b6000806000612db1898989613610565b9250612dc089898888886139d5565b939a9099509297509195505050505050565b600080600080612de185612542565b509250925092506000808460070b12612e04575060096004840160070b05612e1e565b60098460000360040160070b81612e1757fe5b0560000390505b6000808460070b12612e3a575060096004840160070b05612e54565b60098460000360040160070b81612e4d57fe5b0560000390505b612e5f82828561318c565b979650505050505050565b6000806000612e7a866000613d02565b90506019810480612e89575060015b6040805160208082018a9052818301899052601960fa1b60608301528251604181840301815260619092019092528051910120819081612ec557fe5b066002820401925082612ed757600192505b600260ff86161415612eec5760048304830192505b6008811115612ef9575060085b6040805160208082018a9052818301899052606560f81b60608301528251604181840301815260619092019092528051910120819081612f3557fe5b066002820401935083612f4757600193505b600160ff86161415612f5c5760048404840193505b5050935093915050565b6000818152600260208190526040909120908101546001600160401b031680156130ce5760055460408051634a83e9cd60e11b81526001600160401b038416600482015290516000926001600160a01b031691639507d39a916024808301926020929190829003018186803b158015612fde57600080fd5b505afa158015612ff2573d6000803e3d6000fd5b505050506040513d602081101561300857600080fd5b505190508061301957505050611eb5565b6000806130268684613da0565b91509150600061303583613e25565b60008481526001602052604090206002810154919250906001600160401b031615801561307157508054600160801b90046001600160401b0316155b801561307b575081155b801561309157508054600160d01b900460ff1615155b156130b55760028101805467ffffffffffffffff19166001600160401b0385161790555b50505060028401805467ffffffffffffffff1916905550505b505050565b61ffff60e882901c81169260a883901c82169260b881901c9092169163ffffffff60c882901c169160f89190911c90565b61ffff60e882901c81169260ff60e084901c169260f881901c9260d082901c81169260c083901c9091169163ffffffff1690565b6001600160f81b031960f885901b1661ffff60e81b60e888901b160160ff60e01b60e087901b160161ffff60d01b60d085901b160161ffff60c01b60c084901b160163ffffffff8216019695505050505050565b600160ff1b6001600160401b03938416928416600160401b0291909316600160801b0201010190565b81818111156131c2575081905b6131cd848284613f29565b61188a576007805460408051635986e3e560e11b8152600481018890526024810193909352516000926001600160a01b039092169163b30dc7ca916044808301926020929190829003018186803b15801561322757600080fd5b505afa15801561323b573d6000803e3d6000fd5b505050506040513d602081101561325157600080fd5b50511161328e576040805162461bcd60e51b81526020600482015260066024820152656e6f206b657960d01b604482015290519081900360640190fd5b600780546040805163c9b902e360e01b815260048101889052602481019390935260016044840152516001600160a01b039091169163c9b902e391606480830192600092919082900301818387803b1580156132e957600080fd5b505af11580156132fd573d6000803e3d6000fd5b5050506000858152600b6020908152604080832085845282528083208684529091529020805460ff191660011790555050505050565b600061333e8261222b565b156133c257600954604080516369f648a160e01b81526004810185905290516001600160a01b03909216916369f648a191602480820192602092909190829003018186803b15801561338f57600080fd5b505afa1580156133a3573d6000803e3d6000fd5b505050506040513d60208110156133b957600080fd5b50519050611f8c565b506000611f8c565b6133d26140ee565b6133db82611eb8565b9050806060015161ffff16816080015161ffff161015610f7e5760808101805160010161ffff169052610f7e8282611fdd565b6000600160ff1b82141561342457506000611f8c565b6000613431836000613d02565b905060198104600101915050611f8c565b80158015906134c657506009546040805163c9a59e4760e01b81526004810184905290516001600160a01b039092169163c9a59e4791602480820192602092909190829003018186803b15801561349857600080fd5b505afa1580156134ac573d6000803e3d6000fd5b505050506040513d60208110156134c257600080fd5b5051155b15611eb5576001600160a01b0381166000818152600d6020908152604080832062069780420190819055815193845291830182905280519193927fc24affdb20f6529973515c5398461c1f6228edbfac531ab49e56a11433a86c9f929081900390910190a25050565b600061353a84613f50565b8061354f5750600a6001600160401b03831610155b1561355c57506006611fd6565b600061356785613fa6565b6009026001600160401b03169050600081111561358357600319015b6019811061360557604080516020808201889052818301879052600360fa1b60608301528251604181840301815260619092019092528051910120606461271090910660ff16118015906135fa5760006135dc87612542565b509250505060058160070b816135ee57fe5b076001019350506135ff565b600692505b50611fd4565b506006949350505050565b600080600460ff841614156136275750600f61380f565b604080516020808201889052818301879052600160f81b606083015282516041818403018152606190920190925280519101206064900660ff1660571115613672575060ff821660020a5b604080516020808201889052818301879052600160f91b606083015282516041818403018152606190920190925280519101206064900660ff166028111561380f57604080516020808201889052818301879052600360f81b606083015282516041818403018152606190920190925280519101206064900660ff16601911156137395760ff831615806137095750600260ff8416145b1561371657600a17613734565b600160ff8416148061372b5750600360ff8416145b15613734576005175b61380f565b604080516020808201889052818301879052600360f81b606083015282516041818403018152606190920190925280519101206064900660ff16603211156137c75760ff831661378b57600817613734565b600160ff8416141561379f57600117613734565b600260ff841614156137b357600217613734565b600360ff841614156137345760041761380f565b60ff83166137d75760021761380f565b600160ff841614156137eb5760041761380f565b600260ff841614156137ff5760081761380f565b600360ff8416141561380f576001175b604080516020808201889052818301879052606f60f81b60608301528251808303604101815260619092019092528051910120606490066000603c60ff83161061386d57605a60ff831610613865576002613868565b60015b613870565b60005b905060048160ff1610613888578260f01792506139ca565b8060ff1660031415613902576040805160208082018a9052818301899052600760fc1b606083015282518083036041018152606190920190925280519101206003166001810160070260ff8116601514156138e8578460d01794506138fb565b8060ff16601c14156138fb578460b01794505b50506139ca565b8060ff166002141561397c576040805160208082018a9052818301899052600760fc1b60608301528251808303604101815260619092019092528051910120600690066001810160030260ff8116600f1415613963578460501794506138fb565b8060ff16601214156138fb578460a017945050506139ca565b8060ff16600114156139ca576040805160208082018a9052818301899052600760fc1b6060830152825160418184030181526061909201909252805191012060031660020a60100292909217915b509095945050505050565b60008060006139e388612dd2565b8692509050846000806139f58b612542565b5050915091508160070b6000148015613a1157508060070b6000145b15613a255760029550846001179450613cf4565b8660ff168360ff1611613cf45760408051602080820187905260f886901b6001600160f81b03191682840152604182018d9052600360f81b6061830152825180830360420181526062909201909252805191012060149006600186811614801590613a9e575060ff81161580613a9e57508360ff166050145b15613ab25760029650856001179550613ce8565b600280871614801590613af157508060ff1660011480613ad557508360ff166050145b80613af157508360ff16604f148015613af15750600180871614155b15613b055760039650856002179550613ce8565b600480871614801590613b8b57508060ff1660021480613b2857508360ff166050145b80613b4457508360ff16604f148015613b445750600180871614155b80613b6057508360ff16604f148015613b605750600280871614155b80613b8b57508360ff16604e148015613b7c5750600180871614155b8015613b8b5750600280871614155b15613b9d576004965094861794613ce8565b600880871614801590613ccf57508060ff1660031480613bc057508360ff166050145b80613bdc57508360ff16604f148015613bdc5750600180871614155b80613bf857508360ff16604f148015613bf85750600280871614155b80613c1457508360ff16604f148015613c145750600480871614155b80613c3f57508360ff16604e148015613c305750600180871614155b8015613c3f5750600280871614155b80613c6a57508360ff16604e148015613c5b5750600180871614155b8015613c6a5750600480871614155b80613c9557508360ff16604e148015613c865750600480871614155b8015613c955750600280871614155b80613ccf57508360ff16604d148015613cb15750600480871614155b8015613cc05750600280871614155b8015613ccf5750600180871614155b15613ce35760059650856008179550613ce8565b600196505b50600190920191613a25565b505050509550959350505050565b6000806000613d1085612542565b505091509150600080613d2286612542565b5091935091505081840360070b6000811215613d3c576000035b81840360070b6000811215613d4f576000035b6001603f1b821315613d655781600160401b0391505b6001603f1b811315613d7857600160401b035b80821315613d8d57509450613d9a9350505050565b9550613d9a945050505050565b92915050565b604080516020808201859052818301849052603360f91b6060830152825180830360410181526061830184528051908201206081830186905260a18301859052606760f81b60c1840152835160a281850301815260c290930190935281519101206000918291613e1a918691600991829006919006613ffc565b946001945092505050565b600081815260016020526040812054600160401b90046001600160401b031680613e53576000915050611f8c565b60055460408051634a83e9cd60e11b81526001600160401b038416600482015290516000926001600160a01b031691639507d39a916024808301926020929190829003018186803b158015613ea757600080fd5b505afa158015613ebb573d6000803e3d6000fd5b505050506040513d6020811015613ed157600080fd5b5051905080613ee557600092505050611f8c565b6000848152600160208190526040909120546001600160401b038082169085161491613f2091879185918590600160d01b900460ff16614033565b95945050505050565b6000928352600b602090815260408085209385529281528284209184525290205460ff1690565b6000806000613f5e84612542565b5050915091506000198260070b12158015613f7e57506000198160070b12155b8015613f8e575060018260070b13155b8015613f9e575060018160070b13155b949350505050565b6000806000613fb484612542565b50509150915060008260070b1215613fcd578160000391505b60008160070b1215613fdd576000035b8060070b8260070b1315613ff357509050611f8c565b9150611f8c9050565b60008060008061400b87612542565b50925092509250612e5f8660ff1660048560090203018660ff1660048560090203018361318c565b600060ff821660011461404857506000613f20565b600f831561405457600a015b6040805160208082018a9052818301899052600360f91b6060830152825180830360410181526061909201909252805191012060ff821660649091061080156140e0576040805160208082018b90528183018a9052600760f81b606083015282516041818403018152606190920190925280519101208690816140d357fe5b0660010192505050613f20565b506000979650505050505050565b6040805160a08101825260008082526020820181905291810182905260608101829052608081019190915290565b6040805160c081018252600080825260208201819052918101829052606081018290526080810182905260a081019190915290565b828054600181600116156101000203166002900490600052602060002090601f016020900481019282601f106141925782800160ff198235161785556141bf565b828001600101855582156141bf579182015b828111156141bf5782358255916020019190600101906141a4565b506141cb9291506141cf565b5090565b6141e991905b808211156141cb57600081556001016141d5565b9056fe4f6e6c79206f776e657220697320616c6c6f77656420746f20706572666f726d207468697320616374696f6e4e4f545f415554484f52495a45445f41444d494e000000000000000000000000a2646970667358221220b52ce30c68a7bf13451bcb961900b0c28124d6f0afaa718e6fa935d70e6fc79e64736f6c63430006050033",
  "devdoc": {
    "methods": {}
  },
  "userdoc": {
    "methods": {}
  },
  "storageLayout": {
    "storage": [
      {
        "astId": 2747,
        "contract": "src/dungeon/DungeonAdminFacet.sol:DungeonAdminFacet",
        "label": "_characters",
        "offset": 0,
        "slot": "0",
        "type": "t_mapping(t_uint256,t_struct(Character)2730_storage)"
      },
      {
        "astId": 2751,
        "contract": "src/dungeon/DungeonAdminFacet.sol:DungeonAdminFacet",
        "label": "_rooms",
        "offset": 0,
        "slot": "1",
        "type": "t_mapping(t_uint256,t_struct(Room)2713_storage)"
      },
      {
        "astId": 2755,
        "contract": "src/dungeon/DungeonAdminFacet.sol:DungeonAdminFacet",
        "label": "_areas",
        "offset": 0,
        "slot": "2",
        "type": "t_mapping(t_uint256,t_struct(Area)2743_storage)"
      },
      {
        "astId": 2762,
        "contract": "src/dungeon/DungeonAdminFacet.sol:DungeonAdminFacet",
        "label": "_areaCounter",
        "offset": 0,
        "slot": "3",
        "type": "t_struct(AreaCounter)2760_storage"
      },
      {
        "astId": 2764,
        "contract": "src/dungeon/DungeonAdminFacet.sol:DungeonAdminFacet",
        "label": "_adminContract",
        "offset": 0,
        "slot": "4",
        "type": "t_address"
      },
      {
        "astId": 2766,
        "contract": "src/dungeon/DungeonAdminFacet.sol:DungeonAdminFacet",
        "label": "_blockHashRegister",
        "offset": 0,
        "slot": "5",
        "type": "t_contract(BlockHashRegister)12961"
      },
      {
        "astId": 2768,
        "contract": "src/dungeon/DungeonAdminFacet.sol:DungeonAdminFacet",
        "label": "_charactersContract",
        "offset": 0,
        "slot": "6",
        "type": "t_contract(Characters)469"
      },
      {
        "astId": 2770,
        "contract": "src/dungeon/DungeonAdminFacet.sol:DungeonAdminFacet",
        "label": "_elementsContract",
        "offset": 0,
        "slot": "7",
        "type": "t_contract(Elements)12644"
      },
      {
        "astId": 2772,
        "contract": "src/dungeon/DungeonAdminFacet.sol:DungeonAdminFacet",
        "label": "_gearsContract",
        "offset": 0,
        "slot": "8",
        "type": "t_contract(Gears)12663"
      },
      {
        "astId": 2774,
        "contract": "src/dungeon/DungeonAdminFacet.sol:DungeonAdminFacet",
        "label": "_roomsContract",
        "offset": 0,
        "slot": "9",
        "type": "t_contract(Rooms)12730"
      },
      {
        "astId": 2776,
        "contract": "src/dungeon/DungeonAdminFacet.sol:DungeonAdminFacet",
        "label": "_playerContract",
        "offset": 0,
        "slot": "10",
        "type": "t_contract(Player)10512"
      },
      {
        "astId": 2784,
        "contract": "src/dungeon/DungeonAdminFacet.sol:DungeonAdminFacet",
        "label": "_unlockedExits",
        "offset": 0,
        "slot": "11",
        "type": "t_mapping(t_uint256,t_mapping(t_uint256,t_mapping(t_uint256,t_bool)))"
      },
      {
        "astId": 2795,
        "contract": "src/dungeon/DungeonAdminFacet.sol:DungeonAdminFacet",
        "label": "_quests",
        "offset": 0,
        "slot": "12",
        "type": "t_mapping(t_uint256,t_mapping(t_uint64,t_struct(Quest)2789_storage))"
      },
      {
        "astId": 2799,
        "contract": "src/dungeon/DungeonAdminFacet.sol:DungeonAdminFacet",
        "label": "_taxDueDate",
        "offset": 0,
        "slot": "13",
        "type": "t_mapping(t_address,t_uint256)"
      },
      {
        "astId": 2803,
        "contract": "src/dungeon/DungeonAdminFacet.sol:DungeonAdminFacet",
        "label": "_customRoomNames",
        "offset": 0,
        "slot": "14",
        "type": "t_mapping(t_uint256,t_string_storage)"
      }
    ],
    "types": {
      "t_address": {
        "encoding": "inplace",
        "label": "address",
        "numberOfBytes": "20"
      },
      "t_bool": {
        "encoding": "inplace",
        "label": "bool",
        "numberOfBytes": "1"
      },
      "t_contract(BlockHashRegister)12961": {
        "encoding": "inplace",
        "label": "contract BlockHashRegister",
        "numberOfBytes": "20"
      },
      "t_contract(Characters)469": {
        "encoding": "inplace",
        "label": "contract Characters",
        "numberOfBytes": "20"
      },
      "t_contract(Elements)12644": {
        "encoding": "inplace",
        "label": "contract Elements",
        "numberOfBytes": "20"
      },
      "t_contract(Gears)12663": {
        "encoding": "inplace",
        "label": "contract Gears",
        "numberOfBytes": "20"
      },
      "t_contract(Player)10512": {
        "encoding": "inplace",
        "label": "contract Player",
        "numberOfBytes": "20"
      },
      "t_contract(Rooms)12730": {
        "encoding": "inplace",
        "label": "contract Rooms",
        "numberOfBytes": "20"
      },
      "t_int64": {
        "encoding": "inplace",
        "label": "int64",
        "numberOfBytes": "8"
      },
      "t_mapping(t_address,t_uint256)": {
        "encoding": "mapping",
        "key": "t_address",
        "label": "mapping(address => uint256)",
        "numberOfBytes": "32",
        "value": "t_uint256"
      },
      "t_mapping(t_uint256,t_bool)": {
        "encoding": "mapping",
        "key": "t_uint256",
        "label": "mapping(uint256 => bool)",
        "numberOfBytes": "32",
        "value": "t_bool"
      },
      "t_mapping(t_uint256,t_mapping(t_uint256,t_bool))": {
        "encoding": "mapping",
        "key": "t_uint256",
        "label": "mapping(uint256 => mapping(uint256 => bool))",
        "numberOfBytes": "32",
        "value": "t_mapping(t_uint256,t_bool)"
      },
      "t_mapping(t_uint256,t_mapping(t_uint256,t_mapping(t_uint256,t_bool)))": {
        "encoding": "mapping",
        "key": "t_uint256",
        "label": "mapping(uint256 => mapping(uint256 => mapping(uint256 => bool)))",
        "numberOfBytes": "32",
        "value": "t_mapping(t_uint256,t_mapping(t_uint256,t_bool))"
      },
      "t_mapping(t_uint256,t_mapping(t_uint64,t_struct(Quest)2789_storage))": {
        "encoding": "mapping",
        "key": "t_uint256",
        "label": "mapping(uint256 => mapping(uint64 => struct DungeonDataLayout.Quest))",
        "numberOfBytes": "32",
        "value": "t_mapping(t_uint64,t_struct(Quest)2789_storage)"
      },
      "t_mapping(t_uint256,t_string_storage)": {
        "encoding": "mapping",
        "key": "t_uint256",
        "label": "mapping(uint256 => string)",
        "numberOfBytes": "32",
        "value": "t_string_storage"
      },
      "t_mapping(t_uint256,t_struct(Area)2743_storage)": {
        "encoding": "mapping",
        "key": "t_uint256",
        "label": "mapping(uint256 => struct DungeonDataLayout.Area)",
        "numberOfBytes": "32",
        "value": "t_struct(Area)2743_storage"
      },
      "t_mapping(t_uint256,t_struct(Character)2730_storage)": {
        "encoding": "mapping",
        "key": "t_uint256",
        "label": "mapping(uint256 => struct DungeonDataLayout.Character)",
        "numberOfBytes": "32",
        "value": "t_struct(Character)2730_storage"
      },
      "t_mapping(t_uint256,t_struct(Room)2713_storage)": {
        "encoding": "mapping",
        "key": "t_uint256",
        "label": "mapping(uint256 => struct DungeonDataLayout.Room)",
        "numberOfBytes": "32",
        "value": "t_struct(Room)2713_storage"
      },
      "t_mapping(t_uint64,t_struct(Quest)2789_storage)": {
        "encoding": "mapping",
        "key": "t_uint64",
        "label": "mapping(uint64 => struct DungeonDataLayout.Quest)",
        "numberOfBytes": "32",
        "value": "t_struct(Quest)2789_storage"
      },
      "t_string_storage": {
        "encoding": "bytes",
        "label": "string",
        "numberOfBytes": "32"
      },
      "t_struct(Area)2743_storage": {
        "encoding": "inplace",
        "label": "struct DungeonDataLayout.Area",
        "members": [
          {
            "astId": 2732,
            "contract": "src/dungeon/DungeonAdminFacet.sol:DungeonAdminFacet",
            "label": "areaType",
            "offset": 0,
            "slot": "0",
            "type": "t_uint8"
          },
          {
            "astId": 2734,
            "contract": "src/dungeon/DungeonAdminFacet.sol:DungeonAdminFacet",
            "label": "discovered",
            "offset": 1,
            "slot": "0",
            "type": "t_uint8"
          },
          {
            "astId": 2736,
            "contract": "src/dungeon/DungeonAdminFacet.sol:DungeonAdminFacet",
            "label": "lastRoomIndex",
            "offset": 2,
            "slot": "0",
            "type": "t_uint8"
          },
          {
            "astId": 2738,
            "contract": "src/dungeon/DungeonAdminFacet.sol:DungeonAdminFacet",
            "label": "currentIndex",
            "offset": 3,
            "slot": "0",
            "type": "t_uint8"
          },
          {
            "astId": 2740,
            "contract": "src/dungeon/DungeonAdminFacet.sol:DungeonAdminFacet",
            "label": "lastRoom",
            "offset": 0,
            "slot": "1",
            "type": "t_uint256"
          },
          {
            "astId": 2742,
            "contract": "src/dungeon/DungeonAdminFacet.sol:DungeonAdminFacet",
            "label": "eventBlockNumber",
            "offset": 0,
            "slot": "2",
            "type": "t_uint64"
          }
        ],
        "numberOfBytes": "96"
      },
      "t_struct(AreaCounter)2760_storage": {
        "encoding": "inplace",
        "label": "struct DungeonDataLayout.AreaCounter",
        "members": [
          {
            "astId": 2757,
            "contract": "src/dungeon/DungeonAdminFacet.sol:DungeonAdminFacet",
            "label": "lastPeriod",
            "offset": 0,
            "slot": "0",
            "type": "t_uint64"
          },
          {
            "astId": 2759,
            "contract": "src/dungeon/DungeonAdminFacet.sol:DungeonAdminFacet",
            "label": "numAreas",
            "offset": 8,
            "slot": "0",
            "type": "t_uint64"
          }
        ],
        "numberOfBytes": "32"
      },
      "t_struct(Character)2730_storage": {
        "encoding": "inplace",
        "label": "struct DungeonDataLayout.Character",
        "members": [
          {
            "astId": 2715,
            "contract": "src/dungeon/DungeonAdminFacet.sol:DungeonAdminFacet",
            "label": "location",
            "offset": 0,
            "slot": "0",
            "type": "t_uint256"
          },
          {
            "astId": 2717,
            "contract": "src/dungeon/DungeonAdminFacet.sol:DungeonAdminFacet",
            "label": "direction",
            "offset": 0,
            "slot": "1",
            "type": "t_uint8"
          },
          {
            "astId": 2719,
            "contract": "src/dungeon/DungeonAdminFacet.sol:DungeonAdminFacet",
            "label": "floors",
            "offset": 1,
            "slot": "1",
            "type": "t_int64"
          },
          {
            "astId": 2721,
            "contract": "src/dungeon/DungeonAdminFacet.sol:DungeonAdminFacet",
            "label": "slot_1",
            "offset": 0,
            "slot": "2",
            "type": "t_uint256"
          },
          {
            "astId": 2723,
            "contract": "src/dungeon/DungeonAdminFacet.sol:DungeonAdminFacet",
            "label": "slot_2",
            "offset": 0,
            "slot": "3",
            "type": "t_uint256"
          },
          {
            "astId": 2725,
            "contract": "src/dungeon/DungeonAdminFacet.sol:DungeonAdminFacet",
            "label": "slot_3",
            "offset": 0,
            "slot": "4",
            "type": "t_uint256"
          },
          {
            "astId": 2727,
            "contract": "src/dungeon/DungeonAdminFacet.sol:DungeonAdminFacet",
            "label": "slot_4",
            "offset": 0,
            "slot": "5",
            "type": "t_uint256"
          },
          {
            "astId": 2729,
            "contract": "src/dungeon/DungeonAdminFacet.sol:DungeonAdminFacet",
            "label": "slot_5",
            "offset": 0,
            "slot": "6",
            "type": "t_uint256"
          }
        ],
        "numberOfBytes": "224"
      },
      "t_struct(Quest)2789_storage": {
        "encoding": "inplace",
        "label": "struct DungeonDataLayout.Quest",
        "members": [
          {
            "astId": 2786,
            "contract": "src/dungeon/DungeonAdminFacet.sol:DungeonAdminFacet",
            "label": "status",
            "offset": 0,
            "slot": "0",
            "type": "t_uint8"
          },
          {
            "astId": 2788,
            "contract": "src/dungeon/DungeonAdminFacet.sol:DungeonAdminFacet",
            "label": "data",
            "offset": 0,
            "slot": "1",
            "type": "t_string_storage"
          }
        ],
        "numberOfBytes": "64"
      },
      "t_struct(Room)2713_storage": {
        "encoding": "inplace",
        "label": "struct DungeonDataLayout.Room",
        "members": [
          {
            "astId": 2692,
            "contract": "src/dungeon/DungeonAdminFacet.sol:DungeonAdminFacet",
            "label": "blockNumber",
            "offset": 0,
            "slot": "0",
            "type": "t_uint64"
          },
          {
            "astId": 2694,
            "contract": "src/dungeon/DungeonAdminFacet.sol:DungeonAdminFacet",
            "label": "monsterBlockNumber",
            "offset": 8,
            "slot": "0",
            "type": "t_uint64"
          },
          {
            "astId": 2696,
            "contract": "src/dungeon/DungeonAdminFacet.sol:DungeonAdminFacet",
            "label": "numActiveCharacters",
            "offset": 16,
            "slot": "0",
            "type": "t_uint64"
          },
          {
            "astId": 2698,
            "contract": "src/dungeon/DungeonAdminFacet.sol:DungeonAdminFacet",
            "label": "direction",
            "offset": 24,
            "slot": "0",
            "type": "t_uint8"
          },
          {
            "astId": 2700,
            "contract": "src/dungeon/DungeonAdminFacet.sol:DungeonAdminFacet",
            "label": "exits",
            "offset": 25,
            "slot": "0",
            "type": "t_uint8"
          },
          {
            "astId": 2702,
            "contract": "src/dungeon/DungeonAdminFacet.sol:DungeonAdminFacet",
            "label": "kind",
            "offset": 26,
            "slot": "0",
            "type": "t_uint8"
          },
          {
            "astId": 2704,
            "contract": "src/dungeon/DungeonAdminFacet.sol:DungeonAdminFacet",
            "label": "areaAtDiscovery",
            "offset": 27,
            "slot": "0",
            "type": "t_uint8"
          },
          {
            "astId": 2706,
            "contract": "src/dungeon/DungeonAdminFacet.sol:DungeonAdminFacet",
            "label": "lastRoomIndex",
            "offset": 28,
            "slot": "0",
            "type": "t_uint8"
          },
          {
            "astId": 2708,
            "contract": "src/dungeon/DungeonAdminFacet.sol:DungeonAdminFacet",
            "label": "index",
            "offset": 29,
            "slot": "0",
            "type": "t_uint8"
          },
          {
            "astId": 2710,
            "contract": "src/dungeon/DungeonAdminFacet.sol:DungeonAdminFacet",
            "label": "discoverer",
            "offset": 0,
            "slot": "1",
            "type": "t_uint256"
          },
          {
            "astId": 2712,
            "contract": "src/dungeon/DungeonAdminFacet.sol:DungeonAdminFacet",
            "label": "randomEvent",
            "offset": 0,
            "slot": "2",
            "type": "t_uint64"
          }
        ],
        "numberOfBytes": "96"
      },
      "t_uint256": {
        "encoding": "inplace",
        "label": "uint256",
        "numberOfBytes": "32"
      },
      "t_uint64": {
        "encoding": "inplace",
        "label": "uint64",
        "numberOfBytes": "8"
      },
      "t_uint8": {
        "encoding": "inplace",
        "label": "uint8",
        "numberOfBytes": "1"
      }
    }
  }
}