{
  "abi": [
    {
      "anonymous": false,
      "inputs": [
        {
          "indexed": true,
          "internalType": "uint256",
          "name": "characterId",
          "type": "uint256"
        },
        {
          "indexed": true,
          "internalType": "uint256",
          "name": "oldLocation",
          "type": "uint256"
        },
        {
          "indexed": true,
          "internalType": "uint256",
          "name": "newLocation",
          "type": "uint256"
        },
        {
          "indexed": false,
          "internalType": "uint8",
          "name": "mode",
          "type": "uint8"
        },
        {
          "indexed": false,
          "internalType": "uint256",
          "name": "path",
          "type": "uint256"
        }
      ],
      "name": "CharacterMoved",
      "type": "event"
    },
    {
      "anonymous": false,
      "inputs": [
        {
          "indexed": true,
          "internalType": "uint256",
          "name": "characterId",
          "type": "uint256"
        },
        {
          "indexed": false,
          "internalType": "uint256",
          "name": "monsterId",
          "type": "uint256"
        }
      ],
      "name": "Death",
      "type": "event"
    },
    {
      "anonymous": false,
      "inputs": [
        {
          "indexed": true,
          "internalType": "uint256",
          "name": "characterId",
          "type": "uint256"
        },
        {
          "indexed": true,
          "internalType": "address",
          "name": "player",
          "type": "address"
        },
        {
          "indexed": false,
          "internalType": "string",
          "name": "name",
          "type": "string"
        }
      ],
      "name": "Enter",
      "type": "event"
    },
    {
      "anonymous": false,
      "inputs": [
        {
          "indexed": false,
          "internalType": "uint256",
          "name": "characterId",
          "type": "uint256"
        },
        {
          "indexed": false,
          "internalType": "uint256",
          "name": "gearId",
          "type": "uint256"
        },
        {
          "indexed": false,
          "internalType": "uint8",
          "name": "slotType",
          "type": "uint8"
        }
      ],
      "name": "Equip",
      "type": "event"
    },
    {
      "anonymous": false,
      "inputs": [
        {
          "indexed": true,
          "internalType": "uint256",
          "name": "characterId",
          "type": "uint256"
        },
        {
          "indexed": false,
          "internalType": "uint16",
          "name": "hp",
          "type": "uint16"
        }
      ],
      "name": "Heal",
      "type": "event"
    },
    {
      "anonymous": false,
      "inputs": [
        {
          "indexed": true,
          "internalType": "uint256",
          "name": "characterId",
          "type": "uint256"
        },
        {
          "indexed": false,
          "internalType": "uint16",
          "name": "newLevel",
          "type": "uint16"
        }
      ],
      "name": "LevelUp",
      "type": "event"
    },
    {
      "anonymous": false,
      "inputs": [
        {
          "indexed": true,
          "internalType": "uint256",
          "name": "characterId",
          "type": "uint256"
        },
        {
          "indexed": true,
          "internalType": "uint64",
          "name": "id",
          "type": "uint64"
        },
        {
          "indexed": true,
          "internalType": "uint8",
          "name": "status",
          "type": "uint8"
        },
        {
          "indexed": false,
          "internalType": "string",
          "name": "data",
          "type": "string"
        }
      ],
      "name": "QuestUpdate",
      "type": "event"
    },
    {
      "anonymous": false,
      "inputs": [
        {
          "indexed": true,
          "internalType": "uint256",
          "name": "areaLocation",
          "type": "uint256"
        },
        {
          "indexed": false,
          "internalType": "uint64",
          "name": "blockNumber",
          "type": "uint64"
        }
      ],
      "name": "RandomEvent",
      "type": "event"
    },
    {
      "anonymous": false,
      "inputs": [
        {
          "indexed": true,
          "internalType": "uint256",
          "name": "characterId",
          "type": "uint256"
        },
        {
          "indexed": false,
          "internalType": "uint256",
          "name": "gearId",
          "type": "uint256"
        }
      ],
      "name": "Recycle",
      "type": "event"
    },
    {
      "anonymous": false,
      "inputs": [
        {
          "indexed": true,
          "internalType": "uint256",
          "name": "deadCharacterId",
          "type": "uint256"
        },
        {
          "indexed": false,
          "internalType": "uint256",
          "name": "newCharacterId",
          "type": "uint256"
        }
      ],
      "name": "Resurrect",
      "type": "event"
    },
    {
      "anonymous": false,
      "inputs": [
        {
          "indexed": true,
          "internalType": "uint256",
          "name": "location",
          "type": "uint256"
        },
        {
          "indexed": false,
          "internalType": "bytes32",
          "name": "blockHash",
          "type": "bytes32"
        },
        {
          "indexed": false,
          "internalType": "uint8",
          "name": "exits",
          "type": "uint8"
        },
        {
          "indexed": false,
          "internalType": "uint8",
          "name": "kind",
          "type": "uint8"
        }
      ],
      "name": "RoomActualised",
      "type": "event"
    },
    {
      "anonymous": false,
      "inputs": [
        {
          "indexed": true,
          "internalType": "uint256",
          "name": "location",
          "type": "uint256"
        },
        {
          "indexed": false,
          "internalType": "uint64",
          "name": "blockNumber",
          "type": "uint64"
        },
        {
          "indexed": false,
          "internalType": "uint8",
          "name": "direction",
          "type": "uint8"
        }
      ],
      "name": "RoomDiscovered",
      "type": "event"
    },
    {
      "anonymous": false,
      "inputs": [
        {
          "indexed": true,
          "internalType": "uint256",
          "name": "location",
          "type": "uint256"
        },
        {
          "indexed": true,
          "internalType": "address",
          "name": "owner",
          "type": "address"
        },
        {
          "indexed": false,
          "internalType": "uint256",
          "name": "id",
          "type": "uint256"
        },
        {
          "indexed": false,
          "internalType": "uint256",
          "name": "amount",
          "type": "uint256"
        }
      ],
      "name": "RoomIncome",
      "type": "event"
    },
    {
      "anonymous": false,
      "inputs": [
        {
          "indexed": true,
          "internalType": "uint256",
          "name": "location",
          "type": "uint256"
        },
        {
          "indexed": false,
          "internalType": "string",
          "name": "name",
          "type": "string"
        },
        {
          "indexed": false,
          "internalType": "uint256",
          "name": "characterId",
          "type": "uint256"
        }
      ],
      "name": "RoomName",
      "type": "event"
    },
    {
      "anonymous": false,
      "inputs": [
        {
          "indexed": true,
          "internalType": "address",
          "name": "owner",
          "type": "address"
        },
        {
          "indexed": false,
          "internalType": "uint256",
          "name": "tax",
          "type": "uint256"
        },
        {
          "indexed": false,
          "internalType": "uint256",
          "name": "newDueDate",
          "type": "uint256"
        }
      ],
      "name": "RoomTaxPay",
      "type": "event"
    },
    {
      "inputs": [
        {
          "internalType": "uint256",
          "name": "location",
          "type": "uint256"
        }
      ],
      "name": "actualiseRoom",
      "outputs": [],
      "stateMutability": "nonpayable",
      "type": "function"
    },
    {
      "inputs": [
        {
          "internalType": "address",
          "name": "sender",
          "type": "address"
        },
        {
          "internalType": "uint256",
          "name": "characterId",
          "type": "uint256"
        },
        {
          "internalType": "string",
          "name": "name",
          "type": "string"
        },
        {
          "internalType": "uint8",
          "name": "class",
          "type": "uint8"
        },
        {
          "internalType": "uint256",
          "name": "location",
          "type": "uint256"
        }
      ],
      "name": "enter",
      "outputs": [],
      "stateMutability": "nonpayable",
      "type": "function"
    },
    {
      "inputs": [
        {
          "internalType": "uint256",
          "name": "characterId",
          "type": "uint256"
        }
      ],
      "name": "exit",
      "outputs": [],
      "stateMutability": "nonpayable",
      "type": "function"
    },
    {
      "inputs": [
        {
          "internalType": "uint256",
          "name": "characterId",
          "type": "uint256"
        },
        {
          "internalType": "uint8",
          "name": "direction",
          "type": "uint8"
        }
      ],
      "name": "move",
      "outputs": [],
      "stateMutability": "nonpayable",
      "type": "function"
    },
    {
      "inputs": [
        {
          "internalType": "uint256",
          "name": "characterId",
          "type": "uint256"
        },
        {
          "internalType": "uint8[]",
          "name": "directions",
          "type": "uint8[]"
        }
      ],
      "name": "movePath",
      "outputs": [],
      "stateMutability": "nonpayable",
      "type": "function"
    },
    {
      "inputs": [
        {
          "internalType": "uint256",
          "name": "characterId",
          "type": "uint256"
        },
        {
          "internalType": "uint256",
          "name": "teleportLocation",
          "type": "uint256"
        }
      ],
      "name": "teleport",
      "outputs": [],
      "stateMutability": "nonpayable",
      "type": "function"
    }
  ],
  "address": "0x79C132625F6da292cE46131F4917BdAaF76dD225",
  "args": [],
  "bytecode": "0x608060405234801561001057600080fd5b50613d35806100206000396000f3fe608060405234801561001057600080fd5b50600436106100625760003560e01c80632d3e0851146100675780634f28b6d21461008f5780636a4e2484146101065780637f8661a1146101295780638d94073c14610146578063a23782b314610163575b600080fd5b61008d6004803603604081101561007d57600080fd5b508035906020013560ff166101f1565b005b61008d600480360360408110156100a557600080fd5b813591908101906040810160208201356401000000008111156100c757600080fd5b8201836020820111156100d957600080fd5b803590602001918460208302840111640100000000831117156100fb57600080fd5b5090925090506103fd565b61008d6004803603604081101561011c57600080fd5b50803590602001356106bf565b61008d6004803603602081101561013f57600080fd5b5035610a22565b61008d6004803603602081101561015c57600080fd5b5035610bc7565b61008d600480360360a081101561017957600080fd5b6001600160a01b03823516916020810135918101906060810160408201356401000000008111156101a957600080fd5b8201836020820111156101bb57600080fd5b803590602001918460018302840111640100000000831117156101dd57600080fd5b919350915060ff8135169060200135610c3b565b600a546001600160a01b03163314610247576040805162461bcd60e51b81526020600482015260146024820152731bdb9b1e481c1b185e595c9cc8185b1b1bddd95960621b604482015290519081900360640190fd5b600560009054906101000a90046001600160a01b03166001600160a01b03166342dad49e6040518163ffffffff1660e01b8152600401600060405180830381600087803b15801561029757600080fd5b505af11580156102ab573d6000803e3d6000fd5b505050600083815260208190526040812091506102c784611062565b6080015161ffff161161031a576040805162461bcd60e51b81526020600482015260166024820152751e5bdd5c8818da185c9858dd195c881a5cc81919585960521b604482015290519081900360640190fd5b80546103258161113b565b6000610330826114ac565b90508015610378576040805162461bcd60e51b815260206004820152601060248201526f6d6f6e7374657220626c6f636b696e6760801b604482015290519081900360640190fd5b6000828152600160205260408120805467ffffffffffffffff60401b191690556103a38684876114bf565b604080516000815260ff881660208201528151929350839286928a927f3042d0c278ec3b2d8bf290d27da7bb56226996146c187fc01f6f448b6283da72929081900390910190a46103f5868287611746565b505050505050565b600a546001600160a01b03163314610453576040805162461bcd60e51b81526020600482015260146024820152731bdb9b1e481c1b185e595c9cc8185b1b1bddd95960621b604482015290519081900360640190fd5b8015801590610463575060058111155b6104b4576040805162461bcd60e51b815260206004820152601c60248201527f696e76616c6964206e756d626572206f6620646972656374696f6e7300000000604482015290519081900360640190fd5b600560009054906101000a90046001600160a01b03166001600160a01b03166342dad49e6040518163ffffffff1660e01b8152600401600060405180830381600087803b15801561050457600080fd5b505af1158015610518573d6000803e3d6000fd5b5050506000848152602081905260408120915061053485611062565b6080015161ffff1611610587576040805162461bcd60e51b81526020600482015260166024820152751e5bdd5c8818da185c9858dd195c881a5cc81919585960521b604482015290519081900360640190fd5b80546105928161113b565b600061059d826114ac565b905080156105e5576040805162461bcd60e51b815260206004820152601060248201526f6d6f6e7374657220626c6f636b696e6760801b604482015290519081900360640190fd5b6000828152600160205260408120805467ffffffffffffffff60401b19169055600890805b60ff81168711801561061a575083155b156106665787878260ff1681811061062e57fe5b9050602002013560ff1691508160ff16600484901b0192506106518986846114bf565b945061065c856114ac565b935060010161060a565b50845460408051600281526020810185905281518793928c927f3042d0c278ec3b2d8bf290d27da7bb56226996146c187fc01f6f448b6283da72929081900390910190a46106b5888583611746565b5050505050505050565b600a546001600160a01b03163314610715576040805162461bcd60e51b81526020600482015260146024820152731bdb9b1e481c1b185e595c9cc8185b1b1bddd95960621b604482015290519081900360640190fd5b600560009054906101000a90046001600160a01b03166001600160a01b03166342dad49e6040518163ffffffff1660e01b8152600401600060405180830381600087803b15801561076557600080fd5b505af1158015610779573d6000803e3d6000fd5b50505050600061078883611062565b6080015161ffff16116107db576040805162461bcd60e51b81526020600482015260166024820152751e5bdd5c8818da185c9858dd195c881a5cc81919585960521b604482015290519081900360640190fd5b6000828152602081905260409020546107f38161113b565b60006107fe826114ac565b90508015610846576040805162461bcd60e51b815260206004820152601060248201526f6d6f6e7374657220626c6f636b696e6760801b604482015290519081900360640190fd5b600082815260016020526040902054600160d01b900460ff166002146108b3576040805162461bcd60e51b815260206004820152601b60248201527f63757272656e7420726f6f6d206e6f7420612074656c65706f72740000000000604482015290519081900360640190fd5b600083815260016020526040902054600160d01b900460ff16600214610920576040805162461bcd60e51b815260206004820152601f60248201527f64657374696e6174696f6e20726f6f6d206e6f7420612074656c65706f727400604482015290519081900360640190fd5b600061092b84611b54565b50600088815260208190526040902060010154909350600784810b610100909204810b900b1215915061099b9050576040805162461bcd60e51b8152602060048201526011602482015270199b1bdbdc881b9bdd08185b1b1bddd959607a1b604482015290519081900360640190fd5b6000838152600160205260408120805467ffffffffffffffff60401b191690556109c58486611b6f565b90506109d48685600684611ba3565b6040805160018152600460208201528151879287928a927f3042d0c278ec3b2d8bf290d27da7bb56226996146c187fc01f6f448b6283da72929181900390910190a46103f586866004611746565b600a546001600160a01b03163314610a78576040805162461bcd60e51b81526020600482015260146024820152731bdb9b1e481c1b185e595c9cc8185b1b1bddd95960621b604482015290519081900360640190fd5b600081815260208190526040902054600160ff1b14610ade576040805162461bcd60e51b815260206004820152601a60248201527f6e65656420746f2072656163682074686520656e7472616e6365000000000000604482015290519081900360640190fd5b60065460408051630607176160e31b81526004810184905290516000926001600160a01b031691633038bb08916024808301926020929190829003018186803b158015610b2a57600080fd5b505afa158015610b3e573d6000803e3d6000fd5b505050506040513d6020811015610b5457600080fd5b5051600654604080516323b872dd60e01b81523060048201526001600160a01b0380851660248301526044820187905291519394509116916323b872dd9160648082019260009290919082900301818387803b158015610bb357600080fd5b505af11580156103f5573d6000803e3d6000fd5b600560009054906101000a90046001600160a01b03166001600160a01b03166342dad49e6040518163ffffffff1660e01b8152600401600060405180830381600087803b158015610c1757600080fd5b505af1158015610c2b573d6000803e3d6000fd5b50505050610c388161113b565b50565b600a546001600160a01b03163314610c91576040805162461bcd60e51b81526020600482015260146024820152731bdb9b1e481c1b185e595c9cc8185b1b1bddd95960621b604482015290519081900360640190fd5b600654604080516331a9108f60e11b815260048101889052905130926001600160a01b031691636352211e916024808301926020929190829003018186803b158015610cdc57600080fd5b505afa158015610cf0573d6000803e3d6000fd5b505050506040513d6020811015610d0657600080fd5b50516001600160a01b031614610d8e57600654604080516323b872dd60e01b81526001600160a01b03898116600483015230602483015260448201899052915191909216916323b872dd91606480830192600092919082900301818387803b158015610d7157600080fd5b505af1158015610d85573d6000803e3d6000fd5b50505050610e4d565b60065460408051630607176160e31b81526004810188905290516001600160a01b0390921691633038bb0891602480820192602092909190829003018186803b158015610dda57600080fd5b505afa158015610dee573d6000803e3d6000fd5b505050506040513d6020811015610e0457600080fd5b505115610e4d576040805162461bcd60e51b815260206004820152601260248201527130b63932b0b23c9034b710323ab733b2b7b760711b604482015290519081900360640190fd5b60065460408051637fbddc4760e01b8152600481018890526001600160a01b03898116602483015291519190921691637fbddc4791604480830192600092919082900301818387803b158015610ea257600080fd5b505af1158015610eb6573d6000803e3d6000fd5b505060065460408051630178fe3f60e01b8152600481018a90529051600094506001600160a01b039092169250630178fe3f916024808301926020929190829003018186803b158015610f0857600080fd5b505afa158015610f1c573d6000803e3d6000fd5b505050506040513d6020811015610f3257600080fd5b5051905080610f7d576040805160a08101825260ff85168152600060208201819052918101919091526010606082018190526080820152610f74908790611df7565b610f7d86611ec1565b8115801590610fa45750600082815260016020526040902054600160d01b900460ff166002145b8015610fbd5750600a610fbb600160ff1b84612013565b105b15610fd8576000868152602081905260409020829055610fee565b6000868152602081905260409020600160ff1b90555b866001600160a01b0316867f1ef8e6b9c3066d754206fef3b8d359e66eccb916e044a69e2a40ac01e1220e2b878760405180806020018281038252848482818152602001925080828437600083820152604051601f909101601f19169092018290039550909350505050a350505050505050565b61106a613c9c565b60065460408051630178fe3f60e01b81526004810185905290516000926001600160a01b031691630178fe3f916024808301926020929190829003018186803b1580156110b657600080fd5b505afa1580156110ca573d6000803e3d6000fd5b505050506040513d60208110156110e057600080fd5b505190506000808080806110f3866120ab565b6040805160a08101825260ff909216825261ffff958616602083015263ffffffff9092169181019190915290831660608201529116608082015296505050505050505b919050565b600081815260016020526040902080546001600160401b031661119c576040805162461bcd60e51b81526020600482015260146024820152731c9bdbdb481b9bdd0818dc99585d1959081e595d60621b604482015290519081900360640190fd5b8054600160d01b900460ff1661149757600554815460408051634a83e9cd60e11b81526001600160401b039092166004830152516000926001600160a01b031691639507d39a916024808301926020929190829003018186803b15801561120257600080fd5b505afa158015611216573d6000803e3d6000fd5b505050506040513d602081101561122c57600080fd5b505190508061123c575050610c38565b61124683826120dc565b815460009081908190611284908790869060ff600160c01b8204811691600160d81b8104821691600160e01b8204811691600160e81b9004166121cd565b875460ff808416600160d01b0260ff60d01b19918616600160c81b0260ff60c81b1990931692909217161788559194509250905060006112c3876121fe565b600081815260026020526040902080549192509060ff84811661010090920416146112fb57805461ff00191661010060ff8516021781555b6040805187815260ff8088166020830152861681830152905189917f8850140926f0260fe1b422b7a0d93e7d5734e521eae9ac8969ed512cc3834515919081900360600190a2600082815260026020526040902054600188015460ff909116901561148f57611368613c9c565b6113758960010154611062565b90506000806113898c8b8560000151612296565b9150915060058460ff16116114135760075460018c0154604080516302acc94b60e01b8152600481019290925260ff8716602483015260448201849052516001600160a01b03909216916302acc94b9160648082019260009290919082900301818387803b1580156113fa57600080fd5b505af115801561140e573d6000803e3d6000fd5b505050505b60075460018c0154604080516302acc94b60e01b815260048101929092526006602483015260448201859052516001600160a01b03909216916302acc94b9160648082019260009290919082900301818387803b15801561147357600080fd5b505af1158015611487573d6000803e3d6000fd5b505050505050505b505050505050505b6114a86114a3836121fe565b612392565b5050565b6000806114b8836124ff565b9392505050565b6000806000806114ce86611b54565b509194509250905060ff85166114ea5760001990910190611574565b600160ff8616141561150157600190920191611574565b600260ff8616141561151857600190910190611574565b600360ff861614156115305760001990920191611574565b6040805162461bcd60e51b815260206004820152601460248201527334b6b837b9b9b4b13632903234b932b1ba34b7b760611b604482015290519081900360640190fd5b6000611581848484612603565b600088815260016020526040808220838352912081548154939450919290916001600160401b03908116911660ff8a16600290810a906003818d0116900a828410806115d457506001600160401b038316155b1561163457855460ff808416600160c81b909204841616141561162f57855460ff808416918491601091600160c81b9004165b041660ff16141561161d5761161d8e8e8961262c565b869a50505050505050505050506114b8565b611704565b826001600160401b0316846001600160401b0316111561168057845460ff808316600160c81b909204831616141561162f57845460ff808316918391601091600160c81b900416611607565b855460ff808416600160c81b90920484161614806116ad5750845460ff808316600160c81b909204831616145b1561170457868d11156116ea57845460ff808316918391601091600160c81b900416041660ff1614156116e5576116e58e8e8961262c565b61161d565b855460ff808416918491601091600160c81b900416611607565b6040805162461bcd60e51b815260206004820152601260248201527163616e74206d6f766520746869732077617960701b604482015290519081900360640190fd5b6000838152602081815260408083208054845260019092528083208584529083208054929391929091906001600160401b031661178d576117888688876127aa565b6119cf565b8154600160401b90046001600160401b03161580156117bb57508154600160801b90046001600160401b0316155b1561185c57506005546040805163338cdca160e01b8152905143926001600160a01b03169163338cdca191600480830192600092919082900301818387803b15801561180657600080fd5b505af115801561181a573d6000803e3d6000fd5b50508354600160401b90046001600160401b03161515915061185c905057815467ffffffffffffffff60401b1916600160401b6001600160401b038316021782555b6118658661113b565b600061187087612afb565b90506001600160a01b0381161580159061190a575060065460408051630607176160e31b8152600481018b905290516001600160a01b0390921691633038bb0891602480820192602092909190829003018186803b1580156118d157600080fd5b505afa1580156118e5573d6000803e3d6000fd5b505050506040513d60208110156118fb57600080fd5b50516001600160a01b03821614155b156119cd576007546040805163a41dab8160e01b81526001600160a01b03848116600483015260086024830152600160448301529151919092169163a41dab8191606480830192600092919082900301818387803b15801561196b57600080fd5b505af115801561197f573d6000803e3d6000fd5b505060408051600881526001602082015281516001600160a01b03861694508b93507f41d17e4a29add7df9dab104b7b914e73209c448b1fd78b8ca04efc5e24df1abb929181900390910190a35b505b60006119da876121fe565b600081815260026020819052604090912090810154919250906001600160401b0316158015611a0a575060034306155b15611ae1576001600160401b038316611a8957439250600560009054906101000a90046001600160a01b03166001600160a01b031663338cdca16040518163ffffffff1660e01b8152600401600060405180830381600087803b158015611a7057600080fd5b505af1158015611a84573d6000803e3d6000fd5b505050505b6002810180546001600160401b03851667ffffffffffffffff199091168117909155604080519182525183917f644c4d4ff52c1efcb89d373879c1d7e01d3f8b7e60cc19f9bdf5da38cd90c14d919081900360200190a25b84546000196001600160401b03600160801b8084048216929092018116820267ffffffffffffffff60801b19938416178855865482810482166001908101909216909202919092161785558887558601805460ff891660ff19909116179055611b4989612b92565b505050505050505050565b90600160401b820490600160801b830490600160ff1b840490565b6000806005611b7e8585612013565b60020281611b8857fe5b04905080611b9a576001915050611b9d565b90505b92915050565b6000611bae84612afb565b90506001600160a01b03811615611d8157600582048015611d0757600754604080516311aa10fb60e01b815260048101899052600060248201819052604482018890526064820185905291516001600160a01b03909316926311aa10fb9260848084019391929182900301818387803b158015611c2a57600080fd5b505af1158015611c3e573d6000803e3d6000fd5b505060075460408051637f4c824d60e11b81523060048201526001600160a01b038781166024830152604482018a905260648201879052915191909216935063fe99049a9250608480830192600092919082900301818387803b158015611ca457600080fd5b505af1158015611cb8573d6000803e3d6000fd5b50505050816001600160a01b0316857f41d17e4a29add7df9dab104b7b914e73209c448b1fd78b8ca04efc5e24df1abb8684604051808381526020018281526020019250505060405180910390a35b6007546040805163c9b902e360e01b81526004810189905260248101879052838603604482015290516001600160a01b039092169163c9b902e39160648082019260009290919082900301818387803b158015611d6357600080fd5b505af1158015611d77573d6000803e3d6000fd5b5050505050611df0565b6007546040805163c9b902e360e01b815260048101889052602481018690526044810185905290516001600160a01b039092169163c9b902e39160648082019260009290919082900301818387803b158015611ddc57600080fd5b505af1158015611b49573d6000803e3d6000fd5b5050505050565b600060a8826080015161ffff16901b60b8836060015161ffff16901b60c8846040015163ffffffff16901b60e8856020015161ffff16901b60f8866000015160ff16901b010101019050600660009054906101000a90046001600160a01b03166001600160a01b0316634848b1a584836040518363ffffffff1660e01b81526004018083815260200182815260200192505050600060405180830381600087803b158015611ea457600080fd5b505af1158015611eb8573d6000803e3d6000fd5b50505050505050565b6000611ed5600080600f600a806001612bd6565b90506000611eec60006001600f600a806004612bd6565b60085460408051630d9778e560e11b8152600481018790526024810186905290519293506000926001600160a01b0390921691631b2ef1ca9160448082019260209290919082900301818787803b158015611f4657600080fd5b505af1158015611f5a573d6000803e3d6000fd5b505050506040513d6020811015611f7057600080fd5b50519050611f82846000808481612c2a565b60085460408051630d9778e560e11b8152600481018790526024810185905290516000926001600160a01b031691631b2ef1ca91604480830192602092919082900301818787803b158015611fd657600080fd5b505af1158015611fea573d6000803e3d6000fd5b505050506040513d602081101561200057600080fd5b50519050611df085600080846001612c2a565b600080600061202185611b54565b50509150915060008061203386611b54565b5091935091505081840360070b600081121561204d576000035b81840360070b6000811215612060576000035b6001603f1b8213156120765781600160401b0391505b6001603f1b81131561208957600160401b035b8082131561209e57509450611b9d9350505050565b9550611b9d945050505050565b61ffff60e882901c81169260a883901c82169260b881901c9092169163ffffffff60c882901c169160f89190911c90565b60006120e7836121fe565b60008181526002602052604090205490915060ff16806121c757600354600160401b90046001600160401b031661211f838583612fb7565b6000848152600260205260409020805460ff191660ff8316908117909155909250600614611df057600354620143704204906001600160401b0380831691161461219a5760038054600160401b67ffffffffffffffff199091166001600160401b0384161767ffffffffffffffff60401b19161790556103f5565b600380546001600160401b036001850116600160401b0267ffffffffffffffff60401b1990911617905550505b50505050565b60008060006121dd89898961309a565b92506121ec898988888861345f565b939a9099509297509195505050505050565b60008060008061220d85611b54565b509250925092506000808460070b12612230575060096004840160070b0561224a565b60098460000360040160070b8161224357fe5b0560000390505b6000808460070b12612266575060096004840160070b05612280565b60098460000360040160070b8161227957fe5b0560000390505b61228b828285612603565b979650505050505050565b60008060006122a6866000612013565b905060198104806122b5575060015b6040805160208082018a9052818301899052601960fa1b606083015282516041818403018152606190920190925280519101208190816122f157fe5b06600282040192508261230357600192505b600260ff861614156123185760048304830192505b6008811115612325575060085b6040805160208082018a9052818301899052606560f81b6060830152825160418184030181526061909201909252805191012081908161236157fe5b06600282040193508361237357600193505b600160ff861614156123885760048404840193505b5050935093915050565b6000818152600260208190526040909120908101546001600160401b031680156124fa5760055460408051634a83e9cd60e11b81526001600160401b038416600482015290516000926001600160a01b031691639507d39a916024808301926020929190829003018186803b15801561240a57600080fd5b505afa15801561241e573d6000803e3d6000fd5b505050506040513d602081101561243457600080fd5b505190508061244557505050610c38565b600080612452868461378c565b915091506000612461836124ff565b60008481526001602052604090206002810154919250906001600160401b031615801561249d57508054600160801b90046001600160401b0316155b80156124a7575081155b80156124bd57508054600160d01b900460ff1615155b156124e15760028101805467ffffffffffffffff19166001600160401b0385161790555b50505060028401805467ffffffffffffffff1916905550505b505050565b600081815260016020526040812054600160401b90046001600160401b03168061252d576000915050611136565b60055460408051634a83e9cd60e11b81526001600160401b038416600482015290516000926001600160a01b031691639507d39a916024808301926020929190829003018186803b15801561258157600080fd5b505afa158015612595573d6000803e3d6000fd5b505050506040513d60208110156125ab57600080fd5b50519050806125bf57600092505050611136565b6000848152600160208190526040909120546001600160401b0380821690851614916125fa91879185918590600160d01b900460ff16613811565b95945050505050565b600160ff1b6001600160401b03938416928416600160401b0291909316600160801b0201010190565b8181811115612639575081905b6126448482846138cc565b6121c7576007805460408051635986e3e560e11b8152600481018890526024810193909352516000926001600160a01b039092169163b30dc7ca916044808301926020929190829003018186803b15801561269e57600080fd5b505afa1580156126b2573d6000803e3d6000fd5b505050506040513d60208110156126c857600080fd5b505111612705576040805162461bcd60e51b81526020600482015260066024820152656e6f206b657960d01b604482015290519081900360640190fd5b600780546040805163c9b902e360e01b815260048101889052602481019390935260016044840152516001600160a01b039091169163c9b902e391606480830192600092919082900301818387803b15801561276057600080fd5b505af1158015612774573d6000803e3d6000fd5b5050506000858152600b6020908152604080832085845282528083208684529091529020805460ff191660011790555050505050565b6000600260006127b9866121fe565b81526020019081526020016000209050600081600101541115612807576127e3816001015461113b565b80546201000060ff63010000008304160262ff000019909116178155600060018201555b6007546001600160a01b031663c9b902e3846008612824886138f3565b6040518463ffffffff1660e01b8152600401808481526020018360ff1681526020018281526020019350505050600060405180830381600087803b15801561286b57600080fd5b505af115801561287f573d6000803e3d6000fd5b5050506000858152600160208190526040808320805467ffffffffffffffff1916436001600160401b031690811767ffffffffffffffff60401b1916600160401b919091021760ff60c01b1916600160c01b60ff8981169190910291909117808355875460ff60d81b199091166101009091048216600160d81b02178255865463ff00000019811663010000009182900483168087018416909202178855825460ff60e81b1916600160e81b90910217808355875460ff60e01b1990911662010000909104909116600160e01b02178155808301889055918501889055600554815163338cdca160e01b815291519294506001600160a01b03169263338cdca19260048084019382900301818387803b15801561299b57600080fd5b505af11580156129af573d6000803e3d6000fd5b505060065460408051630607176160e31b8152600481018990529051600094506001600160a01b039092169250633038bb08916024808301926020929190829003018186803b158015612a0157600080fd5b505afa158015612a15573d6000803e3d6000fd5b505050506040513d6020811015612a2b57600080fd5b50519050612a3881613927565b600954604080516319846a3560e21b8152600481018990526024810184905290516001600160a01b0390921691636611a8d49160448082019260009290919082900301818387803b158015612a8c57600080fd5b505af1158015612aa0573d6000803e3d6000fd5b5050835460408051436001600160401b03168152600160c01b90920460ff16602083015280518a94507fa97399cd19a5b00b49b7d10d188180e100139a0501c9c9b4fe21dab5b915162f9350918290030190a2505050505050565b6000612b0682613a14565b15612b8a57600954604080516369f648a160e01b81526004810185905290516001600160a01b03909216916369f648a191602480820192602092909190829003018186803b158015612b5757600080fd5b505afa158015612b6b573d6000803e3d6000fd5b505050506040513d6020811015612b8157600080fd5b50519050611136565b506000611136565b612b9a613c9c565b612ba382611062565b9050806060015161ffff16816080015161ffff1610156114a85760808101805160010161ffff1690526114a88282611df7565b6001600160f81b031960f885901b1661ffff60e81b60e888901b160160ff60e01b60e087901b160161ffff60d01b60d085901b160161ffff60c01b60c084901b160163ffffffff8216019695505050505050565b612c32613cca565b612c3b83613aa4565b90508461ffff16816000015161ffff161115612c94576040805162461bcd60e51b81526020600482015260136024820152720cecac2e44098caeccad840e8dede40d0d2ced606b1b604482015290519081900360640190fd5b8360ff16816040015160ff16901c60011660ff1660001415612ced576040805162461bcd60e51b815260206004820152600d60248201526c696e76616c696420636c61737360981b604482015290519081900360640190fd5b60ff8216612d6857602081015160ff1615612d4f576040805162461bcd60e51b815260206004820152601a60248201527f6f6e6c792061747461636b2067656172206f6e20736c6f742030000000000000604482015290519081900360640190fd5b6000868152602081905260409020600201839055612f68565b8160ff1660011415612de957806020015160ff16600114612dd0576040805162461bcd60e51b815260206004820152601b60248201527f6f6e6c7920646566656e73652067656172206f6e20736c6f7420310000000000604482015290519081900360640190fd5b6000868152602081905260409020600301839055612f68565b8160ff1660021415612e6a57806020015160ff16600214612e51576040805162461bcd60e51b815260206004820152601a60248201527f6f6e6c79206163636573736f72696573206f6e20736c6f742032000000000000604482015290519081900360640190fd5b6000868152602081905260409020600401839055612f68565b8160ff1660031415612eeb57806020015160ff16600214612ed2576040805162461bcd60e51b815260206004820152601a60248201527f6f6e6c79206163636573736f72696573206f6e20736c6f742033000000000000604482015290519081900360640190fd5b6000868152602081905260409020600501839055612f68565b8160ff1660041415612f6857806020015160ff16600214612f53576040805162461bcd60e51b815260206004820152601a60248201527f6f6e6c79206163636573736f72696573206f6e20736c6f742034000000000000604482015290519081900360640190fd5b60008681526020819052604090206006018390555b6020808201516040805189815292830186905260ff90911682820152517f9661c1f94255e8f19fda183859db8ad335498fb1e361acc4bd925a68d1bcaf819181900360600190a1505050505050565b6000612fc284613b85565b80612fd75750600a6001600160401b03831610155b15612fe4575060066114b8565b6000612fef85613bdb565b6009026001600160401b03169050600081111561300b57600319015b6019811061308d57604080516020808201889052818301879052600360fa1b60608301528251604181840301815260619092019092528051910120606461271090910660ff161180159061308257600061306487611b54565b509250505060058160070b8161307657fe5b07600101935050613087565b600692505b50613092565b600691505b509392505050565b600080600460ff841614156130b15750600f613299565b604080516020808201889052818301879052600160f81b606083015282516041818403018152606190920190925280519101206064900660ff16605711156130fc575060ff821660020a5b604080516020808201889052818301879052600160f91b606083015282516041818403018152606190920190925280519101206064900660ff166028111561329957604080516020808201889052818301879052600360f81b606083015282516041818403018152606190920190925280519101206064900660ff16601911156131c35760ff831615806131935750600260ff8416145b156131a057600a176131be565b600160ff841614806131b55750600360ff8416145b156131be576005175b613299565b604080516020808201889052818301879052600360f81b606083015282516041818403018152606190920190925280519101206064900660ff16603211156132515760ff8316613215576008176131be565b600160ff84161415613229576001176131be565b600260ff8416141561323d576002176131be565b600360ff841614156131be57600417613299565b60ff831661326157600217613299565b600160ff8416141561327557600417613299565b600260ff8416141561328957600817613299565b600360ff84161415613299576001175b604080516020808201889052818301879052606f60f81b60608301528251808303604101815260619092019092528051910120606490066000603c60ff8316106132f757605a60ff8316106132ef5760026132f2565b60015b6132fa565b60005b905060048160ff1610613312578260f0179250613454565b8060ff166003141561338c576040805160208082018a9052818301899052600760fc1b606083015282518083036041018152606190920190925280519101206003166001810160070260ff811660151415613372578460d0179450613385565b8060ff16601c1415613385578460b01794505b5050613454565b8060ff1660021415613406576040805160208082018a9052818301899052600760fc1b60608301528251808303604101815260619092019092528051910120600690066001810160030260ff8116600f14156133ed57846050179450613385565b8060ff1660121415613385578460a01794505050613454565b8060ff1660011415613454576040805160208082018a9052818301899052600760fc1b6060830152825160418184030181526061909201909252805191012060031660020a60100292909217915b509095945050505050565b600080600061346d886121fe565b86925090508460008061347f8b611b54565b5050915091508160070b600014801561349b57508060070b6000145b156134af576002955084600117945061377e565b8660ff168360ff161161377e5760408051602080820187905260f886901b6001600160f81b03191682840152604182018d9052600360f81b6061830152825180830360420181526062909201909252805191012060149006600186811614801590613528575060ff8116158061352857508360ff166050145b1561353c5760029650856001179550613772565b60028087161480159061357b57508060ff166001148061355f57508360ff166050145b8061357b57508360ff16604f14801561357b5750600180871614155b1561358f5760039650856002179550613772565b60048087161480159061361557508060ff16600214806135b257508360ff166050145b806135ce57508360ff16604f1480156135ce5750600180871614155b806135ea57508360ff16604f1480156135ea5750600280871614155b8061361557508360ff16604e1480156136065750600180871614155b80156136155750600280871614155b15613627576004965094861794613772565b60088087161480159061375957508060ff166003148061364a57508360ff166050145b8061366657508360ff16604f1480156136665750600180871614155b8061368257508360ff16604f1480156136825750600280871614155b8061369e57508360ff16604f14801561369e5750600480871614155b806136c957508360ff16604e1480156136ba5750600180871614155b80156136c95750600280871614155b806136f457508360ff16604e1480156136e55750600180871614155b80156136f45750600480871614155b8061371f57508360ff16604e1480156137105750600480871614155b801561371f5750600280871614155b8061375957508360ff16604d14801561373b5750600480871614155b801561374a5750600280871614155b80156137595750600180871614155b1561376d5760059650856008179550613772565b600196505b506001909201916134af565b505050509550959350505050565b604080516020808201859052818301849052603360f91b6060830152825180830360410181526061830184528051908201206081830186905260a18301859052606760f81b60c1840152835160a281850301815260c290930190935281519101206000918291613806918691600991829006919006613c31565b946001945092505050565b600060ff8216600114613826575060006125fa565b600f831561383257600a015b6040805160208082018a9052818301899052600360f91b6060830152825180830360410181526061909201909252805191012060ff821660649091061080156138be576040805160208082018b90528183018a9052600760f81b606083015282516041818403018152606190920190925280519101208690816138b157fe5b06600101925050506125fa565b506000979650505050505050565b6000928352600b602090815260408085209385529281528284209184525290205460ff1690565b6000600160ff1b82141561390957506000611136565b6000613916836000612013565b905060198104600101915050611136565b80158015906139ab57506009546040805163c9a59e4760e01b81526004810184905290516001600160a01b039092169163c9a59e4791602480820192602092909190829003018186803b15801561397d57600080fd5b505afa158015613991573d6000803e3d6000fd5b505050506040513d60208110156139a757600080fd5b5051155b15610c38576001600160a01b0381166000818152600d6020908152604080832062069780420190819055815193845291830182905280519193927fc24affdb20f6529973515c5398461c1f6228edbfac531ab49e56a11433a86c9f929081900390910190a25050565b600954604080516331a9108f60e11b815260048101849052905160009283926001600160a01b0390911691636352211e91602480820192602092909190829003018186803b158015613a6557600080fd5b505afa158015613a79573d6000803e3d6000fd5b505050506040513d6020811015613a8f57600080fd5b50516001600160a01b03163014915050919050565b613aac613cca565b60085460408051630178fe3f60e01b81526004810185905290516000926001600160a01b031691630178fe3f916024808301926020929190829003018186803b158015613af857600080fd5b505afa158015613b0c573d6000803e3d6000fd5b505050506040513d6020811015613b2257600080fd5b5051905060008080808080613b3687613c68565b6040805160c08101825261ffff978816815260ff968716602082015294909516948401949094529084166060830152909216608083015263ffffffff1660a08201529998505050505050505050565b6000806000613b9384611b54565b5050915091506000198260070b12158015613bb357506000198160070b12155b8015613bc3575060018260070b13155b8015613bd3575060018160070b13155b949350505050565b6000806000613be984611b54565b50509150915060008260070b1215613c02578160000391505b60008160070b1215613c12576000035b8060070b8260070b1315613c2857509050611136565b91506111369050565b600080600080613c4087611b54565b5092509250925061228b8660ff1660048560090203018660ff16600485600902030183612603565b61ffff60e882901c81169260ff60e084901c169260f881901c9260d082901c81169260c083901c9091169163ffffffff1690565b6040805160a08101825260008082526020820181905291810182905260608101829052608081019190915290565b6040805160c081018252600080825260208201819052918101829052606081018290526080810182905260a08101919091529056fea264697066735822122084e684df48d70750ae32c0a8e752efeca8a6c593361c3b09bcb2a36e44e76c6c64736f6c63430006050033",
  "devdoc": {
    "methods": {}
  },
  "userdoc": {
    "methods": {}
  },
  "storageLayout": {
    "storage": [
      {
        "astId": 2663,
        "contract": "src/dungeon/DungeonMovementFacet.sol:DungeonMovementFacet",
        "label": "_characters",
        "offset": 0,
        "slot": "0",
        "type": "t_mapping(t_uint256,t_struct(Character)2646_storage)"
      },
      {
        "astId": 2667,
        "contract": "src/dungeon/DungeonMovementFacet.sol:DungeonMovementFacet",
        "label": "_rooms",
        "offset": 0,
        "slot": "1",
        "type": "t_mapping(t_uint256,t_struct(Room)2629_storage)"
      },
      {
        "astId": 2671,
        "contract": "src/dungeon/DungeonMovementFacet.sol:DungeonMovementFacet",
        "label": "_areas",
        "offset": 0,
        "slot": "2",
        "type": "t_mapping(t_uint256,t_struct(Area)2659_storage)"
      },
      {
        "astId": 2678,
        "contract": "src/dungeon/DungeonMovementFacet.sol:DungeonMovementFacet",
        "label": "_areaCounter",
        "offset": 0,
        "slot": "3",
        "type": "t_struct(AreaCounter)2676_storage"
      },
      {
        "astId": 2680,
        "contract": "src/dungeon/DungeonMovementFacet.sol:DungeonMovementFacet",
        "label": "_adminContract",
        "offset": 0,
        "slot": "4",
        "type": "t_address"
      },
      {
        "astId": 2682,
        "contract": "src/dungeon/DungeonMovementFacet.sol:DungeonMovementFacet",
        "label": "_blockHashRegister",
        "offset": 0,
        "slot": "5",
        "type": "t_contract(BlockHashRegister)12877"
      },
      {
        "astId": 2684,
        "contract": "src/dungeon/DungeonMovementFacet.sol:DungeonMovementFacet",
        "label": "_charactersContract",
        "offset": 0,
        "slot": "6",
        "type": "t_contract(Characters)469"
      },
      {
        "astId": 2686,
        "contract": "src/dungeon/DungeonMovementFacet.sol:DungeonMovementFacet",
        "label": "_elementsContract",
        "offset": 0,
        "slot": "7",
        "type": "t_contract(Elements)12560"
      },
      {
        "astId": 2688,
        "contract": "src/dungeon/DungeonMovementFacet.sol:DungeonMovementFacet",
        "label": "_gearsContract",
        "offset": 0,
        "slot": "8",
        "type": "t_contract(Gears)12579"
      },
      {
        "astId": 2690,
        "contract": "src/dungeon/DungeonMovementFacet.sol:DungeonMovementFacet",
        "label": "_roomsContract",
        "offset": 0,
        "slot": "9",
        "type": "t_contract(Rooms)12646"
      },
      {
        "astId": 2692,
        "contract": "src/dungeon/DungeonMovementFacet.sol:DungeonMovementFacet",
        "label": "_playerContract",
        "offset": 0,
        "slot": "10",
        "type": "t_contract(Player)10428"
      },
      {
        "astId": 2700,
        "contract": "src/dungeon/DungeonMovementFacet.sol:DungeonMovementFacet",
        "label": "_unlockedExits",
        "offset": 0,
        "slot": "11",
        "type": "t_mapping(t_uint256,t_mapping(t_uint256,t_mapping(t_uint256,t_bool)))"
      },
      {
        "astId": 2711,
        "contract": "src/dungeon/DungeonMovementFacet.sol:DungeonMovementFacet",
        "label": "_quests",
        "offset": 0,
        "slot": "12",
        "type": "t_mapping(t_uint256,t_mapping(t_uint64,t_struct(Quest)2705_storage))"
      },
      {
        "astId": 2715,
        "contract": "src/dungeon/DungeonMovementFacet.sol:DungeonMovementFacet",
        "label": "_taxDueDate",
        "offset": 0,
        "slot": "13",
        "type": "t_mapping(t_address,t_uint256)"
      },
      {
        "astId": 2719,
        "contract": "src/dungeon/DungeonMovementFacet.sol:DungeonMovementFacet",
        "label": "_customRoomNames",
        "offset": 0,
        "slot": "14",
        "type": "t_mapping(t_uint256,t_string_storage)"
      }
    ],
    "types": {
      "t_address": {
        "encoding": "inplace",
        "label": "address",
        "numberOfBytes": "20"
      },
      "t_bool": {
        "encoding": "inplace",
        "label": "bool",
        "numberOfBytes": "1"
      },
      "t_contract(BlockHashRegister)12877": {
        "encoding": "inplace",
        "label": "contract BlockHashRegister",
        "numberOfBytes": "20"
      },
      "t_contract(Characters)469": {
        "encoding": "inplace",
        "label": "contract Characters",
        "numberOfBytes": "20"
      },
      "t_contract(Elements)12560": {
        "encoding": "inplace",
        "label": "contract Elements",
        "numberOfBytes": "20"
      },
      "t_contract(Gears)12579": {
        "encoding": "inplace",
        "label": "contract Gears",
        "numberOfBytes": "20"
      },
      "t_contract(Player)10428": {
        "encoding": "inplace",
        "label": "contract Player",
        "numberOfBytes": "20"
      },
      "t_contract(Rooms)12646": {
        "encoding": "inplace",
        "label": "contract Rooms",
        "numberOfBytes": "20"
      },
      "t_int64": {
        "encoding": "inplace",
        "label": "int64",
        "numberOfBytes": "8"
      },
      "t_mapping(t_address,t_uint256)": {
        "encoding": "mapping",
        "key": "t_address",
        "label": "mapping(address => uint256)",
        "numberOfBytes": "32",
        "value": "t_uint256"
      },
      "t_mapping(t_uint256,t_bool)": {
        "encoding": "mapping",
        "key": "t_uint256",
        "label": "mapping(uint256 => bool)",
        "numberOfBytes": "32",
        "value": "t_bool"
      },
      "t_mapping(t_uint256,t_mapping(t_uint256,t_bool))": {
        "encoding": "mapping",
        "key": "t_uint256",
        "label": "mapping(uint256 => mapping(uint256 => bool))",
        "numberOfBytes": "32",
        "value": "t_mapping(t_uint256,t_bool)"
      },
      "t_mapping(t_uint256,t_mapping(t_uint256,t_mapping(t_uint256,t_bool)))": {
        "encoding": "mapping",
        "key": "t_uint256",
        "label": "mapping(uint256 => mapping(uint256 => mapping(uint256 => bool)))",
        "numberOfBytes": "32",
        "value": "t_mapping(t_uint256,t_mapping(t_uint256,t_bool))"
      },
      "t_mapping(t_uint256,t_mapping(t_uint64,t_struct(Quest)2705_storage))": {
        "encoding": "mapping",
        "key": "t_uint256",
        "label": "mapping(uint256 => mapping(uint64 => struct DungeonDataLayout.Quest))",
        "numberOfBytes": "32",
        "value": "t_mapping(t_uint64,t_struct(Quest)2705_storage)"
      },
      "t_mapping(t_uint256,t_string_storage)": {
        "encoding": "mapping",
        "key": "t_uint256",
        "label": "mapping(uint256 => string)",
        "numberOfBytes": "32",
        "value": "t_string_storage"
      },
      "t_mapping(t_uint256,t_struct(Area)2659_storage)": {
        "encoding": "mapping",
        "key": "t_uint256",
        "label": "mapping(uint256 => struct DungeonDataLayout.Area)",
        "numberOfBytes": "32",
        "value": "t_struct(Area)2659_storage"
      },
      "t_mapping(t_uint256,t_struct(Character)2646_storage)": {
        "encoding": "mapping",
        "key": "t_uint256",
        "label": "mapping(uint256 => struct DungeonDataLayout.Character)",
        "numberOfBytes": "32",
        "value": "t_struct(Character)2646_storage"
      },
      "t_mapping(t_uint256,t_struct(Room)2629_storage)": {
        "encoding": "mapping",
        "key": "t_uint256",
        "label": "mapping(uint256 => struct DungeonDataLayout.Room)",
        "numberOfBytes": "32",
        "value": "t_struct(Room)2629_storage"
      },
      "t_mapping(t_uint64,t_struct(Quest)2705_storage)": {
        "encoding": "mapping",
        "key": "t_uint64",
        "label": "mapping(uint64 => struct DungeonDataLayout.Quest)",
        "numberOfBytes": "32",
        "value": "t_struct(Quest)2705_storage"
      },
      "t_string_storage": {
        "encoding": "bytes",
        "label": "string",
        "numberOfBytes": "32"
      },
      "t_struct(Area)2659_storage": {
        "encoding": "inplace",
        "label": "struct DungeonDataLayout.Area",
        "members": [
          {
            "astId": 2648,
            "contract": "src/dungeon/DungeonMovementFacet.sol:DungeonMovementFacet",
            "label": "areaType",
            "offset": 0,
            "slot": "0",
            "type": "t_uint8"
          },
          {
            "astId": 2650,
            "contract": "src/dungeon/DungeonMovementFacet.sol:DungeonMovementFacet",
            "label": "discovered",
            "offset": 1,
            "slot": "0",
            "type": "t_uint8"
          },
          {
            "astId": 2652,
            "contract": "src/dungeon/DungeonMovementFacet.sol:DungeonMovementFacet",
            "label": "lastRoomIndex",
            "offset": 2,
            "slot": "0",
            "type": "t_uint8"
          },
          {
            "astId": 2654,
            "contract": "src/dungeon/DungeonMovementFacet.sol:DungeonMovementFacet",
            "label": "currentIndex",
            "offset": 3,
            "slot": "0",
            "type": "t_uint8"
          },
          {
            "astId": 2656,
            "contract": "src/dungeon/DungeonMovementFacet.sol:DungeonMovementFacet",
            "label": "lastRoom",
            "offset": 0,
            "slot": "1",
            "type": "t_uint256"
          },
          {
            "astId": 2658,
            "contract": "src/dungeon/DungeonMovementFacet.sol:DungeonMovementFacet",
            "label": "eventBlockNumber",
            "offset": 0,
            "slot": "2",
            "type": "t_uint64"
          }
        ],
        "numberOfBytes": "96"
      },
      "t_struct(AreaCounter)2676_storage": {
        "encoding": "inplace",
        "label": "struct DungeonDataLayout.AreaCounter",
        "members": [
          {
            "astId": 2673,
            "contract": "src/dungeon/DungeonMovementFacet.sol:DungeonMovementFacet",
            "label": "lastPeriod",
            "offset": 0,
            "slot": "0",
            "type": "t_uint64"
          },
          {
            "astId": 2675,
            "contract": "src/dungeon/DungeonMovementFacet.sol:DungeonMovementFacet",
            "label": "numAreas",
            "offset": 8,
            "slot": "0",
            "type": "t_uint64"
          }
        ],
        "numberOfBytes": "32"
      },
      "t_struct(Character)2646_storage": {
        "encoding": "inplace",
        "label": "struct DungeonDataLayout.Character",
        "members": [
          {
            "astId": 2631,
            "contract": "src/dungeon/DungeonMovementFacet.sol:DungeonMovementFacet",
            "label": "location",
            "offset": 0,
            "slot": "0",
            "type": "t_uint256"
          },
          {
            "astId": 2633,
            "contract": "src/dungeon/DungeonMovementFacet.sol:DungeonMovementFacet",
            "label": "direction",
            "offset": 0,
            "slot": "1",
            "type": "t_uint8"
          },
          {
            "astId": 2635,
            "contract": "src/dungeon/DungeonMovementFacet.sol:DungeonMovementFacet",
            "label": "floors",
            "offset": 1,
            "slot": "1",
            "type": "t_int64"
          },
          {
            "astId": 2637,
            "contract": "src/dungeon/DungeonMovementFacet.sol:DungeonMovementFacet",
            "label": "slot_1",
            "offset": 0,
            "slot": "2",
            "type": "t_uint256"
          },
          {
            "astId": 2639,
            "contract": "src/dungeon/DungeonMovementFacet.sol:DungeonMovementFacet",
            "label": "slot_2",
            "offset": 0,
            "slot": "3",
            "type": "t_uint256"
          },
          {
            "astId": 2641,
            "contract": "src/dungeon/DungeonMovementFacet.sol:DungeonMovementFacet",
            "label": "slot_3",
            "offset": 0,
            "slot": "4",
            "type": "t_uint256"
          },
          {
            "astId": 2643,
            "contract": "src/dungeon/DungeonMovementFacet.sol:DungeonMovementFacet",
            "label": "slot_4",
            "offset": 0,
            "slot": "5",
            "type": "t_uint256"
          },
          {
            "astId": 2645,
            "contract": "src/dungeon/DungeonMovementFacet.sol:DungeonMovementFacet",
            "label": "slot_5",
            "offset": 0,
            "slot": "6",
            "type": "t_uint256"
          }
        ],
        "numberOfBytes": "224"
      },
      "t_struct(Quest)2705_storage": {
        "encoding": "inplace",
        "label": "struct DungeonDataLayout.Quest",
        "members": [
          {
            "astId": 2702,
            "contract": "src/dungeon/DungeonMovementFacet.sol:DungeonMovementFacet",
            "label": "status",
            "offset": 0,
            "slot": "0",
            "type": "t_uint8"
          },
          {
            "astId": 2704,
            "contract": "src/dungeon/DungeonMovementFacet.sol:DungeonMovementFacet",
            "label": "data",
            "offset": 0,
            "slot": "1",
            "type": "t_string_storage"
          }
        ],
        "numberOfBytes": "64"
      },
      "t_struct(Room)2629_storage": {
        "encoding": "inplace",
        "label": "struct DungeonDataLayout.Room",
        "members": [
          {
            "astId": 2608,
            "contract": "src/dungeon/DungeonMovementFacet.sol:DungeonMovementFacet",
            "label": "blockNumber",
            "offset": 0,
            "slot": "0",
            "type": "t_uint64"
          },
          {
            "astId": 2610,
            "contract": "src/dungeon/DungeonMovementFacet.sol:DungeonMovementFacet",
            "label": "monsterBlockNumber",
            "offset": 8,
            "slot": "0",
            "type": "t_uint64"
          },
          {
            "astId": 2612,
            "contract": "src/dungeon/DungeonMovementFacet.sol:DungeonMovementFacet",
            "label": "numActiveCharacters",
            "offset": 16,
            "slot": "0",
            "type": "t_uint64"
          },
          {
            "astId": 2614,
            "contract": "src/dungeon/DungeonMovementFacet.sol:DungeonMovementFacet",
            "label": "direction",
            "offset": 24,
            "slot": "0",
            "type": "t_uint8"
          },
          {
            "astId": 2616,
            "contract": "src/dungeon/DungeonMovementFacet.sol:DungeonMovementFacet",
            "label": "exits",
            "offset": 25,
            "slot": "0",
            "type": "t_uint8"
          },
          {
            "astId": 2618,
            "contract": "src/dungeon/DungeonMovementFacet.sol:DungeonMovementFacet",
            "label": "kind",
            "offset": 26,
            "slot": "0",
            "type": "t_uint8"
          },
          {
            "astId": 2620,
            "contract": "src/dungeon/DungeonMovementFacet.sol:DungeonMovementFacet",
            "label": "areaAtDiscovery",
            "offset": 27,
            "slot": "0",
            "type": "t_uint8"
          },
          {
            "astId": 2622,
            "contract": "src/dungeon/DungeonMovementFacet.sol:DungeonMovementFacet",
            "label": "lastRoomIndex",
            "offset": 28,
            "slot": "0",
            "type": "t_uint8"
          },
          {
            "astId": 2624,
            "contract": "src/dungeon/DungeonMovementFacet.sol:DungeonMovementFacet",
            "label": "index",
            "offset": 29,
            "slot": "0",
            "type": "t_uint8"
          },
          {
            "astId": 2626,
            "contract": "src/dungeon/DungeonMovementFacet.sol:DungeonMovementFacet",
            "label": "discoverer",
            "offset": 0,
            "slot": "1",
            "type": "t_uint256"
          },
          {
            "astId": 2628,
            "contract": "src/dungeon/DungeonMovementFacet.sol:DungeonMovementFacet",
            "label": "randomEvent",
            "offset": 0,
            "slot": "2",
            "type": "t_uint64"
          }
        ],
        "numberOfBytes": "96"
      },
      "t_uint256": {
        "encoding": "inplace",
        "label": "uint256",
        "numberOfBytes": "32"
      },
      "t_uint64": {
        "encoding": "inplace",
        "label": "uint64",
        "numberOfBytes": "8"
      },
      "t_uint8": {
        "encoding": "inplace",
        "label": "uint8",
        "numberOfBytes": "1"
      }
    }
  }
}