{
  "abi": [
    {
      "anonymous": false,
      "inputs": [
        {
          "indexed": true,
          "internalType": "uint256",
          "name": "characterId",
          "type": "uint256"
        },
        {
          "indexed": true,
          "internalType": "uint256",
          "name": "oldLocation",
          "type": "uint256"
        },
        {
          "indexed": true,
          "internalType": "uint256",
          "name": "newLocation",
          "type": "uint256"
        },
        {
          "indexed": false,
          "internalType": "uint8",
          "name": "mode",
          "type": "uint8"
        },
        {
          "indexed": false,
          "internalType": "uint256",
          "name": "path",
          "type": "uint256"
        }
      ],
      "name": "CharacterMoved",
      "type": "event"
    },
    {
      "anonymous": false,
      "inputs": [
        {
          "indexed": true,
          "internalType": "uint256",
          "name": "characterId",
          "type": "uint256"
        },
        {
          "indexed": false,
          "internalType": "uint256",
          "name": "monsterId",
          "type": "uint256"
        }
      ],
      "name": "Death",
      "type": "event"
    },
    {
      "anonymous": false,
      "inputs": [
        {
          "indexed": true,
          "internalType": "uint256",
          "name": "characterId",
          "type": "uint256"
        },
        {
          "indexed": true,
          "internalType": "address",
          "name": "player",
          "type": "address"
        },
        {
          "indexed": false,
          "internalType": "string",
          "name": "name",
          "type": "string"
        }
      ],
      "name": "Enter",
      "type": "event"
    },
    {
      "anonymous": false,
      "inputs": [
        {
          "indexed": false,
          "internalType": "uint256",
          "name": "characterId",
          "type": "uint256"
        },
        {
          "indexed": false,
          "internalType": "uint256",
          "name": "gearId",
          "type": "uint256"
        },
        {
          "indexed": false,
          "internalType": "uint8",
          "name": "slotType",
          "type": "uint8"
        }
      ],
      "name": "Equip",
      "type": "event"
    },
    {
      "anonymous": false,
      "inputs": [
        {
          "indexed": true,
          "internalType": "uint256",
          "name": "characterId",
          "type": "uint256"
        },
        {
          "indexed": false,
          "internalType": "uint16",
          "name": "hp",
          "type": "uint16"
        }
      ],
      "name": "Heal",
      "type": "event"
    },
    {
      "anonymous": false,
      "inputs": [
        {
          "indexed": true,
          "internalType": "uint256",
          "name": "characterId",
          "type": "uint256"
        },
        {
          "indexed": false,
          "internalType": "uint16",
          "name": "newLevel",
          "type": "uint16"
        }
      ],
      "name": "LevelUp",
      "type": "event"
    },
    {
      "anonymous": false,
      "inputs": [
        {
          "indexed": true,
          "internalType": "uint256",
          "name": "characterId",
          "type": "uint256"
        },
        {
          "indexed": true,
          "internalType": "uint64",
          "name": "id",
          "type": "uint64"
        },
        {
          "indexed": true,
          "internalType": "uint8",
          "name": "status",
          "type": "uint8"
        },
        {
          "indexed": false,
          "internalType": "string",
          "name": "data",
          "type": "string"
        }
      ],
      "name": "QuestUpdate",
      "type": "event"
    },
    {
      "anonymous": false,
      "inputs": [
        {
          "indexed": true,
          "internalType": "uint256",
          "name": "areaLocation",
          "type": "uint256"
        },
        {
          "indexed": false,
          "internalType": "uint64",
          "name": "blockNumber",
          "type": "uint64"
        }
      ],
      "name": "RandomEvent",
      "type": "event"
    },
    {
      "anonymous": false,
      "inputs": [
        {
          "indexed": true,
          "internalType": "uint256",
          "name": "characterId",
          "type": "uint256"
        },
        {
          "indexed": false,
          "internalType": "uint256",
          "name": "gearId",
          "type": "uint256"
        }
      ],
      "name": "Recycle",
      "type": "event"
    },
    {
      "anonymous": false,
      "inputs": [
        {
          "indexed": true,
          "internalType": "uint256",
          "name": "deadCharacterId",
          "type": "uint256"
        },
        {
          "indexed": false,
          "internalType": "uint256",
          "name": "newCharacterId",
          "type": "uint256"
        }
      ],
      "name": "Resurrect",
      "type": "event"
    },
    {
      "anonymous": false,
      "inputs": [
        {
          "indexed": true,
          "internalType": "uint256",
          "name": "location",
          "type": "uint256"
        },
        {
          "indexed": false,
          "internalType": "bytes32",
          "name": "blockHash",
          "type": "bytes32"
        },
        {
          "indexed": false,
          "internalType": "uint8",
          "name": "exits",
          "type": "uint8"
        },
        {
          "indexed": false,
          "internalType": "uint8",
          "name": "kind",
          "type": "uint8"
        }
      ],
      "name": "RoomActualised",
      "type": "event"
    },
    {
      "anonymous": false,
      "inputs": [
        {
          "indexed": true,
          "internalType": "uint256",
          "name": "location",
          "type": "uint256"
        },
        {
          "indexed": false,
          "internalType": "uint64",
          "name": "blockNumber",
          "type": "uint64"
        },
        {
          "indexed": false,
          "internalType": "uint8",
          "name": "direction",
          "type": "uint8"
        }
      ],
      "name": "RoomDiscovered",
      "type": "event"
    },
    {
      "anonymous": false,
      "inputs": [
        {
          "indexed": true,
          "internalType": "uint256",
          "name": "location",
          "type": "uint256"
        },
        {
          "indexed": true,
          "internalType": "address",
          "name": "owner",
          "type": "address"
        },
        {
          "indexed": false,
          "internalType": "uint256",
          "name": "id",
          "type": "uint256"
        },
        {
          "indexed": false,
          "internalType": "uint256",
          "name": "amount",
          "type": "uint256"
        }
      ],
      "name": "RoomIncome",
      "type": "event"
    },
    {
      "anonymous": false,
      "inputs": [
        {
          "indexed": true,
          "internalType": "uint256",
          "name": "location",
          "type": "uint256"
        },
        {
          "indexed": false,
          "internalType": "string",
          "name": "name",
          "type": "string"
        },
        {
          "indexed": false,
          "internalType": "uint256",
          "name": "characterId",
          "type": "uint256"
        }
      ],
      "name": "RoomName",
      "type": "event"
    },
    {
      "anonymous": false,
      "inputs": [
        {
          "indexed": true,
          "internalType": "address",
          "name": "owner",
          "type": "address"
        },
        {
          "indexed": false,
          "internalType": "uint256",
          "name": "tax",
          "type": "uint256"
        },
        {
          "indexed": false,
          "internalType": "uint256",
          "name": "newDueDate",
          "type": "uint256"
        }
      ],
      "name": "RoomTaxPay",
      "type": "event"
    },
    {
      "inputs": [
        {
          "internalType": "uint256",
          "name": "location",
          "type": "uint256"
        }
      ],
      "name": "getAreaTypeForRoom",
      "outputs": [
        {
          "internalType": "uint8",
          "name": "",
          "type": "uint8"
        }
      ],
      "stateMutability": "view",
      "type": "function"
    },
    {
      "inputs": [
        {
          "internalType": "uint256",
          "name": "characterId",
          "type": "uint256"
        }
      ],
      "name": "getCharacterInfo",
      "outputs": [
        {
          "internalType": "uint256",
          "name": "location",
          "type": "uint256"
        },
        {
          "internalType": "uint8",
          "name": "direction",
          "type": "uint8"
        },
        {
          "internalType": "uint256",
          "name": "data",
          "type": "uint256"
        },
        {
          "internalType": "uint256",
          "name": "attackGear",
          "type": "uint256"
        },
        {
          "internalType": "uint256",
          "name": "defenseGear",
          "type": "uint256"
        },
        {
          "internalType": "uint256",
          "name": "accessory1",
          "type": "uint256"
        },
        {
          "internalType": "uint256",
          "name": "accessory2",
          "type": "uint256"
        },
        {
          "internalType": "uint256",
          "name": "accessory3",
          "type": "uint256"
        },
        {
          "internalType": "int64",
          "name": "floors",
          "type": "int64"
        },
        {
          "internalType": "uint256",
          "name": "taxDueDate",
          "type": "uint256"
        },
        {
          "internalType": "address",
          "name": "player",
          "type": "address"
        }
      ],
      "stateMutability": "view",
      "type": "function"
    },
    {
      "inputs": [
        {
          "internalType": "uint256",
          "name": "characterId",
          "type": "uint256"
        }
      ],
      "name": "getCharacterLocation",
      "outputs": [
        {
          "internalType": "uint256",
          "name": "location",
          "type": "uint256"
        }
      ],
      "stateMutability": "view",
      "type": "function"
    },
    {
      "inputs": [
        {
          "internalType": "uint256",
          "name": "location",
          "type": "uint256"
        }
      ],
      "name": "getCustomRoomName",
      "outputs": [
        {
          "internalType": "string",
          "name": "name",
          "type": "string"
        }
      ],
      "stateMutability": "view",
      "type": "function"
    },
    {
      "inputs": [
        {
          "internalType": "uint256",
          "name": "characterId",
          "type": "uint256"
        },
        {
          "internalType": "uint64",
          "name": "id",
          "type": "uint64"
        }
      ],
      "name": "getQuest",
      "outputs": [
        {
          "internalType": "uint8",
          "name": "status",
          "type": "uint8"
        },
        {
          "internalType": "string",
          "name": "data",
          "type": "string"
        }
      ],
      "stateMutability": "view",
      "type": "function"
    },
    {
      "inputs": [
        {
          "internalType": "uint256",
          "name": "location",
          "type": "uint256"
        }
      ],
      "name": "getRoomInfo",
      "outputs": [
        {
          "internalType": "uint256",
          "name": "blockNumber",
          "type": "uint256"
        },
        {
          "internalType": "uint256",
          "name": "monsterBlockNumber",
          "type": "uint256"
        },
        {
          "internalType": "uint8",
          "name": "direction",
          "type": "uint8"
        },
        {
          "internalType": "uint8",
          "name": "areaAtDiscovery",
          "type": "uint8"
        },
        {
          "internalType": "uint8",
          "name": "lastRoomIndex",
          "type": "uint8"
        },
        {
          "internalType": "uint8",
          "name": "index",
          "type": "uint8"
        },
        {
          "internalType": "bool",
          "name": "actualised",
          "type": "bool"
        },
        {
          "internalType": "uint64",
          "name": "numActiveCharacters",
          "type": "uint64"
        },
        {
          "internalType": "uint8",
          "name": "kind",
          "type": "uint8"
        },
        {
          "internalType": "uint64",
          "name": "randomEvent",
          "type": "uint64"
        },
        {
          "internalType": "uint256",
          "name": "discoverer",
          "type": "uint256"
        }
      ],
      "stateMutability": "view",
      "type": "function"
    },
    {
      "inputs": [
        {
          "internalType": "uint256",
          "name": "characterId",
          "type": "uint256"
        },
        {
          "internalType": "uint256",
          "name": "location1",
          "type": "uint256"
        },
        {
          "internalType": "uint256",
          "name": "location2",
          "type": "uint256"
        }
      ],
      "name": "isUnlocked",
      "outputs": [
        {
          "internalType": "bool",
          "name": "",
          "type": "bool"
        }
      ],
      "stateMutability": "view",
      "type": "function"
    }
  ],
  "address": "0x19C23D630F4A07cB2f18aa56Ad7a9090A88A8243",
  "args": [],
  "bytecode": "0x608060405234801561001057600080fd5b50610896806100206000396000f3fe608060405234801561001057600080fd5b506004361061007d5760003560e01c80638803bb431161005b5780638803bb43146101bf578063d8c413eb146101fc578063e447bcbf1461022f578063f01f4486146102e15761007d565b80630d830190146100825780635062e3b2146101075780636790d2b514610136575b600080fd5b61009f6004803603602081101561009857600080fd5b5035610373565b604080519b8c5260ff909a1660208c01528a8a019890985260608a0196909652608089019490945260a088019290925260c087015260e0860152600790810b900b6101008501526101208401526001600160a01b031661014083015251908190036101600190f35b6101246004803603602081101561011d57600080fd5b5035610515565b60408051918252519081900360200190f35b6101536004803603602081101561014c57600080fd5b5035610527565b604080519b8c5260208c019a909a5260ff9889168b8b015296881660608b015294871660808a015292861660a089015290151560c088015267ffffffffffffffff90811660e0880152931661010086015290911661012084015261014083015251908190036101600190f35b6101e8600480360360608110156101d557600080fd5b50803590602081013590604001356105a6565b604080519115158252519081900360200190f35b6102196004803603602081101561021257600080fd5b50356105bb565b6040805160ff9092168252519081900360200190f35b61025c6004803603604081101561024557600080fd5b508035906020013567ffffffffffffffff166105cc565b604051808360ff1660ff16815260200180602001828103825283818151815260200191508051906020019080838360005b838110156102a557818101518382015260200161028d565b50505050905090810190601f1680156102d25780820380516001836020036101000a031916815260200191505b50935050505060405180910390f35b6102fe600480360360208110156102f757600080fd5b5035610692565b6040805160208082528351818301528351919283929083019185019080838360005b83811015610338578181015183820152602001610320565b50505050905090810190601f1680156103655780820380516001836020036101000a031916815260200191505b509250505060405180910390f35b600081815260208181526040808320805460018201546006548451630178fe3f60e01b8152600481018990529451929660ff9092169591948594859485948594859485948594859491936001600160a01b031692630178fe3f926024808301939192829003018186803b1580156103e957600080fd5b505afa1580156103fd573d6000803e3d6000fd5b505050506040513d602081101561041357600080fd5b8101908080519060200190929190505050995080600201549850806003015497508060040154965080600501549550806006015494508060010160019054906101000a900460070b9350600660009054906101000a90046001600160a01b03166001600160a01b0316633038bb088e6040518263ffffffff1660e01b81526004018082815260200191505060206040518083038186803b1580156104b657600080fd5b505afa1580156104ca573d6000803e3d6000fd5b505050506040513d60208110156104e057600080fd5b50516001600160a01b0381166000908152600d60205260409020549c9e9b9d50999b989a979996989597949693959492505050565b60009081526020819052604090205490565b600090815260016020819052604090912080546002820154919092015467ffffffffffffffff80841694600160401b850482169460ff600160c01b8204811695600160d81b8304821695600160e01b8404831695600160e81b8504841695600160d01b860490941680151595600160801b900482169490939091169190565b60006105b3848484610733565b949350505050565b60006105c68261075a565b92915050565b6000828152600c6020908152604080832067ffffffffffffffff851684528252918290208054600180830180548651600261010094831615949094026000190190911692909204601f810186900486028301860190965285825260ff909216946060949192918301828280156106835780601f1061065857610100808354040283529160200191610683565b820191906000526020600020905b81548152906001019060200180831161066657829003601f168201915b50505050509150509250929050565b6000818152600e602090815260409182902080548351601f60026000196101006001861615020190931692909204918201849004840281018401909452808452606093928301828280156107275780601f106106fc57610100808354040283529160200191610727565b820191906000526020600020905b81548152906001019060200180831161070a57829003601f168201915b50505050509050919050565b6000928352600b602090815260408085209385529281528284209184525290205460ff1690565b60006002600061076984610783565b815260208101919091526040016000205460ff1692915050565b6000806000806107928561081b565b509250925092506000808460070b126107b5575060096004840160070b056107cf565b60098460000360040160070b816107c857fe5b0560000390505b6000808460070b126107eb575060096004840160070b05610805565b60098460000360040160070b816107fe57fe5b0560000390505b610810828285610836565b979650505050505050565b90600160401b820490600160801b830490600160ff1b840490565b600160ff1b67ffffffffffffffff938416928416600160401b0291909316600160801b020101019056fea2646970667358221220d3a7e85eb20245a614fb3e6406635c7eebba2f4503f013aaabf1f8f335535f4b64736f6c63430006050033",
  "devdoc": {
    "methods": {}
  },
  "userdoc": {
    "methods": {}
  },
  "storageLayout": {
    "storage": [
      {
        "astId": 2663,
        "contract": "src/dungeon/DungeonInfoFacet.sol:DungeonInfoFacet",
        "label": "_characters",
        "offset": 0,
        "slot": "0",
        "type": "t_mapping(t_uint256,t_struct(Character)2646_storage)"
      },
      {
        "astId": 2667,
        "contract": "src/dungeon/DungeonInfoFacet.sol:DungeonInfoFacet",
        "label": "_rooms",
        "offset": 0,
        "slot": "1",
        "type": "t_mapping(t_uint256,t_struct(Room)2629_storage)"
      },
      {
        "astId": 2671,
        "contract": "src/dungeon/DungeonInfoFacet.sol:DungeonInfoFacet",
        "label": "_areas",
        "offset": 0,
        "slot": "2",
        "type": "t_mapping(t_uint256,t_struct(Area)2659_storage)"
      },
      {
        "astId": 2678,
        "contract": "src/dungeon/DungeonInfoFacet.sol:DungeonInfoFacet",
        "label": "_areaCounter",
        "offset": 0,
        "slot": "3",
        "type": "t_struct(AreaCounter)2676_storage"
      },
      {
        "astId": 2680,
        "contract": "src/dungeon/DungeonInfoFacet.sol:DungeonInfoFacet",
        "label": "_adminContract",
        "offset": 0,
        "slot": "4",
        "type": "t_address"
      },
      {
        "astId": 2682,
        "contract": "src/dungeon/DungeonInfoFacet.sol:DungeonInfoFacet",
        "label": "_blockHashRegister",
        "offset": 0,
        "slot": "5",
        "type": "t_contract(BlockHashRegister)12877"
      },
      {
        "astId": 2684,
        "contract": "src/dungeon/DungeonInfoFacet.sol:DungeonInfoFacet",
        "label": "_charactersContract",
        "offset": 0,
        "slot": "6",
        "type": "t_contract(Characters)469"
      },
      {
        "astId": 2686,
        "contract": "src/dungeon/DungeonInfoFacet.sol:DungeonInfoFacet",
        "label": "_elementsContract",
        "offset": 0,
        "slot": "7",
        "type": "t_contract(Elements)12560"
      },
      {
        "astId": 2688,
        "contract": "src/dungeon/DungeonInfoFacet.sol:DungeonInfoFacet",
        "label": "_gearsContract",
        "offset": 0,
        "slot": "8",
        "type": "t_contract(Gears)12579"
      },
      {
        "astId": 2690,
        "contract": "src/dungeon/DungeonInfoFacet.sol:DungeonInfoFacet",
        "label": "_roomsContract",
        "offset": 0,
        "slot": "9",
        "type": "t_contract(Rooms)12646"
      },
      {
        "astId": 2692,
        "contract": "src/dungeon/DungeonInfoFacet.sol:DungeonInfoFacet",
        "label": "_playerContract",
        "offset": 0,
        "slot": "10",
        "type": "t_contract(Player)10428"
      },
      {
        "astId": 2700,
        "contract": "src/dungeon/DungeonInfoFacet.sol:DungeonInfoFacet",
        "label": "_unlockedExits",
        "offset": 0,
        "slot": "11",
        "type": "t_mapping(t_uint256,t_mapping(t_uint256,t_mapping(t_uint256,t_bool)))"
      },
      {
        "astId": 2711,
        "contract": "src/dungeon/DungeonInfoFacet.sol:DungeonInfoFacet",
        "label": "_quests",
        "offset": 0,
        "slot": "12",
        "type": "t_mapping(t_uint256,t_mapping(t_uint64,t_struct(Quest)2705_storage))"
      },
      {
        "astId": 2715,
        "contract": "src/dungeon/DungeonInfoFacet.sol:DungeonInfoFacet",
        "label": "_taxDueDate",
        "offset": 0,
        "slot": "13",
        "type": "t_mapping(t_address,t_uint256)"
      },
      {
        "astId": 2719,
        "contract": "src/dungeon/DungeonInfoFacet.sol:DungeonInfoFacet",
        "label": "_customRoomNames",
        "offset": 0,
        "slot": "14",
        "type": "t_mapping(t_uint256,t_string_storage)"
      }
    ],
    "types": {
      "t_address": {
        "encoding": "inplace",
        "label": "address",
        "numberOfBytes": "20"
      },
      "t_bool": {
        "encoding": "inplace",
        "label": "bool",
        "numberOfBytes": "1"
      },
      "t_contract(BlockHashRegister)12877": {
        "encoding": "inplace",
        "label": "contract BlockHashRegister",
        "numberOfBytes": "20"
      },
      "t_contract(Characters)469": {
        "encoding": "inplace",
        "label": "contract Characters",
        "numberOfBytes": "20"
      },
      "t_contract(Elements)12560": {
        "encoding": "inplace",
        "label": "contract Elements",
        "numberOfBytes": "20"
      },
      "t_contract(Gears)12579": {
        "encoding": "inplace",
        "label": "contract Gears",
        "numberOfBytes": "20"
      },
      "t_contract(Player)10428": {
        "encoding": "inplace",
        "label": "contract Player",
        "numberOfBytes": "20"
      },
      "t_contract(Rooms)12646": {
        "encoding": "inplace",
        "label": "contract Rooms",
        "numberOfBytes": "20"
      },
      "t_int64": {
        "encoding": "inplace",
        "label": "int64",
        "numberOfBytes": "8"
      },
      "t_mapping(t_address,t_uint256)": {
        "encoding": "mapping",
        "key": "t_address",
        "label": "mapping(address => uint256)",
        "numberOfBytes": "32",
        "value": "t_uint256"
      },
      "t_mapping(t_uint256,t_bool)": {
        "encoding": "mapping",
        "key": "t_uint256",
        "label": "mapping(uint256 => bool)",
        "numberOfBytes": "32",
        "value": "t_bool"
      },
      "t_mapping(t_uint256,t_mapping(t_uint256,t_bool))": {
        "encoding": "mapping",
        "key": "t_uint256",
        "label": "mapping(uint256 => mapping(uint256 => bool))",
        "numberOfBytes": "32",
        "value": "t_mapping(t_uint256,t_bool)"
      },
      "t_mapping(t_uint256,t_mapping(t_uint256,t_mapping(t_uint256,t_bool)))": {
        "encoding": "mapping",
        "key": "t_uint256",
        "label": "mapping(uint256 => mapping(uint256 => mapping(uint256 => bool)))",
        "numberOfBytes": "32",
        "value": "t_mapping(t_uint256,t_mapping(t_uint256,t_bool))"
      },
      "t_mapping(t_uint256,t_mapping(t_uint64,t_struct(Quest)2705_storage))": {
        "encoding": "mapping",
        "key": "t_uint256",
        "label": "mapping(uint256 => mapping(uint64 => struct DungeonDataLayout.Quest))",
        "numberOfBytes": "32",
        "value": "t_mapping(t_uint64,t_struct(Quest)2705_storage)"
      },
      "t_mapping(t_uint256,t_string_storage)": {
        "encoding": "mapping",
        "key": "t_uint256",
        "label": "mapping(uint256 => string)",
        "numberOfBytes": "32",
        "value": "t_string_storage"
      },
      "t_mapping(t_uint256,t_struct(Area)2659_storage)": {
        "encoding": "mapping",
        "key": "t_uint256",
        "label": "mapping(uint256 => struct DungeonDataLayout.Area)",
        "numberOfBytes": "32",
        "value": "t_struct(Area)2659_storage"
      },
      "t_mapping(t_uint256,t_struct(Character)2646_storage)": {
        "encoding": "mapping",
        "key": "t_uint256",
        "label": "mapping(uint256 => struct DungeonDataLayout.Character)",
        "numberOfBytes": "32",
        "value": "t_struct(Character)2646_storage"
      },
      "t_mapping(t_uint256,t_struct(Room)2629_storage)": {
        "encoding": "mapping",
        "key": "t_uint256",
        "label": "mapping(uint256 => struct DungeonDataLayout.Room)",
        "numberOfBytes": "32",
        "value": "t_struct(Room)2629_storage"
      },
      "t_mapping(t_uint64,t_struct(Quest)2705_storage)": {
        "encoding": "mapping",
        "key": "t_uint64",
        "label": "mapping(uint64 => struct DungeonDataLayout.Quest)",
        "numberOfBytes": "32",
        "value": "t_struct(Quest)2705_storage"
      },
      "t_string_storage": {
        "encoding": "bytes",
        "label": "string",
        "numberOfBytes": "32"
      },
      "t_struct(Area)2659_storage": {
        "encoding": "inplace",
        "label": "struct DungeonDataLayout.Area",
        "members": [
          {
            "astId": 2648,
            "contract": "src/dungeon/DungeonInfoFacet.sol:DungeonInfoFacet",
            "label": "areaType",
            "offset": 0,
            "slot": "0",
            "type": "t_uint8"
          },
          {
            "astId": 2650,
            "contract": "src/dungeon/DungeonInfoFacet.sol:DungeonInfoFacet",
            "label": "discovered",
            "offset": 1,
            "slot": "0",
            "type": "t_uint8"
          },
          {
            "astId": 2652,
            "contract": "src/dungeon/DungeonInfoFacet.sol:DungeonInfoFacet",
            "label": "lastRoomIndex",
            "offset": 2,
            "slot": "0",
            "type": "t_uint8"
          },
          {
            "astId": 2654,
            "contract": "src/dungeon/DungeonInfoFacet.sol:DungeonInfoFacet",
            "label": "currentIndex",
            "offset": 3,
            "slot": "0",
            "type": "t_uint8"
          },
          {
            "astId": 2656,
            "contract": "src/dungeon/DungeonInfoFacet.sol:DungeonInfoFacet",
            "label": "lastRoom",
            "offset": 0,
            "slot": "1",
            "type": "t_uint256"
          },
          {
            "astId": 2658,
            "contract": "src/dungeon/DungeonInfoFacet.sol:DungeonInfoFacet",
            "label": "eventBlockNumber",
            "offset": 0,
            "slot": "2",
            "type": "t_uint64"
          }
        ],
        "numberOfBytes": "96"
      },
      "t_struct(AreaCounter)2676_storage": {
        "encoding": "inplace",
        "label": "struct DungeonDataLayout.AreaCounter",
        "members": [
          {
            "astId": 2673,
            "contract": "src/dungeon/DungeonInfoFacet.sol:DungeonInfoFacet",
            "label": "lastPeriod",
            "offset": 0,
            "slot": "0",
            "type": "t_uint64"
          },
          {
            "astId": 2675,
            "contract": "src/dungeon/DungeonInfoFacet.sol:DungeonInfoFacet",
            "label": "numAreas",
            "offset": 8,
            "slot": "0",
            "type": "t_uint64"
          }
        ],
        "numberOfBytes": "32"
      },
      "t_struct(Character)2646_storage": {
        "encoding": "inplace",
        "label": "struct DungeonDataLayout.Character",
        "members": [
          {
            "astId": 2631,
            "contract": "src/dungeon/DungeonInfoFacet.sol:DungeonInfoFacet",
            "label": "location",
            "offset": 0,
            "slot": "0",
            "type": "t_uint256"
          },
          {
            "astId": 2633,
            "contract": "src/dungeon/DungeonInfoFacet.sol:DungeonInfoFacet",
            "label": "direction",
            "offset": 0,
            "slot": "1",
            "type": "t_uint8"
          },
          {
            "astId": 2635,
            "contract": "src/dungeon/DungeonInfoFacet.sol:DungeonInfoFacet",
            "label": "floors",
            "offset": 1,
            "slot": "1",
            "type": "t_int64"
          },
          {
            "astId": 2637,
            "contract": "src/dungeon/DungeonInfoFacet.sol:DungeonInfoFacet",
            "label": "slot_1",
            "offset": 0,
            "slot": "2",
            "type": "t_uint256"
          },
          {
            "astId": 2639,
            "contract": "src/dungeon/DungeonInfoFacet.sol:DungeonInfoFacet",
            "label": "slot_2",
            "offset": 0,
            "slot": "3",
            "type": "t_uint256"
          },
          {
            "astId": 2641,
            "contract": "src/dungeon/DungeonInfoFacet.sol:DungeonInfoFacet",
            "label": "slot_3",
            "offset": 0,
            "slot": "4",
            "type": "t_uint256"
          },
          {
            "astId": 2643,
            "contract": "src/dungeon/DungeonInfoFacet.sol:DungeonInfoFacet",
            "label": "slot_4",
            "offset": 0,
            "slot": "5",
            "type": "t_uint256"
          },
          {
            "astId": 2645,
            "contract": "src/dungeon/DungeonInfoFacet.sol:DungeonInfoFacet",
            "label": "slot_5",
            "offset": 0,
            "slot": "6",
            "type": "t_uint256"
          }
        ],
        "numberOfBytes": "224"
      },
      "t_struct(Quest)2705_storage": {
        "encoding": "inplace",
        "label": "struct DungeonDataLayout.Quest",
        "members": [
          {
            "astId": 2702,
            "contract": "src/dungeon/DungeonInfoFacet.sol:DungeonInfoFacet",
            "label": "status",
            "offset": 0,
            "slot": "0",
            "type": "t_uint8"
          },
          {
            "astId": 2704,
            "contract": "src/dungeon/DungeonInfoFacet.sol:DungeonInfoFacet",
            "label": "data",
            "offset": 0,
            "slot": "1",
            "type": "t_string_storage"
          }
        ],
        "numberOfBytes": "64"
      },
      "t_struct(Room)2629_storage": {
        "encoding": "inplace",
        "label": "struct DungeonDataLayout.Room",
        "members": [
          {
            "astId": 2608,
            "contract": "src/dungeon/DungeonInfoFacet.sol:DungeonInfoFacet",
            "label": "blockNumber",
            "offset": 0,
            "slot": "0",
            "type": "t_uint64"
          },
          {
            "astId": 2610,
            "contract": "src/dungeon/DungeonInfoFacet.sol:DungeonInfoFacet",
            "label": "monsterBlockNumber",
            "offset": 8,
            "slot": "0",
            "type": "t_uint64"
          },
          {
            "astId": 2612,
            "contract": "src/dungeon/DungeonInfoFacet.sol:DungeonInfoFacet",
            "label": "numActiveCharacters",
            "offset": 16,
            "slot": "0",
            "type": "t_uint64"
          },
          {
            "astId": 2614,
            "contract": "src/dungeon/DungeonInfoFacet.sol:DungeonInfoFacet",
            "label": "direction",
            "offset": 24,
            "slot": "0",
            "type": "t_uint8"
          },
          {
            "astId": 2616,
            "contract": "src/dungeon/DungeonInfoFacet.sol:DungeonInfoFacet",
            "label": "exits",
            "offset": 25,
            "slot": "0",
            "type": "t_uint8"
          },
          {
            "astId": 2618,
            "contract": "src/dungeon/DungeonInfoFacet.sol:DungeonInfoFacet",
            "label": "kind",
            "offset": 26,
            "slot": "0",
            "type": "t_uint8"
          },
          {
            "astId": 2620,
            "contract": "src/dungeon/DungeonInfoFacet.sol:DungeonInfoFacet",
            "label": "areaAtDiscovery",
            "offset": 27,
            "slot": "0",
            "type": "t_uint8"
          },
          {
            "astId": 2622,
            "contract": "src/dungeon/DungeonInfoFacet.sol:DungeonInfoFacet",
            "label": "lastRoomIndex",
            "offset": 28,
            "slot": "0",
            "type": "t_uint8"
          },
          {
            "astId": 2624,
            "contract": "src/dungeon/DungeonInfoFacet.sol:DungeonInfoFacet",
            "label": "index",
            "offset": 29,
            "slot": "0",
            "type": "t_uint8"
          },
          {
            "astId": 2626,
            "contract": "src/dungeon/DungeonInfoFacet.sol:DungeonInfoFacet",
            "label": "discoverer",
            "offset": 0,
            "slot": "1",
            "type": "t_uint256"
          },
          {
            "astId": 2628,
            "contract": "src/dungeon/DungeonInfoFacet.sol:DungeonInfoFacet",
            "label": "randomEvent",
            "offset": 0,
            "slot": "2",
            "type": "t_uint64"
          }
        ],
        "numberOfBytes": "96"
      },
      "t_uint256": {
        "encoding": "inplace",
        "label": "uint256",
        "numberOfBytes": "32"
      },
      "t_uint64": {
        "encoding": "inplace",
        "label": "uint64",
        "numberOfBytes": "8"
      },
      "t_uint8": {
        "encoding": "inplace",
        "label": "uint8",
        "numberOfBytes": "1"
      }
    }
  }
}