{
  "abi": [
    {
      "anonymous": false,
      "inputs": [
        {
          "indexed": true,
          "internalType": "uint256",
          "name": "characterId",
          "type": "uint256"
        },
        {
          "indexed": true,
          "internalType": "uint256",
          "name": "oldLocation",
          "type": "uint256"
        },
        {
          "indexed": true,
          "internalType": "uint256",
          "name": "newLocation",
          "type": "uint256"
        },
        {
          "indexed": false,
          "internalType": "uint8",
          "name": "mode",
          "type": "uint8"
        },
        {
          "indexed": false,
          "internalType": "uint256",
          "name": "path",
          "type": "uint256"
        }
      ],
      "name": "CharacterMoved",
      "type": "event"
    },
    {
      "anonymous": false,
      "inputs": [
        {
          "indexed": true,
          "internalType": "uint256",
          "name": "characterId",
          "type": "uint256"
        },
        {
          "indexed": false,
          "internalType": "uint256",
          "name": "monsterId",
          "type": "uint256"
        }
      ],
      "name": "Death",
      "type": "event"
    },
    {
      "anonymous": false,
      "inputs": [
        {
          "indexed": true,
          "internalType": "uint256",
          "name": "characterId",
          "type": "uint256"
        },
        {
          "indexed": true,
          "internalType": "address",
          "name": "player",
          "type": "address"
        },
        {
          "indexed": false,
          "internalType": "string",
          "name": "name",
          "type": "string"
        }
      ],
      "name": "Enter",
      "type": "event"
    },
    {
      "anonymous": false,
      "inputs": [
        {
          "indexed": false,
          "internalType": "uint256",
          "name": "characterId",
          "type": "uint256"
        },
        {
          "indexed": false,
          "internalType": "uint256",
          "name": "gearId",
          "type": "uint256"
        },
        {
          "indexed": false,
          "internalType": "uint8",
          "name": "slotType",
          "type": "uint8"
        }
      ],
      "name": "Equip",
      "type": "event"
    },
    {
      "anonymous": false,
      "inputs": [
        {
          "indexed": true,
          "internalType": "uint256",
          "name": "characterId",
          "type": "uint256"
        },
        {
          "indexed": false,
          "internalType": "uint16",
          "name": "hp",
          "type": "uint16"
        }
      ],
      "name": "Heal",
      "type": "event"
    },
    {
      "anonymous": false,
      "inputs": [
        {
          "indexed": true,
          "internalType": "uint256",
          "name": "characterId",
          "type": "uint256"
        },
        {
          "indexed": false,
          "internalType": "uint16",
          "name": "newLevel",
          "type": "uint16"
        }
      ],
      "name": "LevelUp",
      "type": "event"
    },
    {
      "anonymous": false,
      "inputs": [
        {
          "indexed": true,
          "internalType": "uint256",
          "name": "characterId",
          "type": "uint256"
        },
        {
          "indexed": true,
          "internalType": "uint64",
          "name": "id",
          "type": "uint64"
        },
        {
          "indexed": true,
          "internalType": "uint8",
          "name": "status",
          "type": "uint8"
        },
        {
          "indexed": false,
          "internalType": "string",
          "name": "data",
          "type": "string"
        }
      ],
      "name": "QuestUpdate",
      "type": "event"
    },
    {
      "anonymous": false,
      "inputs": [
        {
          "indexed": true,
          "internalType": "uint256",
          "name": "areaLocation",
          "type": "uint256"
        },
        {
          "indexed": false,
          "internalType": "uint64",
          "name": "blockNumber",
          "type": "uint64"
        }
      ],
      "name": "RandomEvent",
      "type": "event"
    },
    {
      "anonymous": false,
      "inputs": [
        {
          "indexed": true,
          "internalType": "uint256",
          "name": "characterId",
          "type": "uint256"
        },
        {
          "indexed": false,
          "internalType": "uint256",
          "name": "gearId",
          "type": "uint256"
        }
      ],
      "name": "Recycle",
      "type": "event"
    },
    {
      "anonymous": false,
      "inputs": [
        {
          "indexed": true,
          "internalType": "uint256",
          "name": "deadCharacterId",
          "type": "uint256"
        },
        {
          "indexed": false,
          "internalType": "uint256",
          "name": "newCharacterId",
          "type": "uint256"
        }
      ],
      "name": "Resurrect",
      "type": "event"
    },
    {
      "anonymous": false,
      "inputs": [
        {
          "indexed": true,
          "internalType": "uint256",
          "name": "location",
          "type": "uint256"
        },
        {
          "indexed": false,
          "internalType": "bytes32",
          "name": "blockHash",
          "type": "bytes32"
        },
        {
          "indexed": false,
          "internalType": "uint8",
          "name": "exits",
          "type": "uint8"
        },
        {
          "indexed": false,
          "internalType": "uint8",
          "name": "kind",
          "type": "uint8"
        }
      ],
      "name": "RoomActualised",
      "type": "event"
    },
    {
      "anonymous": false,
      "inputs": [
        {
          "indexed": true,
          "internalType": "uint256",
          "name": "location",
          "type": "uint256"
        },
        {
          "indexed": false,
          "internalType": "uint64",
          "name": "blockNumber",
          "type": "uint64"
        },
        {
          "indexed": false,
          "internalType": "uint8",
          "name": "direction",
          "type": "uint8"
        }
      ],
      "name": "RoomDiscovered",
      "type": "event"
    },
    {
      "anonymous": false,
      "inputs": [
        {
          "indexed": true,
          "internalType": "uint256",
          "name": "location",
          "type": "uint256"
        },
        {
          "indexed": true,
          "internalType": "address",
          "name": "owner",
          "type": "address"
        },
        {
          "indexed": false,
          "internalType": "uint256",
          "name": "id",
          "type": "uint256"
        },
        {
          "indexed": false,
          "internalType": "uint256",
          "name": "amount",
          "type": "uint256"
        }
      ],
      "name": "RoomIncome",
      "type": "event"
    },
    {
      "anonymous": false,
      "inputs": [
        {
          "indexed": true,
          "internalType": "uint256",
          "name": "location",
          "type": "uint256"
        },
        {
          "indexed": false,
          "internalType": "string",
          "name": "name",
          "type": "string"
        },
        {
          "indexed": false,
          "internalType": "uint256",
          "name": "characterId",
          "type": "uint256"
        }
      ],
      "name": "RoomName",
      "type": "event"
    },
    {
      "anonymous": false,
      "inputs": [
        {
          "indexed": true,
          "internalType": "address",
          "name": "owner",
          "type": "address"
        },
        {
          "indexed": false,
          "internalType": "uint256",
          "name": "tax",
          "type": "uint256"
        },
        {
          "indexed": false,
          "internalType": "uint256",
          "name": "newDueDate",
          "type": "uint256"
        }
      ],
      "name": "RoomTaxPay",
      "type": "event"
    },
    {
      "inputs": [
        {
          "internalType": "uint256",
          "name": "id",
          "type": "uint256"
        },
        {
          "internalType": "address[]",
          "name": "players",
          "type": "address[]"
        },
        {
          "internalType": "uint256[]",
          "name": "amounts",
          "type": "uint256[]"
        }
      ],
      "name": "batchMineVaultElements",
      "outputs": [],
      "stateMutability": "nonpayable",
      "type": "function"
    },
    {
      "inputs": [
        {
          "internalType": "uint256",
          "name": "characterId",
          "type": "uint256"
        },
        {
          "internalType": "uint256",
          "name": "monsterId",
          "type": "uint256"
        }
      ],
      "name": "characterDefeated",
      "outputs": [],
      "stateMutability": "nonpayable",
      "type": "function"
    },
    {
      "inputs": [
        {
          "internalType": "uint256",
          "name": "characterId",
          "type": "uint256"
        },
        {
          "internalType": "uint256",
          "name": "monsterId",
          "type": "uint256"
        },
        {
          "internalType": "int16",
          "name": "hpChange",
          "type": "int16"
        }
      ],
      "name": "characterEscaped",
      "outputs": [],
      "stateMutability": "nonpayable",
      "type": "function"
    },
    {
      "inputs": [
        {
          "internalType": "uint256",
          "name": "location",
          "type": "uint256"
        },
        {
          "internalType": "uint256",
          "name": "characterId",
          "type": "uint256"
        },
        {
          "internalType": "uint16[8]",
          "name": "amounts",
          "type": "uint16[8]"
        }
      ],
      "name": "claimBounty",
      "outputs": [],
      "stateMutability": "nonpayable",
      "type": "function"
    },
    {
      "inputs": [
        {
          "internalType": "address",
          "name": "to",
          "type": "address"
        },
        {
          "internalType": "bytes",
          "name": "data",
          "type": "bytes"
        }
      ],
      "name": "forward",
      "outputs": [
        {
          "internalType": "bool",
          "name": "success",
          "type": "bool"
        }
      ],
      "stateMutability": "payable",
      "type": "function"
    },
    {
      "inputs": [
        {
          "internalType": "uint256",
          "name": "location",
          "type": "uint256"
        },
        {
          "internalType": "address",
          "name": "benefactor",
          "type": "address"
        },
        {
          "internalType": "uint16[8]",
          "name": "income",
          "type": "uint16[8]"
        }
      ],
      "name": "generateRoomIncome",
      "outputs": [],
      "stateMutability": "nonpayable",
      "type": "function"
    },
    {
      "inputs": [
        {
          "internalType": "uint256",
          "name": "location",
          "type": "uint256"
        }
      ],
      "name": "monsterDefeated",
      "outputs": [],
      "stateMutability": "nonpayable",
      "type": "function"
    },
    {
      "inputs": [
        {
          "internalType": "address",
          "name": "blockHashRegister",
          "type": "address"
        },
        {
          "internalType": "contract Player",
          "name": "playerContract",
          "type": "address"
        },
        {
          "internalType": "address payable",
          "name": "owner",
          "type": "address"
        },
        {
          "internalType": "address",
          "name": "adminContract",
          "type": "address"
        }
      ],
      "name": "postUpgrade",
      "outputs": [],
      "stateMutability": "nonpayable",
      "type": "function"
    },
    {
      "inputs": [
        {
          "internalType": "contract Characters",
          "name": "characters",
          "type": "address"
        },
        {
          "internalType": "contract Elements",
          "name": "elements",
          "type": "address"
        },
        {
          "internalType": "contract Gears",
          "name": "gears",
          "type": "address"
        },
        {
          "internalType": "contract Rooms",
          "name": "rooms",
          "type": "address"
        }
      ],
      "name": "start",
      "outputs": [],
      "stateMutability": "nonpayable",
      "type": "function"
    },
    {
      "inputs": [
        {
          "internalType": "uint256",
          "name": "characterId",
          "type": "uint256"
        },
        {
          "internalType": "uint256",
          "name": "location",
          "type": "uint256"
        }
      ],
      "name": "teleportCharacter",
      "outputs": [],
      "stateMutability": "nonpayable",
      "type": "function"
    },
    {
      "inputs": [
        {
          "internalType": "uint256",
          "name": "characterId",
          "type": "uint256"
        },
        {
          "internalType": "uint256",
          "name": "monsterId",
          "type": "uint256"
        },
        {
          "internalType": "int16",
          "name": "hpChange",
          "type": "int16"
        },
        {
          "internalType": "uint16",
          "name": "xpGained",
          "type": "uint16"
        },
        {
          "internalType": "uint256",
          "name": "gearData",
          "type": "uint256"
        },
        {
          "internalType": "int64",
          "name": "durabilityChange",
          "type": "int64"
        },
        {
          "internalType": "int16[8]",
          "name": "balanceChange",
          "type": "int16[8]"
        }
      ],
      "name": "updateCharacter",
      "outputs": [],
      "stateMutability": "nonpayable",
      "type": "function"
    },
    {
      "inputs": [
        {
          "internalType": "uint256",
          "name": "character",
          "type": "uint256"
        },
        {
          "internalType": "uint64",
          "name": "id",
          "type": "uint64"
        },
        {
          "internalType": "uint8",
          "name": "status",
          "type": "uint8"
        },
        {
          "internalType": "string",
          "name": "data",
          "type": "string"
        }
      ],
      "name": "updateQuest",
      "outputs": [],
      "stateMutability": "nonpayable",
      "type": "function"
    },
    {
      "inputs": [
        {
          "internalType": "uint256",
          "name": "characterId",
          "type": "uint256"
        },
        {
          "internalType": "uint256",
          "name": "location",
          "type": "uint256"
        },
        {
          "internalType": "uint256",
          "name": "data",
          "type": "uint256"
        },
        {
          "internalType": "uint256[8]",
          "name": "amountsPayed",
          "type": "uint256[8]"
        }
      ],
      "name": "updateRoomData",
      "outputs": [],
      "stateMutability": "nonpayable",
      "type": "function"
    }
  ],
  "address": "0xf2E8ec9206B510B820EBE2330075841bd5E4aFbc",
  "args": [],
  "bytecode": "0x608060405234801561001057600080fd5b50614489806100206000396000f3fe6080604052600436106100c25760003560e01c8063ab5360601161007f578063d8468f8f11610059578063d8468f8f1461046f578063e6d48fe7146104ae578063e7691518146104de578063f3f543ba14610514576100c2565b8063ab536060146103ca578063b2f2dff9146103fa578063cf747b4914610436576100c2565b80630604ba13146100c757806322988b1d14610121578063398f21681461016c5780636fadcf721461023e5780637507a1c9146103065780639434e4e814610330575b600080fd5b3480156100d357600080fd5b5061011f60048036036101c08110156100eb57600080fd5b50803590602081013590604081013560010b9061ffff6060820135169060808101359060a081013560070b9060c00161055f565b005b34801561012d57600080fd5b5061011f6004803603608081101561014457600080fd5b506001600160a01b038135811691602081013582169160408201358116916060013516610aff565b34801561017857600080fd5b5061011f6004803603606081101561018f57600080fd5b81359190810190604081016020820135600160201b8111156101b057600080fd5b8201836020820111156101c257600080fd5b803590602001918460208302840111600160201b831117156101e357600080fd5b919390929091602081019035600160201b81111561020057600080fd5b82018360208201111561021257600080fd5b803590602001918460208302840111600160201b8311171561023357600080fd5b509092509050610bf6565b6102f26004803603604081101561025457600080fd5b6001600160a01b038235169190810190604081016020820135600160201b81111561027e57600080fd5b82018360208201111561029057600080fd5b803590602001918460018302840111600160201b831117156102b157600080fd5b91908080601f016020809104026020016040519081016040528093929190818152602001838380828437600092019190915250929550610d11945050505050565b604080519115158252519081900360200190f35b34801561031257600080fd5b5061011f6004803603602081101561032957600080fd5b5035610dc2565b34801561033c57600080fd5b5061011f6004803603608081101561035357600080fd5b8135916001600160401b036020820135169160ff6040830135169190810190608081016060820135600160201b81111561038c57600080fd5b82018360208201111561039e57600080fd5b803590602001918460018302840111600160201b831117156103bf57600080fd5b509092509050610fc8565b3480156103d657600080fd5b5061011f600480360360408110156103ed57600080fd5b50803590602001356110ca565b34801561040657600080fd5b5061011f600480360361016081101561041e57600080fd5b508035906020810135906040810135906060016111fa565b34801561044257600080fd5b5061011f6004803603606081101561045957600080fd5b508035906020810135906040013560010b61150b565b34801561047b57600080fd5b5061011f600480360361014081101561049357600080fd5b508035906001600160a01b0360208201351690604001611777565b3480156104ba57600080fd5b5061011f600480360360408110156104d157600080fd5b50803590602001356118d6565b3480156104ea57600080fd5b5061011f600480360361014081101561050257600080fd5b50803590602081013590604001611a52565b34801561052057600080fd5b5061011f6004803603608081101561053757600080fd5b506001600160a01b038135811691602081013582169160408201358116916060013516611b81565b6004546001600160a01b031633146105ac576040805162461bcd60e51b81526020600482015260146024820152600080516020614434833981519152604482015290519081900360640190fd5b600560009054906101000a90046001600160a01b03166001600160a01b03166342dad49e6040518163ffffffff1660e01b8152600401600060405180830381600087803b1580156105fc57600080fd5b505af1158015610610573d6000803e3d6000fd5b5050506000888152602081905260409020805490915061062f90611cbd565b8315610772576008546040805163c9a59e4760e01b8152600481018b90529051600a926001600160a01b03169163c9a59e47916024808301926020929190829003018186803b15801561068157600080fd5b505afa158015610695573d6000803e3d6000fd5b505050506040513d60208110156106ab57600080fd5b5051106106f0576040805162461bcd60e51b815260206004820152600e60248201526d546f6f206d616e7920676561727360901b604482015290519081900360640190fd5b60085460408051630d9778e560e11b8152600481018b90526024810187905290516001600160a01b0390921691631b2ef1ca916044808201926020929091908290030181600087803b15801561074557600080fd5b505af1158015610759573d6000803e3d6000fd5b505050506040513d602081101561076f57600080fd5b50505b60005b60088160ff1610156108b9576000838260ff166008811061079257fe5b602002013560010b905060008160010b131561082757600754604080516302acc94b60e01b8152600481018d9052600185810160ff16602483015284900b604482015290516001600160a01b03909216916302acc94b9160648082019260009290919082900301818387803b15801561080a57600080fd5b505af115801561081e573d6000803e3d6000fd5b505050506108b0565b60008160010b12156108b0576007546040805163c9b902e360e01b8152600481018d9052600185810160ff166024830152600085810390910b604483015291516001600160a01b039093169263c9b902e39260648084019391929182900301818387803b15801561089757600080fd5b505af11580156108ab573d6000803e3d6000fd5b505050505b50600101610775565b506108c2614309565b6108cb8961202d565b90508660010b600014610934576108ee816080015182606001518960010b612106565b61ffff1660808201819052610934576040805189815290518a917fd02b8bdc1eb9eb4a85fe2b27c68fbe1eec04f697f660cc4cf3bb2cee4456f490919081900360200190a25b60408101805161ffff88160163ffffffff1690526109528982612152565b8360070b600014610af457610965614337565b610972836002015461221c565b9050806080015161ffff16600014610a27576109978160600151826080015187612106565b61ffff16606082015260028301546109af90826122fd565b606081015161ffff16610a2757600854600284015460408051630301ea6560e51b81526004810192909252516001600160a01b039092169163603d4ca09160248082019260009290919082900301818387803b158015610a0e57600080fd5b505af1158015610a22573d6000803e3d6000fd5b505050505b610a2f614337565b610a3c846003015461221c565b9050806080015161ffff16600014610af157610a618160600151826080015188612106565b61ffff1660608201526003840154610a7990826122fd565b606081015161ffff16610af157600854600385015460408051630301ea6560e51b81526004810192909252516001600160a01b039092169163603d4ca09160248082019260009290919082900301818387803b158015610ad857600080fd5b505af1158015610aec573d6000803e3d6000fd5b505050505b50505b505050505050505050565b6000610b0961237c565b80549091506001600160a01b03163314610b545760405162461bcd60e51b815260040180806020018281038252602c815260200180614408602c913960400191505060405180910390fd5b600a80546001600160a01b0319166001600160a01b03861690811790915560408051630354740160e31b81529051631aa3a0089160048082019260009290919082900301818387803b158015610ba957600080fd5b505af1158015610bbd573d6000803e3d6000fd5b5050600580546001600160a01b039889166001600160a01b03199182161790915560048054959098169416939093179095555050505050565b6004546001600160a01b03163314610c43576040805162461bcd60e51b81526020600482015260146024820152600080516020614434833981519152604482015290519081900360640190fd5b60005b83811015610d09576007546001600160a01b031663a41dab81868684818110610c6b57fe5b905060200201356001600160a01b031688868686818110610c8857fe5b905060200201356040518463ffffffff1660e01b815260040180846001600160a01b03166001600160a01b031681526020018381526020018281526020019350505050600060405180830381600087803b158015610ce557600080fd5b505af1158015610cf9573d6000803e3d6000fd5b505060019092019150610c469050565b505050505050565b6004546000906001600160a01b03163314610d61576040805162461bcd60e51b81526020600482015260146024820152600080516020614434833981519152604482015290519081900360640190fd5b600034905060008084516020860184885af1915081610dbb576040805162461bcd60e51b815260206004820152601160248201527019985a5b1959081d1bc8199bdc9dd85c99607a1b604482015290519081900360640190fd5b5092915050565b6004546001600160a01b03163314610e0f576040805162461bcd60e51b81526020600482015260146024820152600080516020614434833981519152604482015290519081900360640190fd5b600560009054906101000a90046001600160a01b03166001600160a01b03166342dad49e6040518163ffffffff1660e01b8152600401600060405180830381600087803b158015610e5f57600080fd5b505af1158015610e73573d6000803e3d6000fd5b50505050610e8081611cbd565b60008181526001602052604090208054600160401b90046001600160401b031615610eb857805467ffffffffffffffff60401b191681555b60028101546001600160401b031615610edf5760028101805467ffffffffffffffff191690555b60095460408051630178fe3f60e01b81526004810185905290516000926001600160a01b031691630178fe3f916024808301926020929190829003018186803b158015610f2b57600080fd5b505afa158015610f3f573d6000803e3d6000fd5b505050506040513d6020811015610f5557600080fd5b50511115610fc45760095460408051634848b1a560e01b81526004810185905260006024820181905291516001600160a01b0390931692634848b1a59260448084019391929182900301818387803b158015610fb057600080fd5b505af1158015610d09573d6000803e3d6000fd5b5050565b6004546001600160a01b03163314611015576040805162461bcd60e51b81526020600482015260146024820152600080516020614434833981519152604482015290519081900360640190fd5b6000858152600c602090815260408083206001600160401b03881684529091529020805460ff191660ff851617815561105260018201848461436c565b508360ff16856001600160401b0316877f3553d84d9f5bc81eeb57eac4d5a1fee928d026da4f389c33c1cebfaf3931fda0868660405180806020018281038252848482818152602001925080828437600083820152604051601f909101601f19169092018290039550909350505050a4505050505050565b6004546001600160a01b03163314611117576040805162461bcd60e51b81526020600482015260146024820152600080516020614434833981519152604482015290519081900360640190fd5b600560009054906101000a90046001600160a01b03166001600160a01b03166342dad49e6040518163ffffffff1660e01b8152600401600060405180830381600087803b15801561116757600080fd5b505af115801561117b573d6000803e3d6000fd5b5050506000838152602081905260409020805490915061119a90611cbd565b6111a2614309565b6111ab8461202d565b6000608082015290506111be8482612152565b60408051848152905185917fd02b8bdc1eb9eb4a85fe2b27c68fbe1eec04f697f660cc4cf3bb2cee4456f490919081900360200190a250505050565b6004546001600160a01b03163314611247576040805162461bcd60e51b81526020600482015260146024820152600080516020614434833981519152604482015290519081900360640190fd5b611250836123a0565b611296576040805162461bcd60e51b8152602060048201526012602482015271726f6f6d206973206e6f742061637469766560701b604482015290519081900360640190fd5b600954604080516369f648a160e01b81526004810186905290516000926001600160a01b0316916369f648a1916024808301926020929190829003018186803b1580156112e257600080fd5b505afa1580156112f6573d6000803e3d6000fd5b505050506040513d602081101561130c57600080fd5b505160065460408051630607176160e31b81526004810189905290519293506000926001600160a01b0390921691633038bb0891602480820192602092909190829003018186803b15801561136057600080fd5b505afa158015611374573d6000803e3d6000fd5b505050506040513d602081101561138a57600080fd5b505190508181146113ce576040805162461bcd60e51b81526020600482015260096024820152683737ba1037bbb732b960b91b604482015290519081900360640190fd5b60005b6008811015611496576007546001600160a01b031663fe99049a846000600185018886600881106113fe57fe5b60200201356040518563ffffffff1660e01b815260040180856001600160a01b03166001600160a01b03168152602001846001600160a01b03166001600160a01b03168152602001838152602001828152602001945050505050600060405180830381600087803b15801561147257600080fd5b505af1158015611486573d6000803e3d6000fd5b5050600190920191506113d19050565b5060095460408051634848b1a560e01b8152600481018890526024810187905290516001600160a01b0390921691634848b1a59160448082019260009290919082900301818387803b1580156114eb57600080fd5b505af11580156114ff573d6000803e3d6000fd5b50505050505050505050565b6004546001600160a01b03163314611558576040805162461bcd60e51b81526020600482015260146024820152600080516020614434833981519152604482015290519081900360640190fd5b600560009054906101000a90046001600160a01b03166001600160a01b03166342dad49e6040518163ffffffff1660e01b8152600401600060405180830381600087803b1580156115a857600080fd5b505af11580156115bc573d6000803e3d6000fd5b505050600084815260208190526040902080549091506115db81611cbd565b6115e3614309565b6115ec8661202d565b905060008460010b826080015161ffff16019050816060015161ffff1660070b8160070b131561162557606082015161ffff1660808301525b60008160070b136116725760408051878152905188917fd02b8bdc1eb9eb4a85fe2b27c68fbe1eec04f697f660cc4cf3bb2cee4456f490919081900360200190a26000608083015261167d565b61ffff811660808301525b6116878783612152565b6001840154600360ff9091166002011660006116a4898684612430565b8654604080516000815260ff86166020820152815193945084938d927f3042d0c278ec3b2d8bf290d27da7bb56226996146c187fc01f6f448b6283da72928290030190a46116f181611cbd565b85546000908152600160208190526040808320805467ffffffffffffffff60801b19808216600160801b928390046001600160401b03908116600019018116840291909117909355868652929094208054928316928590048216840190911690930217909155908655909401805460ff191660ff90951694909417909355505050505050565b6004546001600160a01b031633146117c4576040805162461bcd60e51b81526020600482015260146024820152600080516020614434833981519152604482015290519081900360640190fd5b60005b60088160ff1610156118d05760008160010160ff1690506000838360ff16600881106117ef57fe5b602002013561ffff1661ffff16905060008111156118c6576007546040805163a41dab8160e01b81526001600160a01b03888116600483015260248201869052604482018590529151919092169163a41dab8191606480830192600092919082900301818387803b15801561186357600080fd5b505af1158015611877573d6000803e3d6000fd5b50505050846001600160a01b0316867f41d17e4a29add7df9dab104b7b914e73209c448b1fd78b8ca04efc5e24df1abb8484604051808381526020018281526020019250505060405180910390a35b50506001016117c7565b50505050565b6004546001600160a01b03163314611923576040805162461bcd60e51b81526020600482015260146024820152600080516020614434833981519152604482015290519081900360640190fd5b600560009054906101000a90046001600160a01b03166001600160a01b03166342dad49e6040518163ffffffff1660e01b8152600401600060405180830381600087803b15801561197357600080fd5b505af1158015611987573d6000803e3d6000fd5b505050600083815260208190526040902080549091506119a681611cbd565b60408051600181526004602082015281518592849288927f3042d0c278ec3b2d8bf290d27da7bb56226996146c187fc01f6f448b6283da72929181900390910190a460006119f3846126b7565b50925050508060070b8360010160019054906101000a900460070b60070b1215611a3f5760018301805468ffffffffffffffff0019166101006001600160401b03600785900b16021790555b611a4b858560046126d2565b5050505050565b6004546001600160a01b03163314611a9f576040805162461bcd60e51b81526020600482015260146024820152600080516020614434833981519152604482015290519081900360640190fd5b6000611aaa84612b6f565b905060005b60088160ff161015611a4b576000838260ff1660088110611acc57fe5b602002013561ffff1661ffff161115611b79576007546001600160a01b03166311aa10fb8386600185018760ff871660088110611b0557fe5b602002013561ffff166040518563ffffffff1660e01b8152600401808581526020018481526020018360ff1681526020018261ffff168152602001945050505050600060405180830381600087803b158015611b6057600080fd5b505af1158015611b74573d6000803e3d6000fd5b505050505b600101611aaf565b6000611b8b61237c565b80549091506001600160a01b03163314611bd65760405162461bcd60e51b815260040180806020018281038252602c815260200180614408602c913960400191505060405180910390fd5b600680546001600160a01b03199081166001600160a01b038881169190911790925560078054821687841617905560088054821686841617905560098054909116918416919091179055600160ff1b60005260016020527fe209ec102481142efb7be62c549d278b9d65c9410e465059ec2d8758d3fc5cf58054600160d01b900460ff1615611cac576040805162461bcd60e51b815260206004820152601760248201527f64756e67656f6e20616c72656164792073746172746564000000000000000000604482015290519081900360640190fd5b610d09600160ff1b60006004612b78565b600081815260016020526040902080546001600160401b0316611d1e576040805162461bcd60e51b81526020600482015260146024820152731c9bdbdb481b9bdd0818dc99585d1959081e595d60621b604482015290519081900360640190fd5b8054600160d01b900460ff1661201957600554815460408051634a83e9cd60e11b81526001600160401b039092166004830152516000926001600160a01b031691639507d39a916024808301926020929190829003018186803b158015611d8457600080fd5b505afa158015611d98573d6000803e3d6000fd5b505050506040513d6020811015611dae57600080fd5b5051905080611dbe57505061202a565b611dc88382612ec9565b815460009081908190611e06908790869060ff600160c01b8204811691600160d81b8104821691600160e01b8204811691600160e81b900416612fb9565b875460ff808416600160d01b0260ff60d01b19918616600160c81b0260ff60c81b199093169290921716178855919450925090506000611e4587612fea565b600081815260026020526040902080549192509060ff8481166101009092041614611e7d57805461ff00191661010060ff8516021781555b6040805187815260ff8088166020830152861681830152905189917f8850140926f0260fe1b422b7a0d93e7d5734e521eae9ac8969ed512cc3834515919081900360600190a2600082815260026020526040902054600188015460ff909116901561201157611eea614309565b611ef7896001015461202d565b9050600080611f0b8c8b8560000151613082565b9150915060058460ff1611611f955760075460018c0154604080516302acc94b60e01b8152600481019290925260ff8716602483015260448201849052516001600160a01b03909216916302acc94b9160648082019260009290919082900301818387803b158015611f7c57600080fd5b505af1158015611f90573d6000803e3d6000fd5b505050505b60075460018c0154604080516302acc94b60e01b815260048101929092526006602483015260448201859052516001600160a01b03909216916302acc94b9160648082019260009290919082900301818387803b158015611ff557600080fd5b505af1158015612009573d6000803e3d6000fd5b505050505050505b505050505050505b610fc461202583612fea565b61317e565b50565b612035614309565b60065460408051630178fe3f60e01b81526004810185905290516000926001600160a01b031691630178fe3f916024808301926020929190829003018186803b15801561208157600080fd5b505afa158015612095573d6000803e3d6000fd5b505050506040513d60208110156120ab57600080fd5b505190506000808080806120be866132ee565b6040805160a08101825260ff909216825261ffff958616602083015263ffffffff9092169181019190915290831660608201529116608082015296505050505050505b919050565b600080828561ffff160190508361ffff1660070b8160070b131561212d578391505061214b565b60008160070b1361214257600091505061214b565b905061214b565b505b9392505050565b600060a8826080015161ffff16901b60b8836060015161ffff16901b60c8846040015163ffffffff16901b60e8856020015161ffff16901b60f8866000015160ff16901b010101019050600660009054906101000a90046001600160a01b03166001600160a01b0316634848b1a584836040518363ffffffff1660e01b81526004018083815260200182815260200192505050600060405180830381600087803b1580156121ff57600080fd5b505af1158015612213573d6000803e3d6000fd5b50505050505050565b612224614337565b60085460408051630178fe3f60e01b81526004810185905290516000926001600160a01b031691630178fe3f916024808301926020929190829003018186803b15801561227057600080fd5b505afa158015612284573d6000803e3d6000fd5b505050506040513d602081101561229a57600080fd5b50519050600080808080806122ae8761331f565b6040805160c08101825261ffff978816815260ff968716602082015294909516948401949094529084166060830152909216608083015263ffffffff1660a08201529998505050505050505050565b6000612325826000015183602001518460400151856060015186608001518760a00151613353565b60085460408051634848b1a560e01b8152600481018790526024810184905290519293506001600160a01b0390911691634848b1a59160448082019260009290919082900301818387803b1580156121ff57600080fd5b7fc8fcad8db84d3cc18b4c41d551ea0ee66dd599cde068d998e57d5e09332c131c90565b600954604080516331a9108f60e11b815260048101849052905160009283926001600160a01b0390911691636352211e91602480820192602092909190829003018186803b1580156123f157600080fd5b505afa158015612405573d6000803e3d6000fd5b505050506040513d602081101561241b57600080fd5b50516001600160a01b03163014915050919050565b60008060008061243f866126b7565b509194509250905060ff851661245b57600019909101906124e5565b600160ff86161415612472576001909201916124e5565b600260ff86161415612489576001909101906124e5565b600360ff861614156124a157600019909201916124e5565b6040805162461bcd60e51b815260206004820152601460248201527334b6b837b9b9b4b13632903234b932b1ba34b7b760611b604482015290519081900360640190fd5b60006124f28484846133a7565b600088815260016020526040808220838352912081548154939450919290916001600160401b03908116911660ff8a16600290810a906003818d0116900a8284108061254557506001600160401b038316155b156125a557855460ff808416600160c81b90920484161614156125a057855460ff808416918491601091600160c81b9004165b041660ff16141561258e5761258e8e8e896133d0565b869a505050505050505050505061214b565b612675565b826001600160401b0316846001600160401b031611156125f157845460ff808316600160c81b90920483161614156125a057845460ff808316918391601091600160c81b900416612578565b855460ff808416600160c81b909204841616148061261e5750845460ff808316600160c81b909204831616145b1561267557868d111561265b57845460ff808316918391601091600160c81b900416041660ff161415612656576126568e8e896133d0565b61258e565b855460ff808416918491601091600160c81b900416612578565b6040805162461bcd60e51b815260206004820152601260248201527163616e74206d6f766520746869732077617960701b604482015290519081900360640190fd5b90600160401b820490600160801b830490600160ff1b840490565b6000838152602081815260408083208054845260019092528083208584529083208054929391929091906001600160401b031661271957612714868887612b78565b6129f5565b8154600160401b90046001600160401b031615801561274757508154600160801b90046001600160401b0316155b801561276057506002808301546001600160401b031614155b80156127e1575060095460408051630178fe3f60e01b81526004810189905290516001600160a01b0390921691630178fe3f91602480820192602092909190829003018186803b1580156127b357600080fd5b505afa1580156127c7573d6000803e3d6000fd5b505050506040513d60208110156127dd57600080fd5b5051155b1561288257506005546040805163338cdca160e01b8152905143926001600160a01b03169163338cdca191600480830192600092919082900301818387803b15801561282c57600080fd5b505af1158015612840573d6000803e3d6000fd5b50508354600160401b90046001600160401b031615159150612882905057815467ffffffffffffffff60401b1916600160401b6001600160401b038316021782555b61288b86611cbd565b60006128968761354e565b90506001600160a01b03811615801590612930575060065460408051630607176160e31b8152600481018b905290516001600160a01b0390921691633038bb0891602480820192602092909190829003018186803b1580156128f757600080fd5b505afa15801561290b573d6000803e3d6000fd5b505050506040513d602081101561292157600080fd5b50516001600160a01b03821614155b156129f3576007546040805163a41dab8160e01b81526001600160a01b03848116600483015260086024830152600160448301529151919092169163a41dab8191606480830192600092919082900301818387803b15801561299157600080fd5b505af11580156129a5573d6000803e3d6000fd5b505060408051600881526001602082015281516001600160a01b03861694508b93507f41d17e4a29add7df9dab104b7b914e73209c448b1fd78b8ca04efc5e24df1abb929181900390910190a35b505b6000612a0087612fea565b600081815260026020819052604090912090810154919250906001600160401b0316158015612a30575060034306155b15612b07576001600160401b038316612aaf57439250600560009054906101000a90046001600160a01b03166001600160a01b031663338cdca16040518163ffffffff1660e01b8152600401600060405180830381600087803b158015612a9657600080fd5b505af1158015612aaa573d6000803e3d6000fd5b505050505b6002810180546001600160401b03851667ffffffffffffffff199091168117909155604080519182525183917f644c4d4ff52c1efcb89d373879c1d7e01d3f8b7e60cc19f9bdf5da38cd90c14d919081900360200190a25b84546000196001600160401b03600160801b8084048216929092018116820267ffffffffffffffff60801b19938416178855865482810482166001908101909216909202919092161785558887558601805460ff891660ff19909116179055610af4896135e5565b600360fe1b0190565b600060026000612b8786612fea565b81526020019081526020016000209050600081600101541115612bd557612bb18160010154611cbd565b80546201000060ff63010000008304160262ff000019909116178155600060018201555b6007546001600160a01b031663c9b902e3846008612bf288613629565b6040518463ffffffff1660e01b8152600401808481526020018360ff1681526020018281526020019350505050600060405180830381600087803b158015612c3957600080fd5b505af1158015612c4d573d6000803e3d6000fd5b5050506000858152600160208190526040808320805467ffffffffffffffff1916436001600160401b031690811767ffffffffffffffff60401b1916600160401b919091021760ff60c01b1916600160c01b60ff8981169190910291909117808355875460ff60d81b199091166101009091048216600160d81b02178255865463ff00000019811663010000009182900483168087018416909202178855825460ff60e81b1916600160e81b90910217808355875460ff60e01b1990911662010000909104909116600160e01b02178155808301889055918501889055600554815163338cdca160e01b815291519294506001600160a01b03169263338cdca19260048084019382900301818387803b158015612d6957600080fd5b505af1158015612d7d573d6000803e3d6000fd5b505060065460408051630607176160e31b8152600481018990529051600094506001600160a01b039092169250633038bb08916024808301926020929190829003018186803b158015612dcf57600080fd5b505afa158015612de3573d6000803e3d6000fd5b505050506040513d6020811015612df957600080fd5b50519050612e068161365d565b600954604080516319846a3560e21b8152600481018990526024810184905290516001600160a01b0390921691636611a8d49160448082019260009290919082900301818387803b158015612e5a57600080fd5b505af1158015612e6e573d6000803e3d6000fd5b5050835460408051436001600160401b03168152600160c01b90920460ff16602083015280518a94507fa97399cd19a5b00b49b7d10d188180e100139a0501c9c9b4fe21dab5b915162f9350918290030190a2505050505050565b6000612ed483612fea565b60008181526002602052604090205490915060ff16806118d057600354600160401b90046001600160401b0316612f0c83858361374a565b6000848152600260205260409020805460ff191660ff8316908117909155909250600614611a4b57600354620143704204906001600160401b03808316911614612f875760038054600160401b67ffffffffffffffff199091166001600160401b0384161767ffffffffffffffff60401b1916179055610d09565b600380546001600160401b036001850116600160401b0267ffffffffffffffff60401b19909116179055505050505050565b6000806000612fc989898961382b565b9250612fd88989888888613bf0565b939a9099509297509195505050505050565b600080600080612ff9856126b7565b509250925092506000808460070b1261301c575060096004840160070b05613036565b60098460000360040160070b8161302f57fe5b0560000390505b6000808460070b12613052575060096004840160070b0561306c565b60098460000360040160070b8161306557fe5b0560000390505b6130778282856133a7565b979650505050505050565b6000806000613092866000613f1d565b905060198104806130a1575060015b6040805160208082018a9052818301899052601960fa1b606083015282516041818403018152606190920190925280519101208190816130dd57fe5b0660028204019250826130ef57600192505b600260ff861614156131045760048304830192505b6008811115613111575060085b6040805160208082018a9052818301899052606560f81b6060830152825160418184030181526061909201909252805191012081908161314d57fe5b06600282040193508361315f57600193505b600160ff861614156131745760048404840193505b5050935093915050565b6000818152600260208190526040909120908101546001600160401b031680156132e95760055460408051634a83e9cd60e11b81526001600160401b038416600482015290516000926001600160a01b031691639507d39a916024808301926020929190829003018186803b1580156131f657600080fd5b505afa15801561320a573d6000803e3d6000fd5b505050506040513d602081101561322057600080fd5b50519050806132315750505061202a565b60008061323e8684613fbb565b91509150600061324d83614040565b600084815260016020526040902060028082015492935090916001600160401b03161480159061328c57508054600160801b90046001600160401b0316155b8015613296575081155b80156132ac57508054600160d01b900460ff1615155b156132d05760028101805467ffffffffffffffff19166001600160401b0385161790555b50505060028401805467ffffffffffffffff1916905550505b505050565b61ffff60e882901c81169260a883901c82169260b881901c9092169163ffffffff60c882901c169160f89190911c90565b61ffff60e882901c81169260ff60e084901c169260f881901c9260d082901c81169260c083901c9091169163ffffffff1690565b6001600160f81b031960f885901b1661ffff60e81b60e888901b160160ff60e01b60e087901b160161ffff60d01b60d085901b160161ffff60c01b60c084901b160163ffffffff8216019695505050505050565b600160ff1b6001600160401b03938416928416600160401b0291909316600160801b0201010190565b81818111156133dd575081905b6133e8848284614144565b6118d0576007805460408051635986e3e560e11b8152600481018890526024810193909352516000926001600160a01b039092169163b30dc7ca916044808301926020929190829003018186803b15801561344257600080fd5b505afa158015613456573d6000803e3d6000fd5b505050506040513d602081101561346c57600080fd5b5051116134a9576040805162461bcd60e51b81526020600482015260066024820152656e6f206b657960d01b604482015290519081900360640190fd5b600780546040805163c9b902e360e01b815260048101889052602481019390935260016044840152516001600160a01b039091169163c9b902e391606480830192600092919082900301818387803b15801561350457600080fd5b505af1158015613518573d6000803e3d6000fd5b5050506000858152600b6020908152604080832085845282528083208684529091529020805460ff191660011790555050505050565b6000613559826123a0565b156135dd57600954604080516369f648a160e01b81526004810185905290516001600160a01b03909216916369f648a191602480820192602092909190829003018186803b1580156135aa57600080fd5b505afa1580156135be573d6000803e3d6000fd5b505050506040513d60208110156135d457600080fd5b50519050612101565b506000612101565b6135ed614309565b6135f68261202d565b9050806060015161ffff16816080015161ffff161015610fc45760808101805160010161ffff169052610fc48282612152565b6000600160ff1b82141561363f57506000612101565b600061364c836000613f1d565b905060198104600101915050612101565b80158015906136e157506009546040805163c9a59e4760e01b81526004810184905290516001600160a01b039092169163c9a59e4791602480820192602092909190829003018186803b1580156136b357600080fd5b505afa1580156136c7573d6000803e3d6000fd5b505050506040513d60208110156136dd57600080fd5b5051155b1561202a576001600160a01b0381166000818152600d6020908152604080832062069780420190819055815193845291830182905280519193927fc24affdb20f6529973515c5398461c1f6228edbfac531ab49e56a11433a86c9f929081900390910190a25050565b60006137558461416b565b8061376a5750600a6001600160401b03831610155b156137775750600661214b565b6000613782856141c1565b6009026001600160401b03169050600081111561379e57600319015b6019811061382057604080516020808201889052818301879052600360fa1b60608301528251604181840301815260619092019092528051910120606461271090910660ff16118015906138155760006137f7876126b7565b509250505060058160070b8161380957fe5b0760010193505061381a565b600692505b50612149565b506006949350505050565b600080600460ff841614156138425750600f613a2a565b604080516020808201889052818301879052600160f81b606083015282516041818403018152606190920190925280519101206064900660ff166057111561388d575060ff821660020a5b604080516020808201889052818301879052600160f91b606083015282516041818403018152606190920190925280519101206064900660ff1660281115613a2a57604080516020808201889052818301879052600360f81b606083015282516041818403018152606190920190925280519101206064900660ff16601911156139545760ff831615806139245750600260ff8416145b1561393157600a1761394f565b600160ff841614806139465750600360ff8416145b1561394f576005175b613a2a565b604080516020808201889052818301879052600360f81b606083015282516041818403018152606190920190925280519101206064900660ff16603211156139e25760ff83166139a65760081761394f565b600160ff841614156139ba5760011761394f565b600260ff841614156139ce5760021761394f565b600360ff8416141561394f57600417613a2a565b60ff83166139f257600217613a2a565b600160ff84161415613a0657600417613a2a565b600260ff84161415613a1a57600817613a2a565b600360ff84161415613a2a576001175b604080516020808201889052818301879052606f60f81b60608301528251808303604101815260619092019092528051910120606490066000603c60ff831610613a8857605a60ff831610613a80576002613a83565b60015b613a8b565b60005b905060048160ff1610613aa3578260f0179250613be5565b8060ff1660031415613b1d576040805160208082018a9052818301899052600760fc1b606083015282518083036041018152606190920190925280519101206003166001810160070260ff811660151415613b03578460d0179450613b16565b8060ff16601c1415613b16578460b01794505b5050613be5565b8060ff1660021415613b97576040805160208082018a9052818301899052600760fc1b60608301528251808303604101815260619092019092528051910120600690066001810160030260ff8116600f1415613b7e57846050179450613b16565b8060ff1660121415613b16578460a01794505050613be5565b8060ff1660011415613be5576040805160208082018a9052818301899052600760fc1b6060830152825160418184030181526061909201909252805191012060031660020a60100292909217915b509095945050505050565b6000806000613bfe88612fea565b869250905084600080613c108b6126b7565b5050915091508160070b6000148015613c2c57508060070b6000145b15613c405760029550846001179450613f0f565b8660ff168360ff1611613f0f5760408051602080820187905260f886901b6001600160f81b03191682840152604182018d9052600360f81b6061830152825180830360420181526062909201909252805191012060149006600186811614801590613cb9575060ff81161580613cb957508360ff166050145b15613ccd5760029650856001179550613f03565b600280871614801590613d0c57508060ff1660011480613cf057508360ff166050145b80613d0c57508360ff16604f148015613d0c5750600180871614155b15613d205760039650856002179550613f03565b600480871614801590613da657508060ff1660021480613d4357508360ff166050145b80613d5f57508360ff16604f148015613d5f5750600180871614155b80613d7b57508360ff16604f148015613d7b5750600280871614155b80613da657508360ff16604e148015613d975750600180871614155b8015613da65750600280871614155b15613db8576004965094861794613f03565b600880871614801590613eea57508060ff1660031480613ddb57508360ff166050145b80613df757508360ff16604f148015613df75750600180871614155b80613e1357508360ff16604f148015613e135750600280871614155b80613e2f57508360ff16604f148015613e2f5750600480871614155b80613e5a57508360ff16604e148015613e4b5750600180871614155b8015613e5a5750600280871614155b80613e8557508360ff16604e148015613e765750600180871614155b8015613e855750600480871614155b80613eb057508360ff16604e148015613ea15750600480871614155b8015613eb05750600280871614155b80613eea57508360ff16604d148015613ecc5750600480871614155b8015613edb5750600280871614155b8015613eea5750600180871614155b15613efe5760059650856008179550613f03565b600196505b50600190920191613c40565b505050509550959350505050565b6000806000613f2b856126b7565b505091509150600080613f3d866126b7565b5091935091505081840360070b6000811215613f57576000035b81840360070b6000811215613f6a576000035b6001603f1b821315613f805781600160401b0391505b6001603f1b811315613f9357600160401b035b80821315613fa857509450613fb59350505050565b9550613fb5945050505050565b92915050565b604080516020808201859052818301849052603360f91b6060830152825180830360410181526061830184528051908201206081830186905260a18301859052606760f81b60c1840152835160a281850301815260c290930190935281519101206000918291614035918691600991829006919006614217565b946002945092505050565b600081815260016020526040812054600160401b90046001600160401b03168061406e576000915050612101565b60055460408051634a83e9cd60e11b81526001600160401b038416600482015290516000926001600160a01b031691639507d39a916024808301926020929190829003018186803b1580156140c257600080fd5b505afa1580156140d6573d6000803e3d6000fd5b505050506040513d60208110156140ec57600080fd5b505190508061410057600092505050612101565b6000848152600160208190526040909120546001600160401b03808216908516149161413b91879185918590600160d01b900460ff1661424e565b95945050505050565b6000928352600b602090815260408085209385529281528284209184525290205460ff1690565b6000806000614179846126b7565b5050915091506000198260070b1215801561419957506000198160070b12155b80156141a9575060018260070b13155b80156141b9575060018160070b13155b949350505050565b60008060006141cf846126b7565b50509150915060008260070b12156141e8578160000391505b60008160070b12156141f8576000035b8060070b8260070b131561420e57509050612101565b91506121019050565b600080600080614226876126b7565b509250925092506130778660ff1660048560090203018660ff166004856009020301836133a7565b600060ff82166001146142635750600061413b565b600f831561426f57600a015b6040805160208082018a9052818301899052600360f91b6060830152825180830360410181526061909201909252805191012060ff821660649091061080156142fb576040805160208082018b90528183018a9052600760f81b606083015282516041818403018152606190920190925280519101208690816142ee57fe5b066001019250505061413b565b506000979650505050505050565b6040805160a08101825260008082526020820181905291810182905260608101829052608081019190915290565b6040805160c081018252600080825260208201819052918101829052606081018290526080810182905260a081019190915290565b828054600181600116156101000203166002900490600052602060002090601f016020900481019282601f106143ad5782800160ff198235161785556143da565b828001600101855582156143da579182015b828111156143da5782358255916020019190600101906143bf565b506143e69291506143ea565b5090565b61440491905b808211156143e657600081556001016143f0565b9056fe4f6e6c79206f776e657220697320616c6c6f77656420746f20706572666f726d207468697320616374696f6e4e4f545f415554484f52495a45445f41444d494e000000000000000000000000a26469706673582212207c0d69b2f0a3d4572084c4949989b8e9ae0446763cc884e3704ae70faae0f9e264736f6c63430006050033",
  "devdoc": {
    "methods": {}
  },
  "userdoc": {
    "methods": {}
  },
  "storageLayout": {
    "storage": [
      {
        "astId": 2873,
        "contract": "src/dungeon/DungeonAdminFacet.sol:DungeonAdminFacet",
        "label": "_characters",
        "offset": 0,
        "slot": "0",
        "type": "t_mapping(t_uint256,t_struct(Character)2856_storage)"
      },
      {
        "astId": 2877,
        "contract": "src/dungeon/DungeonAdminFacet.sol:DungeonAdminFacet",
        "label": "_rooms",
        "offset": 0,
        "slot": "1",
        "type": "t_mapping(t_uint256,t_struct(Room)2839_storage)"
      },
      {
        "astId": 2881,
        "contract": "src/dungeon/DungeonAdminFacet.sol:DungeonAdminFacet",
        "label": "_areas",
        "offset": 0,
        "slot": "2",
        "type": "t_mapping(t_uint256,t_struct(Area)2869_storage)"
      },
      {
        "astId": 2888,
        "contract": "src/dungeon/DungeonAdminFacet.sol:DungeonAdminFacet",
        "label": "_areaCounter",
        "offset": 0,
        "slot": "3",
        "type": "t_struct(AreaCounter)2886_storage"
      },
      {
        "astId": 2890,
        "contract": "src/dungeon/DungeonAdminFacet.sol:DungeonAdminFacet",
        "label": "_adminContract",
        "offset": 0,
        "slot": "4",
        "type": "t_address"
      },
      {
        "astId": 2892,
        "contract": "src/dungeon/DungeonAdminFacet.sol:DungeonAdminFacet",
        "label": "_blockHashRegister",
        "offset": 0,
        "slot": "5",
        "type": "t_contract(BlockHashRegister)13132"
      },
      {
        "astId": 2894,
        "contract": "src/dungeon/DungeonAdminFacet.sol:DungeonAdminFacet",
        "label": "_charactersContract",
        "offset": 0,
        "slot": "6",
        "type": "t_contract(Characters)469"
      },
      {
        "astId": 2896,
        "contract": "src/dungeon/DungeonAdminFacet.sol:DungeonAdminFacet",
        "label": "_elementsContract",
        "offset": 0,
        "slot": "7",
        "type": "t_contract(Elements)12815"
      },
      {
        "astId": 2898,
        "contract": "src/dungeon/DungeonAdminFacet.sol:DungeonAdminFacet",
        "label": "_gearsContract",
        "offset": 0,
        "slot": "8",
        "type": "t_contract(Gears)12834"
      },
      {
        "astId": 2900,
        "contract": "src/dungeon/DungeonAdminFacet.sol:DungeonAdminFacet",
        "label": "_roomsContract",
        "offset": 0,
        "slot": "9",
        "type": "t_contract(Rooms)12901"
      },
      {
        "astId": 2902,
        "contract": "src/dungeon/DungeonAdminFacet.sol:DungeonAdminFacet",
        "label": "_playerContract",
        "offset": 0,
        "slot": "10",
        "type": "t_contract(Player)10683"
      },
      {
        "astId": 2910,
        "contract": "src/dungeon/DungeonAdminFacet.sol:DungeonAdminFacet",
        "label": "_unlockedExits",
        "offset": 0,
        "slot": "11",
        "type": "t_mapping(t_uint256,t_mapping(t_uint256,t_mapping(t_uint256,t_bool)))"
      },
      {
        "astId": 2921,
        "contract": "src/dungeon/DungeonAdminFacet.sol:DungeonAdminFacet",
        "label": "_quests",
        "offset": 0,
        "slot": "12",
        "type": "t_mapping(t_uint256,t_mapping(t_uint64,t_struct(Quest)2915_storage))"
      },
      {
        "astId": 2925,
        "contract": "src/dungeon/DungeonAdminFacet.sol:DungeonAdminFacet",
        "label": "_taxDueDate",
        "offset": 0,
        "slot": "13",
        "type": "t_mapping(t_address,t_uint256)"
      },
      {
        "astId": 2929,
        "contract": "src/dungeon/DungeonAdminFacet.sol:DungeonAdminFacet",
        "label": "_customRoomNames",
        "offset": 0,
        "slot": "14",
        "type": "t_mapping(t_uint256,t_string_storage)"
      }
    ],
    "types": {
      "t_address": {
        "encoding": "inplace",
        "label": "address",
        "numberOfBytes": "20"
      },
      "t_bool": {
        "encoding": "inplace",
        "label": "bool",
        "numberOfBytes": "1"
      },
      "t_contract(BlockHashRegister)13132": {
        "encoding": "inplace",
        "label": "contract BlockHashRegister",
        "numberOfBytes": "20"
      },
      "t_contract(Characters)469": {
        "encoding": "inplace",
        "label": "contract Characters",
        "numberOfBytes": "20"
      },
      "t_contract(Elements)12815": {
        "encoding": "inplace",
        "label": "contract Elements",
        "numberOfBytes": "20"
      },
      "t_contract(Gears)12834": {
        "encoding": "inplace",
        "label": "contract Gears",
        "numberOfBytes": "20"
      },
      "t_contract(Player)10683": {
        "encoding": "inplace",
        "label": "contract Player",
        "numberOfBytes": "20"
      },
      "t_contract(Rooms)12901": {
        "encoding": "inplace",
        "label": "contract Rooms",
        "numberOfBytes": "20"
      },
      "t_int64": {
        "encoding": "inplace",
        "label": "int64",
        "numberOfBytes": "8"
      },
      "t_mapping(t_address,t_uint256)": {
        "encoding": "mapping",
        "key": "t_address",
        "label": "mapping(address => uint256)",
        "numberOfBytes": "32",
        "value": "t_uint256"
      },
      "t_mapping(t_uint256,t_bool)": {
        "encoding": "mapping",
        "key": "t_uint256",
        "label": "mapping(uint256 => bool)",
        "numberOfBytes": "32",
        "value": "t_bool"
      },
      "t_mapping(t_uint256,t_mapping(t_uint256,t_bool))": {
        "encoding": "mapping",
        "key": "t_uint256",
        "label": "mapping(uint256 => mapping(uint256 => bool))",
        "numberOfBytes": "32",
        "value": "t_mapping(t_uint256,t_bool)"
      },
      "t_mapping(t_uint256,t_mapping(t_uint256,t_mapping(t_uint256,t_bool)))": {
        "encoding": "mapping",
        "key": "t_uint256",
        "label": "mapping(uint256 => mapping(uint256 => mapping(uint256 => bool)))",
        "numberOfBytes": "32",
        "value": "t_mapping(t_uint256,t_mapping(t_uint256,t_bool))"
      },
      "t_mapping(t_uint256,t_mapping(t_uint64,t_struct(Quest)2915_storage))": {
        "encoding": "mapping",
        "key": "t_uint256",
        "label": "mapping(uint256 => mapping(uint64 => struct DungeonDataLayout.Quest))",
        "numberOfBytes": "32",
        "value": "t_mapping(t_uint64,t_struct(Quest)2915_storage)"
      },
      "t_mapping(t_uint256,t_string_storage)": {
        "encoding": "mapping",
        "key": "t_uint256",
        "label": "mapping(uint256 => string)",
        "numberOfBytes": "32",
        "value": "t_string_storage"
      },
      "t_mapping(t_uint256,t_struct(Area)2869_storage)": {
        "encoding": "mapping",
        "key": "t_uint256",
        "label": "mapping(uint256 => struct DungeonDataLayout.Area)",
        "numberOfBytes": "32",
        "value": "t_struct(Area)2869_storage"
      },
      "t_mapping(t_uint256,t_struct(Character)2856_storage)": {
        "encoding": "mapping",
        "key": "t_uint256",
        "label": "mapping(uint256 => struct DungeonDataLayout.Character)",
        "numberOfBytes": "32",
        "value": "t_struct(Character)2856_storage"
      },
      "t_mapping(t_uint256,t_struct(Room)2839_storage)": {
        "encoding": "mapping",
        "key": "t_uint256",
        "label": "mapping(uint256 => struct DungeonDataLayout.Room)",
        "numberOfBytes": "32",
        "value": "t_struct(Room)2839_storage"
      },
      "t_mapping(t_uint64,t_struct(Quest)2915_storage)": {
        "encoding": "mapping",
        "key": "t_uint64",
        "label": "mapping(uint64 => struct DungeonDataLayout.Quest)",
        "numberOfBytes": "32",
        "value": "t_struct(Quest)2915_storage"
      },
      "t_string_storage": {
        "encoding": "bytes",
        "label": "string",
        "numberOfBytes": "32"
      },
      "t_struct(Area)2869_storage": {
        "encoding": "inplace",
        "label": "struct DungeonDataLayout.Area",
        "members": [
          {
            "astId": 2858,
            "contract": "src/dungeon/DungeonAdminFacet.sol:DungeonAdminFacet",
            "label": "areaType",
            "offset": 0,
            "slot": "0",
            "type": "t_uint8"
          },
          {
            "astId": 2860,
            "contract": "src/dungeon/DungeonAdminFacet.sol:DungeonAdminFacet",
            "label": "discovered",
            "offset": 1,
            "slot": "0",
            "type": "t_uint8"
          },
          {
            "astId": 2862,
            "contract": "src/dungeon/DungeonAdminFacet.sol:DungeonAdminFacet",
            "label": "lastRoomIndex",
            "offset": 2,
            "slot": "0",
            "type": "t_uint8"
          },
          {
            "astId": 2864,
            "contract": "src/dungeon/DungeonAdminFacet.sol:DungeonAdminFacet",
            "label": "currentIndex",
            "offset": 3,
            "slot": "0",
            "type": "t_uint8"
          },
          {
            "astId": 2866,
            "contract": "src/dungeon/DungeonAdminFacet.sol:DungeonAdminFacet",
            "label": "lastRoom",
            "offset": 0,
            "slot": "1",
            "type": "t_uint256"
          },
          {
            "astId": 2868,
            "contract": "src/dungeon/DungeonAdminFacet.sol:DungeonAdminFacet",
            "label": "eventBlockNumber",
            "offset": 0,
            "slot": "2",
            "type": "t_uint64"
          }
        ],
        "numberOfBytes": "96"
      },
      "t_struct(AreaCounter)2886_storage": {
        "encoding": "inplace",
        "label": "struct DungeonDataLayout.AreaCounter",
        "members": [
          {
            "astId": 2883,
            "contract": "src/dungeon/DungeonAdminFacet.sol:DungeonAdminFacet",
            "label": "lastPeriod",
            "offset": 0,
            "slot": "0",
            "type": "t_uint64"
          },
          {
            "astId": 2885,
            "contract": "src/dungeon/DungeonAdminFacet.sol:DungeonAdminFacet",
            "label": "numAreas",
            "offset": 8,
            "slot": "0",
            "type": "t_uint64"
          }
        ],
        "numberOfBytes": "32"
      },
      "t_struct(Character)2856_storage": {
        "encoding": "inplace",
        "label": "struct DungeonDataLayout.Character",
        "members": [
          {
            "astId": 2841,
            "contract": "src/dungeon/DungeonAdminFacet.sol:DungeonAdminFacet",
            "label": "location",
            "offset": 0,
            "slot": "0",
            "type": "t_uint256"
          },
          {
            "astId": 2843,
            "contract": "src/dungeon/DungeonAdminFacet.sol:DungeonAdminFacet",
            "label": "direction",
            "offset": 0,
            "slot": "1",
            "type": "t_uint8"
          },
          {
            "astId": 2845,
            "contract": "src/dungeon/DungeonAdminFacet.sol:DungeonAdminFacet",
            "label": "floors",
            "offset": 1,
            "slot": "1",
            "type": "t_int64"
          },
          {
            "astId": 2847,
            "contract": "src/dungeon/DungeonAdminFacet.sol:DungeonAdminFacet",
            "label": "slot_1",
            "offset": 0,
            "slot": "2",
            "type": "t_uint256"
          },
          {
            "astId": 2849,
            "contract": "src/dungeon/DungeonAdminFacet.sol:DungeonAdminFacet",
            "label": "slot_2",
            "offset": 0,
            "slot": "3",
            "type": "t_uint256"
          },
          {
            "astId": 2851,
            "contract": "src/dungeon/DungeonAdminFacet.sol:DungeonAdminFacet",
            "label": "slot_3",
            "offset": 0,
            "slot": "4",
            "type": "t_uint256"
          },
          {
            "astId": 2853,
            "contract": "src/dungeon/DungeonAdminFacet.sol:DungeonAdminFacet",
            "label": "slot_4",
            "offset": 0,
            "slot": "5",
            "type": "t_uint256"
          },
          {
            "astId": 2855,
            "contract": "src/dungeon/DungeonAdminFacet.sol:DungeonAdminFacet",
            "label": "slot_5",
            "offset": 0,
            "slot": "6",
            "type": "t_uint256"
          }
        ],
        "numberOfBytes": "224"
      },
      "t_struct(Quest)2915_storage": {
        "encoding": "inplace",
        "label": "struct DungeonDataLayout.Quest",
        "members": [
          {
            "astId": 2912,
            "contract": "src/dungeon/DungeonAdminFacet.sol:DungeonAdminFacet",
            "label": "status",
            "offset": 0,
            "slot": "0",
            "type": "t_uint8"
          },
          {
            "astId": 2914,
            "contract": "src/dungeon/DungeonAdminFacet.sol:DungeonAdminFacet",
            "label": "data",
            "offset": 0,
            "slot": "1",
            "type": "t_string_storage"
          }
        ],
        "numberOfBytes": "64"
      },
      "t_struct(Room)2839_storage": {
        "encoding": "inplace",
        "label": "struct DungeonDataLayout.Room",
        "members": [
          {
            "astId": 2818,
            "contract": "src/dungeon/DungeonAdminFacet.sol:DungeonAdminFacet",
            "label": "blockNumber",
            "offset": 0,
            "slot": "0",
            "type": "t_uint64"
          },
          {
            "astId": 2820,
            "contract": "src/dungeon/DungeonAdminFacet.sol:DungeonAdminFacet",
            "label": "monsterBlockNumber",
            "offset": 8,
            "slot": "0",
            "type": "t_uint64"
          },
          {
            "astId": 2822,
            "contract": "src/dungeon/DungeonAdminFacet.sol:DungeonAdminFacet",
            "label": "numActiveCharacters",
            "offset": 16,
            "slot": "0",
            "type": "t_uint64"
          },
          {
            "astId": 2824,
            "contract": "src/dungeon/DungeonAdminFacet.sol:DungeonAdminFacet",
            "label": "direction",
            "offset": 24,
            "slot": "0",
            "type": "t_uint8"
          },
          {
            "astId": 2826,
            "contract": "src/dungeon/DungeonAdminFacet.sol:DungeonAdminFacet",
            "label": "exits",
            "offset": 25,
            "slot": "0",
            "type": "t_uint8"
          },
          {
            "astId": 2828,
            "contract": "src/dungeon/DungeonAdminFacet.sol:DungeonAdminFacet",
            "label": "kind",
            "offset": 26,
            "slot": "0",
            "type": "t_uint8"
          },
          {
            "astId": 2830,
            "contract": "src/dungeon/DungeonAdminFacet.sol:DungeonAdminFacet",
            "label": "areaAtDiscovery",
            "offset": 27,
            "slot": "0",
            "type": "t_uint8"
          },
          {
            "astId": 2832,
            "contract": "src/dungeon/DungeonAdminFacet.sol:DungeonAdminFacet",
            "label": "lastRoomIndex",
            "offset": 28,
            "slot": "0",
            "type": "t_uint8"
          },
          {
            "astId": 2834,
            "contract": "src/dungeon/DungeonAdminFacet.sol:DungeonAdminFacet",
            "label": "index",
            "offset": 29,
            "slot": "0",
            "type": "t_uint8"
          },
          {
            "astId": 2836,
            "contract": "src/dungeon/DungeonAdminFacet.sol:DungeonAdminFacet",
            "label": "discoverer",
            "offset": 0,
            "slot": "1",
            "type": "t_uint256"
          },
          {
            "astId": 2838,
            "contract": "src/dungeon/DungeonAdminFacet.sol:DungeonAdminFacet",
            "label": "randomEvent",
            "offset": 0,
            "slot": "2",
            "type": "t_uint64"
          }
        ],
        "numberOfBytes": "96"
      },
      "t_uint256": {
        "encoding": "inplace",
        "label": "uint256",
        "numberOfBytes": "32"
      },
      "t_uint64": {
        "encoding": "inplace",
        "label": "uint64",
        "numberOfBytes": "8"
      },
      "t_uint8": {
        "encoding": "inplace",
        "label": "uint8",
        "numberOfBytes": "1"
      }
    }
  }
}