{
  "abi": [
    {
      "inputs": [
        {
          "internalType": "uint256",
          "name": "location",
          "type": "uint256"
        }
      ],
      "name": "carrierCost",
      "outputs": [
        {
          "internalType": "uint256",
          "name": "",
          "type": "uint256"
        }
      ],
      "stateMutability": "pure",
      "type": "function"
    },
    {
      "inputs": [
        {
          "internalType": "uint256",
          "name": "location",
          "type": "uint256"
        },
        {
          "internalType": "bytes32",
          "name": "blockHash",
          "type": "bytes32"
        },
        {
          "internalType": "uint8",
          "name": "class",
          "type": "uint8"
        }
      ],
      "name": "computeRoomDiscoveryReward",
      "outputs": [
        {
          "internalType": "uint256",
          "name": "numGold",
          "type": "uint256"
        },
        {
          "internalType": "uint256",
          "name": "numElements",
          "type": "uint256"
        }
      ],
      "stateMutability": "pure",
      "type": "function"
    },
    {
      "inputs": [
        {
          "internalType": "uint256",
          "name": "location",
          "type": "uint256"
        }
      ],
      "name": "coordinates",
      "outputs": [
        {
          "internalType": "int64",
          "name": "x",
          "type": "int64"
        },
        {
          "internalType": "int64",
          "name": "y",
          "type": "int64"
        },
        {
          "internalType": "int64",
          "name": "z",
          "type": "int64"
        },
        {
          "internalType": "uint64",
          "name": "a",
          "type": "uint64"
        }
      ],
      "stateMutability": "pure",
      "type": "function"
    },
    {
      "inputs": [
        {
          "internalType": "uint256",
          "name": "data",
          "type": "uint256"
        }
      ],
      "name": "decodeCharacterData",
      "outputs": [
        {
          "internalType": "uint16",
          "name": "level",
          "type": "uint16"
        },
        {
          "internalType": "uint16",
          "name": "hp",
          "type": "uint16"
        },
        {
          "internalType": "uint16",
          "name": "maxHP",
          "type": "uint16"
        },
        {
          "internalType": "uint32",
          "name": "xp",
          "type": "uint32"
        },
        {
          "internalType": "uint8",
          "name": "class",
          "type": "uint8"
        }
      ],
      "stateMutability": "pure",
      "type": "function"
    },
    {
      "inputs": [
        {
          "internalType": "uint256",
          "name": "data",
          "type": "uint256"
        }
      ],
      "name": "decodeGearData",
      "outputs": [
        {
          "internalType": "uint16",
          "name": "level",
          "type": "uint16"
        },
        {
          "internalType": "uint8",
          "name": "slot",
          "type": "uint8"
        },
        {
          "internalType": "uint8",
          "name": "classBits",
          "type": "uint8"
        },
        {
          "internalType": "uint16",
          "name": "durability",
          "type": "uint16"
        },
        {
          "internalType": "uint16",
          "name": "maxDurability",
          "type": "uint16"
        },
        {
          "internalType": "uint32",
          "name": "template",
          "type": "uint32"
        }
      ],
      "stateMutability": "pure",
      "type": "function"
    },
    {
      "inputs": [
        {
          "internalType": "uint256",
          "name": "location",
          "type": "uint256"
        }
      ],
      "name": "discoveryCost",
      "outputs": [
        {
          "internalType": "uint256",
          "name": "fragments",
          "type": "uint256"
        }
      ],
      "stateMutability": "pure",
      "type": "function"
    },
    {
      "inputs": [
        {
          "internalType": "uint16",
          "name": "level",
          "type": "uint16"
        },
        {
          "internalType": "uint8",
          "name": "slot",
          "type": "uint8"
        },
        {
          "internalType": "uint8",
          "name": "classBits",
          "type": "uint8"
        },
        {
          "internalType": "uint16",
          "name": "durability",
          "type": "uint16"
        },
        {
          "internalType": "uint16",
          "name": "maxDurability",
          "type": "uint16"
        },
        {
          "internalType": "uint32",
          "name": "template",
          "type": "uint32"
        }
      ],
      "name": "encodeGearData",
      "outputs": [
        {
          "internalType": "uint256",
          "name": "data",
          "type": "uint256"
        }
      ],
      "stateMutability": "pure",
      "type": "function"
    },
    {
      "inputs": [
        {
          "internalType": "uint256",
          "name": "areaLoc",
          "type": "uint256"
        },
        {
          "internalType": "bytes32",
          "name": "blockHash",
          "type": "bytes32"
        },
        {
          "internalType": "uint64",
          "name": "numElementalAreaInPeriod",
          "type": "uint64"
        }
      ],
      "name": "generateArea",
      "outputs": [
        {
          "internalType": "uint8",
          "name": "areaType",
          "type": "uint8"
        }
      ],
      "stateMutability": "pure",
      "type": "function"
    },
    {
      "inputs": [
        {
          "internalType": "uint256",
          "name": "location",
          "type": "uint256"
        },
        {
          "internalType": "bytes32",
          "name": "blockHash",
          "type": "bytes32"
        },
        {
          "internalType": "uint256",
          "name": "numMonsters",
          "type": "uint256"
        },
        {
          "internalType": "bool",
          "name": "newlyDiscoveredRoom",
          "type": "bool"
        },
        {
          "internalType": "uint8",
          "name": "roomKind",
          "type": "uint8"
        }
      ],
      "name": "generateMonsterIndex",
      "outputs": [
        {
          "internalType": "uint256",
          "name": "",
          "type": "uint256"
        }
      ],
      "stateMutability": "pure",
      "type": "function"
    },
    {
      "inputs": [
        {
          "internalType": "uint256",
          "name": "areaLoc",
          "type": "uint256"
        },
        {
          "internalType": "bytes32",
          "name": "blockHash",
          "type": "bytes32"
        }
      ],
      "name": "generateRandomEvent",
      "outputs": [
        {
          "internalType": "uint256",
          "name": "roomLocation",
          "type": "uint256"
        },
        {
          "internalType": "uint64",
          "name": "randomEvent",
          "type": "uint64"
        }
      ],
      "stateMutability": "pure",
      "type": "function"
    },
    {
      "inputs": [
        {
          "internalType": "uint256",
          "name": "location",
          "type": "uint256"
        },
        {
          "internalType": "bytes32",
          "name": "blockHash",
          "type": "bytes32"
        },
        {
          "internalType": "uint8",
          "name": "direction",
          "type": "uint8"
        },
        {
          "internalType": "uint8",
          "name": "areaAtDiscovery",
          "type": "uint8"
        },
        {
          "internalType": "uint8",
          "name": "lastIndex",
          "type": "uint8"
        },
        {
          "internalType": "uint8",
          "name": "index",
          "type": "uint8"
        }
      ],
      "name": "generateRoom",
      "outputs": [
        {
          "internalType": "uint8",
          "name": "exits",
          "type": "uint8"
        },
        {
          "internalType": "uint8",
          "name": "kind",
          "type": "uint8"
        },
        {
          "internalType": "uint8",
          "name": "area_discovered",
          "type": "uint8"
        }
      ],
      "stateMutability": "pure",
      "type": "function"
    },
    {
      "inputs": [
        {
          "internalType": "uint256",
          "name": "location",
          "type": "uint256"
        }
      ],
      "name": "getAreaLoc",
      "outputs": [
        {
          "internalType": "uint256",
          "name": "",
          "type": "uint256"
        }
      ],
      "stateMutability": "pure",
      "type": "function"
    },
    {
      "inputs": [
        {
          "internalType": "uint256",
          "name": "p1",
          "type": "uint256"
        },
        {
          "internalType": "uint256",
          "name": "p2",
          "type": "uint256"
        }
      ],
      "name": "getRing",
      "outputs": [
        {
          "internalType": "uint256",
          "name": "",
          "type": "uint256"
        }
      ],
      "stateMutability": "pure",
      "type": "function"
    },
    {
      "inputs": [
        {
          "internalType": "uint16",
          "name": "hp",
          "type": "uint16"
        }
      ],
      "name": "hpCost",
      "outputs": [
        {
          "internalType": "uint256",
          "name": "",
          "type": "uint256"
        }
      ],
      "stateMutability": "pure",
      "type": "function"
    },
    {
      "inputs": [
        {
          "internalType": "uint16",
          "name": "value",
          "type": "uint16"
        },
        {
          "internalType": "uint16",
          "name": "max",
          "type": "uint16"
        },
        {
          "internalType": "int64",
          "name": "change",
          "type": "int64"
        }
      ],
      "name": "limitedChange",
      "outputs": [
        {
          "internalType": "uint16",
          "name": "",
          "type": "uint16"
        }
      ],
      "stateMutability": "pure",
      "type": "function"
    },
    {
      "inputs": [
        {
          "internalType": "int64",
          "name": "x",
          "type": "int64"
        },
        {
          "internalType": "int64",
          "name": "y",
          "type": "int64"
        },
        {
          "internalType": "int64",
          "name": "z",
          "type": "int64"
        }
      ],
      "name": "location",
      "outputs": [
        {
          "internalType": "uint256",
          "name": "location",
          "type": "uint256"
        }
      ],
      "stateMutability": "pure",
      "type": "function"
    },
    {
      "inputs": [
        {
          "internalType": "uint256",
          "name": "gearData",
          "type": "uint256"
        }
      ],
      "name": "recyclingReward",
      "outputs": [
        {
          "internalType": "uint256",
          "name": "",
          "type": "uint256"
        }
      ],
      "stateMutability": "pure",
      "type": "function"
    },
    {
      "inputs": [
        {
          "internalType": "uint256",
          "name": "rooms",
          "type": "uint256"
        },
        {
          "internalType": "uint256",
          "name": "periods",
          "type": "uint256"
        }
      ],
      "name": "roomsTax",
      "outputs": [
        {
          "internalType": "uint256",
          "name": "",
          "type": "uint256"
        }
      ],
      "stateMutability": "pure",
      "type": "function"
    },
    {
      "inputs": [
        {
          "internalType": "uint256",
          "name": "p1",
          "type": "uint256"
        },
        {
          "internalType": "uint256",
          "name": "p2",
          "type": "uint256"
        }
      ],
      "name": "teleportTax",
      "outputs": [
        {
          "internalType": "uint256",
          "name": "",
          "type": "uint256"
        }
      ],
      "stateMutability": "pure",
      "type": "function"
    },
    {
      "inputs": [
        {
          "internalType": "uint16",
          "name": "level",
          "type": "uint16"
        }
      ],
      "name": "toLevelUp",
      "outputs": [
        {
          "internalType": "uint16",
          "name": "xpRequired",
          "type": "uint16"
        },
        {
          "internalType": "uint256",
          "name": "coinsRequired",
          "type": "uint256"
        },
        {
          "internalType": "uint8",
          "name": "hpIncrease",
          "type": "uint8"
        }
      ],
      "stateMutability": "pure",
      "type": "function"
    }
  ],
  "address": "0x181d9b1ef2ac007fa5251af54D359b5391DE823f",
  "args": [],
  "bytecode": "0x611752610026600b82828239805160001a60731461001957fe5b30600052607381538281f3fe73000000000000000000000000000000000000000030146080604052600436106101365760003560e01c8063a48378ff116100b7578063d82700591161007b578063d827005914610511578063ed53a6241461052e578063f090aca814610568578063f6940ac71461058b578063ff5335fa146105d457610136565b8063a48378ff146103de578063acda69ca146103fb578063b0ca9dfe1461044d578063d495436114610470578063d667fd04146104b757610136565b806356b5c381116100fe57806356b5c381146102a85780637a923474146102cb5780639f7cb08e146102ec578063a0109ce71461034f578063a10143a61461038357610136565b80630e7011241461013b5780630ececfea14610186578063213ee143146101cb5780632f587796146102345780633683dee114610263575b600080fd5b61016f6004803603606081101561015157600080fd5b5061ffff81358116916020810135909116906040013560070b6105f1565b6040805161ffff9092168252519081900360200190f35b6101a96004803603604081101561019c57600080fd5b5080359060200135610608565b6040805192835267ffffffffffffffff90911660208301528051918290030190f35b61020f600480360360c08110156101e157600080fd5b5080359060208101359060ff60408201358116916060810135821691608082013581169160a0013516610620565b6040805160ff9485168152928416602084015292168183015290519081900360600190f35b6102516004803603602081101561024a57600080fd5b5035610645565b60408051918252519081900360200190f35b61028f6004803603606081101561027957600080fd5b508035906020810135906040013560ff16610658565b6040805192835260208301919091528051918290030190f35b610251600480360360408110156102be57600080fd5b5080359060200135610672565b610251600480360360208110156102e157600080fd5b503561ffff16610687565b6103096004803603602081101561030257600080fd5b5035610692565b6040805161ffff978816815260ff968716602082015294909516848601529185166060840152909316608082015263ffffffff90921660a0830152519081900360c00190f35b6102516004803603606081101561036557600080fd5b508035600790810b916020810135820b91604090910135900b6106b8565b6103a06004803603602081101561039957600080fd5b50356106c5565b60408051600795860b860b815293850b850b602085015291840b90930b8282015267ffffffffffffffff909216606082015290519081900360800190f35b610251600480360360208110156103f457600080fd5b50356106e3565b610251600480360360c081101561041157600080fd5b5061ffff813581169160ff602082013581169260408301359091169160608101358216916080820135169063ffffffff60a090910135166106ee565b6102516004803603604081101561046357600080fd5b5080359060200135610709565b6104916004803603602081101561048657600080fd5b503561ffff16610715565b6040805161ffff9094168452602084019290925260ff1682820152519081900360600190f35b6104d4600480360360208110156104cd57600080fd5b5035610730565b6040805161ffff96871681529486166020860152929094168383015263ffffffff16606083015260ff909216608082015290519081900360a00190f35b6102516004803603602081101561052757600080fd5b5035610753565b610251600480360360a081101561054457600080fd5b5080359060208101359060408101359060608101351515906080013560ff1661075e565b6102516004803603604081101561057e57600080fd5b5080359060200135610779565b6105be600480360360608110156105a157600080fd5b508035906020810135906040013567ffffffffffffffff16610785565b6040805160ff9092168252519081900360200190f35b610251600480360360208110156105ea57600080fd5b503561079a565b60006105fe8484846107a5565b90505b9392505050565b60008061061584846107e8565b915091509250929050565b600080600061063389898989898961086d565b92509250925096509650969350505050565b60006106508261089e565b90505b919050565b60008061066685858561092b565b91509150935093915050565b600061067e8383610a27565b90505b92915050565b600061065082610a33565b6000806000806000806106a487610a3a565b949c939b5091995097509550909350915050565b60006105fe848484610a6e565b6000806000806106d485610a98565b93509350935093509193509193565b600061065082610ab3565b60006106fe878787878787610ae7565b979650505050505050565b600061067e8383610b3b565b600080600061072384610bd3565b9250925092509193909250565b600080600080600061074186610c9e565b939a9299509097509550909350915050565b600061065082610ccf565b600061076d8686868686610d22565b90505b95945050505050565b600061067e8383610ddd565b6000610792848484610e0f565b509392505050565b600061065082610ef2565b600080828561ffff160190508361ffff1660070b8160070b13156107cc5783915050610601565b60008160070b136107e1576000915050610601565b9050610601565b604080516020808201859052818301849052603360f91b6060830152825180830360410181526061830184528051908201206081830186905260a18301859052606760f81b60c1840152835160a281850301815260c290930190935281519101206000918291610862918691600991829006919006610f28565b946002945092505050565b600080600061087d898989610f5f565b925061088c8989888888611324565b939a9099509297509195505050505050565b6000806000806108ad85610a98565b509250925092506000808460070b126108d0575060096004840160070b056108ea565b60098460000360040160070b816108e357fe5b0560000390505b6000808460070b12610906575060096004840160070b05610920565b60098460000360040160070b8161091957fe5b0560000390505b6106fe828285610a6e565b600080600061093b866000610b3b565b9050601981048061094a575060015b6040805160208082018a9052818301899052601960fa1b6060830152825160418184030181526061909201909252805191012081908161098657fe5b06600282040192508261099857600192505b600260ff861614156109ad5760048304830192505b60088111156109ba575060085b6040805160208082018a9052818301899052606560f81b606083015282516041818403018152606190920190925280519101208190816109f657fe5b066002820401935083610a0857600193505b600160ff86161415610a1d5760048404840193505b5050935093915050565b600a9091046001010290565b61ffff1690565b61ffff60e882901c81169260ff60e084901c169260f881901c9260d082901c81169260c083901c9091169163ffffffff1690565b600160ff1b67ffffffffffffffff938416928416600160401b0291909316600160801b0201010190565b90600160401b820490600160801b830490600160ff1b840490565b6000600160ff1b821415610ac957506000610653565b6000610ad6836000610b3b565b905060198104600101915050610653565b6001600160f81b031960f885901b1661ffff60e81b60e888901b160160ff60e01b60e087901b160161ffff60d01b60d085901b160161ffff60c01b60c084901b160163ffffffff8216019695505050505050565b6000806000610b4985610a98565b505091509150600080610b5b86610a98565b5091935091505081840360070b6000811215610b75576000035b81840360070b6000811215610b88576000035b6001603f1b821315610b9e5781600160401b0391505b6001603f1b811315610bb157600160401b035b80821315610bc6575094506106819350505050565b9550610681945050505050565b6000806000610be06116fd565b50604080516101608101825260008152600a60208201526031918101919091526077606082015260d0608082015261014860a082015261020c60c082015261033a60e08201526104f5610100820152610e46610120820152611aee6101408201528061ffff8616600b8110610c5157fe5b6020020151935060088561ffff161115610c6f576101ec9250610c92565b600560038660010161ffff160a61ffff1681610c8757fe5b0460080161ffff1692505b600a9150509193909250565b61ffff60e882901c81169260a883901c82169260b881901c9092169163ffffffff60c882901c169160f89190911c90565b600080600080610cde85610a3a565b509450945050509250600060028461ffff1681610cf757fe5b0460010161ffff1690508161ffff168361ffff16141561077057600281040160010195945050505050565b600060ff8216600114610d3757506000610770565b600f8315610d4357600a015b6040805160208082018a9052818301899052600360f91b6060830152825180830360410181526061909201909252805191012060ff82166064909106108015610dcf576040805160208082018b90528183018a9052600760f81b60608301528251604181840301815260619092019092528051910120869081610dc257fe5b0660010192505050610770565b506000979650505050505050565b6000806005610dec8585610b3b565b60020281610df657fe5b04905080610e08576001915050610681565b9050610681565b6000610e1a84611651565b80610e305750600a67ffffffffffffffff831610155b15610e3d57506006610601565b6000610e48856116a7565b60090267ffffffffffffffff1690506000811115610e6557600319015b60198110610ee757604080516020808201889052818301879052600360fa1b60608301528251604181840301815260619092019092528051910120606461271090910660ff1611801590610edc576000610ebe87610a98565b509250505060058160070b81610ed057fe5b07600101935050610ee1565b600692505b50610792565b506006949350505050565b6000806006610f0584600160ff1b610b3b565b60020281610f0f57fe5b04905080610f21576001915050610653565b9050610653565b600080600080610f3787610a98565b509250925092506106fe8660ff1660048560090203018660ff16600485600902030183610a6e565b600080600460ff84161415610f765750600f61115e565b604080516020808201889052818301879052600160f81b606083015282516041818403018152606190920190925280519101206064900660ff1660571115610fc1575060ff821660020a5b604080516020808201889052818301879052600160f91b606083015282516041818403018152606190920190925280519101206064900660ff166028111561115e57604080516020808201889052818301879052600360f81b606083015282516041818403018152606190920190925280519101206064900660ff16601911156110885760ff831615806110585750600260ff8416145b1561106557600a17611083565b600160ff8416148061107a5750600360ff8416145b15611083576005175b61115e565b604080516020808201889052818301879052600360f81b606083015282516041818403018152606190920190925280519101206064900660ff16603211156111165760ff83166110da57600817611083565b600160ff841614156110ee57600117611083565b600260ff8416141561110257600217611083565b600360ff841614156110835760041761115e565b60ff83166111265760021761115e565b600160ff8416141561113a5760041761115e565b600260ff8416141561114e5760081761115e565b600360ff8416141561115e576001175b604080516020808201889052818301879052606f60f81b60608301528251808303604101815260619092019092528051910120606490066000603c60ff8316106111bc57605a60ff8316106111b45760026111b7565b60015b6111bf565b60005b905060048160ff16106111d7578260f0179250611319565b8060ff1660031415611251576040805160208082018a9052818301899052600760fc1b606083015282518083036041018152606190920190925280519101206003166001810160070260ff811660151415611237578460d017945061124a565b8060ff16601c141561124a578460b01794505b5050611319565b8060ff16600214156112cb576040805160208082018a9052818301899052600760fc1b60608301528251808303604101815260619092019092528051910120600690066001810160030260ff8116600f14156112b25784605017945061124a565b8060ff166012141561124a578460a01794505050611319565b8060ff1660011415611319576040805160208082018a9052818301899052600760fc1b6060830152825160418184030181526061909201909252805191012060031660020a60100292909217915b509095945050505050565b60008060006113328861089e565b8692509050846000806113448b610a98565b5050915091508160070b600014801561136057508060070b6000145b156113745760029550846001179450611643565b8660ff168360ff16116116435760408051602080820187905260f886901b6001600160f81b03191682840152604182018d9052600360f81b60618301528251808303604201815260629092019092528051910120601490066001868116148015906113ed575060ff811615806113ed57508360ff166050145b156114015760029650856001179550611637565b60028087161480159061144057508060ff166001148061142457508360ff166050145b8061144057508360ff16604f1480156114405750600180871614155b156114545760039650856002179550611637565b6004808716148015906114da57508060ff166002148061147757508360ff166050145b8061149357508360ff16604f1480156114935750600180871614155b806114af57508360ff16604f1480156114af5750600280871614155b806114da57508360ff16604e1480156114cb5750600180871614155b80156114da5750600280871614155b156114ec576004965094861794611637565b60088087161480159061161e57508060ff166003148061150f57508360ff166050145b8061152b57508360ff16604f14801561152b5750600180871614155b8061154757508360ff16604f1480156115475750600280871614155b8061156357508360ff16604f1480156115635750600480871614155b8061158e57508360ff16604e14801561157f5750600180871614155b801561158e5750600280871614155b806115b957508360ff16604e1480156115aa5750600180871614155b80156115b95750600480871614155b806115e457508360ff16604e1480156115d55750600480871614155b80156115e45750600280871614155b8061161e57508360ff16604d1480156116005750600480871614155b801561160f5750600280871614155b801561161e5750600180871614155b156116325760059650856008179550611637565b600196505b50600190920191611374565b505050509550959350505050565b600080600061165f84610a98565b5050915091506000198260070b1215801561167f57506000198160070b12155b801561168f575060018260070b13155b801561169f575060018160070b13155b949350505050565b60008060006116b584610a98565b50509150915060008260070b12156116ce578160000391505b60008160070b12156116de576000035b8060070b8260070b13156116f457509050610653565b91506106539050565b604051806101600160405280600b90602082028036833750919291505056fea2646970667358221220d20f67c6ad3ee1436a5b39ddcb32f024775b911d603323a2fb63e864597ae0df64736f6c63430006050033",
  "devdoc": {
    "methods": {}
  },
  "userdoc": {
    "methods": {}
  },
  "storageLayout": {
    "storage": [],
    "types": null
  }
}