{
  "abi": [
    {
      "inputs": [
        {
          "internalType": "uint256",
          "name": "location",
          "type": "uint256"
        }
      ],
      "name": "carrierCost",
      "outputs": [
        {
          "internalType": "uint256",
          "name": "",
          "type": "uint256"
        }
      ],
      "stateMutability": "pure",
      "type": "function"
    },
    {
      "inputs": [
        {
          "internalType": "uint256",
          "name": "location",
          "type": "uint256"
        },
        {
          "internalType": "bytes32",
          "name": "blockHash",
          "type": "bytes32"
        },
        {
          "internalType": "uint8",
          "name": "class",
          "type": "uint8"
        }
      ],
      "name": "computeRoomDiscoveryReward",
      "outputs": [
        {
          "internalType": "uint256",
          "name": "numGold",
          "type": "uint256"
        },
        {
          "internalType": "uint256",
          "name": "numElements",
          "type": "uint256"
        }
      ],
      "stateMutability": "pure",
      "type": "function"
    },
    {
      "inputs": [
        {
          "internalType": "uint256",
          "name": "data",
          "type": "uint256"
        }
      ],
      "name": "decodeCharacterData",
      "outputs": [
        {
          "internalType": "uint16",
          "name": "level",
          "type": "uint16"
        },
        {
          "internalType": "uint16",
          "name": "hp",
          "type": "uint16"
        },
        {
          "internalType": "uint16",
          "name": "maxHP",
          "type": "uint16"
        },
        {
          "internalType": "uint32",
          "name": "xp",
          "type": "uint32"
        },
        {
          "internalType": "uint8",
          "name": "class",
          "type": "uint8"
        }
      ],
      "stateMutability": "pure",
      "type": "function"
    },
    {
      "inputs": [
        {
          "internalType": "uint256",
          "name": "data",
          "type": "uint256"
        }
      ],
      "name": "decodeGearData",
      "outputs": [
        {
          "internalType": "uint16",
          "name": "level",
          "type": "uint16"
        },
        {
          "internalType": "uint8",
          "name": "slot",
          "type": "uint8"
        },
        {
          "internalType": "uint8",
          "name": "classBits",
          "type": "uint8"
        },
        {
          "internalType": "uint16",
          "name": "durability",
          "type": "uint16"
        },
        {
          "internalType": "uint16",
          "name": "maxDurability",
          "type": "uint16"
        },
        {
          "internalType": "uint32",
          "name": "template",
          "type": "uint32"
        }
      ],
      "stateMutability": "pure",
      "type": "function"
    },
    {
      "inputs": [
        {
          "internalType": "uint256",
          "name": "location",
          "type": "uint256"
        }
      ],
      "name": "discoveryCost",
      "outputs": [
        {
          "internalType": "uint256",
          "name": "fragments",
          "type": "uint256"
        }
      ],
      "stateMutability": "pure",
      "type": "function"
    },
    {
      "inputs": [
        {
          "internalType": "uint16",
          "name": "level",
          "type": "uint16"
        },
        {
          "internalType": "uint8",
          "name": "slot",
          "type": "uint8"
        },
        {
          "internalType": "uint8",
          "name": "classBits",
          "type": "uint8"
        },
        {
          "internalType": "uint16",
          "name": "durability",
          "type": "uint16"
        },
        {
          "internalType": "uint16",
          "name": "maxDurability",
          "type": "uint16"
        },
        {
          "internalType": "uint32",
          "name": "template",
          "type": "uint32"
        }
      ],
      "name": "encodeGearData",
      "outputs": [
        {
          "internalType": "uint256",
          "name": "data",
          "type": "uint256"
        }
      ],
      "stateMutability": "pure",
      "type": "function"
    },
    {
      "inputs": [
        {
          "internalType": "uint256",
          "name": "areaLoc",
          "type": "uint256"
        },
        {
          "internalType": "bytes32",
          "name": "blockHash",
          "type": "bytes32"
        },
        {
          "internalType": "uint64",
          "name": "numElementalAreaInPeriod",
          "type": "uint64"
        }
      ],
      "name": "generateArea",
      "outputs": [
        {
          "internalType": "uint8",
          "name": "areaType",
          "type": "uint8"
        }
      ],
      "stateMutability": "pure",
      "type": "function"
    },
    {
      "inputs": [
        {
          "internalType": "uint256",
          "name": "location",
          "type": "uint256"
        },
        {
          "internalType": "bytes32",
          "name": "blockHash",
          "type": "bytes32"
        },
        {
          "internalType": "uint8",
          "name": "direction",
          "type": "uint8"
        }
      ],
      "name": "generateExits",
      "outputs": [
        {
          "internalType": "uint8",
          "name": "",
          "type": "uint8"
        }
      ],
      "stateMutability": "pure",
      "type": "function"
    },
    {
      "inputs": [
        {
          "internalType": "uint256",
          "name": "location",
          "type": "uint256"
        },
        {
          "internalType": "bytes32",
          "name": "blockHash",
          "type": "bytes32"
        },
        {
          "internalType": "uint256",
          "name": "numMonsters",
          "type": "uint256"
        },
        {
          "internalType": "bool",
          "name": "newlyDiscoveredRoom",
          "type": "bool"
        },
        {
          "internalType": "uint8",
          "name": "roomKind",
          "type": "uint8"
        }
      ],
      "name": "generateMonsterIndex",
      "outputs": [
        {
          "internalType": "uint256",
          "name": "",
          "type": "uint256"
        }
      ],
      "stateMutability": "pure",
      "type": "function"
    },
    {
      "inputs": [
        {
          "internalType": "uint256",
          "name": "areaLoc",
          "type": "uint256"
        },
        {
          "internalType": "bytes32",
          "name": "blockHash",
          "type": "bytes32"
        }
      ],
      "name": "generateRandomEvent",
      "outputs": [
        {
          "internalType": "uint256",
          "name": "roomLocation",
          "type": "uint256"
        },
        {
          "internalType": "uint64",
          "name": "randomEvent",
          "type": "uint64"
        }
      ],
      "stateMutability": "pure",
      "type": "function"
    },
    {
      "inputs": [
        {
          "internalType": "uint256",
          "name": "location",
          "type": "uint256"
        },
        {
          "internalType": "bytes32",
          "name": "blockHash",
          "type": "bytes32"
        },
        {
          "internalType": "uint8",
          "name": "direction",
          "type": "uint8"
        },
        {
          "internalType": "uint8",
          "name": "areaAtDiscovery",
          "type": "uint8"
        },
        {
          "internalType": "uint8",
          "name": "lastIndex",
          "type": "uint8"
        },
        {
          "internalType": "uint8",
          "name": "index",
          "type": "uint8"
        }
      ],
      "name": "generateRoom",
      "outputs": [
        {
          "internalType": "uint8",
          "name": "exits",
          "type": "uint8"
        },
        {
          "internalType": "uint8",
          "name": "kind",
          "type": "uint8"
        },
        {
          "internalType": "uint8",
          "name": "area_discovered",
          "type": "uint8"
        }
      ],
      "stateMutability": "pure",
      "type": "function"
    },
    {
      "inputs": [
        {
          "internalType": "uint256",
          "name": "location",
          "type": "uint256"
        }
      ],
      "name": "getAreaLoc",
      "outputs": [
        {
          "internalType": "uint256",
          "name": "",
          "type": "uint256"
        }
      ],
      "stateMutability": "pure",
      "type": "function"
    },
    {
      "inputs": [
        {
          "internalType": "uint256",
          "name": "p1",
          "type": "uint256"
        },
        {
          "internalType": "uint256",
          "name": "p2",
          "type": "uint256"
        }
      ],
      "name": "getRing",
      "outputs": [
        {
          "internalType": "uint256",
          "name": "",
          "type": "uint256"
        }
      ],
      "stateMutability": "pure",
      "type": "function"
    },
    {
      "inputs": [
        {
          "internalType": "uint16",
          "name": "hp",
          "type": "uint16"
        }
      ],
      "name": "hpCost",
      "outputs": [
        {
          "internalType": "uint256",
          "name": "",
          "type": "uint256"
        }
      ],
      "stateMutability": "pure",
      "type": "function"
    },
    {
      "inputs": [
        {
          "internalType": "uint256[]",
          "name": "gearData",
          "type": "uint256[]"
        }
      ],
      "name": "recyclingReward",
      "outputs": [
        {
          "internalType": "uint256",
          "name": "",
          "type": "uint256"
        }
      ],
      "stateMutability": "pure",
      "type": "function"
    },
    {
      "inputs": [
        {
          "internalType": "uint256",
          "name": "rooms",
          "type": "uint256"
        },
        {
          "internalType": "uint256",
          "name": "periods",
          "type": "uint256"
        }
      ],
      "name": "roomsTax",
      "outputs": [
        {
          "internalType": "uint256",
          "name": "",
          "type": "uint256"
        }
      ],
      "stateMutability": "pure",
      "type": "function"
    },
    {
      "inputs": [
        {
          "internalType": "uint256",
          "name": "p1",
          "type": "uint256"
        },
        {
          "internalType": "uint256",
          "name": "p2",
          "type": "uint256"
        }
      ],
      "name": "teleportTax",
      "outputs": [
        {
          "internalType": "uint256",
          "name": "",
          "type": "uint256"
        }
      ],
      "stateMutability": "pure",
      "type": "function"
    },
    {
      "inputs": [
        {
          "internalType": "uint256",
          "name": "location",
          "type": "uint256"
        }
      ],
      "name": "toCoordinates",
      "outputs": [
        {
          "internalType": "int64",
          "name": "x",
          "type": "int64"
        },
        {
          "internalType": "int64",
          "name": "y",
          "type": "int64"
        },
        {
          "internalType": "int64",
          "name": "z",
          "type": "int64"
        },
        {
          "internalType": "uint64",
          "name": "a",
          "type": "uint64"
        }
      ],
      "stateMutability": "pure",
      "type": "function"
    },
    {
      "inputs": [
        {
          "internalType": "uint8",
          "name": "level",
          "type": "uint8"
        }
      ],
      "name": "toLevelUp",
      "outputs": [
        {
          "internalType": "uint16",
          "name": "xpRequired",
          "type": "uint16"
        },
        {
          "internalType": "uint256",
          "name": "coinsRequired",
          "type": "uint256"
        },
        {
          "internalType": "uint8",
          "name": "hpIncrease",
          "type": "uint8"
        }
      ],
      "stateMutability": "pure",
      "type": "function"
    },
    {
      "inputs": [
        {
          "internalType": "int64",
          "name": "x",
          "type": "int64"
        },
        {
          "internalType": "int64",
          "name": "y",
          "type": "int64"
        },
        {
          "internalType": "int64",
          "name": "z",
          "type": "int64"
        }
      ],
      "name": "toLocation",
      "outputs": [
        {
          "internalType": "uint256",
          "name": "",
          "type": "uint256"
        }
      ],
      "stateMutability": "pure",
      "type": "function"
    }
  ],
  "address": "0xfE337D35D6eF99BE07Db978FCbDD56F24c70A9f9",
  "args": [],
  "bytecode": "0x608060405234801561001057600080fd5b50611763806100206000396000f3fe608060405234801561001057600080fd5b506004361061012c5760003560e01c8063acda69ca116100ad578063ed53a62411610071578063ed53a6241461052b578063f090aca814610565578063f6940ac714610588578063fcaf8951146105d1578063ff5335fa146105fd5761012c565b8063acda69ca146103e2578063b0ca9dfe14610434578063c3aab23c14610457578063d5763a801461049d578063d667fd04146104d15761012c565b8063467b4793116100f4578063467b4793146102ae57806356b5c3811461031e5780637a923474146103415780639f7cb08e14610362578063a48378ff146103c55761012c565b80630ececfea14610131578063213ee143146101765780632f587796146101df57806330ad93291461020e5780633683dee114610269575b600080fd5b6101546004803603604081101561014757600080fd5b508035906020013561061a565b6040805192835267ffffffffffffffff90911660208301528051918290030190f35b6101ba600480360360c081101561018c57600080fd5b5080359060208101359060ff60408201358116916060810135821691608082013581169160a0013516610632565b6040805160ff9485168152928416602084015292168183015290519081900360600190f35b6101fc600480360360208110156101f557600080fd5b5035610657565b60408051918252519081900360200190f35b61022b6004803603602081101561022457600080fd5b503561066a565b60408051600795860b860b815293850b850b602085015291840b90930b8282015267ffffffffffffffff909216606082015290519081900360800190f35b6102956004803603606081101561027f57600080fd5b508035906020810135906040013560ff16610688565b6040805192835260208301919091528051918290030190f35b6101fc600480360360208110156102c457600080fd5b8101906020810181356401000000008111156102df57600080fd5b8201836020820111156102f157600080fd5b8035906020019184602083028401116401000000008311171561031357600080fd5b5090925090506106a2565b6101fc6004803603604081101561033457600080fd5b50803590602001356106e0565b6101fc6004803603602081101561035757600080fd5b503561ffff166106f3565b61037f6004803603602081101561037857600080fd5b50356106fe565b6040805161ffff978816815260ff968716602082015294909516848601529185166060840152909316608082015263ffffffff90921660a0830152519081900360c00190f35b6101fc600480360360208110156103db57600080fd5b5035610724565b6101fc600480360360c08110156103f857600080fd5b5061ffff813581169160ff602082013581169260408301359091169160608101358216916080820135169063ffffffff60a0909101351661072f565b6101fc6004803603604081101561044a57600080fd5b508035906020013561074a565b6104776004803603602081101561046d57600080fd5b503560ff16610756565b6040805161ffff9094168452602084019290925260ff1682820152519081900360600190f35b6101fc600480360360608110156104b357600080fd5b508035600790810b916020810135820b91604090910135900b610774565b6104ee600480360360208110156104e757600080fd5b5035610789565b6040805161ffff96871681529486166020860152929094168383015263ffffffff16606083015260ff909216608082015290519081900360a00190f35b6101fc600480360360a081101561054157600080fd5b5080359060208101359060408101359060608101351515906080013560ff166107ac565b6101fc6004803603604081101561057b57600080fd5b50803590602001356107c7565b6105bb6004803603606081101561059e57600080fd5b508035906020810135906040013567ffffffffffffffff166107d3565b6040805160ff9092168252519081900360200190f35b6105bb600480360360608110156105e757600080fd5b508035906020810135906040013560ff166107e0565b6101fc6004803603602081101561061357600080fd5b50356107ed565b60008061062784846107f8565b915091509250929050565b600080600061064589898989898961087d565b92509250925096509650969350505050565b6000610662826108ae565b90505b919050565b6000806000806106798561093b565b93509350935093509193509193565b600080610696858585610956565b91509150935093915050565b600080805b838110156106d6576106ca8585838181106106be57fe5b90506020020135610a52565b909101906001016106a7565b5090505b92915050565b60006106ec8383610aa5565b9392505050565b600061066282610ab1565b60008060008060008061071087610ab8565b949c939b5091995097509550909350915050565b600061066282610aec565b600061073f878787878787610b20565b979650505050505050565b60006106ec8383610b74565b60008060006107678460ff16610c0c565b9250925092509193909250565b6000610781848484610cd7565b949350505050565b600080600080600061079a86610d01565b939a9299509097509550909350915050565b60006107bb8686868686610d32565b90505b95945050505050565b60006106ec8383610ded565b6000610781848484610e1f565b6000610781848484610f04565b6000610662826112c9565b604080516020808201859052818301849052603360f91b6060830152825180830360410181526061830184528051908201206081830186905260a18301859052606760f81b60c1840152835160a281850301815260c2909301909352815191012060009182916108729186916009918290069190066112ff565b946001945092505050565b600080600061088d898989610f04565b925061089c8989888888611336565b939a9099509297509195505050505050565b6000806000806108bd8561093b565b509250925092506000808460070b126108e0575060096004840160070b056108fa565b60098460000360040160070b816108f357fe5b0560000390505b6000808460070b12610916575060096004840160070b05610930565b60098460000360040160070b8161092957fe5b0560000390505b61073f828285610cd7565b90600160401b820490600160801b830490600160ff1b840490565b6000806000610966866000610b74565b90506019810480610975575060015b6040805160208082018a9052818301899052601960fa1b606083015282516041818403018152606190920190925280519101208190816109b157fe5b0660028204019250826109c357600192505b600260ff861614156109d85760048304830192505b60088111156109e5575060085b6040805160208082018a9052818301899052606560f81b60608301528251604181840301815260619092019092528051910120819081610a2157fe5b066002820401935083610a3357600193505b600160ff86161415610a485760048404840193505b5050935093915050565b600080600080610a6185610ab8565b509450945050509250600060028461ffff1681610a7a57fe5b0460010161ffff1690508161ffff168361ffff1614156107be57600281040160010195945050505050565b600a9091046001010290565b61ffff1690565b61ffff60e882901c81169260ff60e084901c169260f881901c9260d082901c81169260c083901c9091169163ffffffff1690565b6000600160ff1b821415610b0257506000610665565b6000610b0f836000610b74565b905060198104600101915050610665565b6001600160f81b031960f885901b1661ffff60e81b60e888901b160160ff60e01b60e087901b160161ffff60d01b60d085901b160161ffff60c01b60c084901b160163ffffffff8216019695505050505050565b6000806000610b828561093b565b505091509150600080610b948661093b565b5091935091505081840360070b6000811215610bae576000035b81840360070b6000811215610bc1576000035b6001603f1b821315610bd75781600160401b0391505b6001603f1b811315610bea57600160401b035b80821315610bff575094506106da9350505050565b95506106da945050505050565b6000806000610c1961170e565b50604080516101608101825260008152600a60208201526031918101919091526077606082015260d0608082015261014860a082015261020c60c082015261033a60e08201526104f5610100820152610e46610120820152611aee6101408201528061ffff8616600b8110610c8a57fe5b6020020151935060088561ffff161115610ca8576101ec9250610ccb565b600560038660010161ffff160a61ffff1681610cc057fe5b0460080161ffff1692505b600a9150509193909250565b600160ff1b67ffffffffffffffff938416928416600160401b0291909316600160801b0201010190565b61ffff60e882901c81169260a883901c82169260b881901c9092169163ffffffff60c882901c169160f89190911c90565b600060ff8216600114610d47575060006107be565b600f8315610d5357600a015b6040805160208082018a9052818301899052600360f91b6060830152825180830360410181526061909201909252805191012060ff82166064909106108015610ddf576040805160208082018b90528183018a9052600760f81b60608301528251604181840301815260619092019092528051910120869081610dd257fe5b06600101925050506107be565b506000979650505050505050565b6000806005610dfc8585610b74565b60020281610e0657fe5b04905080610e185760019150506106da565b90506106da565b6000610e2a84611663565b80610e405750600a67ffffffffffffffff831610155b15610e4d575060066106ec565b6000610e58856116b8565b60090267ffffffffffffffff1690506000811115610e7557600319015b60198110610ef757604080516020808201889052818301879052600360fa1b60608301528251604181840301815260619092019092528051910120606461271090910660ff1611801590610eec576000610ece8761093b565b509250505060058160070b81610ee057fe5b07600101935050610ef1565b600692505b50610efc565b600691505b509392505050565b600080600460ff84161415610f1b5750600f611103565b604080516020808201889052818301879052600160f81b606083015282516041818403018152606190920190925280519101206064900660ff1660571115610f66575060ff821660020a5b604080516020808201889052818301879052600160f91b606083015282516041818403018152606190920190925280519101206064900660ff166028111561110357604080516020808201889052818301879052600360f81b606083015282516041818403018152606190920190925280519101206064900660ff166019111561102d5760ff83161580610ffd5750600260ff8416145b1561100a57600a17611028565b600160ff8416148061101f5750600360ff8416145b15611028576005175b611103565b604080516020808201889052818301879052600360f81b606083015282516041818403018152606190920190925280519101206064900660ff16603211156110bb5760ff831661107f57600817611028565b600160ff8416141561109357600117611028565b600260ff841614156110a757600217611028565b600360ff8416141561102857600417611103565b60ff83166110cb57600217611103565b600160ff841614156110df57600417611103565b600260ff841614156110f357600817611103565b600360ff84161415611103576001175b604080516020808201889052818301879052606f60f81b60608301528251808303604101815260619092019092528051910120606490066000603c60ff83161061116157605a60ff83161061115957600261115c565b60015b611164565b60005b905060048160ff161061117c578260f01792506112be565b8060ff16600314156111f6576040805160208082018a9052818301899052600760fc1b606083015282518083036041018152606190920190925280519101206003166001810160070260ff8116601514156111dc578460d01794506111ef565b8060ff16601c14156111ef578460b01794505b50506112be565b8060ff1660021415611270576040805160208082018a9052818301899052600760fc1b60608301528251808303604101815260619092019092528051910120600690066001810160030260ff8116600f1415611257578460501794506111ef565b8060ff16601214156111ef578460a017945050506112be565b8060ff16600114156112be576040805160208082018a9052818301899052600760fc1b6060830152825160418184030181526061909201909252805191012060031660020a60100292909217915b509095945050505050565b60008060066112dc84600160ff1b610b74565b600202816112e657fe5b049050806112f8576001915050610665565b9050610665565b60008060008061130e8761093b565b5092509250925061073f8660ff1660048560090203018660ff16600485600902030183610cd7565b6000806000611344886108ae565b8692509050846000806113568b61093b565b5050915091508160070b600014801561137257508060070b6000145b156113865760029550846001179450611655565b8660ff168360ff16116116555760408051602080820187905260f886901b6001600160f81b03191682840152604182018d9052600360f81b60618301528251808303604201815260629092019092528051910120601490066001868116148015906113ff575060ff811615806113ff57508360ff166050145b156114135760029650856001179550611649565b60028087161480159061145257508060ff166001148061143657508360ff166050145b8061145257508360ff16604f1480156114525750600180871614155b156114665760039650856002179550611649565b6004808716148015906114ec57508060ff166002148061148957508360ff166050145b806114a557508360ff16604f1480156114a55750600180871614155b806114c157508360ff16604f1480156114c15750600280871614155b806114ec57508360ff16604e1480156114dd5750600180871614155b80156114ec5750600280871614155b156114fe576004965094861794611649565b60088087161480159061163057508060ff166003148061152157508360ff166050145b8061153d57508360ff16604f14801561153d5750600180871614155b8061155957508360ff16604f1480156115595750600280871614155b8061157557508360ff16604f1480156115755750600480871614155b806115a057508360ff16604e1480156115915750600180871614155b80156115a05750600280871614155b806115cb57508360ff16604e1480156115bc5750600180871614155b80156115cb5750600480871614155b806115f657508360ff16604e1480156115e75750600480871614155b80156115f65750600280871614155b8061163057508360ff16604d1480156116125750600480871614155b80156116215750600280871614155b80156116305750600180871614155b156116445760059650856008179550611649565b600196505b50600190920191611386565b505050509550959350505050565b60008060006116718461093b565b5050915091506000198260070b1215801561169157506000198160070b12155b80156116a1575060018260070b13155b8015610781575060018160070b1315949350505050565b60008060006116c68461093b565b50509150915060008260070b12156116df578160000391505b60008160070b12156116ef576000035b8060070b8260070b131561170557509050610665565b91506106659050565b604051806101600160405280600b90602082028036833750919291505056fea26469706673582212202450e4262400e19f51a71991c95bdcaef41e0244ca8b8ec8173a8a6e9fda7c6d64736f6c63430006050033",
  "devdoc": {
    "methods": {}
  },
  "userdoc": {
    "methods": {}
  },
  "storageLayout": {
    "storage": [],
    "types": null
  }
}