{
  "abi": [
    {
      "anonymous": false,
      "inputs": [
        {
          "indexed": true,
          "internalType": "address",
          "name": "owner",
          "type": "address"
        },
        {
          "indexed": true,
          "internalType": "address",
          "name": "operator",
          "type": "address"
        },
        {
          "indexed": false,
          "internalType": "bool",
          "name": "approved",
          "type": "bool"
        }
      ],
      "name": "ApprovalForAll",
      "type": "event"
    },
    {
      "anonymous": false,
      "inputs": [
        {
          "indexed": true,
          "internalType": "uint256",
          "name": "id",
          "type": "uint256"
        },
        {
          "indexed": true,
          "internalType": "uint256",
          "name": "data",
          "type": "uint256"
        }
      ],
      "name": "DataUpdate",
      "type": "event"
    },
    {
      "anonymous": false,
      "inputs": [
        {
          "indexed": true,
          "internalType": "uint256",
          "name": "from",
          "type": "uint256"
        },
        {
          "indexed": true,
          "internalType": "uint256",
          "name": "to",
          "type": "uint256"
        },
        {
          "indexed": true,
          "internalType": "uint256",
          "name": "id",
          "type": "uint256"
        }
      ],
      "name": "SubTransfer",
      "type": "event"
    },
    {
      "anonymous": false,
      "inputs": [
        {
          "indexed": true,
          "internalType": "address",
          "name": "from",
          "type": "address"
        },
        {
          "indexed": true,
          "internalType": "address",
          "name": "to",
          "type": "address"
        },
        {
          "indexed": true,
          "internalType": "uint256",
          "name": "id",
          "type": "uint256"
        }
      ],
      "name": "Transfer",
      "type": "event"
    },
    {
      "inputs": [
        {
          "internalType": "address",
          "name": "from",
          "type": "address"
        },
        {
          "internalType": "address",
          "name": "to",
          "type": "address"
        },
        {
          "internalType": "uint256[]",
          "name": "ids",
          "type": "uint256[]"
        }
      ],
      "name": "batchTransferFrom",
      "outputs": [],
      "stateMutability": "nonpayable",
      "type": "function"
    },
    {
      "inputs": [
        {
          "internalType": "uint256",
          "name": "id",
          "type": "uint256"
        }
      ],
      "name": "getData",
      "outputs": [
        {
          "internalType": "uint256",
          "name": "",
          "type": "uint256"
        }
      ],
      "stateMutability": "view",
      "type": "function"
    },
    {
      "inputs": [
        {
          "internalType": "address",
          "name": "owner",
          "type": "address"
        },
        {
          "internalType": "address",
          "name": "operator",
          "type": "address"
        }
      ],
      "name": "isApprovedForAll",
      "outputs": [
        {
          "internalType": "bool",
          "name": "",
          "type": "bool"
        }
      ],
      "stateMutability": "view",
      "type": "function"
    },
    {
      "inputs": [
        {
          "internalType": "uint256",
          "name": "subOwner",
          "type": "uint256"
        },
        {
          "internalType": "uint256",
          "name": "data",
          "type": "uint256"
        }
      ],
      "name": "mint",
      "outputs": [
        {
          "internalType": "uint256",
          "name": "id",
          "type": "uint256"
        }
      ],
      "stateMutability": "nonpayable",
      "type": "function"
    },
    {
      "inputs": [
        {
          "internalType": "uint256",
          "name": "id",
          "type": "uint256"
        },
        {
          "internalType": "uint256",
          "name": "subOwner",
          "type": "uint256"
        }
      ],
      "name": "mintId",
      "outputs": [],
      "stateMutability": "nonpayable",
      "type": "function"
    },
    {
      "inputs": [
        {
          "internalType": "uint256",
          "name": "id",
          "type": "uint256"
        }
      ],
      "name": "ownerOf",
      "outputs": [
        {
          "internalType": "address",
          "name": "",
          "type": "address"
        }
      ],
      "stateMutability": "view",
      "type": "function"
    },
    {
      "inputs": [
        {
          "internalType": "address",
          "name": "dungeon",
          "type": "address"
        }
      ],
      "name": "postUpgrade",
      "outputs": [],
      "stateMutability": "nonpayable",
      "type": "function"
    },
    {
      "inputs": [
        {
          "internalType": "address",
          "name": "operator",
          "type": "address"
        },
        {
          "internalType": "bool",
          "name": "approved",
          "type": "bool"
        }
      ],
      "name": "setApprovalForAll",
      "outputs": [],
      "stateMutability": "nonpayable",
      "type": "function"
    },
    {
      "inputs": [
        {
          "internalType": "uint256",
          "name": "id",
          "type": "uint256"
        },
        {
          "internalType": "uint256",
          "name": "data",
          "type": "uint256"
        }
      ],
      "name": "setData",
      "outputs": [],
      "stateMutability": "nonpayable",
      "type": "function"
    },
    {
      "inputs": [
        {
          "internalType": "uint256",
          "name": "subOwner",
          "type": "uint256"
        }
      ],
      "name": "subBalanceOf",
      "outputs": [
        {
          "internalType": "uint256",
          "name": "",
          "type": "uint256"
        }
      ],
      "stateMutability": "view",
      "type": "function"
    },
    {
      "inputs": [
        {
          "internalType": "address",
          "name": "owner",
          "type": "address"
        },
        {
          "internalType": "uint256",
          "name": "from",
          "type": "uint256"
        },
        {
          "internalType": "uint256",
          "name": "to",
          "type": "uint256"
        },
        {
          "internalType": "uint256[]",
          "name": "ids",
          "type": "uint256[]"
        }
      ],
      "name": "subBatchTransferFrom",
      "outputs": [],
      "stateMutability": "nonpayable",
      "type": "function"
    },
    {
      "inputs": [
        {
          "internalType": "uint256",
          "name": "id",
          "type": "uint256"
        }
      ],
      "name": "subBurn",
      "outputs": [],
      "stateMutability": "nonpayable",
      "type": "function"
    },
    {
      "inputs": [
        {
          "internalType": "uint256",
          "name": "id",
          "type": "uint256"
        }
      ],
      "name": "subOwnerOf",
      "outputs": [
        {
          "internalType": "uint256",
          "name": "",
          "type": "uint256"
        }
      ],
      "stateMutability": "view",
      "type": "function"
    },
    {
      "inputs": [
        {
          "internalType": "address",
          "name": "owner",
          "type": "address"
        },
        {
          "internalType": "uint256",
          "name": "from",
          "type": "uint256"
        },
        {
          "internalType": "uint256",
          "name": "to",
          "type": "uint256"
        },
        {
          "internalType": "uint256",
          "name": "id",
          "type": "uint256"
        }
      ],
      "name": "subTransferFrom",
      "outputs": [],
      "stateMutability": "nonpayable",
      "type": "function"
    },
    {
      "inputs": [
        {
          "internalType": "address",
          "name": "from",
          "type": "address"
        },
        {
          "internalType": "address",
          "name": "to",
          "type": "address"
        },
        {
          "internalType": "uint256",
          "name": "id",
          "type": "uint256"
        }
      ],
      "name": "transferFrom",
      "outputs": [],
      "stateMutability": "nonpayable",
      "type": "function"
    }
  ],
  "address": "0x252Ee1F3147fa25FdEF21acb1288d6F7539dc4dc",
  "args": [],
  "bytecode": "0x608060405234801561001057600080fd5b506111a1806100206000396000f3fe608060405234801561001057600080fd5b50600436106100f55760003560e01c806369f648a111610097578063c79b243011610066578063c79b24301461032f578063c9a59e4714610355578063e985e9c514610372578063f3993d11146103b4576100f5565b806369f648a1146102205780637ba764f71461023d578063a22cb465146102c9578063b6721898146102f7576100f5565b80634848b1a5116100d35780634848b1a514610184578063603d4ca0146101a75780636352211e146101c45780636611a8d4146101fd576100f5565b80630178fe3f146100fa5780631b2ef1ca1461012957806323b872dd1461014c575b600080fd5b6101176004803603602081101561011057600080fd5b503561043d565b60408051918252519081900360200190f35b6101176004803603604081101561013f57600080fd5b508035906020013561044f565b6101826004803603606081101561016257600080fd5b506001600160a01b03813581169160208101359091169060400135610580565b005b6101826004803603604081101561019a57600080fd5b508035906020013561075e565b610182600480360360208110156101bd57600080fd5b5035610838565b6101e1600480360360208110156101da57600080fd5b503561091b565b604080516001600160a01b039092168252519081900360200190f35b6101826004803603604081101561021357600080fd5b5080359060200135610982565b6101176004803603602081101561023657600080fd5b5035610a63565b6101826004803603608081101561025357600080fd5b6001600160a01b03823516916020810135916040820135919081019060808101606082013564010000000081111561028a57600080fd5b82018360208201111561029c57600080fd5b803590602001918460208302840111640100000000831117156102be57600080fd5b509092509050610a75565b610182600480360360408110156102df57600080fd5b506001600160a01b0381351690602001351515610c1e565b6101826004803603608081101561030d57600080fd5b506001600160a01b038135169060208101359060408101359060600135610c8c565b6101826004803603602081101561034557600080fd5b50356001600160a01b0316610e16565b6101176004803603602081101561036b57600080fd5b5035610e22565b6103a06004803603604081101561038857600080fd5b506001600160a01b0381358116916020013516610e34565b604080519115158252519081900360200190f35b610182600480360360608110156103ca57600080fd5b6001600160a01b0382358116926020810135909116918101906060810160408201356401000000008111156103fe57600080fd5b82018360208201111561041057600080fd5b8035906020019184602083028401116401000000008311171561043257600080fd5b509092509050610e62565b60009081526008602052604090205490565b600080546001600160a01b031633146104a5576040805162461bcd60e51b81526020600482015260136024820152721393d517d055551213d49256915117d3525395606a1b604482015290519081900360640190fd5b50600180548101808255600081815260036020908152604080832087905586835260048252808320805490950190945581548383526002825284832080546001600160a01b0319166001600160a01b039092169190911790556008905282812084905591519091839183917f9b0b427d54b1902d475dd6da2557b731e9aa63c7a9bd8d6021eef24f2d0eaf4891a36000805460405183926001600160a01b03909216919060008051602061112b833981519152908290a48083600060008051602061110b83398151915260405160405180910390a492915050565b6001600160a01b0382166105c8576040805162461bcd60e51b815260206004820152600a602482015269696e76616c696420746f60b01b604482015290519081900360640190fd5b6001600160a01b03831633148061060257506001600160a01b038316600090815260066020908152604080832033845290915290205460ff165b610653576040805162461bcd60e51b815260206004820152601760248201527f4e4f545f415554484f52495a45445f5452414e53464552000000000000000000604482015290519081900360640190fd5b6000818152600260205260409020546001600160a01b0390811690841681146106af576040805162461bcd60e51b81526020600482015260096024820152683737ba1037bbb732b960b91b604482015290519081900360640190fd5b600082815260026020908152604080832080546001600160a01b0319166001600160a01b038816179055600390915290205480156107285760008381526003602090815260408083208390558383526004909152808220805460001901905551849190839060008051602061110b833981519152908390a45b82846001600160a01b0316866001600160a01b031660008051602061112b83398151915260405160405180910390a45050505050565b6000828152600260205260409020546001600160a01b0316338114806107a757506001600160a01b038116600090815260066020908152604080832033845290915290205460ff165b6107f8576040805162461bcd60e51b815260206004820152601760248201527f4e4f545f415554484f52495a45445f5345545f44415441000000000000000000604482015290519081900360640190fd5b60008381526008602052604080822084905551839185917f9b0b427d54b1902d475dd6da2557b731e9aa63c7a9bd8d6021eef24f2d0eaf489190a3505050565b6000818152600260205260409020546001600160a01b03163381148061088157506001600160a01b038116600090815260066020908152604080832033845290915290205460ff165b6108d2576040805162461bcd60e51b815260206004820152601760248201527f4e4f545f415554484f52495a45445f5355425f4255524e000000000000000000604482015290519081900360640190fd5b6000828152600360209081526040808320805490849055808452600490925280832080546000190190555190918491839060008051602061110b833981519152908390a4505050565b6000818152600260205260408120546001600160a01b03168061097c576040805162461bcd60e51b81526020600482015260146024820152731d1bdad95b88191bd95cc81b9bdd08195e1a5cdd60621b604482015290519081900360640190fd5b92915050565b6000546001600160a01b031633146109d7576040805162461bcd60e51b81526020600482015260136024820152721393d517d055551213d49256915117d3525395606a1b604482015290519081900360640190fd5b600082815260036020908152604080832084905583835260048252808320805460010190558254858452600290925280832080546001600160a01b0319166001600160a01b03938416179055825490518593919092169160008051602061112b833981519152908290a48181600060008051602061110b83398151915260405160405180910390a45050565b60009081526003602052604090205490565b6001600160a01b038516331480610aaf57506001600160a01b038516600090815260066020908152604080832033845290915290205460ff165b610aea5760405162461bcd60e51b815260040180806020018281038252602181526020018061114b6021913960400191505060405180910390fd5b8060005b81811015610bf3576000848483818110610b0457fe5b6020908102929092013560008181526002909352604090922054919250506001600160a01b03898116911614610b6d576040805162461bcd60e51b81526020600482015260096024820152683737ba1037bbb732b960b91b604482015290519081900360640190fd5b600081815260036020526040902054878114610bbf576040805162461bcd60e51b815260206004820152600c60248201526b3737ba1039bab127b73bb2b960a11b604482015290519081900360640190fd5b60008281526003602052604080822089905551839189918b9160008051602061110b83398151915291a45050600101610aee565b5060009485526004602052604080862080548390039055938552929093208054909201909155505050565b3360008181526006602090815260408083206001600160a01b03871680855290835292819020805460ff1916861515908117909155815190815290519293927f17307eab39ab6107e8899845ad3d59bd9653f200f220920489ca2b5937696c31929181900390910190a35050565b6001600160a01b038416331480610cc657506001600160a01b038416600090815260066020908152604080832033845290915290205460ff165b610d17576040805162461bcd60e51b815260206004820152601b60248201527f4e4f545f415554484f52495a45445f5355425f5452414e534645520000000000604482015290519081900360640190fd5b6000818152600260205260409020546001600160a01b03858116911614610d71576040805162461bcd60e51b81526020600482015260096024820152683737ba1037bbb732b960b91b604482015290519081900360640190fd5b600081815260036020526040902054838114610dc3576040805162461bcd60e51b815260206004820152600c60248201526b3737ba1039bab127b73bb2b960a11b604482015290519081900360640190fd5b600082815260036020908152604080832086905583835260049091528082208054600019019055848252808220805460010190555183918591879160008051602061110b83398151915291a45050505050565b610e1f81611073565b50565b60009081526004602052604090205490565b6001600160a01b03918216600090815260066020908152604080832093909416825291909152205460ff1690565b6001600160a01b038316610eaa576040805162461bcd60e51b815260206004820152600a602482015269696e76616c696420746f60b01b604482015290519081900360640190fd5b6001600160a01b038416331480610ee457506001600160a01b038416600090815260066020908152604080832033845290915290205460ff165b610f35576040805162461bcd60e51b815260206004820152601d60248201527f4e4f545f415554484f52495a45445f42415443485f5452414e53464552000000604482015290519081900360640190fd5b60005b8181101561106c576000838383818110610f4e57fe5b6020908102929092013560008181526002909352604090922054919250506001600160a01b039081169087168114610fb9576040805162461bcd60e51b81526020600482015260096024820152683737ba1037bbb732b960b91b604482015290519081900360640190fd5b600082815260026020908152604080832080546001600160a01b0319166001600160a01b038b16179055600390915290205480156110325760008381526003602090815260408083208390558383526004909152808220805460001901905551849190839060008051602061110b833981519152908390a45b82876001600160a01b0316896001600160a01b031660008051602061112b83398151915260405160405180910390a4505050600101610f38565b5050505050565b7fb53127684a568b3173ae13b9f8a6016e243e63b6e8ee1178d6a717850b5d6103546001600160a01b0381166110d2576001600160a01b037fb53127684a568b3173ae13b9f8a6016e243e63b6e8ee1178d6a717850b5d6103556110e7565b336001600160a01b038216146110e757600080fd5b50600080546001600160a01b0319166001600160a01b039290921691909117905556fe8641d9f2365a4c17a0f807e0ba24c82176c417f81cbdde43da4954c1c402704dddf252ad1be2c89b69c2b068fc378daa952ba7f163c4a11628f55a4df523b3ef4e4f545f415554484f52495a45445f5355425f42415443485f5452414e53464552a2646970667358221220a28f97d7909ee25d97d239b0a724913c4daf4dcb6834413eaafd7ad7210546ae64736f6c63430006050033",
  "execute": {
    "methodName": "postUpgrade",
    "args": [
      "0xF7CdA62EE1A8B09f883424994D5744dc74F29fee"
    ]
  },
  "devdoc": {
    "methods": {}
  },
  "userdoc": {
    "methods": {}
  },
  "storageLayout": {
    "storage": [
      {
        "astId": 11800,
        "contract": "src/tokens/Rooms.sol:Rooms",
        "label": "_minter",
        "offset": 0,
        "slot": "0",
        "type": "t_address"
      },
      {
        "astId": 11802,
        "contract": "src/tokens/Rooms.sol:Rooms",
        "label": "_lastId",
        "offset": 0,
        "slot": "1",
        "type": "t_uint256"
      },
      {
        "astId": 11806,
        "contract": "src/tokens/Rooms.sol:Rooms",
        "label": "_owners",
        "offset": 0,
        "slot": "2",
        "type": "t_mapping(t_uint256,t_address)"
      },
      {
        "astId": 11810,
        "contract": "src/tokens/Rooms.sol:Rooms",
        "label": "_subOwners",
        "offset": 0,
        "slot": "3",
        "type": "t_mapping(t_uint256,t_uint256)"
      },
      {
        "astId": 11814,
        "contract": "src/tokens/Rooms.sol:Rooms",
        "label": "_subNumNFTPerAddress",
        "offset": 0,
        "slot": "4",
        "type": "t_mapping(t_uint256,t_uint256)"
      },
      {
        "astId": 11818,
        "contract": "src/tokens/Rooms.sol:Rooms",
        "label": "_numNFTPerAddress",
        "offset": 0,
        "slot": "5",
        "type": "t_mapping(t_address,t_uint256)"
      },
      {
        "astId": 11824,
        "contract": "src/tokens/Rooms.sol:Rooms",
        "label": "_operatorsForAll",
        "offset": 0,
        "slot": "6",
        "type": "t_mapping(t_address,t_mapping(t_address,t_bool))"
      },
      {
        "astId": 11828,
        "contract": "src/tokens/Rooms.sol:Rooms",
        "label": "_operators",
        "offset": 0,
        "slot": "7",
        "type": "t_mapping(t_uint256,t_address)"
      },
      {
        "astId": 11832,
        "contract": "src/tokens/Rooms.sol:Rooms",
        "label": "_data",
        "offset": 0,
        "slot": "8",
        "type": "t_mapping(t_uint256,t_uint256)"
      }
    ],
    "types": {
      "t_address": {
        "encoding": "inplace",
        "label": "address",
        "numberOfBytes": "20"
      },
      "t_bool": {
        "encoding": "inplace",
        "label": "bool",
        "numberOfBytes": "1"
      },
      "t_mapping(t_address,t_bool)": {
        "encoding": "mapping",
        "key": "t_address",
        "label": "mapping(address => bool)",
        "numberOfBytes": "32",
        "value": "t_bool"
      },
      "t_mapping(t_address,t_mapping(t_address,t_bool))": {
        "encoding": "mapping",
        "key": "t_address",
        "label": "mapping(address => mapping(address => bool))",
        "numberOfBytes": "32",
        "value": "t_mapping(t_address,t_bool)"
      },
      "t_mapping(t_address,t_uint256)": {
        "encoding": "mapping",
        "key": "t_address",
        "label": "mapping(address => uint256)",
        "numberOfBytes": "32",
        "value": "t_uint256"
      },
      "t_mapping(t_uint256,t_address)": {
        "encoding": "mapping",
        "key": "t_uint256",
        "label": "mapping(uint256 => address)",
        "numberOfBytes": "32",
        "value": "t_address"
      },
      "t_mapping(t_uint256,t_uint256)": {
        "encoding": "mapping",
        "key": "t_uint256",
        "label": "mapping(uint256 => uint256)",
        "numberOfBytes": "32",
        "value": "t_uint256"
      },
      "t_uint256": {
        "encoding": "inplace",
        "label": "uint256",
        "numberOfBytes": "32"
      }
    }
  }
}