{
  "abi": [
    {
      "anonymous": false,
      "inputs": [
        {
          "indexed": true,
          "internalType": "uint256",
          "name": "characterId",
          "type": "uint256"
        },
        {
          "indexed": true,
          "internalType": "uint256",
          "name": "oldLocation",
          "type": "uint256"
        },
        {
          "indexed": true,
          "internalType": "uint256",
          "name": "newLocation",
          "type": "uint256"
        },
        {
          "indexed": false,
          "internalType": "uint8",
          "name": "mode",
          "type": "uint8"
        },
        {
          "indexed": false,
          "internalType": "uint256",
          "name": "path",
          "type": "uint256"
        }
      ],
      "name": "CharacterMoved",
      "type": "event"
    },
    {
      "anonymous": false,
      "inputs": [
        {
          "indexed": true,
          "internalType": "uint256",
          "name": "characterId",
          "type": "uint256"
        },
        {
          "indexed": false,
          "internalType": "uint256",
          "name": "monsterId",
          "type": "uint256"
        }
      ],
      "name": "Death",
      "type": "event"
    },
    {
      "anonymous": false,
      "inputs": [
        {
          "indexed": true,
          "internalType": "uint256",
          "name": "characterId",
          "type": "uint256"
        },
        {
          "indexed": true,
          "internalType": "address",
          "name": "player",
          "type": "address"
        },
        {
          "indexed": false,
          "internalType": "string",
          "name": "name",
          "type": "string"
        }
      ],
      "name": "Enter",
      "type": "event"
    },
    {
      "anonymous": false,
      "inputs": [
        {
          "indexed": false,
          "internalType": "uint256",
          "name": "characterId",
          "type": "uint256"
        },
        {
          "indexed": false,
          "internalType": "uint256",
          "name": "gearId",
          "type": "uint256"
        },
        {
          "indexed": false,
          "internalType": "uint8",
          "name": "slotType",
          "type": "uint8"
        }
      ],
      "name": "Equip",
      "type": "event"
    },
    {
      "anonymous": false,
      "inputs": [
        {
          "indexed": true,
          "internalType": "uint256",
          "name": "characterId",
          "type": "uint256"
        },
        {
          "indexed": false,
          "internalType": "uint16",
          "name": "hp",
          "type": "uint16"
        }
      ],
      "name": "Heal",
      "type": "event"
    },
    {
      "anonymous": false,
      "inputs": [
        {
          "indexed": true,
          "internalType": "uint256",
          "name": "characterId",
          "type": "uint256"
        },
        {
          "indexed": false,
          "internalType": "uint16",
          "name": "newLevel",
          "type": "uint16"
        }
      ],
      "name": "LevelUp",
      "type": "event"
    },
    {
      "anonymous": false,
      "inputs": [
        {
          "indexed": true,
          "internalType": "uint256",
          "name": "characterId",
          "type": "uint256"
        },
        {
          "indexed": true,
          "internalType": "uint64",
          "name": "id",
          "type": "uint64"
        },
        {
          "indexed": true,
          "internalType": "uint8",
          "name": "status",
          "type": "uint8"
        },
        {
          "indexed": false,
          "internalType": "string",
          "name": "data",
          "type": "string"
        }
      ],
      "name": "QuestUpdate",
      "type": "event"
    },
    {
      "anonymous": false,
      "inputs": [
        {
          "indexed": true,
          "internalType": "uint256",
          "name": "areaLocation",
          "type": "uint256"
        },
        {
          "indexed": false,
          "internalType": "uint64",
          "name": "blockNumber",
          "type": "uint64"
        }
      ],
      "name": "RandomEvent",
      "type": "event"
    },
    {
      "anonymous": false,
      "inputs": [
        {
          "indexed": true,
          "internalType": "uint256",
          "name": "characterId",
          "type": "uint256"
        },
        {
          "indexed": false,
          "internalType": "uint256",
          "name": "gearId",
          "type": "uint256"
        }
      ],
      "name": "Recycle",
      "type": "event"
    },
    {
      "anonymous": false,
      "inputs": [
        {
          "indexed": true,
          "internalType": "uint256",
          "name": "deadCharacterId",
          "type": "uint256"
        },
        {
          "indexed": false,
          "internalType": "uint256",
          "name": "newCharacterId",
          "type": "uint256"
        }
      ],
      "name": "Resurrect",
      "type": "event"
    },
    {
      "anonymous": false,
      "inputs": [
        {
          "indexed": true,
          "internalType": "uint256",
          "name": "location",
          "type": "uint256"
        },
        {
          "indexed": false,
          "internalType": "bytes32",
          "name": "blockHash",
          "type": "bytes32"
        },
        {
          "indexed": false,
          "internalType": "uint8",
          "name": "exits",
          "type": "uint8"
        },
        {
          "indexed": false,
          "internalType": "uint8",
          "name": "kind",
          "type": "uint8"
        }
      ],
      "name": "RoomActualised",
      "type": "event"
    },
    {
      "anonymous": false,
      "inputs": [
        {
          "indexed": true,
          "internalType": "uint256",
          "name": "location",
          "type": "uint256"
        },
        {
          "indexed": false,
          "internalType": "uint64",
          "name": "blockNumber",
          "type": "uint64"
        },
        {
          "indexed": false,
          "internalType": "uint8",
          "name": "direction",
          "type": "uint8"
        }
      ],
      "name": "RoomDiscovered",
      "type": "event"
    },
    {
      "anonymous": false,
      "inputs": [
        {
          "indexed": true,
          "internalType": "uint256",
          "name": "location",
          "type": "uint256"
        },
        {
          "indexed": true,
          "internalType": "address",
          "name": "owner",
          "type": "address"
        },
        {
          "indexed": false,
          "internalType": "uint256",
          "name": "id",
          "type": "uint256"
        },
        {
          "indexed": false,
          "internalType": "uint256",
          "name": "amount",
          "type": "uint256"
        }
      ],
      "name": "RoomIncome",
      "type": "event"
    },
    {
      "anonymous": false,
      "inputs": [
        {
          "indexed": true,
          "internalType": "uint256",
          "name": "location",
          "type": "uint256"
        },
        {
          "indexed": false,
          "internalType": "string",
          "name": "name",
          "type": "string"
        },
        {
          "indexed": false,
          "internalType": "uint256",
          "name": "characterId",
          "type": "uint256"
        }
      ],
      "name": "RoomName",
      "type": "event"
    },
    {
      "anonymous": false,
      "inputs": [
        {
          "indexed": true,
          "internalType": "address",
          "name": "owner",
          "type": "address"
        },
        {
          "indexed": false,
          "internalType": "uint256",
          "name": "tax",
          "type": "uint256"
        },
        {
          "indexed": false,
          "internalType": "uint256",
          "name": "newDueDate",
          "type": "uint256"
        }
      ],
      "name": "RoomTaxPay",
      "type": "event"
    },
    {
      "inputs": [],
      "name": "TAX_PERIOD",
      "outputs": [
        {
          "internalType": "uint256",
          "name": "",
          "type": "uint256"
        }
      ],
      "stateMutability": "view",
      "type": "function"
    },
    {
      "inputs": [
        {
          "internalType": "uint256",
          "name": "characterId",
          "type": "uint256"
        },
        {
          "internalType": "uint256",
          "name": "location",
          "type": "uint256"
        }
      ],
      "name": "abandonRoom",
      "outputs": [],
      "stateMutability": "nonpayable",
      "type": "function"
    },
    {
      "inputs": [
        {
          "internalType": "uint256",
          "name": "characterId",
          "type": "uint256"
        },
        {
          "internalType": "uint256",
          "name": "location",
          "type": "uint256"
        }
      ],
      "name": "activateRoom",
      "outputs": [],
      "stateMutability": "nonpayable",
      "type": "function"
    },
    {
      "inputs": [
        {
          "internalType": "uint256",
          "name": "characterId",
          "type": "uint256"
        },
        {
          "internalType": "uint256",
          "name": "location",
          "type": "uint256"
        },
        {
          "internalType": "uint256[8]",
          "name": "amounts",
          "type": "uint256[8]"
        }
      ],
      "name": "addBounty",
      "outputs": [],
      "stateMutability": "nonpayable",
      "type": "function"
    },
    {
      "inputs": [
        {
          "internalType": "uint256",
          "name": "characterId",
          "type": "uint256"
        }
      ],
      "name": "buyRoom",
      "outputs": [],
      "stateMutability": "nonpayable",
      "type": "function"
    },
    {
      "inputs": [
        {
          "internalType": "uint256",
          "name": "characterId",
          "type": "uint256"
        },
        {
          "internalType": "uint256",
          "name": "location",
          "type": "uint256"
        }
      ],
      "name": "deactivateRoom",
      "outputs": [],
      "stateMutability": "nonpayable",
      "type": "function"
    },
    {
      "inputs": [
        {
          "internalType": "uint256",
          "name": "characterId",
          "type": "uint256"
        },
        {
          "internalType": "uint256",
          "name": "location",
          "type": "uint256"
        },
        {
          "internalType": "string",
          "name": "name",
          "type": "string"
        }
      ],
      "name": "nameRoom",
      "outputs": [],
      "stateMutability": "nonpayable",
      "type": "function"
    },
    {
      "inputs": [
        {
          "internalType": "uint256",
          "name": "characterId",
          "type": "uint256"
        },
        {
          "internalType": "uint256",
          "name": "periods",
          "type": "uint256"
        }
      ],
      "name": "payRoomsTax",
      "outputs": [],
      "stateMutability": "nonpayable",
      "type": "function"
    },
    {
      "inputs": [
        {
          "internalType": "uint256",
          "name": "characterId",
          "type": "uint256"
        },
        {
          "internalType": "uint256[]",
          "name": "gearIds",
          "type": "uint256[]"
        }
      ],
      "name": "recycle",
      "outputs": [],
      "stateMutability": "nonpayable",
      "type": "function"
    }
  ],
  "address": "0x53Debb7fbC8248D83B9212Fa8133A08d341bc01c",
  "args": [],
  "bytecode": "0x608060405234801561001057600080fd5b50612d49806100206000396000f3fe608060405234801561001057600080fd5b50600436106100935760003560e01c8063714dfc5911610066578063714dfc59146101d357806387908b7f146101f6578063abcac4f414610219578063ed8f9cf914610233578063fee804911461025057610093565b8063136f6b5a146100985780631ef1720a146101165780632c44b2cf1461018d5780634636e9f1146101b0575b600080fd5b610114600480360360608110156100ae57600080fd5b8135916020810135918101906060810160408201356401000000008111156100d557600080fd5b8201836020820111156100e757600080fd5b8035906020019184600183028401116401000000008311171561010957600080fd5b509092509050610279565b005b6101146004803603604081101561012c57600080fd5b8135919081019060408101602082013564010000000081111561014e57600080fd5b82018360208201111561016057600080fd5b8035906020019184602083028401116401000000008311171561018257600080fd5b509092509050610502565b610114600480360360408110156101a357600080fd5b5080359060200135610848565b610114600480360360408110156101c657600080fd5b5080359060200135610b17565b610114600480360360408110156101e957600080fd5b5080359060200135610d6f565b6101146004803603604081101561020c57600080fd5b508035906020013561109a565b610221611280565b60408051918252519081900360200190f35b6101146004803603602081101561024957600080fd5b5035611287565b610114600480360361014081101561026757600080fd5b50803590602081013590604001611511565b600a546001600160a01b031633146102c6576040805162461bcd60e51b81526020600482015260146024820152600080516020612cf4833981519152604482015290519081900360640190fd5b600954604080516369f648a160e01b81526004810186905290516000926001600160a01b0316916369f648a1916024808301926020929190829003018186803b15801561031257600080fd5b505afa158015610326573d6000803e3d6000fd5b505050506040513d602081101561033c57600080fd5b505160065460408051630607176160e31b81526004810189905290519293506000926001600160a01b0390921691633038bb0891602480820192602092909190829003018186803b15801561039057600080fd5b505afa1580156103a4573d6000803e3d6000fd5b505050506040513d60208110156103ba57600080fd5b505190508181146103fe576040805162461bcd60e51b81526020600482015260096024820152683737ba1037bbb732b960b91b604482015290519081900360640190fd5b60075460408051637f4c824d60e11b81526001600160a01b0385811660048301526000602483018190526006604484015260146064840152925193169263fe99049a9260848084019391929182900301818387803b15801561045f57600080fd5b505af1158015610473573d6000803e3d6000fd5b5050506000868152600e6020526040902061049091508585612c2a565b50847f833228afd99eefed411de081e6bf23c4c4e2945e33997a07725ee65de5e23d5185858960405180806020018381526020018281038252858582818152602001925080828437600083820152604051601f909101601f1916909201829003965090945050505050a2505050505050565b600a546001600160a01b0316331461054f576040805162461bcd60e51b81526020600482015260146024820152600080516020612cf4833981519152604482015290519081900360640190fd5b610557612ca8565b6105608461162e565b90506000816080015161ffff16116105b8576040805162461bcd60e51b81526020600482015260166024820152751e5bdd5c8818da185c9858dd195c881a5cc81919585960521b604482015290519081900360640190fd5b6000805b838110156107cd5760008585838181106105d257fe5b600854604080516369f648a160e01b8152602093840295909501356004860181905290519095506001600160a01b03909116936369f648a193506024808201939291829003018186803b15801561062857600080fd5b505afa15801561063c573d6000803e3d6000fd5b505050506040513d602081101561065257600080fd5b505187146106a7576040805162461bcd60e51b815260206004820152601760248201527f68617320746f206265206f776e6572206f662067656172000000000000000000604482015290519081900360640190fd5b60085460408051630178fe3f60e01b8152600481018490529051610725926001600160a01b031691630178fe3f916024808301926020929190829003018186803b1580156106f457600080fd5b505afa158015610708573d6000803e3d6000fd5b505050506040513d602081101561071e57600080fd5b5051611707565b60085460408051630301ea6560e51b815260048101859052905195909201946001600160a01b039091169163603d4ca091602480830192600092919082900301818387803b15801561077657600080fd5b505af115801561078a573d6000803e3d6000fd5b50506040805184815290518a93507f87f4b7ea340c6b16973214300a3cbbb5afaf6c92389d1e81f95ffe0c07edcfb692509081900360200190a2506001016105bc565b50600754604080516302acc94b60e01b815260048101889052600860248201526044810184905290516001600160a01b03909216916302acc94b9160648082019260009290919082900301818387803b15801561082957600080fd5b505af115801561083d573d6000803e3d6000fd5b505050505050505050565b600a546001600160a01b03163314610895576040805162461bcd60e51b81526020600482015260146024820152600080516020612cf4833981519152604482015290519081900360640190fd5b60065460408051630607176160e31b81526004810185905290516000926001600160a01b031691633038bb08916024808301926020929190829003018186803b1580156108e157600080fd5b505afa1580156108f5573d6000803e3d6000fd5b505050506040513d602081101561090b57600080fd5b5051600954604080516331a9108f60e11b81526004810186905290519293506000926001600160a01b0390921691636352211e91602480820192602092909190829003018186803b15801561095f57600080fd5b505afa158015610973573d6000803e3d6000fd5b505050506040513d602081101561098957600080fd5b50516001600160a01b03169050308114156109dd576040805162461bcd60e51b815260206004820152600f60248201526e1b9bdd0819195858dd1a5d985d1959608a1b604482015290519081900360640190fd5b818114610a1d576040805162461bcd60e51b81526020600482015260096024820152683737ba1037bbb732b960b91b604482015290519081900360640190fd5b600954604080516323b872dd60e01b81526001600160a01b03848116600483015230602483015260448201879052915191909216916323b872dd91606480830192600092919082900301818387803b158015610a7857600080fd5b505af1158015610a8c573d6000803e3d6000fd5b50505050610a998161175b565b600954604080516316ce431360e31b8152306004820152600060248201819052604482018590526064820187905291516001600160a01b039093169263b67218989260848084019391929182900301818387803b158015610af957600080fd5b505af1158015610b0d573d6000803e3d6000fd5b5050505050505050565b600a546001600160a01b03163314610b64576040805162461bcd60e51b81526020600482015260146024820152600080516020612cf4833981519152604482015290519081900360640190fd5b600954604080516369f648a160e01b81526004810184905290516000926001600160a01b0316916369f648a1916024808301926020929190829003018186803b158015610bb057600080fd5b505afa158015610bc4573d6000803e3d6000fd5b505050506040513d6020811015610bda57600080fd5b505160065460408051630607176160e31b81526004810187905290519293506000926001600160a01b0390921691633038bb0891602480820192602092909190829003018186803b158015610c2e57600080fd5b505afa158015610c42573d6000803e3d6000fd5b505050506040513d6020811015610c5857600080fd5b50519050818114610c9c576040805162461bcd60e51b81526020600482015260096024820152683737ba1037bbb732b960b91b604482015290519081900360640190fd5b60075460408051637f4c824d60e11b81526001600160a01b03858116600483015260006024830181905260066044840152606483810152925193169263fe99049a9260848084019391929182900301818387803b158015610cfc57600080fd5b505af1158015610d10573d6000803e3d6000fd5b5050600954604080516323b872dd60e01b81523060048201526001600160a01b0387811660248301526044820189905291519190921693506323b872dd9250606480830192600092919082900301818387803b158015610af957600080fd5b600a546001600160a01b03163314610dbc576040805162461bcd60e51b81526020600482015260146024820152600080516020612cf4833981519152604482015290519081900360640190fd5b60008111610e06576040805162461bcd60e51b81526020600482015260126024820152711bdb99481c195c9a5bd908185d1b19585cdd60721b604482015290519081900360640190fd5b60065460408051630607176160e31b81526004810185905290516000926001600160a01b031691633038bb08916024808301926020929190829003018186803b158015610e5257600080fd5b505afa158015610e66573d6000803e3d6000fd5b505050506040513d6020811015610e7c57600080fd5b50516009546040805163c9a59e4760e01b81526001600160a01b0380851660048301529151939450600093919092169163c9a59e47916024808301926020929190829003018186803b158015610ed157600080fd5b505afa158015610ee5573d6000803e3d6000fd5b505050506040513d6020811015610efb57600080fd5b5051905080610f46576040805162461bcd60e51b81526020600482015260126024820152713737ba10323ab733b2b7b71035b2b2b832b960711b604482015290519081900360640190fd5b6000610f528285611849565b60075460408051637f4c824d60e11b81526001600160a01b038781166004830152600060248301819052600660448401526064830186905292519495509092169263fe99049a92608480820193929182900301818387803b158015610fb657600080fd5b505af1158015610fca573d6000803e3d6000fd5b505050506001600160a01b0383166000908152600d6020526040902080546206978086020190819055620d2f00420111611040576040805162461bcd60e51b815260206004820152601260248201527163616e6e6f7420707265706179206d6f726560701b604482015290519081900360640190fd5b6001600160a01b0383166000818152600d60209081526040918290205482518581529182015281517fc24affdb20f6529973515c5398461c1f6228edbfac531ab49e56a11433a86c9f929181900390910190a25050505050565b600a546001600160a01b031633146110e7576040805162461bcd60e51b81526020600482015260146024820152600080516020612cf4833981519152604482015290519081900360640190fd5b600954604080516369f648a160e01b81526004810184905290516000926001600160a01b0316916369f648a1916024808301926020929190829003018186803b15801561113357600080fd5b505afa158015611147573d6000803e3d6000fd5b505050506040513d602081101561115d57600080fd5b505160065460408051630607176160e31b81526004810187905290519293506000926001600160a01b0390921691633038bb0891602480820192602092909190829003018186803b1580156111b157600080fd5b505afa1580156111c5573d6000803e3d6000fd5b505050506040513d60208110156111db57600080fd5b5051905081811461121f576040805162461bcd60e51b81526020600482015260096024820152683737ba1037bbb732b960b91b604482015290519081900360640190fd5b600954604080516316ce431360e31b815230600482018190526024820186905260448201526064810186905290516001600160a01b039092169163b67218989160848082019260009290919082900301818387803b158015610af957600080fd5b6206978081565b600a546001600160a01b031633146112d4576040805162461bcd60e51b81526020600482015260146024820152600080516020612cf4833981519152604482015290519081900360640190fd5b6000818152602081815260408083205460095482516369f648a160e01b81526004810183905292519194936001600160a01b03909116926369f648a19260248083019392829003018186803b15801561132c57600080fd5b505afa158015611340573d6000803e3d6000fd5b505050506040513d602081101561135657600080fd5b50516001600160a01b0381166000908152600d602052604090205490915042116113b8576040805162461bcd60e51b815260206004820152600e60248201526d1b9bdd08199bdc9958db1bdcd95960921b604482015290519081900360640190fd5b6007546040805163c9b902e360e01b815260048101869052600660248201526002604482015290516001600160a01b039092169163c9b902e39160648082019260009290919082900301818387803b15801561141357600080fd5b505af1158015611427573d6000803e3d6000fd5b505060065460408051630607176160e31b8152600481018890529051600094506001600160a01b039092169250633038bb08916024808301926020929190829003018186803b15801561147957600080fd5b505afa15801561148d573d6000803e3d6000fd5b505050506040513d60208110156114a357600080fd5b505190506114b08161175b565b600954604080516316ce431360e31b815230600482015260248101859052604481018490526064810186905290516001600160a01b039092169163b67218989160848082019260009290919082900301818387803b158015610af957600080fd5b600a546001600160a01b0316331461155e576040805162461bcd60e51b81526020600482015260146024820152600080516020612cf4833981519152604482015290519081900360640190fd5b61156782611859565b60005b600881101561162857600082826008811061158157fe5b60200201351115611620576007546001600160a01b03166311aa10fb856115a786611bca565b846001018686600881106115b757fe5b60200201356040518563ffffffff1660e01b815260040180858152602001848152602001838152602001828152602001945050505050600060405180830381600087803b15801561160757600080fd5b505af115801561161b573d6000803e3d6000fd5b505050505b60010161156a565b50505050565b611636612ca8565b60065460408051630178fe3f60e01b81526004810185905290516000926001600160a01b031691630178fe3f916024808301926020929190829003018186803b15801561168257600080fd5b505afa158015611696573d6000803e3d6000fd5b505050506040513d60208110156116ac57600080fd5b505190506000808080806116bf86611bd3565b6040805160a08101825260ff909216825261ffff958616602083015263ffffffff9092169181019190915290831660608201529116608082015296505050505050505b919050565b60008060008061171685611c04565b509450945050509250600060028461ffff168161172f57fe5b0460010161ffff1690508161ffff168361ffff1614156117525760028104016001015b95945050505050565b80158015906117df57506009546040805163c9a59e4760e01b81526004810184905290516001600160a01b039092169163c9a59e4791602480820192602092909190829003018186803b1580156117b157600080fd5b505afa1580156117c5573d6000803e3d6000fd5b505050506040513d60208110156117db57600080fd5b5051155b15611846576001600160a01b0381166000818152600d6020908152604080832062069780420190819055815193845291830182905280519193927fc24affdb20f6529973515c5398461c1f6228edbfac531ab49e56a11433a86c9f929081900390910190a2505b50565b6001600a83040181025b92915050565b600081815260016020526040902080546001600160401b03166118ba576040805162461bcd60e51b81526020600482015260146024820152731c9bdbdb481b9bdd0818dc99585d1959081e595d60621b604482015290519081900360640190fd5b8054600160d01b900460ff16611bb557600554815460408051634a83e9cd60e11b81526001600160401b039092166004830152516000926001600160a01b031691639507d39a916024808301926020929190829003018186803b15801561192057600080fd5b505afa158015611934573d6000803e3d6000fd5b505050506040513d602081101561194a57600080fd5b505190508061195a575050611846565b6119648382611c38565b8154600090819081906119a2908790869060ff600160c01b8204811691600160d81b8104821691600160e01b8204811691600160e81b900416611d28565b875460ff808416600160d01b0260ff60d01b19918616600160c81b0260ff60c81b1990931692909217161788559194509250905060006119e187611d59565b600081815260026020526040902080549192509060ff8481166101009092041614611a1957805461ff00191661010060ff8516021781555b6040805187815260ff8088166020830152861681830152905189917f8850140926f0260fe1b422b7a0d93e7d5734e521eae9ac8969ed512cc3834515919081900360600190a2600082815260026020526040902054600188015460ff9091169015611bad57611a86612ca8565b611a93896001015461162e565b9050600080611aa78c8b8560000151611df1565b9150915060058460ff1611611b315760075460018c0154604080516302acc94b60e01b8152600481019290925260ff8716602483015260448201849052516001600160a01b03909216916302acc94b9160648082019260009290919082900301818387803b158015611b1857600080fd5b505af1158015611b2c573d6000803e3d6000fd5b505050505b60075460018c0154604080516302acc94b60e01b815260048101929092526006602483015260448201859052516001600160a01b03909216916302acc94b9160648082019260009290919082900301818387803b158015611b9157600080fd5b505af1158015611ba5573d6000803e3d6000fd5b505050505050505b505050505050505b611bc6611bc183611d59565b611eed565b5050565b600360fe1b0190565b61ffff60e882901c81169260a883901c82169260b881901c9092169163ffffffff60c882901c169160f89190911c90565b61ffff60e882901c81169260ff60e084901c169260f881901c9260d082901c81169260c083901c9091169163ffffffff1690565b6000611c4383611d59565b60008181526002602052604090205490915060ff168061162857600354600160401b90046001600160401b0316611c7b83858361205a565b6000848152600260205260409020805460ff191660ff8316908117909155909250600614611d2157600354620143704204906001600160401b03808316911614611cf65760038054600160401b67ffffffffffffffff199091166001600160401b0384161767ffffffffffffffff60401b1916179055611d1f565b6003805467ffffffffffffffff60401b1916600160401b600185016001600160401b0316021790555b505b5050505050565b6000806000611d3889898961213e565b9250611d478989888888612503565b939a9099509297509195505050505050565b600080600080611d6885612830565b509250925092506000808460070b12611d8b575060096004840160070b05611da5565b60098460000360040160070b81611d9e57fe5b0560000390505b6000808460070b12611dc1575060096004840160070b05611ddb565b60098460000360040160070b81611dd457fe5b0560000390505b611de682828561284b565b979650505050505050565b6000806000611e01866000612874565b90506019810480611e10575060015b6040805160208082018a9052818301899052601960fa1b60608301528251604181840301815260619092019092528051910120819081611e4c57fe5b066002820401925082611e5e57600192505b600260ff86161415611e735760048304830192505b6008811115611e80575060085b6040805160208082018a9052818301899052606560f81b60608301528251604181840301815260619092019092528051910120819081611ebc57fe5b066002820401935083611ece57600193505b600160ff86161415611ee35760048404840193505b5050935093915050565b6000818152600260208190526040909120908101546001600160401b031680156120555760055460408051634a83e9cd60e11b81526001600160401b038416600482015290516000926001600160a01b031691639507d39a916024808301926020929190829003018186803b158015611f6557600080fd5b505afa158015611f79573d6000803e3d6000fd5b505050506040513d6020811015611f8f57600080fd5b5051905080611fa057505050611846565b600080611fad868461290c565b915091506000611fbc83612991565b60008481526001602052604090206002810154919250906001600160401b0316158015611ff857508054600160801b90046001600160401b0316155b8015612002575081155b801561201857508054600160d01b900460ff1615155b1561203c5760028101805467ffffffffffffffff19166001600160401b0385161790555b50505060028401805467ffffffffffffffff1916905550505b505050565b600061206584612a8c565b8061207a5750600a6001600160401b03831610155b1561208757506006612137565b600061209285612ae2565b6009026001600160401b0316905060008111156120ae57600319015b6019811061213057604080516020808201889052818301879052600360fa1b60608301528251604181840301815260619092019092528051910120606461271090910660ff161180159061212557600061210787612830565b509250505060058160070b8161211957fe5b0760010193505061212a565b600692505b50612135565b600691505b505b9392505050565b600080600460ff841614156121555750600f61233d565b604080516020808201889052818301879052600160f81b606083015282516041818403018152606190920190925280519101206064900660ff16605711156121a0575060ff821660020a5b604080516020808201889052818301879052600160f91b606083015282516041818403018152606190920190925280519101206064900660ff166028111561233d57604080516020808201889052818301879052600360f81b606083015282516041818403018152606190920190925280519101206064900660ff16601911156122675760ff831615806122375750600260ff8416145b1561224457600a17612262565b600160ff841614806122595750600360ff8416145b15612262576005175b61233d565b604080516020808201889052818301879052600360f81b606083015282516041818403018152606190920190925280519101206064900660ff16603211156122f55760ff83166122b957600817612262565b600160ff841614156122cd57600117612262565b600260ff841614156122e157600217612262565b600360ff841614156122625760041761233d565b60ff83166123055760021761233d565b600160ff841614156123195760041761233d565b600260ff8416141561232d5760081761233d565b600360ff8416141561233d576001175b604080516020808201889052818301879052606f60f81b60608301528251808303604101815260619092019092528051910120606490066000603c60ff83161061239b57605a60ff831610612393576002612396565b60015b61239e565b60005b905060048160ff16106123b6578260f01792506124f8565b8060ff1660031415612430576040805160208082018a9052818301899052600760fc1b606083015282518083036041018152606190920190925280519101206003166001810160070260ff811660151415612416578460d0179450612429565b8060ff16601c1415612429578460b01794505b50506124f8565b8060ff16600214156124aa576040805160208082018a9052818301899052600760fc1b60608301528251808303604101815260619092019092528051910120600690066001810160030260ff8116600f141561249157846050179450612429565b8060ff1660121415612429578460a017945050506124f8565b8060ff16600114156124f8576040805160208082018a9052818301899052600760fc1b6060830152825160418184030181526061909201909252805191012060031660020a60100292909217915b509095945050505050565b600080600061251188611d59565b8692509050846000806125238b612830565b5050915091508160070b600014801561253f57508060070b6000145b156125535760029550846001179450612822565b8660ff168360ff16116128225760408051602080820187905260f886901b6001600160f81b03191682840152604182018d9052600360f81b60618301528251808303604201815260629092019092528051910120601490066001868116148015906125cc575060ff811615806125cc57508360ff166050145b156125e05760029650856001179550612816565b60028087161480159061261f57508060ff166001148061260357508360ff166050145b8061261f57508360ff16604f14801561261f5750600180871614155b156126335760039650856002179550612816565b6004808716148015906126b957508060ff166002148061265657508360ff166050145b8061267257508360ff16604f1480156126725750600180871614155b8061268e57508360ff16604f14801561268e5750600280871614155b806126b957508360ff16604e1480156126aa5750600180871614155b80156126b95750600280871614155b156126cb576004965094861794612816565b6008808716148015906127fd57508060ff16600314806126ee57508360ff166050145b8061270a57508360ff16604f14801561270a5750600180871614155b8061272657508360ff16604f1480156127265750600280871614155b8061274257508360ff16604f1480156127425750600480871614155b8061276d57508360ff16604e14801561275e5750600180871614155b801561276d5750600280871614155b8061279857508360ff16604e1480156127895750600180871614155b80156127985750600480871614155b806127c357508360ff16604e1480156127b45750600480871614155b80156127c35750600280871614155b806127fd57508360ff16604d1480156127df5750600480871614155b80156127ee5750600280871614155b80156127fd5750600180871614155b156128115760059650856008179550612816565b600196505b50600190920191612553565b505050509550959350505050565b90600160401b820490600160801b830490600160ff1b840490565b600160ff1b6001600160401b03938416928416600160401b0291909316600160801b0201010190565b600080600061288285612830565b50509150915060008061289486612830565b5091935091505081840360070b60008112156128ae576000035b81840360070b60008112156128c1576000035b6001603f1b8213156128d75781600160401b0391505b6001603f1b8113156128ea57600160401b035b808213156128ff575094506118539350505050565b9550611853945050505050565b604080516020808201859052818301849052603360f91b6060830152825180830360410181526061830184528051908201206081830186905260a18301859052606760f81b60c1840152835160a281850301815260c290930190935281519101206000918291612986918691600991829006919006612b38565b946001945092505050565b600081815260016020526040812054600160401b90046001600160401b0316806129bf576000915050611702565b60055460408051634a83e9cd60e11b81526001600160401b038416600482015290516000926001600160a01b031691639507d39a916024808301926020929190829003018186803b158015612a1357600080fd5b505afa158015612a27573d6000803e3d6000fd5b505050506040513d6020811015612a3d57600080fd5b5051905080612a5157600092505050611702565b6000848152600160208190526040909120546001600160401b03808216908516149161175291879185918590600160d01b900460ff16612b6f565b6000806000612a9a84612830565b5050915091506000198260070b12158015612aba57506000198160070b12155b8015612aca575060018260070b13155b8015612ada575060018160070b13155b949350505050565b6000806000612af084612830565b50509150915060008260070b1215612b09578160000391505b60008160070b1215612b19576000035b8060070b8260070b1315612b2f57509050611702565b91506117029050565b600080600080612b4787612830565b50925092509250611de68660ff1660048560090203018660ff1660048560090203018361284b565b600060ff8216600114612b8457506000611752565b600f8315612b9057600a015b6040805160208082018a9052818301899052600360f91b6060830152825180830360410181526061909201909252805191012060ff82166064909106108015612c1c576040805160208082018b90528183018a9052600760f81b60608301528251604181840301815260619092019092528051910120869081612c0f57fe5b0660010192505050611752565b506000979650505050505050565b828054600181600116156101000203166002900490600052602060002090601f016020900481019282601f10612c6b5782800160ff19823516178555612c98565b82800160010185558215612c98579182015b82811115612c98578235825591602001919060010190612c7d565b50612ca4929150612cd6565b5090565b6040805160a08101825260008082526020820181905291810182905260608101829052608081019190915290565b612cf091905b80821115612ca45760008155600101612cdc565b9056fe6f6e6c7920706c617965727320616c6c6f776564000000000000000000000000a2646970667358221220213c9c050d6d14f862b301c15faee3aff7ffc8b8ab9e0bbb1ba0686a644f8b2464736f6c63430006050033",
  "devdoc": {
    "methods": {}
  },
  "userdoc": {
    "methods": {}
  },
  "storageLayout": {
    "storage": [
      {
        "astId": 2873,
        "contract": "src/dungeon/DungeonActionsFacet.sol:DungeonActionsFacet",
        "label": "_characters",
        "offset": 0,
        "slot": "0",
        "type": "t_mapping(t_uint256,t_struct(Character)2856_storage)"
      },
      {
        "astId": 2877,
        "contract": "src/dungeon/DungeonActionsFacet.sol:DungeonActionsFacet",
        "label": "_rooms",
        "offset": 0,
        "slot": "1",
        "type": "t_mapping(t_uint256,t_struct(Room)2839_storage)"
      },
      {
        "astId": 2881,
        "contract": "src/dungeon/DungeonActionsFacet.sol:DungeonActionsFacet",
        "label": "_areas",
        "offset": 0,
        "slot": "2",
        "type": "t_mapping(t_uint256,t_struct(Area)2869_storage)"
      },
      {
        "astId": 2888,
        "contract": "src/dungeon/DungeonActionsFacet.sol:DungeonActionsFacet",
        "label": "_areaCounter",
        "offset": 0,
        "slot": "3",
        "type": "t_struct(AreaCounter)2886_storage"
      },
      {
        "astId": 2890,
        "contract": "src/dungeon/DungeonActionsFacet.sol:DungeonActionsFacet",
        "label": "_adminContract",
        "offset": 0,
        "slot": "4",
        "type": "t_address"
      },
      {
        "astId": 2892,
        "contract": "src/dungeon/DungeonActionsFacet.sol:DungeonActionsFacet",
        "label": "_blockHashRegister",
        "offset": 0,
        "slot": "5",
        "type": "t_contract(BlockHashRegister)13120"
      },
      {
        "astId": 2894,
        "contract": "src/dungeon/DungeonActionsFacet.sol:DungeonActionsFacet",
        "label": "_charactersContract",
        "offset": 0,
        "slot": "6",
        "type": "t_contract(Characters)469"
      },
      {
        "astId": 2896,
        "contract": "src/dungeon/DungeonActionsFacet.sol:DungeonActionsFacet",
        "label": "_elementsContract",
        "offset": 0,
        "slot": "7",
        "type": "t_contract(Elements)12803"
      },
      {
        "astId": 2898,
        "contract": "src/dungeon/DungeonActionsFacet.sol:DungeonActionsFacet",
        "label": "_gearsContract",
        "offset": 0,
        "slot": "8",
        "type": "t_contract(Gears)12822"
      },
      {
        "astId": 2900,
        "contract": "src/dungeon/DungeonActionsFacet.sol:DungeonActionsFacet",
        "label": "_roomsContract",
        "offset": 0,
        "slot": "9",
        "type": "t_contract(Rooms)12889"
      },
      {
        "astId": 2902,
        "contract": "src/dungeon/DungeonActionsFacet.sol:DungeonActionsFacet",
        "label": "_playerContract",
        "offset": 0,
        "slot": "10",
        "type": "t_contract(Player)10671"
      },
      {
        "astId": 2910,
        "contract": "src/dungeon/DungeonActionsFacet.sol:DungeonActionsFacet",
        "label": "_unlockedExits",
        "offset": 0,
        "slot": "11",
        "type": "t_mapping(t_uint256,t_mapping(t_uint256,t_mapping(t_uint256,t_bool)))"
      },
      {
        "astId": 2921,
        "contract": "src/dungeon/DungeonActionsFacet.sol:DungeonActionsFacet",
        "label": "_quests",
        "offset": 0,
        "slot": "12",
        "type": "t_mapping(t_uint256,t_mapping(t_uint64,t_struct(Quest)2915_storage))"
      },
      {
        "astId": 2925,
        "contract": "src/dungeon/DungeonActionsFacet.sol:DungeonActionsFacet",
        "label": "_taxDueDate",
        "offset": 0,
        "slot": "13",
        "type": "t_mapping(t_address,t_uint256)"
      },
      {
        "astId": 2929,
        "contract": "src/dungeon/DungeonActionsFacet.sol:DungeonActionsFacet",
        "label": "_customRoomNames",
        "offset": 0,
        "slot": "14",
        "type": "t_mapping(t_uint256,t_string_storage)"
      }
    ],
    "types": {
      "t_address": {
        "encoding": "inplace",
        "label": "address",
        "numberOfBytes": "20"
      },
      "t_bool": {
        "encoding": "inplace",
        "label": "bool",
        "numberOfBytes": "1"
      },
      "t_contract(BlockHashRegister)13120": {
        "encoding": "inplace",
        "label": "contract BlockHashRegister",
        "numberOfBytes": "20"
      },
      "t_contract(Characters)469": {
        "encoding": "inplace",
        "label": "contract Characters",
        "numberOfBytes": "20"
      },
      "t_contract(Elements)12803": {
        "encoding": "inplace",
        "label": "contract Elements",
        "numberOfBytes": "20"
      },
      "t_contract(Gears)12822": {
        "encoding": "inplace",
        "label": "contract Gears",
        "numberOfBytes": "20"
      },
      "t_contract(Player)10671": {
        "encoding": "inplace",
        "label": "contract Player",
        "numberOfBytes": "20"
      },
      "t_contract(Rooms)12889": {
        "encoding": "inplace",
        "label": "contract Rooms",
        "numberOfBytes": "20"
      },
      "t_int64": {
        "encoding": "inplace",
        "label": "int64",
        "numberOfBytes": "8"
      },
      "t_mapping(t_address,t_uint256)": {
        "encoding": "mapping",
        "key": "t_address",
        "label": "mapping(address => uint256)",
        "numberOfBytes": "32",
        "value": "t_uint256"
      },
      "t_mapping(t_uint256,t_bool)": {
        "encoding": "mapping",
        "key": "t_uint256",
        "label": "mapping(uint256 => bool)",
        "numberOfBytes": "32",
        "value": "t_bool"
      },
      "t_mapping(t_uint256,t_mapping(t_uint256,t_bool))": {
        "encoding": "mapping",
        "key": "t_uint256",
        "label": "mapping(uint256 => mapping(uint256 => bool))",
        "numberOfBytes": "32",
        "value": "t_mapping(t_uint256,t_bool)"
      },
      "t_mapping(t_uint256,t_mapping(t_uint256,t_mapping(t_uint256,t_bool)))": {
        "encoding": "mapping",
        "key": "t_uint256",
        "label": "mapping(uint256 => mapping(uint256 => mapping(uint256 => bool)))",
        "numberOfBytes": "32",
        "value": "t_mapping(t_uint256,t_mapping(t_uint256,t_bool))"
      },
      "t_mapping(t_uint256,t_mapping(t_uint64,t_struct(Quest)2915_storage))": {
        "encoding": "mapping",
        "key": "t_uint256",
        "label": "mapping(uint256 => mapping(uint64 => struct DungeonDataLayout.Quest))",
        "numberOfBytes": "32",
        "value": "t_mapping(t_uint64,t_struct(Quest)2915_storage)"
      },
      "t_mapping(t_uint256,t_string_storage)": {
        "encoding": "mapping",
        "key": "t_uint256",
        "label": "mapping(uint256 => string)",
        "numberOfBytes": "32",
        "value": "t_string_storage"
      },
      "t_mapping(t_uint256,t_struct(Area)2869_storage)": {
        "encoding": "mapping",
        "key": "t_uint256",
        "label": "mapping(uint256 => struct DungeonDataLayout.Area)",
        "numberOfBytes": "32",
        "value": "t_struct(Area)2869_storage"
      },
      "t_mapping(t_uint256,t_struct(Character)2856_storage)": {
        "encoding": "mapping",
        "key": "t_uint256",
        "label": "mapping(uint256 => struct DungeonDataLayout.Character)",
        "numberOfBytes": "32",
        "value": "t_struct(Character)2856_storage"
      },
      "t_mapping(t_uint256,t_struct(Room)2839_storage)": {
        "encoding": "mapping",
        "key": "t_uint256",
        "label": "mapping(uint256 => struct DungeonDataLayout.Room)",
        "numberOfBytes": "32",
        "value": "t_struct(Room)2839_storage"
      },
      "t_mapping(t_uint64,t_struct(Quest)2915_storage)": {
        "encoding": "mapping",
        "key": "t_uint64",
        "label": "mapping(uint64 => struct DungeonDataLayout.Quest)",
        "numberOfBytes": "32",
        "value": "t_struct(Quest)2915_storage"
      },
      "t_string_storage": {
        "encoding": "bytes",
        "label": "string",
        "numberOfBytes": "32"
      },
      "t_struct(Area)2869_storage": {
        "encoding": "inplace",
        "label": "struct DungeonDataLayout.Area",
        "members": [
          {
            "astId": 2858,
            "contract": "src/dungeon/DungeonActionsFacet.sol:DungeonActionsFacet",
            "label": "areaType",
            "offset": 0,
            "slot": "0",
            "type": "t_uint8"
          },
          {
            "astId": 2860,
            "contract": "src/dungeon/DungeonActionsFacet.sol:DungeonActionsFacet",
            "label": "discovered",
            "offset": 1,
            "slot": "0",
            "type": "t_uint8"
          },
          {
            "astId": 2862,
            "contract": "src/dungeon/DungeonActionsFacet.sol:DungeonActionsFacet",
            "label": "lastRoomIndex",
            "offset": 2,
            "slot": "0",
            "type": "t_uint8"
          },
          {
            "astId": 2864,
            "contract": "src/dungeon/DungeonActionsFacet.sol:DungeonActionsFacet",
            "label": "currentIndex",
            "offset": 3,
            "slot": "0",
            "type": "t_uint8"
          },
          {
            "astId": 2866,
            "contract": "src/dungeon/DungeonActionsFacet.sol:DungeonActionsFacet",
            "label": "lastRoom",
            "offset": 0,
            "slot": "1",
            "type": "t_uint256"
          },
          {
            "astId": 2868,
            "contract": "src/dungeon/DungeonActionsFacet.sol:DungeonActionsFacet",
            "label": "eventBlockNumber",
            "offset": 0,
            "slot": "2",
            "type": "t_uint64"
          }
        ],
        "numberOfBytes": "96"
      },
      "t_struct(AreaCounter)2886_storage": {
        "encoding": "inplace",
        "label": "struct DungeonDataLayout.AreaCounter",
        "members": [
          {
            "astId": 2883,
            "contract": "src/dungeon/DungeonActionsFacet.sol:DungeonActionsFacet",
            "label": "lastPeriod",
            "offset": 0,
            "slot": "0",
            "type": "t_uint64"
          },
          {
            "astId": 2885,
            "contract": "src/dungeon/DungeonActionsFacet.sol:DungeonActionsFacet",
            "label": "numAreas",
            "offset": 8,
            "slot": "0",
            "type": "t_uint64"
          }
        ],
        "numberOfBytes": "32"
      },
      "t_struct(Character)2856_storage": {
        "encoding": "inplace",
        "label": "struct DungeonDataLayout.Character",
        "members": [
          {
            "astId": 2841,
            "contract": "src/dungeon/DungeonActionsFacet.sol:DungeonActionsFacet",
            "label": "location",
            "offset": 0,
            "slot": "0",
            "type": "t_uint256"
          },
          {
            "astId": 2843,
            "contract": "src/dungeon/DungeonActionsFacet.sol:DungeonActionsFacet",
            "label": "direction",
            "offset": 0,
            "slot": "1",
            "type": "t_uint8"
          },
          {
            "astId": 2845,
            "contract": "src/dungeon/DungeonActionsFacet.sol:DungeonActionsFacet",
            "label": "floors",
            "offset": 1,
            "slot": "1",
            "type": "t_int64"
          },
          {
            "astId": 2847,
            "contract": "src/dungeon/DungeonActionsFacet.sol:DungeonActionsFacet",
            "label": "slot_1",
            "offset": 0,
            "slot": "2",
            "type": "t_uint256"
          },
          {
            "astId": 2849,
            "contract": "src/dungeon/DungeonActionsFacet.sol:DungeonActionsFacet",
            "label": "slot_2",
            "offset": 0,
            "slot": "3",
            "type": "t_uint256"
          },
          {
            "astId": 2851,
            "contract": "src/dungeon/DungeonActionsFacet.sol:DungeonActionsFacet",
            "label": "slot_3",
            "offset": 0,
            "slot": "4",
            "type": "t_uint256"
          },
          {
            "astId": 2853,
            "contract": "src/dungeon/DungeonActionsFacet.sol:DungeonActionsFacet",
            "label": "slot_4",
            "offset": 0,
            "slot": "5",
            "type": "t_uint256"
          },
          {
            "astId": 2855,
            "contract": "src/dungeon/DungeonActionsFacet.sol:DungeonActionsFacet",
            "label": "slot_5",
            "offset": 0,
            "slot": "6",
            "type": "t_uint256"
          }
        ],
        "numberOfBytes": "224"
      },
      "t_struct(Quest)2915_storage": {
        "encoding": "inplace",
        "label": "struct DungeonDataLayout.Quest",
        "members": [
          {
            "astId": 2912,
            "contract": "src/dungeon/DungeonActionsFacet.sol:DungeonActionsFacet",
            "label": "status",
            "offset": 0,
            "slot": "0",
            "type": "t_uint8"
          },
          {
            "astId": 2914,
            "contract": "src/dungeon/DungeonActionsFacet.sol:DungeonActionsFacet",
            "label": "data",
            "offset": 0,
            "slot": "1",
            "type": "t_string_storage"
          }
        ],
        "numberOfBytes": "64"
      },
      "t_struct(Room)2839_storage": {
        "encoding": "inplace",
        "label": "struct DungeonDataLayout.Room",
        "members": [
          {
            "astId": 2818,
            "contract": "src/dungeon/DungeonActionsFacet.sol:DungeonActionsFacet",
            "label": "blockNumber",
            "offset": 0,
            "slot": "0",
            "type": "t_uint64"
          },
          {
            "astId": 2820,
            "contract": "src/dungeon/DungeonActionsFacet.sol:DungeonActionsFacet",
            "label": "monsterBlockNumber",
            "offset": 8,
            "slot": "0",
            "type": "t_uint64"
          },
          {
            "astId": 2822,
            "contract": "src/dungeon/DungeonActionsFacet.sol:DungeonActionsFacet",
            "label": "numActiveCharacters",
            "offset": 16,
            "slot": "0",
            "type": "t_uint64"
          },
          {
            "astId": 2824,
            "contract": "src/dungeon/DungeonActionsFacet.sol:DungeonActionsFacet",
            "label": "direction",
            "offset": 24,
            "slot": "0",
            "type": "t_uint8"
          },
          {
            "astId": 2826,
            "contract": "src/dungeon/DungeonActionsFacet.sol:DungeonActionsFacet",
            "label": "exits",
            "offset": 25,
            "slot": "0",
            "type": "t_uint8"
          },
          {
            "astId": 2828,
            "contract": "src/dungeon/DungeonActionsFacet.sol:DungeonActionsFacet",
            "label": "kind",
            "offset": 26,
            "slot": "0",
            "type": "t_uint8"
          },
          {
            "astId": 2830,
            "contract": "src/dungeon/DungeonActionsFacet.sol:DungeonActionsFacet",
            "label": "areaAtDiscovery",
            "offset": 27,
            "slot": "0",
            "type": "t_uint8"
          },
          {
            "astId": 2832,
            "contract": "src/dungeon/DungeonActionsFacet.sol:DungeonActionsFacet",
            "label": "lastRoomIndex",
            "offset": 28,
            "slot": "0",
            "type": "t_uint8"
          },
          {
            "astId": 2834,
            "contract": "src/dungeon/DungeonActionsFacet.sol:DungeonActionsFacet",
            "label": "index",
            "offset": 29,
            "slot": "0",
            "type": "t_uint8"
          },
          {
            "astId": 2836,
            "contract": "src/dungeon/DungeonActionsFacet.sol:DungeonActionsFacet",
            "label": "discoverer",
            "offset": 0,
            "slot": "1",
            "type": "t_uint256"
          },
          {
            "astId": 2838,
            "contract": "src/dungeon/DungeonActionsFacet.sol:DungeonActionsFacet",
            "label": "randomEvent",
            "offset": 0,
            "slot": "2",
            "type": "t_uint64"
          }
        ],
        "numberOfBytes": "96"
      },
      "t_uint256": {
        "encoding": "inplace",
        "label": "uint256",
        "numberOfBytes": "32"
      },
      "t_uint64": {
        "encoding": "inplace",
        "label": "uint64",
        "numberOfBytes": "8"
      },
      "t_uint8": {
        "encoding": "inplace",
        "label": "uint8",
        "numberOfBytes": "1"
      }
    }
  }
}