{
  "abi": [
    {
      "anonymous": false,
      "inputs": [
        {
          "indexed": true,
          "internalType": "uint256",
          "name": "characterId",
          "type": "uint256"
        },
        {
          "indexed": true,
          "internalType": "uint256",
          "name": "oldLocation",
          "type": "uint256"
        },
        {
          "indexed": true,
          "internalType": "uint256",
          "name": "newLocation",
          "type": "uint256"
        },
        {
          "indexed": false,
          "internalType": "uint8",
          "name": "mode",
          "type": "uint8"
        },
        {
          "indexed": false,
          "internalType": "uint256",
          "name": "path",
          "type": "uint256"
        }
      ],
      "name": "CharacterMoved",
      "type": "event"
    },
    {
      "anonymous": false,
      "inputs": [
        {
          "indexed": true,
          "internalType": "uint256",
          "name": "characterId",
          "type": "uint256"
        },
        {
          "indexed": false,
          "internalType": "uint256",
          "name": "monsterId",
          "type": "uint256"
        }
      ],
      "name": "Death",
      "type": "event"
    },
    {
      "anonymous": false,
      "inputs": [
        {
          "indexed": true,
          "internalType": "uint256",
          "name": "characterId",
          "type": "uint256"
        },
        {
          "indexed": true,
          "internalType": "address",
          "name": "player",
          "type": "address"
        },
        {
          "indexed": false,
          "internalType": "string",
          "name": "name",
          "type": "string"
        }
      ],
      "name": "Enter",
      "type": "event"
    },
    {
      "anonymous": false,
      "inputs": [
        {
          "indexed": false,
          "internalType": "uint256",
          "name": "characterId",
          "type": "uint256"
        },
        {
          "indexed": false,
          "internalType": "uint256",
          "name": "gearId",
          "type": "uint256"
        },
        {
          "indexed": false,
          "internalType": "uint8",
          "name": "slotType",
          "type": "uint8"
        }
      ],
      "name": "Equip",
      "type": "event"
    },
    {
      "anonymous": false,
      "inputs": [
        {
          "indexed": true,
          "internalType": "uint256",
          "name": "characterId",
          "type": "uint256"
        },
        {
          "indexed": false,
          "internalType": "uint16",
          "name": "hp",
          "type": "uint16"
        }
      ],
      "name": "Heal",
      "type": "event"
    },
    {
      "anonymous": false,
      "inputs": [
        {
          "indexed": true,
          "internalType": "uint256",
          "name": "characterId",
          "type": "uint256"
        },
        {
          "indexed": false,
          "internalType": "uint16",
          "name": "newLevel",
          "type": "uint16"
        }
      ],
      "name": "LevelUp",
      "type": "event"
    },
    {
      "anonymous": false,
      "inputs": [
        {
          "indexed": true,
          "internalType": "uint256",
          "name": "characterId",
          "type": "uint256"
        },
        {
          "indexed": true,
          "internalType": "uint64",
          "name": "id",
          "type": "uint64"
        },
        {
          "indexed": true,
          "internalType": "uint8",
          "name": "status",
          "type": "uint8"
        },
        {
          "indexed": false,
          "internalType": "string",
          "name": "data",
          "type": "string"
        }
      ],
      "name": "QuestUpdate",
      "type": "event"
    },
    {
      "anonymous": false,
      "inputs": [
        {
          "indexed": true,
          "internalType": "uint256",
          "name": "areaLocation",
          "type": "uint256"
        },
        {
          "indexed": false,
          "internalType": "uint64",
          "name": "blockNumber",
          "type": "uint64"
        }
      ],
      "name": "RandomEvent",
      "type": "event"
    },
    {
      "anonymous": false,
      "inputs": [
        {
          "indexed": true,
          "internalType": "uint256",
          "name": "characterId",
          "type": "uint256"
        },
        {
          "indexed": false,
          "internalType": "uint256",
          "name": "gearId",
          "type": "uint256"
        }
      ],
      "name": "Recycle",
      "type": "event"
    },
    {
      "anonymous": false,
      "inputs": [
        {
          "indexed": true,
          "internalType": "uint256",
          "name": "deadCharacterId",
          "type": "uint256"
        },
        {
          "indexed": false,
          "internalType": "uint256",
          "name": "newCharacterId",
          "type": "uint256"
        }
      ],
      "name": "Resurrect",
      "type": "event"
    },
    {
      "anonymous": false,
      "inputs": [
        {
          "indexed": true,
          "internalType": "uint256",
          "name": "location",
          "type": "uint256"
        },
        {
          "indexed": false,
          "internalType": "bytes32",
          "name": "blockHash",
          "type": "bytes32"
        },
        {
          "indexed": false,
          "internalType": "uint8",
          "name": "exits",
          "type": "uint8"
        },
        {
          "indexed": false,
          "internalType": "uint8",
          "name": "kind",
          "type": "uint8"
        }
      ],
      "name": "RoomActualised",
      "type": "event"
    },
    {
      "anonymous": false,
      "inputs": [
        {
          "indexed": true,
          "internalType": "uint256",
          "name": "location",
          "type": "uint256"
        },
        {
          "indexed": false,
          "internalType": "uint64",
          "name": "blockNumber",
          "type": "uint64"
        },
        {
          "indexed": false,
          "internalType": "uint8",
          "name": "direction",
          "type": "uint8"
        }
      ],
      "name": "RoomDiscovered",
      "type": "event"
    },
    {
      "anonymous": false,
      "inputs": [
        {
          "indexed": true,
          "internalType": "uint256",
          "name": "location",
          "type": "uint256"
        },
        {
          "indexed": true,
          "internalType": "address",
          "name": "owner",
          "type": "address"
        },
        {
          "indexed": false,
          "internalType": "uint256",
          "name": "id",
          "type": "uint256"
        },
        {
          "indexed": false,
          "internalType": "uint256",
          "name": "amount",
          "type": "uint256"
        }
      ],
      "name": "RoomIncome",
      "type": "event"
    },
    {
      "anonymous": false,
      "inputs": [
        {
          "indexed": true,
          "internalType": "uint256",
          "name": "location",
          "type": "uint256"
        },
        {
          "indexed": false,
          "internalType": "string",
          "name": "name",
          "type": "string"
        },
        {
          "indexed": false,
          "internalType": "uint256",
          "name": "characterId",
          "type": "uint256"
        }
      ],
      "name": "RoomName",
      "type": "event"
    },
    {
      "anonymous": false,
      "inputs": [
        {
          "indexed": true,
          "internalType": "address",
          "name": "owner",
          "type": "address"
        },
        {
          "indexed": false,
          "internalType": "uint256",
          "name": "tax",
          "type": "uint256"
        },
        {
          "indexed": false,
          "internalType": "uint256",
          "name": "newDueDate",
          "type": "uint256"
        }
      ],
      "name": "RoomTaxPay",
      "type": "event"
    },
    {
      "inputs": [],
      "name": "TAX_PERIOD",
      "outputs": [
        {
          "internalType": "uint256",
          "name": "",
          "type": "uint256"
        }
      ],
      "stateMutability": "view",
      "type": "function"
    },
    {
      "inputs": [
        {
          "internalType": "uint256",
          "name": "characterId",
          "type": "uint256"
        },
        {
          "internalType": "uint256",
          "name": "location",
          "type": "uint256"
        }
      ],
      "name": "abandonRoom",
      "outputs": [],
      "stateMutability": "nonpayable",
      "type": "function"
    },
    {
      "inputs": [
        {
          "internalType": "uint256",
          "name": "characterId",
          "type": "uint256"
        },
        {
          "internalType": "uint256",
          "name": "location",
          "type": "uint256"
        }
      ],
      "name": "activateRoom",
      "outputs": [],
      "stateMutability": "nonpayable",
      "type": "function"
    },
    {
      "inputs": [
        {
          "internalType": "uint256",
          "name": "characterId",
          "type": "uint256"
        }
      ],
      "name": "buyRoom",
      "outputs": [],
      "stateMutability": "nonpayable",
      "type": "function"
    },
    {
      "inputs": [
        {
          "internalType": "uint256",
          "name": "characterId",
          "type": "uint256"
        },
        {
          "internalType": "uint256",
          "name": "location",
          "type": "uint256"
        }
      ],
      "name": "deactivateRoom",
      "outputs": [],
      "stateMutability": "nonpayable",
      "type": "function"
    },
    {
      "inputs": [
        {
          "internalType": "uint256",
          "name": "characterId",
          "type": "uint256"
        },
        {
          "internalType": "uint256",
          "name": "location",
          "type": "uint256"
        },
        {
          "internalType": "string",
          "name": "name",
          "type": "string"
        }
      ],
      "name": "nameRoom",
      "outputs": [],
      "stateMutability": "nonpayable",
      "type": "function"
    },
    {
      "inputs": [
        {
          "internalType": "uint256",
          "name": "characterId",
          "type": "uint256"
        },
        {
          "internalType": "uint256",
          "name": "periods",
          "type": "uint256"
        }
      ],
      "name": "payRoomsTax",
      "outputs": [],
      "stateMutability": "nonpayable",
      "type": "function"
    },
    {
      "inputs": [
        {
          "internalType": "uint256",
          "name": "characterId",
          "type": "uint256"
        },
        {
          "internalType": "uint256[]",
          "name": "gearIds",
          "type": "uint256[]"
        }
      ],
      "name": "recycle",
      "outputs": [],
      "stateMutability": "nonpayable",
      "type": "function"
    }
  ],
  "address": "0xe68d18f1c0faF19eab4ce41237F800672A481d7D",
  "args": [],
  "bytecode": "0x608060405234801561001057600080fd5b506118a6806100206000396000f3fe608060405234801561001057600080fd5b50600436106100885760003560e01c8063714dfc591161005b578063714dfc59146101c857806387908b7f146101eb578063abcac4f41461020e578063ed8f9cf91461022857610088565b8063136f6b5a1461008d5780631ef1720a1461010b5780632c44b2cf146101825780634636e9f1146101a5575b600080fd5b610109600480360360608110156100a357600080fd5b8135916020810135918101906060810160408201356401000000008111156100ca57600080fd5b8201836020820111156100dc57600080fd5b803590602001918460018302840111640100000000831117156100fe57600080fd5b509092509050610245565b005b6101096004803603604081101561012157600080fd5b8135919081019060408101602082013564010000000081111561014357600080fd5b82018360208201111561015557600080fd5b8035906020019184602083028401116401000000008311171561017757600080fd5b5090925090506104d7565b6101096004803603604081101561019857600080fd5b5080359060200135610826565b610109600480360360408110156101bb57600080fd5b5080359060200135610afe565b610109600480360360408110156101de57600080fd5b5080359060200135610d5f565b6101096004803603604081101561020157600080fd5b5080359060200135611093565b610216611282565b60408051918252519081900360200190f35b6101096004803603602081101561023e57600080fd5b5035611289565b600a546001600160a01b0316331461029b576040805162461bcd60e51b81526020600482015260146024820152731bdb9b1e481c1b185e595c9cc8185b1b1bddd95960621b604482015290519081900360640190fd5b600954604080516369f648a160e01b81526004810186905290516000926001600160a01b0316916369f648a1916024808301926020929190829003018186803b1580156102e757600080fd5b505afa1580156102fb573d6000803e3d6000fd5b505050506040513d602081101561031157600080fd5b505160065460408051630607176160e31b81526004810189905290519293506000926001600160a01b0390921691633038bb0891602480820192602092909190829003018186803b15801561036557600080fd5b505afa158015610379573d6000803e3d6000fd5b505050506040513d602081101561038f57600080fd5b505190508181146103d3576040805162461bcd60e51b81526020600482015260096024820152683737ba1037bbb732b960b91b604482015290519081900360640190fd5b60075460408051637f4c824d60e11b81526001600160a01b0385811660048301526000602483018190526006604484015260146064840152925193169263fe99049a9260848084019391929182900301818387803b15801561043457600080fd5b505af1158015610448573d6000803e3d6000fd5b5050506000868152600e60205260409020610465915085856117a7565b50847f833228afd99eefed411de081e6bf23c4c4e2945e33997a07725ee65de5e23d5185858960405180806020018381526020018281038252858582818152602001925080828437600083820152604051601f909101601f1916909201829003965090945050505050a2505050505050565b600a546001600160a01b0316331461052d576040805162461bcd60e51b81526020600482015260146024820152731bdb9b1e481c1b185e595c9cc8185b1b1bddd95960621b604482015290519081900360640190fd5b610535611825565b61053e8461151c565b90506000816080015161ffff1611610596576040805162461bcd60e51b81526020600482015260166024820152751e5bdd5c8818da185c9858dd195c881a5cc81919585960521b604482015290519081900360640190fd5b6000805b838110156107ab5760008585838181106105b057fe5b600854604080516369f648a160e01b8152602093840295909501356004860181905290519095506001600160a01b03909116936369f648a193506024808201939291829003018186803b15801561060657600080fd5b505afa15801561061a573d6000803e3d6000fd5b505050506040513d602081101561063057600080fd5b50518714610685576040805162461bcd60e51b815260206004820152601760248201527f68617320746f206265206f776e6572206f662067656172000000000000000000604482015290519081900360640190fd5b60085460408051630178fe3f60e01b8152600481018490529051610703926001600160a01b031691630178fe3f916024808301926020929190829003018186803b1580156106d257600080fd5b505afa1580156106e6573d6000803e3d6000fd5b505050506040513d60208110156106fc57600080fd5b50516115f4565b60085460408051630301ea6560e51b815260048101859052905195909201946001600160a01b039091169163603d4ca091602480830192600092919082900301818387803b15801561075457600080fd5b505af1158015610768573d6000803e3d6000fd5b50506040805184815290518a93507f87f4b7ea340c6b16973214300a3cbbb5afaf6c92389d1e81f95ffe0c07edcfb692509081900360200190a25060010161059a565b50600754604080516302acc94b60e01b815260048101889052600860248201526044810184905290516001600160a01b03909216916302acc94b9160648082019260009290919082900301818387803b15801561080757600080fd5b505af115801561081b573d6000803e3d6000fd5b505050505050505050565b600a546001600160a01b0316331461087c576040805162461bcd60e51b81526020600482015260146024820152731bdb9b1e481c1b185e595c9cc8185b1b1bddd95960621b604482015290519081900360640190fd5b60065460408051630607176160e31b81526004810185905290516000926001600160a01b031691633038bb08916024808301926020929190829003018186803b1580156108c857600080fd5b505afa1580156108dc573d6000803e3d6000fd5b505050506040513d60208110156108f257600080fd5b5051600954604080516331a9108f60e11b81526004810186905290519293506000926001600160a01b0390921691636352211e91602480820192602092909190829003018186803b15801561094657600080fd5b505afa15801561095a573d6000803e3d6000fd5b505050506040513d602081101561097057600080fd5b50516001600160a01b03169050308114156109c4576040805162461bcd60e51b815260206004820152600f60248201526e1b9bdd0819195858dd1a5d985d1959608a1b604482015290519081900360640190fd5b818114610a04576040805162461bcd60e51b81526020600482015260096024820152683737ba1037bbb732b960b91b604482015290519081900360640190fd5b600954604080516323b872dd60e01b81526001600160a01b03848116600483015230602483015260448201879052915191909216916323b872dd91606480830192600092919082900301818387803b158015610a5f57600080fd5b505af1158015610a73573d6000803e3d6000fd5b50505050610a8081611648565b600954604080516316ce431360e31b8152306004820152600060248201819052604482018590526064820187905291516001600160a01b039093169263b67218989260848084019391929182900301818387803b158015610ae057600080fd5b505af1158015610af4573d6000803e3d6000fd5b5050505050505050565b600a546001600160a01b03163314610b54576040805162461bcd60e51b81526020600482015260146024820152731bdb9b1e481c1b185e595c9cc8185b1b1bddd95960621b604482015290519081900360640190fd5b600954604080516369f648a160e01b81526004810184905290516000926001600160a01b0316916369f648a1916024808301926020929190829003018186803b158015610ba057600080fd5b505afa158015610bb4573d6000803e3d6000fd5b505050506040513d6020811015610bca57600080fd5b505160065460408051630607176160e31b81526004810187905290519293506000926001600160a01b0390921691633038bb0891602480820192602092909190829003018186803b158015610c1e57600080fd5b505afa158015610c32573d6000803e3d6000fd5b505050506040513d6020811015610c4857600080fd5b50519050818114610c8c576040805162461bcd60e51b81526020600482015260096024820152683737ba1037bbb732b960b91b604482015290519081900360640190fd5b60075460408051637f4c824d60e11b81526001600160a01b03858116600483015260006024830181905260066044840152606483810152925193169263fe99049a9260848084019391929182900301818387803b158015610cec57600080fd5b505af1158015610d00573d6000803e3d6000fd5b5050600954604080516323b872dd60e01b81523060048201526001600160a01b0387811660248301526044820189905291519190921693506323b872dd9250606480830192600092919082900301818387803b158015610ae057600080fd5b600a546001600160a01b03163314610db5576040805162461bcd60e51b81526020600482015260146024820152731bdb9b1e481c1b185e595c9cc8185b1b1bddd95960621b604482015290519081900360640190fd5b60008111610dff576040805162461bcd60e51b81526020600482015260126024820152711bdb99481c195c9a5bd908185d1b19585cdd60721b604482015290519081900360640190fd5b60065460408051630607176160e31b81526004810185905290516000926001600160a01b031691633038bb08916024808301926020929190829003018186803b158015610e4b57600080fd5b505afa158015610e5f573d6000803e3d6000fd5b505050506040513d6020811015610e7557600080fd5b50516009546040805163c9a59e4760e01b81526001600160a01b0380851660048301529151939450600093919092169163c9a59e47916024808301926020929190829003018186803b158015610eca57600080fd5b505afa158015610ede573d6000803e3d6000fd5b505050506040513d6020811015610ef457600080fd5b5051905080610f3f576040805162461bcd60e51b81526020600482015260126024820152713737ba10323ab733b2b7b71035b2b2b832b960711b604482015290519081900360640190fd5b6000610f4b8285611736565b60075460408051637f4c824d60e11b81526001600160a01b038781166004830152600060248301819052600660448401526064830186905292519495509092169263fe99049a92608480820193929182900301818387803b158015610faf57600080fd5b505af1158015610fc3573d6000803e3d6000fd5b505050506001600160a01b0383166000908152600d6020526040902080546206978086020190819055620d2f00420111611039576040805162461bcd60e51b815260206004820152601260248201527163616e6e6f7420707265706179206d6f726560701b604482015290519081900360640190fd5b6001600160a01b0383166000818152600d60209081526040918290205482518581529182015281517fc24affdb20f6529973515c5398461c1f6228edbfac531ab49e56a11433a86c9f929181900390910190a25050505050565b600a546001600160a01b031633146110e9576040805162461bcd60e51b81526020600482015260146024820152731bdb9b1e481c1b185e595c9cc8185b1b1bddd95960621b604482015290519081900360640190fd5b600954604080516369f648a160e01b81526004810184905290516000926001600160a01b0316916369f648a1916024808301926020929190829003018186803b15801561113557600080fd5b505afa158015611149573d6000803e3d6000fd5b505050506040513d602081101561115f57600080fd5b505160065460408051630607176160e31b81526004810187905290519293506000926001600160a01b0390921691633038bb0891602480820192602092909190829003018186803b1580156111b357600080fd5b505afa1580156111c7573d6000803e3d6000fd5b505050506040513d60208110156111dd57600080fd5b50519050818114611221576040805162461bcd60e51b81526020600482015260096024820152683737ba1037bbb732b960b91b604482015290519081900360640190fd5b600954604080516316ce431360e31b815230600482018190526024820186905260448201526064810186905290516001600160a01b039092169163b67218989160848082019260009290919082900301818387803b158015610ae057600080fd5b6206978081565b600a546001600160a01b031633146112df576040805162461bcd60e51b81526020600482015260146024820152731bdb9b1e481c1b185e595c9cc8185b1b1bddd95960621b604482015290519081900360640190fd5b6000818152602081815260408083205460095482516369f648a160e01b81526004810183905292519194936001600160a01b03909116926369f648a19260248083019392829003018186803b15801561133757600080fd5b505afa15801561134b573d6000803e3d6000fd5b505050506040513d602081101561136157600080fd5b50516001600160a01b0381166000908152600d602052604090205490915042116113c3576040805162461bcd60e51b815260206004820152600e60248201526d1b9bdd08199bdc9958db1bdcd95960921b604482015290519081900360640190fd5b6007546040805163c9b902e360e01b815260048101869052600660248201526002604482015290516001600160a01b039092169163c9b902e39160648082019260009290919082900301818387803b15801561141e57600080fd5b505af1158015611432573d6000803e3d6000fd5b505060065460408051630607176160e31b8152600481018890529051600094506001600160a01b039092169250633038bb08916024808301926020929190829003018186803b15801561148457600080fd5b505afa158015611498573d6000803e3d6000fd5b505050506040513d60208110156114ae57600080fd5b505190506114bb81611648565b600954604080516316ce431360e31b815230600482015260248101859052604481018490526064810186905290516001600160a01b039092169163b67218989160848082019260009290919082900301818387803b158015610ae057600080fd5b611524611825565b60065460408051630178fe3f60e01b81526004810185905290516000926001600160a01b031691630178fe3f916024808301926020929190829003018186803b15801561157057600080fd5b505afa158015611584573d6000803e3d6000fd5b505050506040513d602081101561159a57600080fd5b505190506000808080806115ad86611742565b6040805160a08101825260ff909216825261ffff958616602083015263ffffffff909216918101919091529083166060820152911660808201529650505050505050919050565b60008060008061160385611773565b509450945050509250600060028461ffff168161161c57fe5b0460010161ffff1690508161ffff168361ffff16141561163f5760028104016001015b95945050505050565b80158015906116cc57506009546040805163c9a59e4760e01b81526004810184905290516001600160a01b039092169163c9a59e4791602480820192602092909190829003018186803b15801561169e57600080fd5b505afa1580156116b2573d6000803e3d6000fd5b505050506040513d60208110156116c857600080fd5b5051155b15611733576001600160a01b0381166000818152600d6020908152604080832062069780420190819055815193845291830182905280519193927fc24affdb20f6529973515c5398461c1f6228edbfac531ab49e56a11433a86c9f929081900390910190a2505b50565b600a9091046001010290565b61ffff60e882901c81169260a883901c82169260b881901c9092169163ffffffff60c882901c169160f89190911c90565b61ffff60e882901c81169260ff60e084901c169260f881901c9260d082901c81169260c083901c9091169163ffffffff1690565b828054600181600116156101000203166002900490600052602060002090601f016020900481019282601f106117e85782800160ff19823516178555611815565b82800160010185558215611815579182015b828111156118155782358255916020019190600101906117fa565b50611821929150611853565b5090565b6040805160a08101825260008082526020820181905291810182905260608101829052608081019190915290565b61186d91905b808211156118215760008155600101611859565b9056fea264697066735822122051d399f7f790d7699d0fd98cebd126c1ec56e03dcfd0b18bc417d3afde67ff5e64736f6c63430006050033",
  "devdoc": {
    "methods": {}
  },
  "userdoc": {
    "methods": {}
  },
  "storageLayout": {
    "storage": [
      {
        "astId": 2747,
        "contract": "src/dungeon/DungeonActionsFacet.sol:DungeonActionsFacet",
        "label": "_characters",
        "offset": 0,
        "slot": "0",
        "type": "t_mapping(t_uint256,t_struct(Character)2730_storage)"
      },
      {
        "astId": 2751,
        "contract": "src/dungeon/DungeonActionsFacet.sol:DungeonActionsFacet",
        "label": "_rooms",
        "offset": 0,
        "slot": "1",
        "type": "t_mapping(t_uint256,t_struct(Room)2713_storage)"
      },
      {
        "astId": 2755,
        "contract": "src/dungeon/DungeonActionsFacet.sol:DungeonActionsFacet",
        "label": "_areas",
        "offset": 0,
        "slot": "2",
        "type": "t_mapping(t_uint256,t_struct(Area)2743_storage)"
      },
      {
        "astId": 2762,
        "contract": "src/dungeon/DungeonActionsFacet.sol:DungeonActionsFacet",
        "label": "_areaCounter",
        "offset": 0,
        "slot": "3",
        "type": "t_struct(AreaCounter)2760_storage"
      },
      {
        "astId": 2764,
        "contract": "src/dungeon/DungeonActionsFacet.sol:DungeonActionsFacet",
        "label": "_adminContract",
        "offset": 0,
        "slot": "4",
        "type": "t_address"
      },
      {
        "astId": 2766,
        "contract": "src/dungeon/DungeonActionsFacet.sol:DungeonActionsFacet",
        "label": "_blockHashRegister",
        "offset": 0,
        "slot": "5",
        "type": "t_contract(BlockHashRegister)12961"
      },
      {
        "astId": 2768,
        "contract": "src/dungeon/DungeonActionsFacet.sol:DungeonActionsFacet",
        "label": "_charactersContract",
        "offset": 0,
        "slot": "6",
        "type": "t_contract(Characters)469"
      },
      {
        "astId": 2770,
        "contract": "src/dungeon/DungeonActionsFacet.sol:DungeonActionsFacet",
        "label": "_elementsContract",
        "offset": 0,
        "slot": "7",
        "type": "t_contract(Elements)12644"
      },
      {
        "astId": 2772,
        "contract": "src/dungeon/DungeonActionsFacet.sol:DungeonActionsFacet",
        "label": "_gearsContract",
        "offset": 0,
        "slot": "8",
        "type": "t_contract(Gears)12663"
      },
      {
        "astId": 2774,
        "contract": "src/dungeon/DungeonActionsFacet.sol:DungeonActionsFacet",
        "label": "_roomsContract",
        "offset": 0,
        "slot": "9",
        "type": "t_contract(Rooms)12730"
      },
      {
        "astId": 2776,
        "contract": "src/dungeon/DungeonActionsFacet.sol:DungeonActionsFacet",
        "label": "_playerContract",
        "offset": 0,
        "slot": "10",
        "type": "t_contract(Player)10512"
      },
      {
        "astId": 2784,
        "contract": "src/dungeon/DungeonActionsFacet.sol:DungeonActionsFacet",
        "label": "_unlockedExits",
        "offset": 0,
        "slot": "11",
        "type": "t_mapping(t_uint256,t_mapping(t_uint256,t_mapping(t_uint256,t_bool)))"
      },
      {
        "astId": 2795,
        "contract": "src/dungeon/DungeonActionsFacet.sol:DungeonActionsFacet",
        "label": "_quests",
        "offset": 0,
        "slot": "12",
        "type": "t_mapping(t_uint256,t_mapping(t_uint64,t_struct(Quest)2789_storage))"
      },
      {
        "astId": 2799,
        "contract": "src/dungeon/DungeonActionsFacet.sol:DungeonActionsFacet",
        "label": "_taxDueDate",
        "offset": 0,
        "slot": "13",
        "type": "t_mapping(t_address,t_uint256)"
      },
      {
        "astId": 2803,
        "contract": "src/dungeon/DungeonActionsFacet.sol:DungeonActionsFacet",
        "label": "_customRoomNames",
        "offset": 0,
        "slot": "14",
        "type": "t_mapping(t_uint256,t_string_storage)"
      }
    ],
    "types": {
      "t_address": {
        "encoding": "inplace",
        "label": "address",
        "numberOfBytes": "20"
      },
      "t_bool": {
        "encoding": "inplace",
        "label": "bool",
        "numberOfBytes": "1"
      },
      "t_contract(BlockHashRegister)12961": {
        "encoding": "inplace",
        "label": "contract BlockHashRegister",
        "numberOfBytes": "20"
      },
      "t_contract(Characters)469": {
        "encoding": "inplace",
        "label": "contract Characters",
        "numberOfBytes": "20"
      },
      "t_contract(Elements)12644": {
        "encoding": "inplace",
        "label": "contract Elements",
        "numberOfBytes": "20"
      },
      "t_contract(Gears)12663": {
        "encoding": "inplace",
        "label": "contract Gears",
        "numberOfBytes": "20"
      },
      "t_contract(Player)10512": {
        "encoding": "inplace",
        "label": "contract Player",
        "numberOfBytes": "20"
      },
      "t_contract(Rooms)12730": {
        "encoding": "inplace",
        "label": "contract Rooms",
        "numberOfBytes": "20"
      },
      "t_int64": {
        "encoding": "inplace",
        "label": "int64",
        "numberOfBytes": "8"
      },
      "t_mapping(t_address,t_uint256)": {
        "encoding": "mapping",
        "key": "t_address",
        "label": "mapping(address => uint256)",
        "numberOfBytes": "32",
        "value": "t_uint256"
      },
      "t_mapping(t_uint256,t_bool)": {
        "encoding": "mapping",
        "key": "t_uint256",
        "label": "mapping(uint256 => bool)",
        "numberOfBytes": "32",
        "value": "t_bool"
      },
      "t_mapping(t_uint256,t_mapping(t_uint256,t_bool))": {
        "encoding": "mapping",
        "key": "t_uint256",
        "label": "mapping(uint256 => mapping(uint256 => bool))",
        "numberOfBytes": "32",
        "value": "t_mapping(t_uint256,t_bool)"
      },
      "t_mapping(t_uint256,t_mapping(t_uint256,t_mapping(t_uint256,t_bool)))": {
        "encoding": "mapping",
        "key": "t_uint256",
        "label": "mapping(uint256 => mapping(uint256 => mapping(uint256 => bool)))",
        "numberOfBytes": "32",
        "value": "t_mapping(t_uint256,t_mapping(t_uint256,t_bool))"
      },
      "t_mapping(t_uint256,t_mapping(t_uint64,t_struct(Quest)2789_storage))": {
        "encoding": "mapping",
        "key": "t_uint256",
        "label": "mapping(uint256 => mapping(uint64 => struct DungeonDataLayout.Quest))",
        "numberOfBytes": "32",
        "value": "t_mapping(t_uint64,t_struct(Quest)2789_storage)"
      },
      "t_mapping(t_uint256,t_string_storage)": {
        "encoding": "mapping",
        "key": "t_uint256",
        "label": "mapping(uint256 => string)",
        "numberOfBytes": "32",
        "value": "t_string_storage"
      },
      "t_mapping(t_uint256,t_struct(Area)2743_storage)": {
        "encoding": "mapping",
        "key": "t_uint256",
        "label": "mapping(uint256 => struct DungeonDataLayout.Area)",
        "numberOfBytes": "32",
        "value": "t_struct(Area)2743_storage"
      },
      "t_mapping(t_uint256,t_struct(Character)2730_storage)": {
        "encoding": "mapping",
        "key": "t_uint256",
        "label": "mapping(uint256 => struct DungeonDataLayout.Character)",
        "numberOfBytes": "32",
        "value": "t_struct(Character)2730_storage"
      },
      "t_mapping(t_uint256,t_struct(Room)2713_storage)": {
        "encoding": "mapping",
        "key": "t_uint256",
        "label": "mapping(uint256 => struct DungeonDataLayout.Room)",
        "numberOfBytes": "32",
        "value": "t_struct(Room)2713_storage"
      },
      "t_mapping(t_uint64,t_struct(Quest)2789_storage)": {
        "encoding": "mapping",
        "key": "t_uint64",
        "label": "mapping(uint64 => struct DungeonDataLayout.Quest)",
        "numberOfBytes": "32",
        "value": "t_struct(Quest)2789_storage"
      },
      "t_string_storage": {
        "encoding": "bytes",
        "label": "string",
        "numberOfBytes": "32"
      },
      "t_struct(Area)2743_storage": {
        "encoding": "inplace",
        "label": "struct DungeonDataLayout.Area",
        "members": [
          {
            "astId": 2732,
            "contract": "src/dungeon/DungeonActionsFacet.sol:DungeonActionsFacet",
            "label": "areaType",
            "offset": 0,
            "slot": "0",
            "type": "t_uint8"
          },
          {
            "astId": 2734,
            "contract": "src/dungeon/DungeonActionsFacet.sol:DungeonActionsFacet",
            "label": "discovered",
            "offset": 1,
            "slot": "0",
            "type": "t_uint8"
          },
          {
            "astId": 2736,
            "contract": "src/dungeon/DungeonActionsFacet.sol:DungeonActionsFacet",
            "label": "lastRoomIndex",
            "offset": 2,
            "slot": "0",
            "type": "t_uint8"
          },
          {
            "astId": 2738,
            "contract": "src/dungeon/DungeonActionsFacet.sol:DungeonActionsFacet",
            "label": "currentIndex",
            "offset": 3,
            "slot": "0",
            "type": "t_uint8"
          },
          {
            "astId": 2740,
            "contract": "src/dungeon/DungeonActionsFacet.sol:DungeonActionsFacet",
            "label": "lastRoom",
            "offset": 0,
            "slot": "1",
            "type": "t_uint256"
          },
          {
            "astId": 2742,
            "contract": "src/dungeon/DungeonActionsFacet.sol:DungeonActionsFacet",
            "label": "eventBlockNumber",
            "offset": 0,
            "slot": "2",
            "type": "t_uint64"
          }
        ],
        "numberOfBytes": "96"
      },
      "t_struct(AreaCounter)2760_storage": {
        "encoding": "inplace",
        "label": "struct DungeonDataLayout.AreaCounter",
        "members": [
          {
            "astId": 2757,
            "contract": "src/dungeon/DungeonActionsFacet.sol:DungeonActionsFacet",
            "label": "lastPeriod",
            "offset": 0,
            "slot": "0",
            "type": "t_uint64"
          },
          {
            "astId": 2759,
            "contract": "src/dungeon/DungeonActionsFacet.sol:DungeonActionsFacet",
            "label": "numAreas",
            "offset": 8,
            "slot": "0",
            "type": "t_uint64"
          }
        ],
        "numberOfBytes": "32"
      },
      "t_struct(Character)2730_storage": {
        "encoding": "inplace",
        "label": "struct DungeonDataLayout.Character",
        "members": [
          {
            "astId": 2715,
            "contract": "src/dungeon/DungeonActionsFacet.sol:DungeonActionsFacet",
            "label": "location",
            "offset": 0,
            "slot": "0",
            "type": "t_uint256"
          },
          {
            "astId": 2717,
            "contract": "src/dungeon/DungeonActionsFacet.sol:DungeonActionsFacet",
            "label": "direction",
            "offset": 0,
            "slot": "1",
            "type": "t_uint8"
          },
          {
            "astId": 2719,
            "contract": "src/dungeon/DungeonActionsFacet.sol:DungeonActionsFacet",
            "label": "floors",
            "offset": 1,
            "slot": "1",
            "type": "t_int64"
          },
          {
            "astId": 2721,
            "contract": "src/dungeon/DungeonActionsFacet.sol:DungeonActionsFacet",
            "label": "slot_1",
            "offset": 0,
            "slot": "2",
            "type": "t_uint256"
          },
          {
            "astId": 2723,
            "contract": "src/dungeon/DungeonActionsFacet.sol:DungeonActionsFacet",
            "label": "slot_2",
            "offset": 0,
            "slot": "3",
            "type": "t_uint256"
          },
          {
            "astId": 2725,
            "contract": "src/dungeon/DungeonActionsFacet.sol:DungeonActionsFacet",
            "label": "slot_3",
            "offset": 0,
            "slot": "4",
            "type": "t_uint256"
          },
          {
            "astId": 2727,
            "contract": "src/dungeon/DungeonActionsFacet.sol:DungeonActionsFacet",
            "label": "slot_4",
            "offset": 0,
            "slot": "5",
            "type": "t_uint256"
          },
          {
            "astId": 2729,
            "contract": "src/dungeon/DungeonActionsFacet.sol:DungeonActionsFacet",
            "label": "slot_5",
            "offset": 0,
            "slot": "6",
            "type": "t_uint256"
          }
        ],
        "numberOfBytes": "224"
      },
      "t_struct(Quest)2789_storage": {
        "encoding": "inplace",
        "label": "struct DungeonDataLayout.Quest",
        "members": [
          {
            "astId": 2786,
            "contract": "src/dungeon/DungeonActionsFacet.sol:DungeonActionsFacet",
            "label": "status",
            "offset": 0,
            "slot": "0",
            "type": "t_uint8"
          },
          {
            "astId": 2788,
            "contract": "src/dungeon/DungeonActionsFacet.sol:DungeonActionsFacet",
            "label": "data",
            "offset": 0,
            "slot": "1",
            "type": "t_string_storage"
          }
        ],
        "numberOfBytes": "64"
      },
      "t_struct(Room)2713_storage": {
        "encoding": "inplace",
        "label": "struct DungeonDataLayout.Room",
        "members": [
          {
            "astId": 2692,
            "contract": "src/dungeon/DungeonActionsFacet.sol:DungeonActionsFacet",
            "label": "blockNumber",
            "offset": 0,
            "slot": "0",
            "type": "t_uint64"
          },
          {
            "astId": 2694,
            "contract": "src/dungeon/DungeonActionsFacet.sol:DungeonActionsFacet",
            "label": "monsterBlockNumber",
            "offset": 8,
            "slot": "0",
            "type": "t_uint64"
          },
          {
            "astId": 2696,
            "contract": "src/dungeon/DungeonActionsFacet.sol:DungeonActionsFacet",
            "label": "numActiveCharacters",
            "offset": 16,
            "slot": "0",
            "type": "t_uint64"
          },
          {
            "astId": 2698,
            "contract": "src/dungeon/DungeonActionsFacet.sol:DungeonActionsFacet",
            "label": "direction",
            "offset": 24,
            "slot": "0",
            "type": "t_uint8"
          },
          {
            "astId": 2700,
            "contract": "src/dungeon/DungeonActionsFacet.sol:DungeonActionsFacet",
            "label": "exits",
            "offset": 25,
            "slot": "0",
            "type": "t_uint8"
          },
          {
            "astId": 2702,
            "contract": "src/dungeon/DungeonActionsFacet.sol:DungeonActionsFacet",
            "label": "kind",
            "offset": 26,
            "slot": "0",
            "type": "t_uint8"
          },
          {
            "astId": 2704,
            "contract": "src/dungeon/DungeonActionsFacet.sol:DungeonActionsFacet",
            "label": "areaAtDiscovery",
            "offset": 27,
            "slot": "0",
            "type": "t_uint8"
          },
          {
            "astId": 2706,
            "contract": "src/dungeon/DungeonActionsFacet.sol:DungeonActionsFacet",
            "label": "lastRoomIndex",
            "offset": 28,
            "slot": "0",
            "type": "t_uint8"
          },
          {
            "astId": 2708,
            "contract": "src/dungeon/DungeonActionsFacet.sol:DungeonActionsFacet",
            "label": "index",
            "offset": 29,
            "slot": "0",
            "type": "t_uint8"
          },
          {
            "astId": 2710,
            "contract": "src/dungeon/DungeonActionsFacet.sol:DungeonActionsFacet",
            "label": "discoverer",
            "offset": 0,
            "slot": "1",
            "type": "t_uint256"
          },
          {
            "astId": 2712,
            "contract": "src/dungeon/DungeonActionsFacet.sol:DungeonActionsFacet",
            "label": "randomEvent",
            "offset": 0,
            "slot": "2",
            "type": "t_uint64"
          }
        ],
        "numberOfBytes": "96"
      },
      "t_uint256": {
        "encoding": "inplace",
        "label": "uint256",
        "numberOfBytes": "32"
      },
      "t_uint64": {
        "encoding": "inplace",
        "label": "uint64",
        "numberOfBytes": "8"
      },
      "t_uint8": {
        "encoding": "inplace",
        "label": "uint8",
        "numberOfBytes": "1"
      }
    }
  }
}