{
  "abi": [
    {
      "anonymous": false,
      "inputs": [
        {
          "indexed": true,
          "internalType": "uint256",
          "name": "characterId",
          "type": "uint256"
        },
        {
          "indexed": true,
          "internalType": "uint256",
          "name": "oldLocation",
          "type": "uint256"
        },
        {
          "indexed": true,
          "internalType": "uint256",
          "name": "newLocation",
          "type": "uint256"
        },
        {
          "indexed": false,
          "internalType": "uint8",
          "name": "mode",
          "type": "uint8"
        },
        {
          "indexed": false,
          "internalType": "uint256",
          "name": "path",
          "type": "uint256"
        }
      ],
      "name": "CharacterMoved",
      "type": "event"
    },
    {
      "anonymous": false,
      "inputs": [
        {
          "indexed": true,
          "internalType": "uint256",
          "name": "characterId",
          "type": "uint256"
        },
        {
          "indexed": false,
          "internalType": "uint256",
          "name": "monsterId",
          "type": "uint256"
        }
      ],
      "name": "Death",
      "type": "event"
    },
    {
      "anonymous": false,
      "inputs": [
        {
          "indexed": true,
          "internalType": "uint256",
          "name": "characterId",
          "type": "uint256"
        },
        {
          "indexed": true,
          "internalType": "address",
          "name": "player",
          "type": "address"
        },
        {
          "indexed": false,
          "internalType": "string",
          "name": "name",
          "type": "string"
        }
      ],
      "name": "Enter",
      "type": "event"
    },
    {
      "anonymous": false,
      "inputs": [
        {
          "indexed": false,
          "internalType": "uint256",
          "name": "characterId",
          "type": "uint256"
        },
        {
          "indexed": false,
          "internalType": "uint256",
          "name": "gearId",
          "type": "uint256"
        },
        {
          "indexed": false,
          "internalType": "uint8",
          "name": "slotType",
          "type": "uint8"
        }
      ],
      "name": "Equip",
      "type": "event"
    },
    {
      "anonymous": false,
      "inputs": [
        {
          "indexed": true,
          "internalType": "uint256",
          "name": "characterId",
          "type": "uint256"
        },
        {
          "indexed": false,
          "internalType": "uint16",
          "name": "hp",
          "type": "uint16"
        }
      ],
      "name": "Heal",
      "type": "event"
    },
    {
      "anonymous": false,
      "inputs": [
        {
          "indexed": true,
          "internalType": "uint256",
          "name": "characterId",
          "type": "uint256"
        },
        {
          "indexed": false,
          "internalType": "uint16",
          "name": "newLevel",
          "type": "uint16"
        }
      ],
      "name": "LevelUp",
      "type": "event"
    },
    {
      "anonymous": false,
      "inputs": [
        {
          "indexed": true,
          "internalType": "uint256",
          "name": "characterId",
          "type": "uint256"
        },
        {
          "indexed": true,
          "internalType": "uint64",
          "name": "id",
          "type": "uint64"
        },
        {
          "indexed": true,
          "internalType": "uint8",
          "name": "status",
          "type": "uint8"
        },
        {
          "indexed": false,
          "internalType": "string",
          "name": "data",
          "type": "string"
        }
      ],
      "name": "QuestUpdate",
      "type": "event"
    },
    {
      "anonymous": false,
      "inputs": [
        {
          "indexed": true,
          "internalType": "uint256",
          "name": "areaLocation",
          "type": "uint256"
        },
        {
          "indexed": false,
          "internalType": "uint64",
          "name": "blockNumber",
          "type": "uint64"
        }
      ],
      "name": "RandomEvent",
      "type": "event"
    },
    {
      "anonymous": false,
      "inputs": [
        {
          "indexed": true,
          "internalType": "uint256",
          "name": "characterId",
          "type": "uint256"
        },
        {
          "indexed": false,
          "internalType": "uint256",
          "name": "gearId",
          "type": "uint256"
        }
      ],
      "name": "Recycle",
      "type": "event"
    },
    {
      "anonymous": false,
      "inputs": [
        {
          "indexed": true,
          "internalType": "uint256",
          "name": "deadCharacterId",
          "type": "uint256"
        },
        {
          "indexed": false,
          "internalType": "uint256",
          "name": "newCharacterId",
          "type": "uint256"
        }
      ],
      "name": "Resurrect",
      "type": "event"
    },
    {
      "anonymous": false,
      "inputs": [
        {
          "indexed": true,
          "internalType": "uint256",
          "name": "location",
          "type": "uint256"
        },
        {
          "indexed": false,
          "internalType": "bytes32",
          "name": "blockHash",
          "type": "bytes32"
        },
        {
          "indexed": false,
          "internalType": "uint8",
          "name": "exits",
          "type": "uint8"
        },
        {
          "indexed": false,
          "internalType": "uint8",
          "name": "kind",
          "type": "uint8"
        }
      ],
      "name": "RoomActualised",
      "type": "event"
    },
    {
      "anonymous": false,
      "inputs": [
        {
          "indexed": true,
          "internalType": "uint256",
          "name": "location",
          "type": "uint256"
        },
        {
          "indexed": false,
          "internalType": "uint64",
          "name": "blockNumber",
          "type": "uint64"
        },
        {
          "indexed": false,
          "internalType": "uint8",
          "name": "direction",
          "type": "uint8"
        }
      ],
      "name": "RoomDiscovered",
      "type": "event"
    },
    {
      "anonymous": false,
      "inputs": [
        {
          "indexed": true,
          "internalType": "uint256",
          "name": "location",
          "type": "uint256"
        },
        {
          "indexed": true,
          "internalType": "address",
          "name": "owner",
          "type": "address"
        },
        {
          "indexed": false,
          "internalType": "uint256",
          "name": "id",
          "type": "uint256"
        },
        {
          "indexed": false,
          "internalType": "uint256",
          "name": "amount",
          "type": "uint256"
        }
      ],
      "name": "RoomIncome",
      "type": "event"
    },
    {
      "anonymous": false,
      "inputs": [
        {
          "indexed": true,
          "internalType": "uint256",
          "name": "location",
          "type": "uint256"
        },
        {
          "indexed": false,
          "internalType": "string",
          "name": "name",
          "type": "string"
        },
        {
          "indexed": false,
          "internalType": "uint256",
          "name": "characterId",
          "type": "uint256"
        }
      ],
      "name": "RoomName",
      "type": "event"
    },
    {
      "anonymous": false,
      "inputs": [
        {
          "indexed": true,
          "internalType": "address",
          "name": "owner",
          "type": "address"
        },
        {
          "indexed": false,
          "internalType": "uint256",
          "name": "tax",
          "type": "uint256"
        },
        {
          "indexed": false,
          "internalType": "uint256",
          "name": "newDueDate",
          "type": "uint256"
        }
      ],
      "name": "RoomTaxPay",
      "type": "event"
    },
    {
      "inputs": [
        {
          "internalType": "uint256",
          "name": "characterId",
          "type": "uint256"
        },
        {
          "internalType": "uint16",
          "name": "hp",
          "type": "uint16"
        }
      ],
      "name": "heal",
      "outputs": [],
      "stateMutability": "nonpayable",
      "type": "function"
    },
    {
      "inputs": [
        {
          "internalType": "uint256",
          "name": "characterId",
          "type": "uint256"
        }
      ],
      "name": "levelUp",
      "outputs": [],
      "stateMutability": "nonpayable",
      "type": "function"
    },
    {
      "inputs": [
        {
          "internalType": "uint256",
          "name": "characterId",
          "type": "uint256"
        },
        {
          "internalType": "uint256[]",
          "name": "gearIds",
          "type": "uint256[]"
        },
        {
          "internalType": "uint8[]",
          "name": "slots",
          "type": "uint8[]"
        }
      ],
      "name": "multiEquip",
      "outputs": [],
      "stateMutability": "nonpayable",
      "type": "function"
    },
    {
      "inputs": [
        {
          "internalType": "uint256",
          "name": "characterId",
          "type": "uint256"
        }
      ],
      "name": "resurrectFrom",
      "outputs": [],
      "stateMutability": "nonpayable",
      "type": "function"
    }
  ],
  "address": "0x486903552e6C763Ac4aC3702003fbd6FCB2e289e",
  "args": [],
  "bytecode": "0x608060405234801561001057600080fd5b50612cd5806100206000396000f3fe608060405234801561001057600080fd5b506004361061004c5760003560e01c80630ce90ec2146100515780632227990014610070578063d0604dd714610097578063f474541f146100b4575b600080fd5b61006e6004803603602081101561006757600080fd5b503561017d565b005b61006e6004803603604081101561008657600080fd5b508035906020013561ffff1661046e565b61006e600480360360208110156100ad57600080fd5b5035610710565b61006e600480360360608110156100ca57600080fd5b813591908101906040810160208201356401000000008111156100ec57600080fd5b8201836020820111156100fe57600080fd5b8035906020019184602083028401116401000000008311171561012057600080fd5b91939092909160208101903564010000000081111561013e57600080fd5b82018360208201111561015057600080fd5b8035906020019184602083028401116401000000008311171561017257600080fd5b509092509050610ae9565b600a546001600160a01b031633146101d3576040805162461bcd60e51b81526020600482015260146024820152731bdb9b1e481c1b185e595c9cc8185b1b1bddd95960621b604482015290519081900360640190fd5b600560009054906101000a90046001600160a01b03166001600160a01b03166342dad49e6040518163ffffffff1660e01b8152600401600060405180830381600087803b15801561022357600080fd5b505af1158015610237573d6000803e3d6000fd5b5050506000828152602081905260409020805490915061025690610c00565b61025e612c1d565b61026783610f72565b90506009816020015161ffff16106102be576040805162461bcd60e51b81526020600482015260156024820152746f6e6c792039206c6576656c7320666f72206e6f7760581b604482015290519081900360640190fd5b6000816080015161ffff1611610314576040805162461bcd60e51b81526020600482015260166024820152751e5bdd5c8818da185c9858dd195c881a5cc81919585960521b604482015290519081900360640190fd5b60208101805160010161ffff1690819052600090819081906103359061104b565b60608701805160ff83160161ffff90811691829052608089019190915260408801519396509194509250841663ffffffff90911610156103ac576040805162461bcd60e51b815260206004820152600d60248201526c06e6f7420656e6f75676820787609c1b604482015290519081900360640190fd5b6007546040805163c9b902e360e01b815260048101899052600660248201526044810185905290516001600160a01b039092169163c9b902e39160648082019260009290919082900301818387803b15801561040757600080fd5b505af115801561041b573d6000803e3d6000fd5b505050506104298685611116565b6020808501516040805161ffff90921682525188927ff9c0df78f5971a6ba2a9b0be5ece0fa71b8c42571ddc8c7cebc6807816bdc773928290030190a2505050505050565b600a546001600160a01b031633146104c4576040805162461bcd60e51b81526020600482015260146024820152731bdb9b1e481c1b185e595c9cc8185b1b1bddd95960621b604482015290519081900360640190fd5b60008161ffff161161051d576040805162461bcd60e51b815260206004820152601a60248201527f796f75206861766520746f206865616c20736f6d657468696e67000000000000604482015290519081900360640190fd5b600560009054906101000a90046001600160a01b03166001600160a01b03166342dad49e6040518163ffffffff1660e01b8152600401600060405180830381600087803b15801561056d57600080fd5b505af1158015610581573d6000803e3d6000fd5b5050505061058d612c1d565b61059683610f72565b90506000816080015161ffff16116105ee576040805162461bcd60e51b81526020600482015260166024820152751e5bdd5c8818da185c9858dd195c881a5cc81919585960521b604482015290519081900360640190fd5b60008381526020819052604090205461060681610c00565b600081815260016020526040902054600160d01b900460ff16600314610673576040805162461bcd60e51b815260206004820152601760248201527f63757272656e7420726f6f6d206e6f742074656d706c65000000000000000000604482015290519081900360640190fd5b600061068c836080015184606001518661ffff166111d7565b9050600061069f84608001518303611223565b90506106ae868460068461122a565b61ffff821660808501526106c28685611116565b857fb572bcfe7c1f09d996241a68f1d4c1eac6f97533ddff5bdf47aaa2ac9730292a85608001518403604051808261ffff1661ffff16815260200191505060405180910390a2505050505050565b600a546001600160a01b03163314610766576040805162461bcd60e51b81526020600482015260146024820152731bdb9b1e481c1b185e595c9cc8185b1b1bddd95960621b604482015290519081900360640190fd5b600560009054906101000a90046001600160a01b03166001600160a01b03166342dad49e6040518163ffffffff1660e01b8152600401600060405180830381600087803b1580156107b657600080fd5b505af11580156107ca573d6000803e3d6000fd5b505050600082815260208190526040902080549091506107e981610c00565b6107f1612c1d565b6107fa84610f72565b9050806080015161ffff16600014610851576040805162461bcd60e51b815260206004820152601560248201527418da185c9858dd195c881a5cc81b9bdd0819195859605a1b604482015290519081900360640190fd5b60065460408051630607176160e31b81526004810187905290516000926001600160a01b031691633038bb08916024808301926020929190829003018186803b15801561089d57600080fd5b505afa1580156108b1573d6000803e3d6000fd5b505050506040513d60208110156108c757600080fd5b505160065460408051637fbddc4760e01b81526004810189905260006024820181905291519394506001600160a01b0390921692637fbddc4792604480820193929182900301818387803b15801561091e57600080fd5b505af1158015610932573d6000803e3d6000fd5b50506006546040805163140e25ad60e31b815260006004820181905291519194506001600160a01b03909216925063a0712d689160248082019260209290919082900301818787803b15801561098757600080fd5b505af115801561099b573d6000803e3d6000fd5b505050506040513d60208110156109b157600080fd5b505160208401519091506000906109c79061104b565b505061ffff8082166040870152606086015116608086015290506109eb8285611116565b6109f482611483565b600186810154600084815260208190526040808220909301805468ffffffffffffffff0019166001600160401b0361010094859004600790810b900b169093029290921790915560065482516323b872dd60e01b81523060048201526001600160a01b03878116602483015260448201879052935193909116926323b872dd9260648084019391929182900301818387803b158015610a9257600080fd5b505af1158015610aa6573d6000803e3d6000fd5b50506040805185815290518a93507f9864b8944e5b257db2545835b30ecab5f0bb520af28a793c225ce15f52e64bce92509081900360200190a250505050505050565b600a546001600160a01b03163314610b3f576040805162461bcd60e51b81526020600482015260146024820152731bdb9b1e481c1b185e595c9cc8185b1b1bddd95960621b604482015290519081900360640190fd5b610b47612c1d565b610b5086610f72565b90506000816080015161ffff1611610ba8576040805162461bcd60e51b81526020600482015260166024820152751e5bdd5c8818da185c9858dd195c881a5cc81919585960521b604482015290519081900360640190fd5b60005b84811015610bf757610bef8783602001518460000151898986818110610bcd57fe5b90506020020135888887818110610be057fe5b9050602002013560ff166115d1565b600101610bab565b50505050505050565b600081815260016020526040902080546001600160401b0316610c61576040805162461bcd60e51b81526020600482015260146024820152731c9bdbdb481b9bdd0818dc99585d1959081e595d60621b604482015290519081900360640190fd5b8054600160d01b900460ff16610f5c57600554815460408051634a83e9cd60e11b81526001600160401b039092166004830152516000926001600160a01b031691639507d39a916024808301926020929190829003018186803b158015610cc757600080fd5b505afa158015610cdb573d6000803e3d6000fd5b505050506040513d6020811015610cf157600080fd5b5051905080610d01575050610f6f565b610d0b838261195e565b815460009081908190610d49908790869060ff600160c01b8204811691600160d81b8104821691600160e01b8204811691600160e81b900416611a4e565b875460ff808416600160d01b0260ff60d01b19918616600160c81b0260ff60c81b199093169290921716178855919450925090506000610d8887611a7f565b600081815260026020526040902080549192509060ff8481166101009092041614610dc057805461ff00191661010060ff8516021781555b6040805187815260ff8088166020830152861681830152905189917f8850140926f0260fe1b422b7a0d93e7d5734e521eae9ac8969ed512cc3834515919081900360600190a2600082815260026020526040902054600188015460ff9091169015610f5457610e2d612c1d565b610e3a8960010154610f72565b9050600080610e4e8c8b8560000151611b17565b9150915060058460ff1611610ed85760075460018c0154604080516302acc94b60e01b8152600481019290925260ff8716602483015260448201849052516001600160a01b03909216916302acc94b9160648082019260009290919082900301818387803b158015610ebf57600080fd5b505af1158015610ed3573d6000803e3d6000fd5b505050505b60075460018c0154604080516302acc94b60e01b815260048101929092526006602483015260448201859052516001600160a01b03909216916302acc94b9160648082019260009290919082900301818387803b158015610f3857600080fd5b505af1158015610f4c573d6000803e3d6000fd5b505050505050505b505050505050505b610f6d610f6883611a7f565b611c13565b505b50565b610f7a612c1d565b60065460408051630178fe3f60e01b81526004810185905290516000926001600160a01b031691630178fe3f916024808301926020929190829003018186803b158015610fc657600080fd5b505afa158015610fda573d6000803e3d6000fd5b505050506040513d6020811015610ff057600080fd5b5051905060008080808061100386611d80565b6040805160a08101825260ff909216825261ffff958616602083015263ffffffff9092169181019190915290831660608201529116608082015296505050505050505b919050565b6000806000611058612c4b565b50604080516101608101825260008152600a60208201526031918101919091526077606082015260d0608082015261014860a082015261020c60c082015261033a60e08201526104f5610100820152610e46610120820152611aee6101408201528061ffff8616600b81106110c957fe5b6020020151935060088561ffff1611156110e7576101ec925061110a565b600560038660010161ffff160a61ffff16816110ff57fe5b0460080161ffff1692505b600a9150509193909250565b600060a8826080015161ffff16901b60b8836060015161ffff16901b60c8846040015163ffffffff16901b60e8856020015161ffff16901b60f8866000015160ff16901b010101019050600660009054906101000a90046001600160a01b03166001600160a01b0316634848b1a584836040518363ffffffff1660e01b81526004018083815260200182815260200192505050600060405180830381600087803b1580156111c357600080fd5b505af1158015610bf7573d6000803e3d6000fd5b600080828561ffff160190508361ffff1660070b8160070b13156111fe578391505061121c565b60008160070b1361121357600091505061121c565b905061121c565b505b9392505050565b61ffff1690565b600061123584611db1565b90506001600160a01b038116156114085760058204801561138e57600754604080516311aa10fb60e01b815260048101899052600060248201819052604482018890526064820185905291516001600160a01b03909316926311aa10fb9260848084019391929182900301818387803b1580156112b157600080fd5b505af11580156112c5573d6000803e3d6000fd5b505060075460408051637f4c824d60e11b81523060048201526001600160a01b038781166024830152604482018a905260648201879052915191909216935063fe99049a9250608480830192600092919082900301818387803b15801561132b57600080fd5b505af115801561133f573d6000803e3d6000fd5b50505050816001600160a01b0316857f41d17e4a29add7df9dab104b7b914e73209c448b1fd78b8ca04efc5e24df1abb8684604051808381526020018281526020019250505060405180910390a35b6007546040805163c9b902e360e01b81526004810189905260248101879052838603604482015290516001600160a01b039092169163c9b902e39160648082019260009290919082900301818387803b1580156113ea57600080fd5b505af11580156113fe573d6000803e3d6000fd5b505050505061147c565b6007546040805163c9b902e360e01b815260048101889052602481018690526044810185905290516001600160a01b039092169163c9b902e39160648082019260009290919082900301818387803b15801561146357600080fd5b505af1158015611477573d6000803e3d6000fd5b505050505b5050505050565b6000611497600080600f600a806001611e48565b905060006114ae60006001600f600a806004611e48565b60085460408051630d9778e560e11b8152600481018790526024810186905290519293506000926001600160a01b0390921691631b2ef1ca9160448082019260209290919082900301818787803b15801561150857600080fd5b505af115801561151c573d6000803e3d6000fd5b505050506040513d602081101561153257600080fd5b505190506115448460008084816115d1565b60085460408051630d9778e560e11b8152600481018790526024810185905290516000926001600160a01b031691631b2ef1ca91604480830192602092919082900301818787803b15801561159857600080fd5b505af11580156115ac573d6000803e3d6000fd5b505050506040513d60208110156115c257600080fd5b5051905061147c856000808460015b6115d9612c6a565b6115e283611e9c565b90508461ffff16816000015161ffff16111561163b576040805162461bcd60e51b81526020600482015260136024820152720cecac2e44098caeccad840e8dede40d0d2ced606b1b604482015290519081900360640190fd5b8360ff16816040015160ff16901c60011660ff1660001415611694576040805162461bcd60e51b815260206004820152600d60248201526c696e76616c696420636c61737360981b604482015290519081900360640190fd5b60ff821661170f57602081015160ff16156116f6576040805162461bcd60e51b815260206004820152601a60248201527f6f6e6c792061747461636b2067656172206f6e20736c6f742030000000000000604482015290519081900360640190fd5b600086815260208190526040902060020183905561190f565b8160ff166001141561179057806020015160ff16600114611777576040805162461bcd60e51b815260206004820152601b60248201527f6f6e6c7920646566656e73652067656172206f6e20736c6f7420310000000000604482015290519081900360640190fd5b600086815260208190526040902060030183905561190f565b8160ff166002141561181157806020015160ff166002146117f8576040805162461bcd60e51b815260206004820152601a60248201527f6f6e6c79206163636573736f72696573206f6e20736c6f742032000000000000604482015290519081900360640190fd5b600086815260208190526040902060040183905561190f565b8160ff166003141561189257806020015160ff16600214611879576040805162461bcd60e51b815260206004820152601a60248201527f6f6e6c79206163636573736f72696573206f6e20736c6f742033000000000000604482015290519081900360640190fd5b600086815260208190526040902060050183905561190f565b8160ff166004141561190f57806020015160ff166002146118fa576040805162461bcd60e51b815260206004820152601a60248201527f6f6e6c79206163636573736f72696573206f6e20736c6f742034000000000000604482015290519081900360640190fd5b60008681526020819052604090206006018390555b6020808201516040805189815292830186905260ff90911682820152517f9661c1f94255e8f19fda183859db8ad335498fb1e361acc4bd925a68d1bcaf819181900360600190a1505050505050565b600061196983611a7f565b60008181526002602052604090205490915060ff1680611a4857600354600160401b90046001600160401b03166119a1838583611f7d565b6000848152600260205260409020805460ff191660ff831690811790915590925060061461147c57600354620143704204906001600160401b03808316911614611a1c5760038054600160401b67ffffffffffffffff199091166001600160401b0384161767ffffffffffffffff60401b1916179055611a45565b6003805467ffffffffffffffff60401b1916600160401b600185016001600160401b0316021790555b50505b50505050565b6000806000611a5e89898961205e565b9250611a6d8989888888612423565b939a9099509297509195505050505050565b600080600080611a8e85612750565b509250925092506000808460070b12611ab1575060096004840160070b05611acb565b60098460000360040160070b81611ac457fe5b0560000390505b6000808460070b12611ae7575060096004840160070b05611b01565b60098460000360040160070b81611afa57fe5b0560000390505b611b0c82828561276b565b979650505050505050565b6000806000611b27866000612794565b90506019810480611b36575060015b6040805160208082018a9052818301899052601960fa1b60608301528251604181840301815260619092019092528051910120819081611b7257fe5b066002820401925082611b8457600192505b600260ff86161415611b995760048304830192505b6008811115611ba6575060085b6040805160208082018a9052818301899052606560f81b60608301528251604181840301815260619092019092528051910120819081611be257fe5b066002820401935083611bf457600193505b600160ff86161415611c095760048404840193505b5050935093915050565b6000818152600260208190526040909120908101546001600160401b03168015611d7b5760055460408051634a83e9cd60e11b81526001600160401b038416600482015290516000926001600160a01b031691639507d39a916024808301926020929190829003018186803b158015611c8b57600080fd5b505afa158015611c9f573d6000803e3d6000fd5b505050506040513d6020811015611cb557600080fd5b5051905080611cc657505050610f6f565b600080611cd38684612832565b915091506000611ce2836128b7565b60008481526001602052604090206002810154919250906001600160401b0316158015611d1e57508054600160801b90046001600160401b0316155b8015611d28575081155b8015611d3e57508054600160d01b900460ff1615155b15611d625760028101805467ffffffffffffffff19166001600160401b0385161790555b50505060028401805467ffffffffffffffff1916905550505b505050565b61ffff60e882901c81169260a883901c82169260b881901c9092169163ffffffff60c882901c169160f89190911c90565b6000611dbc826129bb565b15611e4057600954604080516369f648a160e01b81526004810185905290516001600160a01b03909216916369f648a191602480820192602092909190829003018186803b158015611e0d57600080fd5b505afa158015611e21573d6000803e3d6000fd5b505050506040513d6020811015611e3757600080fd5b50519050611046565b506000611046565b6001600160f81b031960f885901b1661ffff60e81b60e888901b160160ff60e01b60e087901b160161ffff60d01b60d085901b160161ffff60c01b60c084901b160163ffffffff8216019695505050505050565b611ea4612c6a565b60085460408051630178fe3f60e01b81526004810185905290516000926001600160a01b031691630178fe3f916024808301926020929190829003018186803b158015611ef057600080fd5b505afa158015611f04573d6000803e3d6000fd5b505050506040513d6020811015611f1a57600080fd5b5051905060008080808080611f2e87612a4b565b6040805160c08101825261ffff978816815260ff968716602082015294909516948401949094529084166060830152909216608083015263ffffffff1660a08201529998505050505050505050565b6000611f8884612a7f565b80611f9d5750600a6001600160401b03831610155b15611faa5750600661121c565b6000611fb585612ad5565b6009026001600160401b031690506000811115611fd157600319015b6019811061205357604080516020808201889052818301879052600360fa1b60608301528251604181840301815260619092019092528051910120606461271090910660ff161180159061204857600061202a87612750565b509250505060058160070b8161203c57fe5b0760010193505061204d565b600692505b5061121a565b506006949350505050565b600080600460ff841614156120755750600f61225d565b604080516020808201889052818301879052600160f81b606083015282516041818403018152606190920190925280519101206064900660ff16605711156120c0575060ff821660020a5b604080516020808201889052818301879052600160f91b606083015282516041818403018152606190920190925280519101206064900660ff166028111561225d57604080516020808201889052818301879052600360f81b606083015282516041818403018152606190920190925280519101206064900660ff16601911156121875760ff831615806121575750600260ff8416145b1561216457600a17612182565b600160ff841614806121795750600360ff8416145b15612182576005175b61225d565b604080516020808201889052818301879052600360f81b606083015282516041818403018152606190920190925280519101206064900660ff16603211156122155760ff83166121d957600817612182565b600160ff841614156121ed57600117612182565b600260ff8416141561220157600217612182565b600360ff841614156121825760041761225d565b60ff83166122255760021761225d565b600160ff841614156122395760041761225d565b600260ff8416141561224d5760081761225d565b600360ff8416141561225d576001175b604080516020808201889052818301879052606f60f81b60608301528251808303604101815260619092019092528051910120606490066000603c60ff8316106122bb57605a60ff8316106122b35760026122b6565b60015b6122be565b60005b905060048160ff16106122d6578260f0179250612418565b8060ff1660031415612350576040805160208082018a9052818301899052600760fc1b606083015282518083036041018152606190920190925280519101206003166001810160070260ff811660151415612336578460d0179450612349565b8060ff16601c1415612349578460b01794505b5050612418565b8060ff16600214156123ca576040805160208082018a9052818301899052600760fc1b60608301528251808303604101815260619092019092528051910120600690066001810160030260ff8116600f14156123b157846050179450612349565b8060ff1660121415612349578460a01794505050612418565b8060ff1660011415612418576040805160208082018a9052818301899052600760fc1b6060830152825160418184030181526061909201909252805191012060031660020a60100292909217915b509095945050505050565b600080600061243188611a7f565b8692509050846000806124438b612750565b5050915091508160070b600014801561245f57508060070b6000145b156124735760029550846001179450612742565b8660ff168360ff16116127425760408051602080820187905260f886901b6001600160f81b03191682840152604182018d9052600360f81b60618301528251808303604201815260629092019092528051910120601490066001868116148015906124ec575060ff811615806124ec57508360ff166050145b156125005760029650856001179550612736565b60028087161480159061253f57508060ff166001148061252357508360ff166050145b8061253f57508360ff16604f14801561253f5750600180871614155b156125535760039650856002179550612736565b6004808716148015906125d957508060ff166002148061257657508360ff166050145b8061259257508360ff16604f1480156125925750600180871614155b806125ae57508360ff16604f1480156125ae5750600280871614155b806125d957508360ff16604e1480156125ca5750600180871614155b80156125d95750600280871614155b156125eb576004965094861794612736565b60088087161480159061271d57508060ff166003148061260e57508360ff166050145b8061262a57508360ff16604f14801561262a5750600180871614155b8061264657508360ff16604f1480156126465750600280871614155b8061266257508360ff16604f1480156126625750600480871614155b8061268d57508360ff16604e14801561267e5750600180871614155b801561268d5750600280871614155b806126b857508360ff16604e1480156126a95750600180871614155b80156126b85750600480871614155b806126e357508360ff16604e1480156126d45750600480871614155b80156126e35750600280871614155b8061271d57508360ff16604d1480156126ff5750600480871614155b801561270e5750600280871614155b801561271d5750600180871614155b156127315760059650856008179550612736565b600196505b50600190920191612473565b505050509550959350505050565b90600160401b820490600160801b830490600160ff1b840490565b600160ff1b6001600160401b03938416928416600160401b0291909316600160801b0201010190565b60008060006127a285612750565b5050915091506000806127b486612750565b5091935091505081840360070b60008112156127ce576000035b81840360070b60008112156127e1576000035b6001603f1b8213156127f75781600160401b0391505b6001603f1b81131561280a57600160401b035b8082131561281f5750945061282c9350505050565b955061282c945050505050565b92915050565b604080516020808201859052818301849052603360f91b6060830152825180830360410181526061830184528051908201206081830186905260a18301859052606760f81b60c1840152835160a281850301815260c2909301909352815191012060009182916128ac918691600991829006919006612b2b565b946001945092505050565b600081815260016020526040812054600160401b90046001600160401b0316806128e5576000915050611046565b60055460408051634a83e9cd60e11b81526001600160401b038416600482015290516000926001600160a01b031691639507d39a916024808301926020929190829003018186803b15801561293957600080fd5b505afa15801561294d573d6000803e3d6000fd5b505050506040513d602081101561296357600080fd5b505190508061297757600092505050611046565b6000848152600160208190526040909120546001600160401b0380821690851614916129b291879185918590600160d01b900460ff16612b62565b95945050505050565b600954604080516331a9108f60e11b815260048101849052905160009283926001600160a01b0390911691636352211e91602480820192602092909190829003018186803b158015612a0c57600080fd5b505afa158015612a20573d6000803e3d6000fd5b505050506040513d6020811015612a3657600080fd5b50516001600160a01b03163014915050919050565b61ffff60e882901c81169260ff60e084901c169260f881901c9260d082901c81169260c083901c9091169163ffffffff1690565b6000806000612a8d84612750565b5050915091506000198260070b12158015612aad57506000198160070b12155b8015612abd575060018260070b13155b8015612acd575060018160070b13155b949350505050565b6000806000612ae384612750565b50509150915060008260070b1215612afc578160000391505b60008160070b1215612b0c576000035b8060070b8260070b1315612b2257509050611046565b91506110469050565b600080600080612b3a87612750565b50925092509250611b0c8660ff1660048560090203018660ff1660048560090203018361276b565b600060ff8216600114612b77575060006129b2565b600f8315612b8357600a015b6040805160208082018a9052818301899052600360f91b6060830152825180830360410181526061909201909252805191012060ff82166064909106108015612c0f576040805160208082018b90528183018a9052600760f81b60608301528251604181840301815260619092019092528051910120869081612c0257fe5b06600101925050506129b2565b506000979650505050505050565b6040805160a08101825260008082526020820181905291810182905260608101829052608081019190915290565b604051806101600160405280600b906020820280368337509192915050565b6040805160c081018252600080825260208201819052918101829052606081018290526080810182905260a08101919091529056fea264697066735822122026ee1a26696c769e51f23883a41ae4e5f44e059140ebe934712647c7ead04bbf64736f6c63430006050033",
  "devdoc": {
    "methods": {}
  },
  "userdoc": {
    "methods": {}
  },
  "storageLayout": {
    "storage": [
      {
        "astId": 2873,
        "contract": "src/dungeon/DungeonCharacterFacet.sol:DungeonCharacterFacet",
        "label": "_characters",
        "offset": 0,
        "slot": "0",
        "type": "t_mapping(t_uint256,t_struct(Character)2856_storage)"
      },
      {
        "astId": 2877,
        "contract": "src/dungeon/DungeonCharacterFacet.sol:DungeonCharacterFacet",
        "label": "_rooms",
        "offset": 0,
        "slot": "1",
        "type": "t_mapping(t_uint256,t_struct(Room)2839_storage)"
      },
      {
        "astId": 2881,
        "contract": "src/dungeon/DungeonCharacterFacet.sol:DungeonCharacterFacet",
        "label": "_areas",
        "offset": 0,
        "slot": "2",
        "type": "t_mapping(t_uint256,t_struct(Area)2869_storage)"
      },
      {
        "astId": 2888,
        "contract": "src/dungeon/DungeonCharacterFacet.sol:DungeonCharacterFacet",
        "label": "_areaCounter",
        "offset": 0,
        "slot": "3",
        "type": "t_struct(AreaCounter)2886_storage"
      },
      {
        "astId": 2890,
        "contract": "src/dungeon/DungeonCharacterFacet.sol:DungeonCharacterFacet",
        "label": "_adminContract",
        "offset": 0,
        "slot": "4",
        "type": "t_address"
      },
      {
        "astId": 2892,
        "contract": "src/dungeon/DungeonCharacterFacet.sol:DungeonCharacterFacet",
        "label": "_blockHashRegister",
        "offset": 0,
        "slot": "5",
        "type": "t_contract(BlockHashRegister)13120"
      },
      {
        "astId": 2894,
        "contract": "src/dungeon/DungeonCharacterFacet.sol:DungeonCharacterFacet",
        "label": "_charactersContract",
        "offset": 0,
        "slot": "6",
        "type": "t_contract(Characters)469"
      },
      {
        "astId": 2896,
        "contract": "src/dungeon/DungeonCharacterFacet.sol:DungeonCharacterFacet",
        "label": "_elementsContract",
        "offset": 0,
        "slot": "7",
        "type": "t_contract(Elements)12803"
      },
      {
        "astId": 2898,
        "contract": "src/dungeon/DungeonCharacterFacet.sol:DungeonCharacterFacet",
        "label": "_gearsContract",
        "offset": 0,
        "slot": "8",
        "type": "t_contract(Gears)12822"
      },
      {
        "astId": 2900,
        "contract": "src/dungeon/DungeonCharacterFacet.sol:DungeonCharacterFacet",
        "label": "_roomsContract",
        "offset": 0,
        "slot": "9",
        "type": "t_contract(Rooms)12889"
      },
      {
        "astId": 2902,
        "contract": "src/dungeon/DungeonCharacterFacet.sol:DungeonCharacterFacet",
        "label": "_playerContract",
        "offset": 0,
        "slot": "10",
        "type": "t_contract(Player)10671"
      },
      {
        "astId": 2910,
        "contract": "src/dungeon/DungeonCharacterFacet.sol:DungeonCharacterFacet",
        "label": "_unlockedExits",
        "offset": 0,
        "slot": "11",
        "type": "t_mapping(t_uint256,t_mapping(t_uint256,t_mapping(t_uint256,t_bool)))"
      },
      {
        "astId": 2921,
        "contract": "src/dungeon/DungeonCharacterFacet.sol:DungeonCharacterFacet",
        "label": "_quests",
        "offset": 0,
        "slot": "12",
        "type": "t_mapping(t_uint256,t_mapping(t_uint64,t_struct(Quest)2915_storage))"
      },
      {
        "astId": 2925,
        "contract": "src/dungeon/DungeonCharacterFacet.sol:DungeonCharacterFacet",
        "label": "_taxDueDate",
        "offset": 0,
        "slot": "13",
        "type": "t_mapping(t_address,t_uint256)"
      },
      {
        "astId": 2929,
        "contract": "src/dungeon/DungeonCharacterFacet.sol:DungeonCharacterFacet",
        "label": "_customRoomNames",
        "offset": 0,
        "slot": "14",
        "type": "t_mapping(t_uint256,t_string_storage)"
      }
    ],
    "types": {
      "t_address": {
        "encoding": "inplace",
        "label": "address",
        "numberOfBytes": "20"
      },
      "t_bool": {
        "encoding": "inplace",
        "label": "bool",
        "numberOfBytes": "1"
      },
      "t_contract(BlockHashRegister)13120": {
        "encoding": "inplace",
        "label": "contract BlockHashRegister",
        "numberOfBytes": "20"
      },
      "t_contract(Characters)469": {
        "encoding": "inplace",
        "label": "contract Characters",
        "numberOfBytes": "20"
      },
      "t_contract(Elements)12803": {
        "encoding": "inplace",
        "label": "contract Elements",
        "numberOfBytes": "20"
      },
      "t_contract(Gears)12822": {
        "encoding": "inplace",
        "label": "contract Gears",
        "numberOfBytes": "20"
      },
      "t_contract(Player)10671": {
        "encoding": "inplace",
        "label": "contract Player",
        "numberOfBytes": "20"
      },
      "t_contract(Rooms)12889": {
        "encoding": "inplace",
        "label": "contract Rooms",
        "numberOfBytes": "20"
      },
      "t_int64": {
        "encoding": "inplace",
        "label": "int64",
        "numberOfBytes": "8"
      },
      "t_mapping(t_address,t_uint256)": {
        "encoding": "mapping",
        "key": "t_address",
        "label": "mapping(address => uint256)",
        "numberOfBytes": "32",
        "value": "t_uint256"
      },
      "t_mapping(t_uint256,t_bool)": {
        "encoding": "mapping",
        "key": "t_uint256",
        "label": "mapping(uint256 => bool)",
        "numberOfBytes": "32",
        "value": "t_bool"
      },
      "t_mapping(t_uint256,t_mapping(t_uint256,t_bool))": {
        "encoding": "mapping",
        "key": "t_uint256",
        "label": "mapping(uint256 => mapping(uint256 => bool))",
        "numberOfBytes": "32",
        "value": "t_mapping(t_uint256,t_bool)"
      },
      "t_mapping(t_uint256,t_mapping(t_uint256,t_mapping(t_uint256,t_bool)))": {
        "encoding": "mapping",
        "key": "t_uint256",
        "label": "mapping(uint256 => mapping(uint256 => mapping(uint256 => bool)))",
        "numberOfBytes": "32",
        "value": "t_mapping(t_uint256,t_mapping(t_uint256,t_bool))"
      },
      "t_mapping(t_uint256,t_mapping(t_uint64,t_struct(Quest)2915_storage))": {
        "encoding": "mapping",
        "key": "t_uint256",
        "label": "mapping(uint256 => mapping(uint64 => struct DungeonDataLayout.Quest))",
        "numberOfBytes": "32",
        "value": "t_mapping(t_uint64,t_struct(Quest)2915_storage)"
      },
      "t_mapping(t_uint256,t_string_storage)": {
        "encoding": "mapping",
        "key": "t_uint256",
        "label": "mapping(uint256 => string)",
        "numberOfBytes": "32",
        "value": "t_string_storage"
      },
      "t_mapping(t_uint256,t_struct(Area)2869_storage)": {
        "encoding": "mapping",
        "key": "t_uint256",
        "label": "mapping(uint256 => struct DungeonDataLayout.Area)",
        "numberOfBytes": "32",
        "value": "t_struct(Area)2869_storage"
      },
      "t_mapping(t_uint256,t_struct(Character)2856_storage)": {
        "encoding": "mapping",
        "key": "t_uint256",
        "label": "mapping(uint256 => struct DungeonDataLayout.Character)",
        "numberOfBytes": "32",
        "value": "t_struct(Character)2856_storage"
      },
      "t_mapping(t_uint256,t_struct(Room)2839_storage)": {
        "encoding": "mapping",
        "key": "t_uint256",
        "label": "mapping(uint256 => struct DungeonDataLayout.Room)",
        "numberOfBytes": "32",
        "value": "t_struct(Room)2839_storage"
      },
      "t_mapping(t_uint64,t_struct(Quest)2915_storage)": {
        "encoding": "mapping",
        "key": "t_uint64",
        "label": "mapping(uint64 => struct DungeonDataLayout.Quest)",
        "numberOfBytes": "32",
        "value": "t_struct(Quest)2915_storage"
      },
      "t_string_storage": {
        "encoding": "bytes",
        "label": "string",
        "numberOfBytes": "32"
      },
      "t_struct(Area)2869_storage": {
        "encoding": "inplace",
        "label": "struct DungeonDataLayout.Area",
        "members": [
          {
            "astId": 2858,
            "contract": "src/dungeon/DungeonCharacterFacet.sol:DungeonCharacterFacet",
            "label": "areaType",
            "offset": 0,
            "slot": "0",
            "type": "t_uint8"
          },
          {
            "astId": 2860,
            "contract": "src/dungeon/DungeonCharacterFacet.sol:DungeonCharacterFacet",
            "label": "discovered",
            "offset": 1,
            "slot": "0",
            "type": "t_uint8"
          },
          {
            "astId": 2862,
            "contract": "src/dungeon/DungeonCharacterFacet.sol:DungeonCharacterFacet",
            "label": "lastRoomIndex",
            "offset": 2,
            "slot": "0",
            "type": "t_uint8"
          },
          {
            "astId": 2864,
            "contract": "src/dungeon/DungeonCharacterFacet.sol:DungeonCharacterFacet",
            "label": "currentIndex",
            "offset": 3,
            "slot": "0",
            "type": "t_uint8"
          },
          {
            "astId": 2866,
            "contract": "src/dungeon/DungeonCharacterFacet.sol:DungeonCharacterFacet",
            "label": "lastRoom",
            "offset": 0,
            "slot": "1",
            "type": "t_uint256"
          },
          {
            "astId": 2868,
            "contract": "src/dungeon/DungeonCharacterFacet.sol:DungeonCharacterFacet",
            "label": "eventBlockNumber",
            "offset": 0,
            "slot": "2",
            "type": "t_uint64"
          }
        ],
        "numberOfBytes": "96"
      },
      "t_struct(AreaCounter)2886_storage": {
        "encoding": "inplace",
        "label": "struct DungeonDataLayout.AreaCounter",
        "members": [
          {
            "astId": 2883,
            "contract": "src/dungeon/DungeonCharacterFacet.sol:DungeonCharacterFacet",
            "label": "lastPeriod",
            "offset": 0,
            "slot": "0",
            "type": "t_uint64"
          },
          {
            "astId": 2885,
            "contract": "src/dungeon/DungeonCharacterFacet.sol:DungeonCharacterFacet",
            "label": "numAreas",
            "offset": 8,
            "slot": "0",
            "type": "t_uint64"
          }
        ],
        "numberOfBytes": "32"
      },
      "t_struct(Character)2856_storage": {
        "encoding": "inplace",
        "label": "struct DungeonDataLayout.Character",
        "members": [
          {
            "astId": 2841,
            "contract": "src/dungeon/DungeonCharacterFacet.sol:DungeonCharacterFacet",
            "label": "location",
            "offset": 0,
            "slot": "0",
            "type": "t_uint256"
          },
          {
            "astId": 2843,
            "contract": "src/dungeon/DungeonCharacterFacet.sol:DungeonCharacterFacet",
            "label": "direction",
            "offset": 0,
            "slot": "1",
            "type": "t_uint8"
          },
          {
            "astId": 2845,
            "contract": "src/dungeon/DungeonCharacterFacet.sol:DungeonCharacterFacet",
            "label": "floors",
            "offset": 1,
            "slot": "1",
            "type": "t_int64"
          },
          {
            "astId": 2847,
            "contract": "src/dungeon/DungeonCharacterFacet.sol:DungeonCharacterFacet",
            "label": "slot_1",
            "offset": 0,
            "slot": "2",
            "type": "t_uint256"
          },
          {
            "astId": 2849,
            "contract": "src/dungeon/DungeonCharacterFacet.sol:DungeonCharacterFacet",
            "label": "slot_2",
            "offset": 0,
            "slot": "3",
            "type": "t_uint256"
          },
          {
            "astId": 2851,
            "contract": "src/dungeon/DungeonCharacterFacet.sol:DungeonCharacterFacet",
            "label": "slot_3",
            "offset": 0,
            "slot": "4",
            "type": "t_uint256"
          },
          {
            "astId": 2853,
            "contract": "src/dungeon/DungeonCharacterFacet.sol:DungeonCharacterFacet",
            "label": "slot_4",
            "offset": 0,
            "slot": "5",
            "type": "t_uint256"
          },
          {
            "astId": 2855,
            "contract": "src/dungeon/DungeonCharacterFacet.sol:DungeonCharacterFacet",
            "label": "slot_5",
            "offset": 0,
            "slot": "6",
            "type": "t_uint256"
          }
        ],
        "numberOfBytes": "224"
      },
      "t_struct(Quest)2915_storage": {
        "encoding": "inplace",
        "label": "struct DungeonDataLayout.Quest",
        "members": [
          {
            "astId": 2912,
            "contract": "src/dungeon/DungeonCharacterFacet.sol:DungeonCharacterFacet",
            "label": "status",
            "offset": 0,
            "slot": "0",
            "type": "t_uint8"
          },
          {
            "astId": 2914,
            "contract": "src/dungeon/DungeonCharacterFacet.sol:DungeonCharacterFacet",
            "label": "data",
            "offset": 0,
            "slot": "1",
            "type": "t_string_storage"
          }
        ],
        "numberOfBytes": "64"
      },
      "t_struct(Room)2839_storage": {
        "encoding": "inplace",
        "label": "struct DungeonDataLayout.Room",
        "members": [
          {
            "astId": 2818,
            "contract": "src/dungeon/DungeonCharacterFacet.sol:DungeonCharacterFacet",
            "label": "blockNumber",
            "offset": 0,
            "slot": "0",
            "type": "t_uint64"
          },
          {
            "astId": 2820,
            "contract": "src/dungeon/DungeonCharacterFacet.sol:DungeonCharacterFacet",
            "label": "monsterBlockNumber",
            "offset": 8,
            "slot": "0",
            "type": "t_uint64"
          },
          {
            "astId": 2822,
            "contract": "src/dungeon/DungeonCharacterFacet.sol:DungeonCharacterFacet",
            "label": "numActiveCharacters",
            "offset": 16,
            "slot": "0",
            "type": "t_uint64"
          },
          {
            "astId": 2824,
            "contract": "src/dungeon/DungeonCharacterFacet.sol:DungeonCharacterFacet",
            "label": "direction",
            "offset": 24,
            "slot": "0",
            "type": "t_uint8"
          },
          {
            "astId": 2826,
            "contract": "src/dungeon/DungeonCharacterFacet.sol:DungeonCharacterFacet",
            "label": "exits",
            "offset": 25,
            "slot": "0",
            "type": "t_uint8"
          },
          {
            "astId": 2828,
            "contract": "src/dungeon/DungeonCharacterFacet.sol:DungeonCharacterFacet",
            "label": "kind",
            "offset": 26,
            "slot": "0",
            "type": "t_uint8"
          },
          {
            "astId": 2830,
            "contract": "src/dungeon/DungeonCharacterFacet.sol:DungeonCharacterFacet",
            "label": "areaAtDiscovery",
            "offset": 27,
            "slot": "0",
            "type": "t_uint8"
          },
          {
            "astId": 2832,
            "contract": "src/dungeon/DungeonCharacterFacet.sol:DungeonCharacterFacet",
            "label": "lastRoomIndex",
            "offset": 28,
            "slot": "0",
            "type": "t_uint8"
          },
          {
            "astId": 2834,
            "contract": "src/dungeon/DungeonCharacterFacet.sol:DungeonCharacterFacet",
            "label": "index",
            "offset": 29,
            "slot": "0",
            "type": "t_uint8"
          },
          {
            "astId": 2836,
            "contract": "src/dungeon/DungeonCharacterFacet.sol:DungeonCharacterFacet",
            "label": "discoverer",
            "offset": 0,
            "slot": "1",
            "type": "t_uint256"
          },
          {
            "astId": 2838,
            "contract": "src/dungeon/DungeonCharacterFacet.sol:DungeonCharacterFacet",
            "label": "randomEvent",
            "offset": 0,
            "slot": "2",
            "type": "t_uint64"
          }
        ],
        "numberOfBytes": "96"
      },
      "t_uint256": {
        "encoding": "inplace",
        "label": "uint256",
        "numberOfBytes": "32"
      },
      "t_uint64": {
        "encoding": "inplace",
        "label": "uint64",
        "numberOfBytes": "8"
      },
      "t_uint8": {
        "encoding": "inplace",
        "label": "uint8",
        "numberOfBytes": "1"
      }
    }
  }
}