{
  "abi": [
    {
      "anonymous": false,
      "inputs": [
        {
          "indexed": false,
          "internalType": "bool",
          "name": "success",
          "type": "bool"
        },
        {
          "indexed": false,
          "internalType": "bytes",
          "name": "returnData",
          "type": "bytes"
        }
      ],
      "name": "Call",
      "type": "event"
    },
    {
      "anonymous": false,
      "inputs": [
        {
          "indexed": true,
          "internalType": "address",
          "name": "playerAddress",
          "type": "address"
        },
        {
          "indexed": false,
          "internalType": "uint256",
          "name": "newEnergy",
          "type": "uint256"
        }
      ],
      "name": "Refill",
      "type": "event"
    },
    {
      "inputs": [],
      "name": "MAX_FOOD",
      "outputs": [
        {
          "internalType": "uint256",
          "name": "",
          "type": "uint256"
        }
      ],
      "stateMutability": "view",
      "type": "function"
    },
    {
      "inputs": [
        {
          "internalType": "address payable",
          "name": "_delegate",
          "type": "address"
        }
      ],
      "name": "addDelegate",
      "outputs": [],
      "stateMutability": "payable",
      "type": "function"
    },
    {
      "inputs": [
        {
          "internalType": "address",
          "name": "destination",
          "type": "address"
        },
        {
          "internalType": "uint256",
          "name": "gasLimit",
          "type": "uint256"
        },
        {
          "internalType": "bytes",
          "name": "data",
          "type": "bytes"
        }
      ],
      "name": "callAsCharacter",
      "outputs": [
        {
          "internalType": "bool",
          "name": "success",
          "type": "bool"
        },
        {
          "internalType": "bytes",
          "name": "returnData",
          "type": "bytes"
        }
      ],
      "stateMutability": "nonpayable",
      "type": "function"
    },
    {
      "inputs": [
        {
          "internalType": "address payable",
          "name": "newDelegate",
          "type": "address"
        },
        {
          "internalType": "uint256",
          "name": "value",
          "type": "uint256"
        },
        {
          "internalType": "string",
          "name": "name",
          "type": "string"
        },
        {
          "internalType": "uint8",
          "name": "class",
          "type": "uint8"
        },
        {
          "internalType": "uint256",
          "name": "location",
          "type": "uint256"
        }
      ],
      "name": "createAndEnter",
      "outputs": [],
      "stateMutability": "payable",
      "type": "function"
    },
    {
      "inputs": [
        {
          "internalType": "address payable",
          "name": "newDelegate",
          "type": "address"
        },
        {
          "internalType": "uint256",
          "name": "characterId",
          "type": "uint256"
        },
        {
          "internalType": "uint256",
          "name": "value",
          "type": "uint256"
        },
        {
          "internalType": "string",
          "name": "name",
          "type": "string"
        },
        {
          "internalType": "uint8",
          "name": "class",
          "type": "uint8"
        },
        {
          "internalType": "uint256",
          "name": "location",
          "type": "uint256"
        }
      ],
      "name": "enter",
      "outputs": [],
      "stateMutability": "payable",
      "type": "function"
    },
    {
      "inputs": [
        {
          "internalType": "address",
          "name": "playerAddress",
          "type": "address"
        }
      ],
      "name": "getEnergy",
      "outputs": [
        {
          "internalType": "uint256",
          "name": "energy",
          "type": "uint256"
        },
        {
          "internalType": "uint256",
          "name": "freeEnergy",
          "type": "uint256"
        }
      ],
      "stateMutability": "view",
      "type": "function"
    },
    {
      "inputs": [
        {
          "internalType": "address",
          "name": "playerAddress",
          "type": "address"
        }
      ],
      "name": "getLastCharacterId",
      "outputs": [
        {
          "internalType": "uint256",
          "name": "",
          "type": "uint256"
        }
      ],
      "stateMutability": "view",
      "type": "function"
    },
    {
      "inputs": [
        {
          "internalType": "address",
          "name": "playerAddress",
          "type": "address"
        },
        {
          "internalType": "uint256",
          "name": "characterId",
          "type": "uint256"
        }
      ],
      "name": "getPlayerInfo",
      "outputs": [
        {
          "internalType": "uint256",
          "name": "energy",
          "type": "uint256"
        },
        {
          "internalType": "uint256",
          "name": "freeEnergy",
          "type": "uint256"
        }
      ],
      "stateMutability": "view",
      "type": "function"
    },
    {
      "inputs": [
        {
          "internalType": "address",
          "name": "delegate",
          "type": "address"
        },
        {
          "internalType": "address",
          "name": "playerAddress",
          "type": "address"
        }
      ],
      "name": "isDelegateFor",
      "outputs": [
        {
          "internalType": "bool",
          "name": "",
          "type": "bool"
        }
      ],
      "stateMutability": "view",
      "type": "function"
    },
    {
      "inputs": [
        {
          "internalType": "address",
          "name": "forwarder",
          "type": "address"
        }
      ],
      "name": "isTrustedForwarder",
      "outputs": [
        {
          "internalType": "bool",
          "name": "",
          "type": "bool"
        }
      ],
      "stateMutability": "nonpayable",
      "type": "function"
    },
    {
      "inputs": [
        {
          "internalType": "contract Characters",
          "name": "charactersContract",
          "type": "address"
        },
        {
          "internalType": "address payable",
          "name": "feeRecipient",
          "type": "address"
        },
        {
          "internalType": "uint256",
          "name": "minBalance",
          "type": "uint256"
        },
        {
          "internalType": "contract Pool",
          "name": "pool",
          "type": "address"
        }
      ],
      "name": "postUpgrade",
      "outputs": [],
      "stateMutability": "nonpayable",
      "type": "function"
    },
    {
      "inputs": [],
      "name": "refill",
      "outputs": [],
      "stateMutability": "payable",
      "type": "function"
    },
    {
      "inputs": [
        {
          "internalType": "address",
          "name": "account",
          "type": "address"
        }
      ],
      "name": "refillAccount",
      "outputs": [],
      "stateMutability": "payable",
      "type": "function"
    },
    {
      "inputs": [],
      "name": "register",
      "outputs": [],
      "stateMutability": "nonpayable",
      "type": "function"
    }
  ],
  "address": "0x16cE9E80C00480bcA38C08fafC3735788409EB4a",
  "args": [],
  "bytecode": "0x608060405234801561001057600080fd5b5061144e806100206000396000f3fe6080604052600436106100dd5760003560e01c8063752afa701161007f57806399888ac91161005957806399888ac914610474578063c23a2465146104b9578063e71bdf41146104f4578063ef7375451461051a576100dd565b8063752afa70146103615780638fc0f5eb146103ef5780639391c77a1461043b576100dd565b8063454d3fc1116100bb578063454d3fc1146101d75780634e0fb1f4146102ec578063538e075914610312578063572b6c051461031a576100dd565b80631aa3a008146100e25780631dbd3c62146100f95780633bda15e61461018e575b600080fd5b3480156100ee57600080fd5b506100f761052f565b005b6100f7600480360360c081101561010f57600080fd5b6001600160a01b03823516916020810135916040820135919081019060808101606082013564010000000081111561014657600080fd5b82018360208201111561015857600080fd5b8035906020019184600183028401116401000000008311171561017a57600080fd5b919350915060ff81351690602001356105a9565b34801561019a57600080fd5b506100f7600480360360808110156101b157600080fd5b506001600160a01b0381358116916020810135821691604082013591606001351661067e565b3480156101e357600080fd5b50610269600480360360608110156101fa57600080fd5b6001600160a01b038235169160208101359181019060608101604082013564010000000081111561022a57600080fd5b82018360208201111561023c57600080fd5b8035906020019184600183028401116401000000008311171561025e57600080fd5b509092509050610786565b604051808315151515815260200180602001828103825283818151815260200191508051906020019080838360005b838110156102b0578181015183820152602001610298565b50505050905090810190601f1680156102dd5780820380516001836020036101000a031916815260200191505b50935050505060405180910390f35b6100f76004803603602081101561030257600080fd5b50356001600160a01b0316610ca4565b6100f7610cc0565b34801561032657600080fd5b5061034d6004803603602081101561033d57600080fd5b50356001600160a01b0316610cdb565b604080519115158252519081900360200190f35b6100f7600480360360a081101561037757600080fd5b6001600160a01b03823516916020810135918101906060810160408201356401000000008111156103a757600080fd5b8201836020820111156103b957600080fd5b803590602001918460018302840111640100000000831117156103db57600080fd5b919350915060ff8135169060200135610cee565b3480156103fb57600080fd5b506104226004803603602081101561041257600080fd5b50356001600160a01b0316610dc8565b6040805192835260208301919091528051918290030190f35b34801561044757600080fd5b506104226004803603604081101561045e57600080fd5b506001600160a01b038135169060200135610df8565b34801561048057600080fd5b506104a76004803603602081101561049757600080fd5b50356001600160a01b0316610e29565b60408051918252519081900360200190f35b3480156104c557600080fd5b5061034d600480360360408110156104dc57600080fd5b506001600160a01b0381358116916020013516610e44565b6100f76004803603602081101561050a57600080fd5b50356001600160a01b0316610e66565b34801561052657600080fd5b506104a7610e8f565b6006546001600160a01b031633146105a7576006546001600160a01b031615610594576040805162461bcd60e51b81526020600482015260126024820152711a1bdb19195c88185b1c9958591e481cd95d60721b604482015290519081900360640190fd5b600680546001600160a01b031916331790555b565b60006105b3610e9b565b600554600654604080516323b872dd60e01b81526001600160a01b0380861660048301529283166024820152604481018c905290519394509116916323b872dd9160648082019260009290919082900301818387803b15801561061557600080fd5b505af1158015610629573d6000803e3d6000fd5b505050506106748189898989898080601f0160208091040260200160405190810160405280939291908181526020018383808284376000920191909152508b92508a9150610eed9050565b5050505050505050565b7fb53127684a568b3173ae13b9f8a6016e243e63b6e8ee1178d6a717850b5d6103546001600160a01b0381166106dd576001600160a01b037fb53127684a568b3173ae13b9f8a6016e243e63b6e8ee1178d6a717850b5d6103556106f2565b336001600160a01b038216146106f257600080fd5b600580546001600160a01b038088166001600160a01b0319928316179092556001805487841690831617905560008581556007805493861693909216831790915560408051630354740160e31b81529051631aa3a0089260048381019391929182900301818387803b15801561076757600080fd5b505af115801561077b573d6000803e3d6000fd5b505050505050505050565b600060606000610794610e9b565b90506001600160a01b0387163014156107e9576040805162461bcd60e51b815260206004820152601260248201527131b0b73737ba1031b0b6361034ba39b2b63360711b604482015290519081900360640190fd5b60005a9050600061082f87878080601f01602080910402602001604051908101604052809392919081815260200183838082843760009201919091525061107d92505050565b600654600554604080516331a9108f60e11b81526004810185905290519394506001600160a01b03928316939190921691636352211e916024808301926020929190829003018186803b15801561088557600080fd5b505afa158015610899573d6000803e3d6000fd5b505050506040513d60208110156108af57600080fd5b50516001600160a01b03161461090c576040805162461bcd60e51b815260206004820152601e60248201527f5f686f6c64657220646f6573206e6f74206f776e206368617261637465720000604482015290519081900360640190fd5b60055460408051630607176160e31b81526004810184905290516000926001600160a01b031691633038bb08916024808301926020929190829003018186803b15801561095857600080fd5b505afa15801561096c573d6000803e3d6000fd5b505050506040513d602081101561098257600080fd5b505190506001600160a01b03841681146109ee576001600160a01b038085166000908152600260205260409020541681146109ee5760405162461bcd60e51b815260040180806020018281038252602c8152602001806113ed602c913960400191505060405180910390fd5b610a2f8a8a8a8a8080601f01602080910402602001604051908101604052809392919081815260200183838082843760009201919091525061109992505050565b6001600160a01b0383166000908152600360205260408120805493995091975090916001600160801b0316903a5a8703612710010290506000606482600a0281610a7557fe5b049050600a8202808201841015610ac7576040805162461bcd60e51b81526020600482015260116024820152706e6f7420656e6f75676820656e6572677960781b604482015290519081900360640190fd5b60075460408051632082fbcd60e21b81526001600160a01b038c811660048301526024820187905260448201859052915185850190970396919092169163820bef3491849160648082019260009290919082900301818588803b158015610b2d57600080fd5b505af1158015610b41573d6000803e3d6000fd5b5050505050886001600160a01b0316336001600160a01b03161415610bbf5760005433311015610bbf5760005433319003848110610b825750600093610b88565b80850394505b8015610bbd57604051339082156108fc029083906000818181858888f19350505050158015610bbb573d6000803e3d6000fd5b505b505b84546001600160801b03858116600160801b8084048316860183160291909216176001600160801b031916178555604080518c1515815260208082018381528d51938301939093528c517f9a55c85f4afdf6baca33ed6106a8754818254616412d5fcc558a6deb81e7a65f938f938f939092606084019185019080838360005b83811015610c57578181015183820152602001610c3f565b50505050905090810190601f168015610c845780820380516001836020036101000a031916815260200191505b50935050505060405180910390a150505050505050505094509492505050565b6000610cae610e9b565b9050610cbb81833461115a565b505050565b6000610cca610e9b565b9050610cd781823461115a565b5050565b6000610ce682611251565b90505b919050565b6000610cf8610e9b565b6005546006546040805163755edd1760e01b81526001600160a01b0392831660048201529051939450600093919092169163755edd1791602480830192602092919082900301818787803b158015610d4f57600080fd5b505af1158015610d63573d6000803e3d6000fd5b505050506040513d6020811015610d7957600080fd5b5051604080516020601f89018190048102820181019092528781529192506106749184918b9185918c91908c908c90819084018382808284376000920191909152508c92508b9150610eed9050565b6001600160a01b03166000908152600360205260409020546001600160801b0380821692600160801b9092041690565b506001600160a01b03166000908152600360205260409020546001600160801b0380821692600160801b9092041690565b6001600160a01b031660009081526004602052604090205490565b6001600160a01b03918216600090815260026020526040902054821691161490565b6000610e70610e9b565b90503415610e8557610e8381823461115a565b505b610cd78183611284565b67058d15e17628000081565b33610ea581611251565b15610eea5760606000368080601f0160208091040260200160405190810160405280939291908181526020018383808284376000920191909152505050503601519150505b90565b83341015610f36576040805162461bcd60e51b81526020600482015260116024820152706d73672e76616c7565203c2076616c756560781b604482015290519081900360640190fd5b83341115610f4d57610f4b878886340361115a565b505b6001600160a01b03861615610f6657610f668787611284565b60065460405163a23782b360e01b81526001600160a01b03898116600483019081526024830189905260ff861660648401526084830185905260a060448401908152875160a48501528751929094169363a23782b39389938d938c938b938b938b93929160c40190602087019080838360005b83811015610ff1578181015183820152602001610fd9565b50505050905090810190601f16801561101e5780820380516001836020036101000a031916815260200191505b5096505050505050506000604051808303818588803b15801561104057600080fd5b505af1158015611054573d6000803e3d6000fd5b5050506001600160a01b0390981660009081526004602052604090209590955550505050505050565b600060248251101561109157506000610ce9565b506024015190565b60006060846001600160a01b031684846040518082805190602001908083835b602083106110d85780518252601f1990920191602091820191016110b9565b6001836020036101000a03801982511681845116808217855250505050505090500191505060006040518083038160008787f1925050503d806000811461113b576040519150601f19603f3d011682016040523d82523d6000602084013e611140565b606091505b509092509050603f84045a1161115257fe5b935093915050565b6001600160a01b0382166000908152600360205260408120546001600160801b0390811683019067058d15e17628000090821611156111a257506000905067058d15e1762800005b6001600160a01b03841660008181526003602090815260409182902080546001600160801b0319166001600160801b038616908117909155825190815291517f5466efde3f6b866c1103aefb7dcd4d0ed7d35437128ee5fcd44762b00cd514b09281900390910190a28115611249576040516001600160a01b0386169083156108fc029084906000818181858888f19350505050158015611247573d6000803e3d6000fd5b505b509392505050565b7fbda473cae6459373242ba82cd14b3b8493956b600be62b2478f52616c8a283de546001600160a01b0391821691161490565b6001600160a01b0381166112df576040805162461bcd60e51b815260206004820152601860248201527f6e6f207a65726f20616464726573732064656c65676174650000000000000000604482015290519081900360640190fd5b600080546001600160a01b038416825260036020526040909120546001600160801b039182169116101561134e576040805162461bcd60e51b81526020600482015260116024820152706e6f7420656e6f75676820656e6572677960781b604482015290519081900360640190fd5b600080546001600160a01b0384811683526003602052604080842080546001600160801b031981166001600160801b0391821695909503169390931790925582549151908416926108fc831502929190818181858888f193505050501580156113bb573d6000803e3d6000fd5b506001600160a01b0390811660009081526002602052604090208054919092166001600160a01b031990911617905556fe73656e646572206973206e6f742064656c6567617465206f6620636861726163746572277320706c61796572a2646970667358221220ed6be824f190be4103bd7b30846377e719be5c12ffe1c36085933e866180c0e864736f6c63430006050033",
  "devdoc": {
    "methods": {}
  },
  "userdoc": {
    "methods": {}
  },
  "storageLayout": {
    "storage": [
      {
        "astId": 10532,
        "contract": "src/player/Player.sol:Player",
        "label": "MIN_BALANCE",
        "offset": 0,
        "slot": "0",
        "type": "t_uint256"
      },
      {
        "astId": 10539,
        "contract": "src/player/Player.sol:Player",
        "label": "_feeRecipient",
        "offset": 0,
        "slot": "1",
        "type": "t_address_payable"
      },
      {
        "astId": 10543,
        "contract": "src/player/Player.sol:Player",
        "label": "_delegates",
        "offset": 0,
        "slot": "2",
        "type": "t_mapping(t_address,t_address)"
      },
      {
        "astId": 10547,
        "contract": "src/player/Player.sol:Player",
        "label": "_players",
        "offset": 0,
        "slot": "3",
        "type": "t_mapping(t_address,t_struct(Player)10537_storage)"
      },
      {
        "astId": 10551,
        "contract": "src/player/Player.sol:Player",
        "label": "_lastCharacterIds",
        "offset": 0,
        "slot": "4",
        "type": "t_mapping(t_address,t_uint256)"
      },
      {
        "astId": 10553,
        "contract": "src/player/Player.sol:Player",
        "label": "_charactersContract",
        "offset": 0,
        "slot": "5",
        "type": "t_contract(Characters)469"
      },
      {
        "astId": 10555,
        "contract": "src/player/Player.sol:Player",
        "label": "_holder",
        "offset": 0,
        "slot": "6",
        "type": "t_contract(Enterable)10530"
      },
      {
        "astId": 10557,
        "contract": "src/player/Player.sol:Player",
        "label": "_pool",
        "offset": 0,
        "slot": "7",
        "type": "t_contract(Pool)10573"
      }
    ],
    "types": {
      "t_address": {
        "encoding": "inplace",
        "label": "address",
        "numberOfBytes": "20"
      },
      "t_address_payable": {
        "encoding": "inplace",
        "label": "address payable",
        "numberOfBytes": "20"
      },
      "t_contract(Characters)469": {
        "encoding": "inplace",
        "label": "contract Characters",
        "numberOfBytes": "20"
      },
      "t_contract(Enterable)10530": {
        "encoding": "inplace",
        "label": "contract Enterable",
        "numberOfBytes": "20"
      },
      "t_contract(Pool)10573": {
        "encoding": "inplace",
        "label": "contract Pool",
        "numberOfBytes": "20"
      },
      "t_mapping(t_address,t_address)": {
        "encoding": "mapping",
        "key": "t_address",
        "label": "mapping(address => address)",
        "numberOfBytes": "32",
        "value": "t_address"
      },
      "t_mapping(t_address,t_struct(Player)10537_storage)": {
        "encoding": "mapping",
        "key": "t_address",
        "label": "mapping(address => struct PlayerDataLayout.Player)",
        "numberOfBytes": "32",
        "value": "t_struct(Player)10537_storage"
      },
      "t_mapping(t_address,t_uint256)": {
        "encoding": "mapping",
        "key": "t_address",
        "label": "mapping(address => uint256)",
        "numberOfBytes": "32",
        "value": "t_uint256"
      },
      "t_struct(Player)10537_storage": {
        "encoding": "inplace",
        "label": "struct PlayerDataLayout.Player",
        "members": [
          {
            "astId": 10534,
            "contract": "src/player/Player.sol:Player",
            "label": "energy",
            "offset": 0,
            "slot": "0",
            "type": "t_uint128"
          },
          {
            "astId": 10536,
            "contract": "src/player/Player.sol:Player",
            "label": "freeEnergy",
            "offset": 16,
            "slot": "0",
            "type": "t_uint128"
          }
        ],
        "numberOfBytes": "32"
      },
      "t_uint128": {
        "encoding": "inplace",
        "label": "uint128",
        "numberOfBytes": "16"
      },
      "t_uint256": {
        "encoding": "inplace",
        "label": "uint256",
        "numberOfBytes": "32"
      }
    }
  }
}