{
  "abi": [
    {
      "anonymous": false,
      "inputs": [
        {
          "indexed": false,
          "internalType": "address",
          "name": "account",
          "type": "address"
        },
        {
          "indexed": false,
          "internalType": "uint256",
          "name": "amount",
          "type": "uint256"
        },
        {
          "indexed": false,
          "internalType": "uint256",
          "name": "slot",
          "type": "uint256"
        }
      ],
      "name": "Claimed",
      "type": "event"
    },
    {
      "anonymous": false,
      "inputs": [
        {
          "indexed": false,
          "internalType": "address",
          "name": "from",
          "type": "address"
        },
        {
          "indexed": false,
          "internalType": "uint256",
          "name": "amount",
          "type": "uint256"
        }
      ],
      "name": "Received",
      "type": "event"
    },
    {
      "inputs": [],
      "name": "MAX_FOOD",
      "outputs": [
        {
          "internalType": "uint256",
          "name": "",
          "type": "uint256"
        }
      ],
      "stateMutability": "view",
      "type": "function"
    },
    {
      "inputs": [],
      "name": "SLOT_INTERVAL",
      "outputs": [
        {
          "internalType": "uint256",
          "name": "",
          "type": "uint256"
        }
      ],
      "stateMutability": "view",
      "type": "function"
    },
    {
      "inputs": [],
      "name": "claimUBF",
      "outputs": [],
      "stateMutability": "nonpayable",
      "type": "function"
    },
    {
      "inputs": [
        {
          "internalType": "uint256",
          "name": "characterId",
          "type": "uint256"
        }
      ],
      "name": "claimUBFAsCharacter",
      "outputs": [],
      "stateMutability": "nonpayable",
      "type": "function"
    },
    {
      "inputs": [
        {
          "internalType": "address",
          "name": "account",
          "type": "address"
        }
      ],
      "name": "getClaimAmount",
      "outputs": [
        {
          "internalType": "uint256",
          "name": "amount",
          "type": "uint256"
        }
      ],
      "stateMutability": "view",
      "type": "function"
    },
    {
      "inputs": [
        {
          "internalType": "address",
          "name": "account",
          "type": "address"
        }
      ],
      "name": "getInfo",
      "outputs": [
        {
          "internalType": "uint256",
          "name": "amount",
          "type": "uint256"
        },
        {
          "internalType": "uint256",
          "name": "ubfBalance",
          "type": "uint256"
        },
        {
          "internalType": "uint256",
          "name": "slot",
          "type": "uint256"
        },
        {
          "internalType": "uint256",
          "name": "nextSlotTime",
          "type": "uint256"
        },
        {
          "internalType": "bool",
          "name": "claimed",
          "type": "bool"
        }
      ],
      "stateMutability": "view",
      "type": "function"
    },
    {
      "inputs": [
        {
          "internalType": "contract Characters",
          "name": "charactersContract",
          "type": "address"
        }
      ],
      "name": "postUpgrade",
      "outputs": [],
      "stateMutability": "nonpayable",
      "type": "function"
    },
    {
      "inputs": [
        {
          "internalType": "address",
          "name": "account",
          "type": "address"
        },
        {
          "internalType": "uint256",
          "name": "txCharge",
          "type": "uint256"
        },
        {
          "internalType": "uint256",
          "name": "poolFee",
          "type": "uint256"
        }
      ],
      "name": "recordCharge",
      "outputs": [],
      "stateMutability": "payable",
      "type": "function"
    },
    {
      "inputs": [],
      "name": "register",
      "outputs": [],
      "stateMutability": "nonpayable",
      "type": "function"
    },
    {
      "stateMutability": "payable",
      "type": "receive"
    }
  ],
  "address": "0x1e00d8Cf5CfAE0122ea8D8Fa4eC1d87a34F8b98E",
  "args": [],
  "bytecode": "0x608060405234801561001057600080fd5b5061088b806100206000396000f3fe60806040526004361061008a5760003560e01c8063b7ad765c11610059578063b7ad765c1461016a578063c79b24301461017f578063dde070e8146101b2578063ef737545146101e5578063ffdd5cf1146101fa576100cb565b80631aa3a008146100d05780631e42fdd0146100e757806341db47a01461010e578063820bef3414610138576100cb565b366100cb576040805133815234602082015281517f88a5966d370b9919b20f3e2c13ff65706f196a4e32cc2c12bf57088f88525874929181900390910190a1005b600080fd5b3480156100dc57600080fd5b506100e561025a565b005b3480156100f357600080fd5b506100fc6102d4565b60408051918252519081900360200190f35b34801561011a57600080fd5b506100e56004803603602081101561013157600080fd5b50356102db565b6100e56004803603606081101561014e57600080fd5b506001600160a01b0381351690602081013590604001356103b2565b34801561017657600080fd5b506100e5610436565b34801561018b57600080fd5b506100e5600480360360208110156101a257600080fd5b50356001600160a01b031661043f565b3480156101be57600080fd5b506100fc600480360360208110156101d557600080fd5b50356001600160a01b03166104d6565b3480156101f157600080fd5b506100fc6104e7565b34801561020657600080fd5b5061022d6004803603602081101561021d57600080fd5b50356001600160a01b03166104f3565b60408051958652602086019490945284840192909252606084015215156080830152519081900360a00190f35b6000546001600160a01b031633146102d2576000546001600160a01b0316156102bf576040805162461bcd60e51b81526020600482015260126024820152711053149150511657d49151d254d51154915160721b604482015290519081900360640190fd5b600080546001600160a01b031916331790555b565b6201437081565b6000546001600160a01b0316331461032b576040805162461bcd60e51b815260206004820152600e60248201526d1393d517d055551213d49256915160921b604482015290519081900360640190fd5b60015460408051630607176160e31b81526004810184905290516000926001600160a01b031691633038bb08916024808301926020929190829003018186803b15801561037757600080fd5b505afa15801561038b573d6000803e3d6000fd5b505050506040513d60208110156103a157600080fd5b505190506103ae8161055a565b5050565b6000546001600160a01b03163314610402576040805162461bcd60e51b815260206004820152600e60248201526d1393d517d055551213d49256915160921b604482015290519081900360640190fd5b506001600160a01b039190911660009081526002602090815260408083206201437042048452909152902080549091019055565b6102d23361055a565b7fb53127684a568b3173ae13b9f8a6016e243e63b6e8ee1178d6a717850b5d6103546001600160a01b03811661049e576001600160a01b037fb53127684a568b3173ae13b9f8a6016e243e63b6e8ee1178d6a717850b5d6103556104b3565b336001600160a01b038216146104b357600080fd5b50600180546001600160a01b0319166001600160a01b0392909216919091179055565b60006104e182610747565b92915050565b67058d15e17628000081565b600080600080600061050486610747565b9450479350620143704204925062014370426001600160a01b0390971660009081526003602090815260408083206000198801845290915290205495979496939593064203620286e0019360ff90931692915050565b620143704204806105a3576040805162461bcd60e51b815260206004820152600e60248201526d15d0525517d391561517d4d313d560921b604482015290519081900360640190fd5b6001600160a01b03821660009081526003602090815260408083206000198501845290915290205460ff1615610612576040805162461bcd60e51b815260206004820152600f60248201526e1053149150511657d0d31052535151608a1b604482015290519081900360640190fd5b600061061d83610747565b905060008111610667576040805162461bcd60e51b815260206004820152601060248201526f4e4f5448494e475f544f5f434c41494d60801b604482015290519081900360640190fd5b6001600160a01b03808416600081815260036020908152604080832060001988018452909152808220805460ff1916600117905581548151631383ec7d60e21b815260048101949094529051931692634e0fb1f4928592602480830193919282900301818588803b1580156106db57600080fd5b505af11580156106ef573d6000803e3d6000fd5b5050604080516001600160a01b03881681526020810186905260001987018183015290517f987d620f307ff6b94d58743cb7a7509f24071586a77759b77c2d4e29f75a2f9a94509081900360600192509050a1505050565b6000805460408051638fc0f5eb60e01b81526001600160a01b038581166004830152825147948694921692638fc0f5eb926024808301939192829003018186803b15801561079457600080fd5b505afa1580156107a8573d6000803e3d6000fd5b505050506040513d60408110156107be57600080fd5b5051905067058d15e1762800008111156107db5760009250610832565b61271067058d15e1762800008281038202046107fb6103e8856000610839565b028161080357fe5b04925081831115610812578192505b67058d15e1762800008382011115610832578067058d15e1762800000392505b5050919050565b60008161271066ffffffffffffff86168502040194935050505056fea26469706673582212203990af89623281184496189f757d0f07a5def0fd1b091304aa19c435f6bfb65264736f6c63430006050033",
  "execute": {
    "methodName": "postUpgrade",
    "args": [
      "0x789829086fdD2FB7c4cF545f86A67F230b42B334"
    ]
  },
  "devdoc": {
    "methods": {}
  },
  "userdoc": {
    "methods": {}
  },
  "storageLayout": {
    "storage": [
      {
        "astId": 10992,
        "contract": "src/player/UBF.sol:UBF",
        "label": "_playerContract",
        "offset": 0,
        "slot": "0",
        "type": "t_contract(Player)10512"
      },
      {
        "astId": 10994,
        "contract": "src/player/UBF.sol:UBF",
        "label": "_charactersContract",
        "offset": 0,
        "slot": "1",
        "type": "t_contract(Characters)469"
      },
      {
        "astId": 11000,
        "contract": "src/player/UBF.sol:UBF",
        "label": "_timeSlots",
        "offset": 0,
        "slot": "2",
        "type": "t_mapping(t_address,t_mapping(t_uint256,t_uint256))"
      },
      {
        "astId": 11006,
        "contract": "src/player/UBF.sol:UBF",
        "label": "_claimedSlots",
        "offset": 0,
        "slot": "3",
        "type": "t_mapping(t_address,t_mapping(t_uint256,t_bool))"
      }
    ],
    "types": {
      "t_address": {
        "encoding": "inplace",
        "label": "address",
        "numberOfBytes": "20"
      },
      "t_bool": {
        "encoding": "inplace",
        "label": "bool",
        "numberOfBytes": "1"
      },
      "t_contract(Characters)469": {
        "encoding": "inplace",
        "label": "contract Characters",
        "numberOfBytes": "20"
      },
      "t_contract(Player)10512": {
        "encoding": "inplace",
        "label": "contract Player",
        "numberOfBytes": "20"
      },
      "t_mapping(t_address,t_mapping(t_uint256,t_bool))": {
        "encoding": "mapping",
        "key": "t_address",
        "label": "mapping(address => mapping(uint256 => bool))",
        "numberOfBytes": "32",
        "value": "t_mapping(t_uint256,t_bool)"
      },
      "t_mapping(t_address,t_mapping(t_uint256,t_uint256))": {
        "encoding": "mapping",
        "key": "t_address",
        "label": "mapping(address => mapping(uint256 => uint256))",
        "numberOfBytes": "32",
        "value": "t_mapping(t_uint256,t_uint256)"
      },
      "t_mapping(t_uint256,t_bool)": {
        "encoding": "mapping",
        "key": "t_uint256",
        "label": "mapping(uint256 => bool)",
        "numberOfBytes": "32",
        "value": "t_bool"
      },
      "t_mapping(t_uint256,t_uint256)": {
        "encoding": "mapping",
        "key": "t_uint256",
        "label": "mapping(uint256 => uint256)",
        "numberOfBytes": "32",
        "value": "t_uint256"
      },
      "t_uint256": {
        "encoding": "inplace",
        "label": "uint256",
        "numberOfBytes": "32"
      }
    }
  }
}